{
  "contractName": "IExchange",
  "abi": [
    {
      "inputs": [
        {
          "internalType": "bytes4",
          "name": "assetType",
          "type": "bytes4"
        },
        {
          "internalType": "address",
          "name": "proxy",
          "type": "address"
        }
      ],
      "name": "setTransferProxy",
      "outputs": [],
      "stateMutability": "nonpayable",
      "type": "function"
    }
  ],
  "bytecode": "0x6080604052348015600f57600080fd5b50609c8061001e6000396000f3fe6080604052348015600f57600080fd5b506004361060285760003560e01c806330c642f114602d575b600080fd5b606060048036036040811015604157600080fd5b5080356001600160e01b03191690602001356001600160a01b03166062565b005b505056fea264697066735822122036ca9994129bca144f6e7e61ec033d945d7ed3d58c0c93e162783e5734cf165864736f6c63430007060033",
  "immutableReferences": {},
  "source": "// SPDX-License-Identifier: MIT\n\npragma solidity 0.7.6;\n\ncontract IExchange {\n  function setTransferProxy(bytes4 assetType, address proxy) external {\n  }\n}\n",
  "sourcePath": "/Users/kronas/WebstormProjects/gebrid-protocol-contracts/transfer-proxy/contracts/IExchange.sol",
  "compiler": {
    "name": "solc",
    "version": "0.7.6+commit.7338295f.Emscripten.clang"
  },
  "schemaVersion": "3.4.4",
  "updatedAt": "2022-10-29T10:45:51.729Z",
  "devdoc": {
    "kind": "dev",
    "methods": {},
    "version": 1
  },
  "userdoc": {
    "kind": "user",
    "methods": {},
    "version": 1
  }
}