{
  "contractName": "IExchange",
  "abi": [
    {
      "inputs": [
        {
          "internalType": "bytes4",
          "name": "assetType",
          "type": "bytes4"
        },
        {
          "internalType": "address",
          "name": "matcher",
          "type": "address"
        }
      ],
      "name": "setAssetMatcher",
      "outputs": [],
      "stateMutability": "nonpayable",
      "type": "function"
    }
  ],
  "bytecode": "0x6080604052348015600f57600080fd5b50609c8061001e6000396000f3fe6080604052348015600f57600080fd5b506004361060285760003560e01c8063b39deb4614602d575b600080fd5b606060048036036040811015604157600080fd5b5080356001600160e01b03191690602001356001600160a01b03166062565b005b505056fea2646970667358221220208be317cbee441facd8efb5f65b9ddf515090ff2674bffc68092d8664c6ac8764736f6c63430007060033",
  "immutableReferences": {},
  "source": "// SPDX-License-Identifier: MIT\n\npragma solidity 0.7.6;\n\ncontract IExchange{\n  function setAssetMatcher(bytes4 assetType, address matcher) external {\n  }\n}\n",
  "sourcePath": "/Users/kronas/WebstormProjects/gebrid-protocol-contracts/custom-matchers/contracts/IExchange.sol",
  "compiler": {
    "name": "solc",
    "version": "0.7.6+commit.7338295f.Emscripten.clang"
  },
  "schemaVersion": "3.4.4",
  "updatedAt": "2022-10-29T10:17:58.021Z",
  "devdoc": {
    "kind": "dev",
    "methods": {},
    "version": 1
  },
  "userdoc": {
    "kind": "user",
    "methods": {},
    "version": 1
  }
}