{
  "contractName": "AssetMatcherCollection",
  "abi": [
    {
      "inputs": [
        {
          "components": [
            {
              "internalType": "bytes4",
              "name": "assetClass",
              "type": "bytes4"
            },
            {
              "internalType": "bytes",
              "name": "data",
              "type": "bytes"
            }
          ],
          "internalType": "struct LibAsset.AssetType",
          "name": "leftAssetType",
          "type": "tuple"
        },
        {
          "components": [
            {
              "internalType": "bytes4",
              "name": "assetClass",
              "type": "bytes4"
            },
            {
              "internalType": "bytes",
              "name": "data",
              "type": "bytes"
            }
          ],
          "internalType": "struct LibAsset.AssetType",
          "name": "rightAssetType",
          "type": "tuple"
        }
      ],
      "name": "matchAssets",
      "outputs": [
        {
          "components": [
            {
              "internalType": "bytes4",
              "name": "assetClass",
              "type": "bytes4"
            },
            {
              "internalType": "bytes",
              "name": "data",
              "type": "bytes"
            }
          ],
          "internalType": "struct LibAsset.AssetType",
          "name": "",
          "type": "tuple"
        }
      ],
      "stateMutability": "view",
      "type": "function"
    }
  ],
  "bytecode": "0x608060405234801561001057600080fd5b506103e7806100206000396000f3fe608060405234801561001057600080fd5b506004361061002b5760003560e01c80636d3f7cb014610030575b600080fd5b61004361003e3660046102be565b610059565b604051610050919061031f565b60405180910390f35b610061610179565b81516001600160e01b0319166339d690a360e11b1480610092575081516001600160e01b03191663d8f960c160e01b145b806100ae575081516001600160e01b03191663025ceed960e61b145b806100c9575081516001600160e01b03191662737ea960e61b145b1561014f57600083602001518060200190518101906100e89190610272565b9050600083602001518060200190518101906101049190610293565b509050806001600160a01b0316826001600160a01b0316141561014c5750506040805180820190915282516001600160e01b0319168152602080840151908201529050610173565b50505b50604080518082018252600080825282516020818101909452908152918101919091525b92915050565b60408051808201909152600081526060602082015290565b80516001600160a01b03811681146101a857600080fd5b919050565b6000604082840312156101be578081fd5b6040516040810167ffffffffffffffff82821081831117156101dc57fe5b816040528293508435915063ffffffff60e01b821682146101fc57600080fd5b908252602090848201358181111561021357600080fd5b8501601f8101871361022457600080fd5b80358281111561023057fe5b610242601f8201601f1916850161038d565b9250808352878482840101111561025857600080fd5b808483018585013760009083018401525091015292915050565b600060208284031215610283578081fd5b61028c82610191565b9392505050565b600080604083850312156102a5578081fd5b6102ae83610191565b9150602083015190509250929050565b600080604083850312156102d0578182fd5b823567ffffffffffffffff808211156102e7578384fd5b6102f3868387016101ad565b93506020850135915080821115610308578283fd5b50610315858286016101ad565b9150509250929050565b6000602080835263ffffffff60e01b84511681840152808401516040808501528051806060860152835b8181101561036557828101840151868201608001528301610349565b818111156103765784608083880101525b50601f01601f191693909301608001949350505050565b60405181810167ffffffffffffffff811182821017156103a957fe5b60405291905056fea264697066735822122062a98c75c73847c6ba4077525a0a5eb07635812fbc1a028eede0ec7a479af3d364736f6c63430007060033",
  "immutableReferences": {},
  "source": "// SPDX-License-Identifier: MIT\n\npragma solidity 0.7.6;\npragma abicoder v2;\n\nimport \"@gebrid/exchange-interfaces/contracts/IAssetMatcher.sol\";\nimport \"@gebrid/lazy-mint/contracts/erc-721/LibERC721LazyMint.sol\";\nimport \"@gebrid/lazy-mint/contracts/erc-1155/LibERC1155LazyMint.sol\";\n\n/*\n * Custom matcher for collection (assetClass, that need any/all elements from collection)\n */\ncontract AssetMatcherCollection is IAssetMatcher {\n\n    bytes constant EMPTY = \"\";\n\n    function matchAssets(LibAsset.AssetType memory leftAssetType, LibAsset.AssetType memory rightAssetType) external view override returns (LibAsset.AssetType memory) {\n        if (\n            (rightAssetType.assetClass == LibAsset.ERC721_ASSET_CLASS) ||\n            (rightAssetType.assetClass == LibERC721LazyMint.ERC721_LAZY_ASSET_CLASS) ||\n            (rightAssetType.assetClass == LibAsset.ERC1155_ASSET_CLASS) ||\n            (rightAssetType.assetClass == LibERC1155LazyMint.ERC1155_LAZY_ASSET_CLASS)\n        ) {\n          (address leftToken) = abi.decode(leftAssetType.data, (address));\n          (address rightToken,) = abi.decode(rightAssetType.data, (address, uint));\n          if (leftToken == rightToken) {\n              return LibAsset.AssetType(rightAssetType.assetClass, rightAssetType.data);\n          }\n        }\n        return LibAsset.AssetType(0, EMPTY);\n    }\n}\n",
  "sourcePath": "@gebrid/custom-matchers/contracts/AssetMatcherCollection.sol",
  "compiler": {
    "name": "solc",
    "version": "0.7.6+commit.7338295f.Emscripten.clang"
  },
  "schemaVersion": "3.4.4",
  "updatedAt": "2022-10-29T10:34:29.033Z",
  "devdoc": {
    "kind": "dev",
    "methods": {},
    "version": 1
  },
  "userdoc": {
    "kind": "user",
    "methods": {},
    "version": 1
  }
}