{
  "contractName": "AuctionHouse1155",
  "abi": [
    {
      "anonymous": false,
      "inputs": [
        {
          "indexed": true,
          "internalType": "uint256",
          "name": "auctionId",
          "type": "uint256"
        },
        {
          "indexed": false,
          "internalType": "address",
          "name": "buyer",
          "type": "address"
        }
      ],
      "name": "AuctionBuyOut",
      "type": "event"
    },
    {
      "anonymous": false,
      "inputs": [
        {
          "indexed": true,
          "internalType": "uint256",
          "name": "auctionId",
          "type": "uint256"
        }
      ],
      "name": "AuctionCancelled",
      "type": "event"
    },
    {
      "anonymous": false,
      "inputs": [
        {
          "indexed": true,
          "internalType": "uint256",
          "name": "auctionId",
          "type": "uint256"
        },
        {
          "indexed": false,
          "internalType": "address",
          "name": "seller",
          "type": "address"
        }
      ],
      "name": "AuctionCreated",
      "type": "event"
    },
    {
      "anonymous": false,
      "inputs": [
        {
          "indexed": true,
          "internalType": "uint256",
          "name": "auctionId",
          "type": "uint256"
        }
      ],
      "name": "AuctionFinished",
      "type": "event"
    },
    {
      "anonymous": false,
      "inputs": [
        {
          "indexed": true,
          "internalType": "address",
          "name": "owner",
          "type": "address"
        },
        {
          "indexed": false,
          "internalType": "uint256",
          "name": "added",
          "type": "uint256"
        },
        {
          "indexed": false,
          "internalType": "uint256",
          "name": "total",
          "type": "uint256"
        }
      ],
      "name": "AvailableToWithdraw",
      "type": "event"
    },
    {
      "anonymous": false,
      "inputs": [
        {
          "indexed": true,
          "internalType": "uint256",
          "name": "auctionId",
          "type": "uint256"
        },
        {
          "indexed": false,
          "internalType": "address",
          "name": "buyer",
          "type": "address"
        },
        {
          "indexed": false,
          "internalType": "uint256",
          "name": "endTime",
          "type": "uint256"
        }
      ],
      "name": "BidPlaced",
      "type": "event"
    },
    {
      "anonymous": false,
      "inputs": [
        {
          "indexed": false,
          "internalType": "uint256",
          "name": "oldValue",
          "type": "uint256"
        },
        {
          "indexed": false,
          "internalType": "uint256",
          "name": "newValue",
          "type": "uint256"
        }
      ],
      "name": "MinimalDurationChanged",
      "type": "event"
    },
    {
      "anonymous": false,
      "inputs": [
        {
          "indexed": false,
          "internalType": "uint256",
          "name": "oldValue",
          "type": "uint256"
        },
        {
          "indexed": false,
          "internalType": "uint256",
          "name": "newValue",
          "type": "uint256"
        }
      ],
      "name": "MinimalStepChanged",
      "type": "event"
    },
    {
      "anonymous": false,
      "inputs": [
        {
          "indexed": true,
          "internalType": "address",
          "name": "previousOwner",
          "type": "address"
        },
        {
          "indexed": true,
          "internalType": "address",
          "name": "newOwner",
          "type": "address"
        }
      ],
      "name": "OwnershipTransferred",
      "type": "event"
    },
    {
      "anonymous": false,
      "inputs": [
        {
          "indexed": true,
          "internalType": "bytes4",
          "name": "assetType",
          "type": "bytes4"
        },
        {
          "indexed": false,
          "internalType": "address",
          "name": "proxy",
          "type": "address"
        }
      ],
      "name": "ProxyChange",
      "type": "event"
    },
    {
      "inputs": [],
      "name": "auctionId",
      "outputs": [
        {
          "internalType": "uint256",
          "name": "",
          "type": "uint256"
        }
      ],
      "stateMutability": "view",
      "type": "function"
    },
    {
      "inputs": [
        {
          "internalType": "uint96",
          "name": "newValue",
          "type": "uint96"
        }
      ],
      "name": "changeMinimalDuration",
      "outputs": [],
      "stateMutability": "nonpayable",
      "type": "function"
    },
    {
      "inputs": [
        {
          "internalType": "uint96",
          "name": "newValue",
          "type": "uint96"
        }
      ],
      "name": "changeMinimalStep",
      "outputs": [],
      "stateMutability": "nonpayable",
      "type": "function"
    },
    {
      "inputs": [],
      "name": "minimalDuration",
      "outputs": [
        {
          "internalType": "uint96",
          "name": "",
          "type": "uint96"
        }
      ],
      "stateMutability": "view",
      "type": "function"
    },
    {
      "inputs": [],
      "name": "minimalStepBasePoint",
      "outputs": [
        {
          "internalType": "uint96",
          "name": "",
          "type": "uint96"
        }
      ],
      "stateMutability": "view",
      "type": "function"
    },
    {
      "inputs": [
        {
          "internalType": "address",
          "name": "",
          "type": "address"
        },
        {
          "internalType": "address",
          "name": "",
          "type": "address"
        },
        {
          "internalType": "uint256[]",
          "name": "",
          "type": "uint256[]"
        },
        {
          "internalType": "uint256[]",
          "name": "",
          "type": "uint256[]"
        },
        {
          "internalType": "bytes",
          "name": "",
          "type": "bytes"
        }
      ],
      "name": "onERC1155BatchReceived",
      "outputs": [
        {
          "internalType": "bytes4",
          "name": "",
          "type": "bytes4"
        }
      ],
      "stateMutability": "nonpayable",
      "type": "function"
    },
    {
      "inputs": [
        {
          "internalType": "address",
          "name": "",
          "type": "address"
        },
        {
          "internalType": "address",
          "name": "",
          "type": "address"
        },
        {
          "internalType": "uint256",
          "name": "",
          "type": "uint256"
        },
        {
          "internalType": "uint256",
          "name": "",
          "type": "uint256"
        },
        {
          "internalType": "bytes",
          "name": "",
          "type": "bytes"
        }
      ],
      "name": "onERC1155Received",
      "outputs": [
        {
          "internalType": "bytes4",
          "name": "",
          "type": "bytes4"
        }
      ],
      "stateMutability": "nonpayable",
      "type": "function"
    },
    {
      "inputs": [],
      "name": "owner",
      "outputs": [
        {
          "internalType": "address",
          "name": "",
          "type": "address"
        }
      ],
      "stateMutability": "view",
      "type": "function"
    },
    {
      "inputs": [],
      "name": "renounceOwnership",
      "outputs": [],
      "stateMutability": "nonpayable",
      "type": "function"
    },
    {
      "inputs": [],
      "name": "royaltiesRegistry",
      "outputs": [
        {
          "internalType": "contract IRoyaltiesProvider",
          "name": "",
          "type": "address"
        }
      ],
      "stateMutability": "view",
      "type": "function"
    },
    {
      "inputs": [
        {
          "internalType": "contract IRoyaltiesProvider",
          "name": "newRoyaltiesRegistry",
          "type": "address"
        }
      ],
      "name": "setRoyaltiesRegistry",
      "outputs": [],
      "stateMutability": "nonpayable",
      "type": "function"
    },
    {
      "inputs": [
        {
          "internalType": "bytes4",
          "name": "assetType",
          "type": "bytes4"
        },
        {
          "internalType": "address",
          "name": "proxy",
          "type": "address"
        }
      ],
      "name": "setTransferProxy",
      "outputs": [],
      "stateMutability": "nonpayable",
      "type": "function"
    },
    {
      "inputs": [
        {
          "internalType": "address",
          "name": "newOwner",
          "type": "address"
        }
      ],
      "name": "transferOwnership",
      "outputs": [],
      "stateMutability": "nonpayable",
      "type": "function"
    },
    {
      "inputs": [
        {
          "internalType": "address",
          "name": "_to",
          "type": "address"
        }
      ],
      "name": "withdrawFaultyBid",
      "outputs": [],
      "stateMutability": "nonpayable",
      "type": "function"
    },
    {
      "inputs": [
        {
          "internalType": "address",
          "name": "newDefaultFeeReceiver",
          "type": "address"
        },
        {
          "internalType": "contract IRoyaltiesProvider",
          "name": "newRoyaltiesProvider",
          "type": "address"
        },
        {
          "internalType": "address",
          "name": "_transferProxy",
          "type": "address"
        },
        {
          "internalType": "address",
          "name": "_erc20TransferProxy",
          "type": "address"
        },
        {
          "internalType": "uint64",
          "name": "newProtocolFee",
          "type": "uint64"
        },
        {
          "internalType": "uint96",
          "name": "_minimalStepBasePoint",
          "type": "uint96"
        }
      ],
      "name": "__AuctionHouse1155_init",
      "outputs": [],
      "stateMutability": "nonpayable",
      "type": "function"
    },
    {
      "inputs": [
        {
          "internalType": "address",
          "name": "_sellToken",
          "type": "address"
        },
        {
          "internalType": "uint96",
          "name": "_sellTokenValue",
          "type": "uint96"
        },
        {
          "internalType": "uint256",
          "name": "_sellTokenId",
          "type": "uint256"
        },
        {
          "internalType": "address",
          "name": "_buyAsset",
          "type": "address"
        },
        {
          "internalType": "uint96",
          "name": "minimalPrice",
          "type": "uint96"
        },
        {
          "internalType": "bytes4",
          "name": "dataType",
          "type": "bytes4"
        },
        {
          "internalType": "bytes",
          "name": "data",
          "type": "bytes"
        }
      ],
      "name": "startAuction",
      "outputs": [],
      "stateMutability": "nonpayable",
      "type": "function"
    },
    {
      "inputs": [
        {
          "internalType": "uint256",
          "name": "_auctionId",
          "type": "uint256"
        },
        {
          "components": [
            {
              "internalType": "uint256",
              "name": "amount",
              "type": "uint256"
            },
            {
              "internalType": "bytes4",
              "name": "dataType",
              "type": "bytes4"
            },
            {
              "internalType": "bytes",
              "name": "data",
              "type": "bytes"
            }
          ],
          "internalType": "struct AuctionHouseBase.Bid",
          "name": "bid",
          "type": "tuple"
        }
      ],
      "name": "putBid",
      "outputs": [],
      "stateMutability": "payable",
      "type": "function"
    },
    {
      "inputs": [
        {
          "internalType": "uint256",
          "name": "_auctionId",
          "type": "uint256"
        }
      ],
      "name": "getMinimalNextBid",
      "outputs": [
        {
          "internalType": "uint256",
          "name": "minBid",
          "type": "uint256"
        }
      ],
      "stateMutability": "view",
      "type": "function"
    },
    {
      "inputs": [
        {
          "internalType": "uint256",
          "name": "_auctionId",
          "type": "uint256"
        }
      ],
      "name": "checkAuctionExistence",
      "outputs": [
        {
          "internalType": "bool",
          "name": "",
          "type": "bool"
        }
      ],
      "stateMutability": "view",
      "type": "function"
    },
    {
      "inputs": [
        {
          "internalType": "uint256",
          "name": "_auctionId",
          "type": "uint256"
        }
      ],
      "name": "finishAuction",
      "outputs": [],
      "stateMutability": "nonpayable",
      "type": "function"
    },
    {
      "inputs": [
        {
          "internalType": "uint256",
          "name": "_auctionId",
          "type": "uint256"
        }
      ],
      "name": "checkAuctionRangeTime",
      "outputs": [
        {
          "internalType": "bool",
          "name": "",
          "type": "bool"
        }
      ],
      "stateMutability": "view",
      "type": "function"
    },
    {
      "inputs": [
        {
          "internalType": "uint256",
          "name": "_auctionId",
          "type": "uint256"
        }
      ],
      "name": "cancel",
      "outputs": [],
      "stateMutability": "nonpayable",
      "type": "function"
    },
    {
      "inputs": [
        {
          "internalType": "uint256",
          "name": "_auctionId",
          "type": "uint256"
        },
        {
          "components": [
            {
              "internalType": "uint256",
              "name": "amount",
              "type": "uint256"
            },
            {
              "internalType": "bytes4",
              "name": "dataType",
              "type": "bytes4"
            },
            {
              "internalType": "bytes",
              "name": "data",
              "type": "bytes"
            }
          ],
          "internalType": "struct AuctionHouseBase.Bid",
          "name": "bid",
          "type": "tuple"
        }
      ],
      "name": "buyOut",
      "outputs": [],
      "stateMutability": "payable",
      "type": "function"
    },
    {
      "inputs": [
        {
          "internalType": "uint256",
          "name": "_auctionId",
          "type": "uint256"
        }
      ],
      "name": "getCurrentBuyer",
      "outputs": [
        {
          "internalType": "address",
          "name": "",
          "type": "address"
        }
      ],
      "stateMutability": "view",
      "type": "function"
    },
    {
      "inputs": [
        {
          "internalType": "bytes4",
          "name": "interfaceId",
          "type": "bytes4"
        }
      ],
      "name": "supportsInterface",
      "outputs": [
        {
          "internalType": "bool",
          "name": "",
          "type": "bool"
        }
      ],
      "stateMutability": "view",
      "type": "function"
    }
  ],
  "bytecode": "0x608060405234801561001057600080fd5b506154bf806100206000396000f3fe6080604052600436106101665760003560e01c8063715018a6116100d1578063bc197c811161008a578063e68aceae11610064578063e68aceae146103fb578063ec5783481461041b578063f23a6e611461043b578063f2fde38b1461045b57610166565b8063bc197c811461038e578063bd9d21bd146103bb578063cf266ed0146103db57610166565b8063715018a6146102fc57806374d0d4f9146103115780638da5cb5b14610331578063914bf5f914610346578063a2a106b81461035b578063a6f4a3e01461037b57610166565b80633be89922116101235780633be899221461024757806340e58ee514610267578063506a90e7146102875780635f4a436e1461029a5780636d8f0694146102ba5780636eeb69db146102dc57610166565b806301ffc9a71461016b5780630d607964146101a157806310782f8f146101ce5780632f572336146101e357806330c642f1146102055780633631881514610227575b600080fd5b34801561017757600080fd5b5061018b610186366004614b23565b61047b565b6040516101989190614da2565b60405180910390f35b3480156101ad57600080fd5b506101c16101bc366004614c21565b6104f9565b60405161019891906152b8565b3480156101da57600080fd5b506101c161074b565b3480156101ef57600080fd5b506101f8610752565b60405161019891906152cf565b34801561021157600080fd5b50610225610220366004614b3d565b610762565b005b34801561023357600080fd5b50610225610242366004614cd8565b610833565b34801561025357600080fd5b50610225610262366004614642565b610905565b34801561027357600080fd5b50610225610282366004614c21565b61098a565b610225610295366004614c39565b610d0e565b3480156102a657600080fd5b506102256102b5366004614cd8565b611323565b3480156102c657600080fd5b506102cf611406565b6040516101989190614cf7565b3480156102e857600080fd5b506102cf6102f7366004614c21565b611416565b34801561030857600080fd5b50610225611435565b34801561031d57600080fd5b5061022561032c3660046149a6565b6114e1565b34801561033d57600080fd5b506102cf6115d8565b34801561035257600080fd5b506101f86115e7565b34801561036757600080fd5b5061018b610376366004614c21565b6115fe565b610225610389366004614c39565b611623565b34801561039a57600080fd5b506103ae6103a9366004614897565b6119ab565b6040516101989190614dad565b3480156103c757600080fd5b506102256103d6366004614642565b6119bc565b3480156103e757600080fd5b506102256103f6366004614c21565b611a2c565b34801561040757600080fd5b50610225610416366004614a32565b611ea8565b34801561042757600080fd5b5061018b610436366004614c21565b6122b9565b34801561044757600080fd5b506103ae610456366004614940565b6123a7565b34801561046757600080fd5b50610225610476366004614642565b6123b8565b6040516301ffc9a760e01b815260009030906301ffc9a7906104a1908590600401614dad565b60206040518083038186803b1580156104b957600080fd5b505afa1580156104cd573d6000803e3d6000fd5b505050506040513d601f19601f820116820180604052508101906104f19190614b03565b90505b919050565b60008181526101c66020908152604080832081516101808101835281546001600160a01b038082168352600160a01b918290046001600160601b039081168488015260018086015485880152600280870154938416606080880191909152949093049091166080850152855192830186526003850180548452600486015460e01b6001600160e01b0319168489015260058601805488516101009482161594909402600019011693909304601f810189900489028301890188528083528998959760a08901969294908601939290919083018282801561061a5780601f106105ef5761010080835404028352916020019161061a565b820191906000526020600020905b8154815290600101906020018083116105fd57829003601f168201915b50505091909252505050815260068201546001600160a01b03808216602080850191909152600160a01b928390046001600160601b0316604080860191909152600786015492831660608601529282046001600160401b03166080850152600160e01b90910460e01b6001600160e01b03191660a0840152600884018054835160026101006001841615026000190190921691909104601f810184900484028201840190945283815260c09094019392909183018282801561071d5780601f106106f25761010080835404028352916020019161071d565b820191906000526020600020905b81548152906001019060200180831161070057829003601f168201915b50505050508152505090506107448161010001518260e001518360a00151600001516124bb565b9392505050565b6101925481565b610193546001600160601b031681565b61076a61250d565b6001600160a01b031661077b6115d8565b6001600160a01b0316146107c4576040805162461bcd60e51b8152602060048201819052602482015260008051602061546a833981519152604482015290519081900360640190fd5b6001600160e01b03198216600081815261015f60205260409081902080546001600160a01b0319166001600160a01b038516179055517f4b5aced933c0c9a88aeac3f0b3b72c5aaf75df8ebaf53225773248c4c315359390610827908490614cf7565b60405180910390a25050565b61083b61250d565b6001600160a01b031661084c6115d8565b6001600160a01b031614610895576040805162461bcd60e51b8152602060048201819052602482015260008051602061546a833981519152604482015290519081900360640190fd5b610193546040517fa13d21133118bfdffd1e4dc724faaadc5860dcb38ac5836e06f183ac5306b279916108d5916001600160601b039091169084906152e3565b60405180910390a161019380546bffffffffffffffffffffffff19166001600160601b0392909216919091179055565b61090d61250d565b6001600160a01b031661091e6115d8565b6001600160a01b031614610967576040805162461bcd60e51b8152602060048201819052602482015260008051602061546a833981519152604482015290519081900360640190fd5b61012e80546001600160a01b0319166001600160a01b0392909216919091179055565b600260fb5414156109d0576040805162461bcd60e51b815260206004820152601f60248201526000805160206153b5833981519152604482015290519081900360640190fd5b600260fb81905560008281526101c66020908152604080832081516101808101835281546001600160a01b038082168352600160a01b918290046001600160601b039081168488015260018086015485880152858a015492831660608087019190915293909204166080840152845191820185526003840180548352600485015460e01b6001600160e01b0319168388015260058501805487516101009482161594909402600019011699909904601f8101889004880283018801875280835297989397949660a089019693959194938601939190830182828015610af65780601f10610acb57610100808354040283529160200191610af6565b820191906000526020600020905b815481529060010190602001808311610ad957829003601f168201915b50505091909252505050815260068201546001600160a01b03808216602080850191909152600160a01b928390046001600160601b0316604080860191909152600786015492831660608601529282046001600160401b03166080850152600160e01b90910460e01b6001600160e01b03191660a0840152600884018054835160026101006001841615026000190190921691909104601f810184900484028201840190945283815260c090940193929091830182828015610bf95780601f10610bce57610100808354040283529160200191610bf9565b820191906000526020600020905b815481529060010190602001808311610bdc57829003601f168201915b5050505050815250509050610c118160c00151612511565b610c365760405162461bcd60e51b8152600401610c2d90614ec1565b60405180910390fd5b60c0810151610c4361250d565b6001600160a01b0316816001600160a01b031614610c735760405162461bcd60e51b8152600401610c2d90614f8b565b6101008201516001600160a01b031615610c9f5760405162461bcd60e51b8152600401610c2d9061506c565b610cd08260000151836040015184602001516001600160601b031660008051602061544a833981519152308661251f565b610cd983612563565b60405183907f2809c7e17bf978fbc7194c0a694b638c4215e9140cacc6c38ca36010b45697df90600090a25050600160fb5550565b600260fb541415610d54576040805162461bcd60e51b815260206004820152601f60248201526000805160206153b5833981519152604482015290519081900360640190fd5b600260fb556000610d6361250d565b825160008581526101c66020908152604080832081516101808101835281546001600160a01b038082168352600160a01b918290046001600160601b039081168488015260018086015485880152600280870154938416606080880191909152949093049091166080850152855192830186526003850180548452600486015460e01b6001600160e01b0319168489015260058601805488516101009482161594909402600019011693909304601f810189900489028301890188528083529a9b50989997989397949660a089019693959386019391929190830182828015610e8d5780601f10610e6257610100808354040283529160200191610e8d565b820191906000526020600020905b815481529060010190602001808311610e7057829003601f168201915b50505091909252505050815260068201546001600160a01b03808216602080850191909152600160a01b928390046001600160601b0316604080860191909152600786015492831660608601529282046001600160401b03166080850152600160e01b90910460e01b6001600160e01b03191660a0840152600884018054835160026101006001841615026000190190921691909104601f810184900484028201840190945283815260c090940193929091830182828015610f905780601f10610f6557610100808354040283529160200191610f90565b820191906000526020600020905b815481529060010190602001808311610f7357829003601f168201915b50505050508152505090506000816080015190506000610fba8361016001518461014001516125f5565b90506000610fd087604001518860200151612657565b6000015190506103e88461012001516001600160401b0316610ff1836126ab565b8451610ffc906126ab565b0101111561101c5760405162461bcd60e51b8152600401610c2d90614e9d565b60608401516001600160a01b031661103a57865161103a90876126b1565b6110638460c0015185608001516001600160601b031684604001516001600160601b03166126ff565b61106d8286612735565b1561108b576110808488848b858b612776565b50505050505061131a565b61010084015142906001600160a01b031661111d5760208301516110b9906001600160601b03831690612932565b60008a81526101c66020526040902060020180546001600160601b03808416600160a01b026001600160a01b039092169190911790915560e0870151919550168610156111185760405162461bcd60e51b8152600401610c2d90614fc2565b611196565b866001600160a01b03168561010001516001600160a01b031614156111545760405162461bcd60e51b8152600401610c2d906150d2565b60006111728661010001518760e001518860a00151600001516124bb565b9050808710156111945760405162461bcd60e51b8152600401610c2d90614ef6565b505b60006111a58660600151612998565b90506111c686606001518761010001518a8960a00151858e600001516129ec565b60008a81526101c660209081526040918290208b51600382019081558c83015160048301805463ffffffff191660e09290921c919091179055928c015180518d94936112179360050192019061429b565b50505060008a81526101c66020526040812060070180546001600160a01b0319166001600160a01b038b16179055610193546001600160601b031690610384821061126457610384611266565b815b90506001600160601b038082169061128090891686612a05565b6001600160601b031610156112d5576112a26001600160601b03851682612932565b60008d81526101c66020526040902060020180546001600160a01b0316600160a01b6001600160601b0384160217905596505b8b7f0e54eff26401bf69b81b26f60bd85ef47f5d85275c1d268d84f68d6897431c478b89604051611307929190614d0b565b60405180910390a2505050505050505050505b5050600160fb55565b61132b61250d565b6001600160a01b031661133c6115d8565b6001600160a01b031614611385576040805162461bcd60e51b8152602060048201819052602482015260008051602061546a833981519152604482015290519081900360640190fd5b7f30bd79db520376a437e44c44c2b3ec63f6730f4df0a95f56ea39765f1420cab7610193600c9054906101000a90046001600160601b0316826040516113cc9291906152e3565b60405180910390a161019380546001600160601b03909216600160601b026bffffffffffffffffffffffff60601b19909216919091179055565b61012e546001600160a01b031681565b60009081526101c660205260409020600701546001600160a01b031690565b61143d61250d565b6001600160a01b031661144e6115d8565b6001600160a01b031614611497576040805162461bcd60e51b8152602060048201819052602482015260008051602061546a833981519152604482015290519081900360640190fd5b60c9546040516000916001600160a01b0316907f8be0079c531659141344cd1fd0a4f28419497f9722a3daafe3b4186f6b6457e0908390a360c980546001600160a01b0319169055565b600054610100900460ff16806114fa57506114fa612a74565b80611508575060005460ff16155b6115435760405162461bcd60e51b815260040180806020018281038252602e8152602001806153fb602e913960400191505060405180910390fd5b600054610100900460ff1615801561156e576000805460ff1961ff0019909116610100171660011790555b611576612a85565b61157e612b27565b611586612c20565b61158e612cbd565b61159782612d63565b6115a18585612e4b565b6115b5836001600160401b03168888612ef6565b6115bd612a85565b80156115cf576000805461ff00191690555b50505050505050565b60c9546001600160a01b031690565b61019354600160601b90046001600160601b031681565b60008181526101c660205260408120600601546104f1906001600160a01b0316612511565b600260fb541415611669576040805162461bcd60e51b815260206004820152601f60248201526000805160206153b5833981519152604482015290519081900360640190fd5b600260fb81905560008381526101c66020908152604080832081516101808101835281546001600160a01b038082168352600160a01b918290046001600160601b039081168488015260018086015485880152858a015492831660608087019190915293909204166080840152845191820185526003840180548352600485015460e01b6001600160e01b0319168388015260058501805487516101009482161594909402600019011699909904601f8101889004880283018801875280835297989397949660a08901969395919493860193919083018282801561178f5780601f106117645761010080835404028352916020019161178f565b820191906000526020600020905b81548152906001019060200180831161177257829003601f168201915b50505091909252505050815260068201546001600160a01b03808216602080850191909152600160a01b928390046001600160601b0316604080860191909152600786015492831660608601529282046001600160401b03166080850152600160e01b90910460e01b6001600160e01b03191660a0840152600884018054835160026101006001841615026000190190921691909104601f810184900484028201840190945283815260c0909401939290918301828280156118925780601f1061186757610100808354040283529160200191611892565b820191906000526020600020905b81548152906001019060200180831161187557829003601f168201915b505050505081525050905060006118b38261016001518361014001516125f5565b90506118de8260c0015183608001516001600160601b031683604001516001600160601b03166126ff565b60006118f284604001518560200151612657565b518451909150611903908390612735565b61191f5760405162461bcd60e51b8152600401610c2d9061503d565b6103e88361012001516001600160401b031661193a836126ab565b8451611945906126ab565b010111156119655760405162461bcd60e51b8152600401610c2d90614e9d565b600061196f61250d565b60608501519091506001600160a01b031661199057845161199090826126b1565b61199e848685898686612776565b5050600160fb5550505050565b63bc197c8160e01b95945050505050565b60006119c661250d565b6001600160a01b0381166000908152610191602052604090205490915080611a005760405162461bcd60e51b8152600401610c2d90615163565b6001600160a01b0380831660009081526101916020526040812055611a2790841682612fd2565b505050565b600260fb541415611a72576040805162461bcd60e51b815260206004820152601f60248201526000805160206153b5833981519152604482015290519081900360640190fd5b600260fb81905560008281526101c66020908152604080832081516101808101835281546001600160a01b038082168352600160a01b918290046001600160601b039081168488015260018086015485880152858a015492831660608087019190915293909204166080840152845191820185526003840180548352600485015460e01b6001600160e01b0319168388015260058501805487516101009482161594909402600019011699909904601f8101889004880283018801875280835297989397949660a089019693959194938601939190830182828015611b985780601f10611b6d57610100808354040283529160200191611b98565b820191906000526020600020905b815481529060010190602001808311611b7b57829003601f168201915b50505091909252505050815260068201546001600160a01b03808216602080850191909152600160a01b928390046001600160601b0316604080860191909152600786015492831660608601529282046001600160401b03166080850152600160e01b90910460e01b6001600160e01b03191660a0840152600884018054835160026101006001841615026000190190921691909104601f810184900484028201840190945283815260c090940193929091830182828015611c9b5780601f10611c7057610100808354040283529160200191611c9b565b820191906000526020600020905b815481529060010190602001808311611c7e57829003601f168201915b5050505050815250509050611cb38160c00151612511565b611ccf5760405162461bcd60e51b8152600401610c2d90614ec1565b6000611ce58261016001518361014001516125f5565b9050611d0b82608001516001600160601b031682604001516001600160601b031661306a565b158015611d2557506101008201516001600160a01b031615155b611d415760405162461bcd60e51b8152600401610c2d906151c0565b6000611d5d8360a00151604001518460a0015160200151612657565b600001519050611e926040518060a00160405280611da08660000151876040015188602001516001600160601b031660008051602061544a8339815191526130b3565b8152602001611db28660c00151613101565b8152602001611dc4856000015161319c565b815263025ceed960e61b60005261015f60209081527f6bb7d5147a8fb54909a95658247450b7e2bd8cbe89124ff5c9c4c921b1f0f121546001600160a01b03169082015230604091820152805160a08082019092526060870151918701515190918291611e319190613210565b8152602001611e44876101000151613101565b8152602001611e528561319c565b8152602001611e648760600151612998565b6001600160a01b0316815230602091820152604080518082019091526103e8815290810160025b9052613277565b5050611e9d84612563565b5050600160fb555050565b600080611eb583856125f5565b6101935460208201519192506001600160601b03908116911610801590611eff57506305265c006fffffffffffffffffffffffffffffffff1681602001516001600160601b031611155b611f1b5760405162461bcd60e51b8152600401610c2d90614f5f565b6000886001600160601b031611611f445760405162461bcd60e51b8152600401610c2d90614e2f565b6103e882611f5583600001516126ab565b011115611f745760405162461bcd60e51b8152600401610c2d90614e9d565b6000611f7e61337c565b90506000611f8a61250d565b905060006040518061018001604052808d6001600160a01b031681526020018c6001600160601b031681526020018b81526020018a6001600160a01b0316815260200160006001600160601b0316815260200160405180606001604052806000815260200160006001600160e01b0319168152602001604051806020016040528060008152508152508152602001836001600160a01b03168152602001896001600160601b0316815260200160006001600160a01b03168152602001866001600160401b03168152602001886001600160e01b0319168152602001878152509050806101c6600085815260200190815260200160002060008201518160000160006101000a8154816001600160a01b0302191690836001600160a01b0316021790555060208201518160000160146101000a8154816001600160601b0302191690836001600160601b031602179055506040820151816001015560608201518160020160006101000a8154816001600160a01b0302191690836001600160a01b0316021790555060808201518160020160146101000a8154816001600160601b0302191690836001600160601b0316021790555060a0820151816003016000820151816000015560208201518160010160006101000a81548163ffffffff021916908360e01c0217905550604082015181600201908051906020019061219192919061429b565b50505060c082015160068201805460e0808601516001600160601b0316600160a01b9081026001600160a01b039586166001600160a01b0319948516178616179093556101008601516007860180546101208901516101408a015190941c600160e01b026001600160e01b036001600160401b0390951690960267ffffffffffffffff60a01b1993909716941693909317169390931792909216179055610160820151805161224a91600884019160209091019061429b565b509050506122738c8b8d6001600160601b031660008051602061544a833981519152863061251f565b827f5d551e2a2cc977fd8c530317059b4f2d9f504fb82f7dfad736f8d56679bcdfd0836040516122a39190614cf7565b60405180910390a2505050505050505050505050565b60008181526101c6602090815260408083206002808201546008909201805484516101006001831615026000190190911692909204601f81018690048602830186019094528382526104f194600160a01b9093046001600160601b0316936123959383018282801561236c5780601f106123415761010080835404028352916020019161236c565b820191906000526020600020905b81548152906001019060200180831161234f57829003601f168201915b50505060008881526101c66020526040902060070154600160e01b900460e01b91506125f59050565b604001516001600160601b031661306a565b63f23a6e6160e01b95945050505050565b6123c061250d565b6001600160a01b03166123d16115d8565b6001600160a01b03161461241a576040805162461bcd60e51b8152602060048201819052602482015260008051602061546a833981519152604482015290519081900360640190fd5b6001600160a01b03811661245f5760405162461bcd60e51b81526004018080602001828103825260268152602001806153d56026913960400191505060405180910390fd5b60c9546040516001600160a01b038084169216907f8be0079c531659141344cd1fd0a4f28419497f9722a3daafe3b4186f6b6457e090600090a360c980546001600160a01b0319166001600160a01b0392909216919091179055565b60006001600160a01b0384166124db57506001600160601b038216610744565b61019354612505906124fe908490600160601b90046001600160601b031661338b565b83906133a3565b949350505050565b3390565b6001600160a01b0316151590565b61255b61252e878787876130b3565b6001600160e01b03198516600090815261015f6020526040902054849084906001600160a01b03166133fd565b505050505050565b60405181907f53ab6823c4ae8c865033f94ee16313a21c6ade19520d884dc804d622a43bc67490600090a260008181526101c66020526040812081815560018101829055600281018290556003810182815560048201805463ffffffff19169055909190816125d56005850182614327565b505060006006830181905560078301819055611a27906008840190614327565b6125fd61436b565b6001600160e01b03198216632611a13360e11b14156126395782511561263457828060200190518101906126319190614b73565b90505b612651565b60405162461bcd60e51b8152600401610c2d90615190565b92915050565b61265f614392565b6001600160e01b03198216632611a13360e11b14156126935782511561263457828060200190518101906126319190614be7565b60405162461bcd60e51b8152600401610c2d9061520b565b60a01c90565b34828110156126d25760405162461bcd60e51b8152600401610c2d90614fe9565b60006126de828561380f565b905080156126f9576126f96001600160a01b03841682612fd2565b50505050565b61270883612511565b80156127195750612719828261306a565b611a275760405162461bcd60e51b8152600401610c2d906150ff565b60008083606001516001600160601b031611801561276057508183606001516001600160601b031611155b1561276d57506001612651565b50600092915050565b60006127858760600151612998565b90506127a08760a00151886060015189610100015184613866565b60608701516000906001600160a01b03166127bc5750306127bf565b50815b6128e26040518060a001604052806127fc8b600001518c604001518d602001516001600160601b031660008051602061544a8339815191526130b3565b815260200161280e8b60c00151613101565b8152602001612820896000015161319c565b815263025ceed960e61b60005261015f60209081527f6bb7d5147a8fb54909a95658247450b7e2bd8cbe89124ff5c9c4c921b1f0f121546001600160a01b03169082015230604091820152805160a0810190915260608b01518a51829161288691613210565b815260200161289487613101565b81526020016128a28861319c565b8152602001856001600160a01b03168152602001846001600160a01b031681525060405180604001604052806103e88152602001600280811115611e8b57fe5b50506128ed85612563565b610192547f10373d853b64ae416c332eacb659de0f9bfc4fa3601556194abce1991061efbe846040516129209190614cf7565b60405180910390a25050505050505050565b60008282016001600160601b038085169082161015610744576040805162461bcd60e51b815260206004820152601b60248201527f536166654d6174683a206164646974696f6e206f766572666c6f770000000000604482015290519081900360640190fd5b6000806001600160a01b038316156104f15750506322ba176160e21b6000525061015f6020527f37a0f11a7c52ed6343a78a36fd0006c8cc3b240985add397f3caa41a44193d04546001600160a01b031690565b6129f883878785613866565b61255b8187863086613986565b6000826001600160601b0316826001600160601b03161115612a6e576040805162461bcd60e51b815260206004820152601e60248201527f536166654d6174683a207375627472616374696f6e206f766572666c6f770000604482015290519081900360640190fd5b50900390565b6000612a7f306139a2565b15905090565b600054610100900460ff1680612a9e5750612a9e612a74565b80612aac575060005460ff16155b612ae75760405162461bcd60e51b815260040180806020018281038252602e8152602001806153fb602e913960400191505060405180910390fd5b600054610100900460ff16158015612b12576000805460ff1961ff0019909116610100171660011790555b8015612b24576000805461ff00191690555b50565b600054610100900460ff1680612b405750612b40612a74565b80612b4e575060005460ff16155b612b895760405162461bcd60e51b815260040180806020018281038252602e8152602001806153fb602e913960400191505060405180910390fd5b600054610100900460ff16158015612bb4576000805460ff1961ff0019909116610100171660011790555b6000612bbe61250d565b60c980546001600160a01b0319166001600160a01b038316908117909155604051919250906000907f8be0079c531659141344cd1fd0a4f28419497f9722a3daafe3b4186f6b6457e0908290a3508015612b24576000805461ff001916905550565b600054610100900460ff1680612c395750612c39612a74565b80612c47575060005460ff16155b612c825760405162461bcd60e51b815260040180806020018281038252602e8152602001806153fb602e913960400191505060405180910390fd5b600054610100900460ff16158015612cad576000805460ff1961ff0019909116610100171660011790555b612b12630271189760e51b6139a8565b600054610100900460ff1680612cd65750612cd6612a74565b80612ce4575060005460ff16155b612d1f5760405162461bcd60e51b815260040180806020018281038252602e8152602001806153fb602e913960400191505060405180910390fd5b600054610100900460ff16158015612d4a576000805460ff1961ff0019909116610100171660011790555b600160fb558015612b24576000805461ff001916905550565b600054610100900460ff1680612d7c5750612d7c612a74565b80612d8a575060005460ff16155b612dc55760405162461bcd60e51b815260040180806020018281038252602e8152602001806153fb602e913960400191505060405180910390fd5b600054610100900460ff16158015612df0576000805460ff1961ff0019909116610100171660011790555b60016101925561019380546103846bffffffffffffffffffffffff19909116176bffffffffffffffffffffffff60601b1916600160601b6001600160601b038516021790558015612e47576000805461ff00191690555b5050565b61015f6020527f37a0f11a7c52ed6343a78a36fd0006c8cc3b240985add397f3caa41a44193d0480546001600160a01b039283166001600160a01b0319918216179091557f395075a018bfc52b97ac5ac6c81b5009d7cd5700f7d583893d57c0efe87b5d95805493909216928116831790915563025ceed960e61b6000527f6bb7d5147a8fb54909a95658247450b7e2bd8cbe89124ff5c9c4c921b1f0f12180549091169091179055565b600054610100900460ff1680612f0f5750612f0f612a74565b80612f1d575060005460ff16155b612f585760405162461bcd60e51b815260040180806020018281038252602e8152602001806153fb602e913960400191505060405180910390fd5b600054610100900460ff16158015612f83576000805460ff1961ff0019909116610100171660011790555b61012d84905561012f80546001600160a01b038086166001600160a01b03199283161790925561012e80549285169290911691909117905580156126f9576000805461ff001916905550505050565b6040516000906001600160a01b0384169083908381818185875af1925050503d806000811461301d576040519150601f19603f3d011682016040523d82523d6000602084013e613022565b606091505b5050905080611a27576040805162461bcd60e51b815260206004820152600f60248201526e1d1c985b9cd9995c8819985a5b1959608a1b604482015290519081900360640190fd5b600042821580159061307b57508083115b1561308a576000915050612651565b60008411801561309a5750808411155b156130a9576000915050612651565b5060019392505050565b6130bb6143a5565b602080820184905281516001600160e01b0319841690526040516130e3918791879101614d89565b60408051601f19818403018152919052815160200152949350505050565b60408051600180825281830190925260609160009190816020015b6131246143c5565b81526020019060019003908161311c579050509050828160008151811061314757fe5b6020026020010151600001906001600160a01b031690816001600160a01b0316815250506127108160008151811061317b57fe5b6020908102919091018101516001600160601b039092169101529050919050565b60408051600180825281830190925260609160009190816020015b6131bf6143c5565b8152602001906001900390816131b757905050905082816000815181106131e257fe5b60209081029190910101516001600160a01b039091169052613203836126ab565b8160008151811061317b57fe5b6132186143a5565b602081018290526001600160a01b03831661323e5780516355575f5d60e11b9052612651565b80516322ba176160e21b905260405161325b908490602001614cf7565b60408051601f1981840301815291905281516020015292915050565b825160209081015183519091015160018360200151600281111561329757fe5b14156132dc576132ac85858560000151613a2f565b91506132d7846000015160000151856000015160200151866080015188602001518860600151613c7e565b613374565b6002836020015160028111156132ee57fe5b141561332e5761330384868560000151613a2f565b90506132d7856000015160000151866000015160200151876080015187602001518960600151613c7e565b845180516020918201516080880151928701516060890151613351949190613c7e565b835180516020918201516080870151928801516060880151613374949190613c7e565b935093915050565b61019280546001810190915590565b600061074461271061339d8585613df8565b90613e51565b600082820183811015610744576040805162461bcd60e51b815260206004820152601b60248201527f536166654d6174683a206164646974696f6e206f766572666c6f770000000000604482015290519081900360640190fd5b8351516001600160e01b0319166339d690a360e11b141561354357600080856000015160200151806020019051810190613437919061486a565b91509150856020015160011461345f5760405162461bcd60e51b8152600401610c2d90615011565b6001600160a01b0385163014156134d757604051632142170760e11b81526001600160a01b038316906342842e0e906134a090309088908690600401614d2d565b600060405180830381600087803b1580156134ba57600080fd5b505af11580156134ce573d6000803e3d6000fd5b5050505061353c565b604051637b84dc8360e11b81526001600160a01b0384169063f709b90690613509908590899089908790600401614e05565b600060405180830381600087803b15801561352357600080fd5b505af1158015613537573d6000803e3d6000fd5b505050505b50506126f9565b8351516001600160e01b0319166322ba176160e21b14156136a157600084600001516020015180602001905181019061357c919061465e565b90506001600160a01b03841630141561363357602085015160405163a9059cbb60e01b81526001600160a01b0383169163a9059cbb916135c0918791600401614d89565b602060405180830381600087803b1580156135da57600080fd5b505af11580156135ee573d6000803e3d6000fd5b505050506040513d601f19601f820116820180604052508101906136129190614b03565b61362e5760405162461bcd60e51b8152600401610c2d906150a3565b61369b565b602085015160405163776062c360e01b81526001600160a01b0384169163776062c39161366891859189918991600401614e05565b600060405180830381600087803b15801561368257600080fd5b505af1158015613696573d6000803e3d6000fd5b505050505b506126f9565b8351516001600160e01b03191663025ceed960e61b141561375e576000808560000151602001518060200190518101906136db919061486a565b90925090506001600160a01b038516301415613726576020860151604051637921219560e11b81526001600160a01b0384169163f242432a916134a091309189918791600401614d51565b6020860151604051639c1c2ee960e01b81526001600160a01b03851691639c1c2ee9916135099186918a918a91889190600401614dc2565b8351516001600160e01b0319166355575f5d60e11b14156137a7576001600160a01b03821630146137a25760208401516137a2906001600160a01b03841690612fd2565b6126f9565b6040516354bc0cf160e01b81526001600160a01b038216906354bc0cf1906137d790879087908790600401615237565b600060405180830381600087803b1580156137f157600080fd5b505af1158015613805573d6000803e3d6000fd5b5050505050505050565b600082821115612a6e576040805162461bcd60e51b815260206004820152601e60248201527f536166654d6174683a207375627472616374696f6e206f766572666c6f770000604482015290519081900360640190fd5b6001600160a01b038216613879576126f9565b6001600160a01b03831661397b576000826001600160a01b031685600001516040516138a490614cf4565b60006040518083038185875af1925050503d80600081146138e1576040519150601f19603f3d011682016040523d82523d6000602084013e6138e6565b606091505b505090508061369b576001600160a01b03831660009081526101916020526040812054865190919061391890836133a3565b6001600160a01b03861660008181526101916020526040908190208390558951905192935090917e13bff06d622c14d54757ee0547a817dc3e491fb8da534f108a531b016dee3c9161396b9185906152c1565b60405180910390a25050506126f9565b83516126f990843085855b61399b6139938587613210565b8484846133fd565b5050505050565b3b151590565b6001600160e01b03198082161415613a07576040805162461bcd60e51b815260206004820152601c60248201527f4552433136353a20696e76616c696420696e7465726661636520696400000000604482015290519081900360640190fd5b6001600160e01b0319166000908152600160208190526040909120805460ff19169091179055565b6000613a48846000015160200151856040015184613eb8565b84518051855151602080880151930151608089015160608a01519596508695613a75959287929091613f1d565b90508460400151516001148015613a9157508360400151516001145b8015613ae657508460400151600081518110613aa957fe5b6020026020010151600001516001600160a01b03168460400151600081518110613acf57fe5b6020026020010151600001516001600160a01b0316145b15613bfc57604080516001808252818301909252600091816020015b613b0a6143c5565b815260200190600190039081613b025790505090508460400151600081518110613b3057fe5b60200260200101516000015181600081518110613b4957fe5b60209081029190910101516001600160a01b03909116905260408601518051600090613b7157fe5b6020026020010151602001518560400151600081518110613b8e57fe5b6020026020010151602001510181600081518110613ba857fe5b6020026020010151602001906001600160601b031690816001600160601b031681525050613bf286600001516000015183886000015160200151848a608001518b60600151614022565b509150613c559050565b613c2685600001516000015182876000015160200151886040015189608001518a60600151614022565b50855180516020909101516040870151608089015160608a0151949550613c51948693929190614022565b5090505b613c7685600001516000015182876080015187602001518960600151613c7e565b509392505050565b6000825111613c9f5760405162461bcd60e51b8152600401610c2d90614f1b565b600084815b6001855103811015613d6e576000613ce5868381518110613cc157fe5b6020026020010151602001516001600160601b03168961338b90919063ffffffff16565b9050613d1a868381518110613cf657fe5b6020026020010151602001516001600160601b0316856133a390919063ffffffff16565b93508015613d6557613d2c838261380f565b9250613d6560405180604001604052808b81526020018381525088888581518110613d5357fe5b602002602001015160000151886133fd565b50600101613ca4565b50600084600186510381518110613d8157fe5b60200260200101519050613dab81602001516001600160601b0316846133a390919063ffffffff16565b92508261271014613dce5760405162461bcd60e51b8152600401610c2d9061512c565b81156138055761380560405180604001604052808a815260200184815250878360000151876133fd565b600082613e0757506000612651565b82820282848281613e1457fe5b04146107445760405162461bcd60e51b81526004018080602001828103825260218152602001806154296021913960400191505060405180910390fd5b6000808211613ea7576040805162461bcd60e51b815260206004820152601a60248201527f536166654d6174683a206469766973696f6e206279207a65726f000000000000604482015290519081900360640190fd5b818381613eb057fe5b049392505050565b60008115613ec7575082610744565b8360005b8451811015613f1457613f0a6124fe868381518110613ee657fe5b6020026020010151602001516001600160601b03168861338b90919063ffffffff16565b9150600101613ecb565b50949350505050565b600080613f29886140d7565b905080516001148015613f3d575086516001145b8015613f8a575086600081518110613f5157fe5b6020026020010151600001516001600160a01b031681600081518110613f7357fe5b6020026020010151600001516001600160a01b0316145b15613fdb5761138881600081518110613f9f57fe5b6020026020010151602001516001600160601b03161115613fd25760405162461bcd60e51b8152600401610c2d90614e66565b85915050614017565b600080613fec8b8989868a8a614022565b915091506113888111156140125760405162461bcd60e51b8152600401610c2d90614e66565b509150505b979650505050505050565b846000805b85518110156140cb5761406386828151811061403f57fe5b6020026020010151602001516001600160601b0316836133a390919063ffffffff16565b91506000614092848989858151811061407857fe5b6020026020010151602001516001600160601b031661424c565b909450905080156140c2576140c260405180604001604052808c81526020018381525087898581518110613d5357fe5b50600101614027565b50965096945050505050565b80516060906001600160e01b03191663025ceed960e61b148061410b575081516001600160e01b0319166339d690a360e11b145b156141c157600080836020015180602001905181019061412b919061486a565b61012e54604051634e53ee3d60e11b81529294509092506001600160a01b031690639ca7dc7a906141629085908590600401614d89565b600060405180830381600087803b15801561417c57600080fd5b505af1158015614190573d6000803e3d6000fd5b505050506040513d6000823e601f3d908101601f191682016040526141b89190810190614ad1565b925050506104f4565b81516001600160e01b03191662737ea960e61b141561420257600082602001518060200190518101906141f4919061467a565b6080015192506104f4915050565b81516001600160e01b03191663d8f960c160e01b141561424457600082602001518060200190518101906142369190614777565b6060015192506104f4915050565b506060919050565b6000806142628561425d868661338b565b61426e565b91509150935093915050565b6000808284111561428d57614283848461380f565b9150829050614294565b5060009050825b9250929050565b828054600181600116156101000203166002900490600052602060002090601f0160209004810192826142d15760008555614317565b82601f106142ea57805160ff1916838001178555614317565b82800160010185558215614317579182015b828111156143175782518255916020019190600101906142fc565b506143239291506143dc565b5090565b50805460018160011615610100020316600290046000825580601f1061434d5750612b24565b601f016020900490600052602060002090810190612b2491906143dc565b60408051608081018252600080825260208201819052918101829052606081019190915290565b6040518060200160405280600081525090565b60405180604001604052806143b86143f1565b8152602001600081525090565b604080518082019091526000808252602082015290565b5b8082111561432357600081556001016143dd565b60408051808201909152600081526060602082015290565b600061441c6144178461533d565b6152fd565b905082815283838301111561443057600080fd5b61074483602083018461535e565b600082601f83011261444e578081fd5b8151602061445e61441783615320565b82815281810190858301855b858110156144a8578151880189603f820112614484578788fd5b6144958a8783015160408401614409565b855250928401929084019060010161446a565b5090979650505050505050565b600082601f8301126144c5578081fd5b815160206144d561441783615320565b828152818101908583016040808602880185018910156144f3578687fd5b865b868110156145575781838b03121561450b578788fd5b81518281018181106001600160401b038211171561452557fe5b835283516145328161538a565b8152838701516145418161539f565b81880152855293850193918101916001016144f5565b509198975050505050505050565b600082601f830112614575578081fd5b8135602061458561441783615320565b82815281810190858301838502870184018810156145a1578586fd5b855b858110156144a8578135845292840192908401906001016145a3565b80356001600160e01b0319811681146104f457600080fd5b600082601f8301126145e7578081fd5b81356145f56144178261533d565b818152846020838601011115614609578283fd5b816020850160208301379081016020019190915292915050565b600082601f830112614633578081fd5b61074483835160208501614409565b600060208284031215614653578081fd5b81356107448161538a565b60006020828403121561466f578081fd5b81516107448161538a565b6000806040838503121561468c578081fd5b82516146978161538a565b60208401519092506001600160401b03808211156146b3578283fd5b9084019060c082870312156146c6578283fd5b6146d060c06152fd565b825181526020830151828111156146e5578485fd5b6146f188828601614623565b60208301525060408301516040820152606083015182811115614712578485fd5b61471e888286016144b5565b606083015250608083015182811115614735578485fd5b614741888286016144b5565b60808301525060a083015182811115614758578485fd5b6147648882860161443e565b60a0830152508093505050509250929050565b60008060408385031215614789578182fd5b82516147948161538a565b60208401519092506001600160401b03808211156147b0578283fd5b9084019060a082870312156147c3578283fd5b6147cd60a06152fd565b825181526020830151828111156147e2578485fd5b6147ee88828601614623565b602083015250604083015182811115614805578485fd5b614811888286016144b5565b604083015250606083015182811115614828578485fd5b614834888286016144b5565b60608301525060808301518281111561484b578485fd5b6148578882860161443e565b6080830152508093505050509250929050565b6000806040838503121561487c578182fd5b82516148878161538a565b6020939093015192949293505050565b600080600080600060a086880312156148ae578081fd5b85356148b98161538a565b945060208601356148c98161538a565b935060408601356001600160401b03808211156148e4578283fd5b6148f089838a01614565565b94506060880135915080821115614905578283fd5b61491189838a01614565565b93506080880135915080821115614926578283fd5b50614933888289016145d7565b9150509295509295909350565b600080600080600060a08688031215614957578283fd5b85356149628161538a565b945060208601356149728161538a565b9350604086013592506060860135915060808601356001600160401b0381111561499a578182fd5b614933888289016145d7565b60008060008060008060c087890312156149be578384fd5b86356149c98161538a565b955060208701356149d98161538a565b945060408701356149e98161538a565b935060608701356149f98161538a565b925060808701356001600160401b0381168114614a14578182fd5b915060a0870135614a248161539f565b809150509295509295509295565b600080600080600080600060e0888a031215614a4c578485fd5b8735614a578161538a565b96506020880135614a678161539f565b9550604088013594506060880135614a7e8161538a565b93506080880135614a8e8161539f565b9250614a9c60a089016145bf565b915060c08801356001600160401b03811115614ab6578182fd5b614ac28a828b016145d7565b91505092959891949750929550565b600060208284031215614ae2578081fd5b81516001600160401b03811115614af7578182fd5b612505848285016144b5565b600060208284031215614b14578081fd5b81518015158114610744578182fd5b600060208284031215614b34578081fd5b610744826145bf565b60008060408385031215614b4f578182fd5b614b58836145bf565b91506020830135614b688161538a565b809150509250929050565b600060808284031215614b84578081fd5b604051608081018181106001600160401b0382111715614ba057fe5b604052825181526020830151614bb58161539f565b60208201526040830151614bc88161539f565b60408201526060830151614bdb8161539f565b60608201529392505050565b600060208284031215614bf8578081fd5b604051602081018181106001600160401b0382111715614c1457fe5b6040529151825250919050565b600060208284031215614c32578081fd5b5035919050565b60008060408385031215614c4b578182fd5b8235915060208301356001600160401b0380821115614c68578283fd5b9084019060608287031215614c7b578283fd5b604051606081018181108382111715614c9057fe5b60405282358152614ca3602084016145bf565b6020820152604083013582811115614cb9578485fd5b614cc5888286016145d7565b6040830152508093505050509250929050565b600060208284031215614ce9578081fd5b81356107448161539f565b90565b6001600160a01b0391909116815260200190565b6001600160a01b039290921682526001600160601b0316602082015260400190565b6001600160a01b039384168152919092166020820152604081019190915260600190565b6001600160a01b0394851681529290931660208301526040820152606081019190915260a06080820181905260009082015260c00190565b6001600160a01b03929092168252602082015260400190565b901515815260200190565b6001600160e01b031991909116815260200190565b6001600160a01b03958616815293851660208501529190931660408301526060820192909252608081019190915260c060a0820181905260009082015260e00190565b6001600160a01b039485168152928416602084015292166040820152606081019190915260800190565b60208082526019908201527f696e636f7272656374205f73656c6c546f6b656e56616c756500000000000000604082015260600190565b6020808252601d908201527f526f79616c746965732061726520746f6f206869676820283e35302529000000604082015260600190565b6020808252600a908201526977726f6e67206665657360b01b604082015260600190565b6020808252818101527f7468657265206973206e6f2061756374696f6e20776974682074686973206964604082015260600190565b6020808252600b908201526a62696420746f6f206c6f7760a81b604082015260600190565b60208082526024908201527f7472616e736665725061796f7574733a206e6f7468696e6720746f207472616e60408201526339b332b960e11b606082015260800190565b60208082526012908201527134b731b7b93932b1ba10323ab930ba34b7b760711b604082015260600190565b6020808252601a908201527f61756374696f6e206f776e6572206e6f74206465746563746564000000000000604082015260600190565b6020808252600d908201526c189a59081d1bdbc81cdb585b1b609a1b604082015260600190565b6020808252600e908201526d0dcdee840cadcdeeaced0408aa8960931b604082015260600190565b60208082526012908201527132b9319b9918903b30b63ab29032b93937b960711b604082015260600190565b6020808252601590820152741b9bdd08195b9bdd59da08199bdc88189d5e5bdd5d605a1b604082015260600190565b6020808252601d908201527f63616e27742063616e63656c2061756374696f6e207769746820626964000000604082015260600190565b602080825260159082015274195c98cc8c081d1c985b9cd9995c8819985a5b1959605a1b604082015260600190565b602080825260139082015272185b1c9958591e481dda5b9b9a5b99c8189a59606a1b604082015260600190565b60208082526013908201527261756374696f6e20697320696e61637469766560681b604082015260600190565b6020808252601e908201527f53756d207061796f75747320427073206e6f7420657175616c20313030250000604082015260600190565b6020808252601390820152726e6f7468696e6720746f20776974686472617760681b604082015260600190565b60208082526016908201527577726f6e672061756374696f6e20646174615479706560501b604082015260600190565b6020808252602b908201527f6f6e6c7920656e6465642061756374696f6e2077697468206269642063616e2060408201526a189948199a5b9a5cda195960aa1b606082015260800190565b60208082526012908201527177726f6e672062696420646174615479706560701b604082015260600190565b60006060825284516040606084015263ffffffff60e01b81511660a084015260208101519050604060c084015280518060e085015261010061527f828287016020860161535e565b60209788015160808601526001600160a01b039687169785019790975293909416604083015250601f909101601f191601909101919050565b90815260200190565b918252602082015260400190565b6001600160601b0391909116815260200190565b6001600160601b0392831681529116602082015260400190565b6040518181016001600160401b038111828210171561531857fe5b604052919050565b60006001600160401b0382111561533357fe5b5060209081020190565b60006001600160401b0382111561535057fe5b50601f01601f191660200190565b60005b83811015615379578181015183820152602001615361565b838111156126f95750506000910152565b6001600160a01b0381168114612b2457600080fd5b6001600160601b0381168114612b2457600080fdfe5265656e7472616e637947756172643a207265656e7472616e742063616c6c004f776e61626c653a206e6577206f776e657220697320746865207a65726f2061646472657373496e697469616c697a61626c653a20636f6e747261637420697320616c726561647920696e697469616c697a6564536166654d6174683a206d756c7469706c69636174696f6e206f766572666c6f77973bb64086f173ec8099b7ed3d43da984f4a332e4417a08bc6a286e6402b05864f776e61626c653a2063616c6c6572206973206e6f7420746865206f776e6572a264697066735822122033836f28d67d69bb9dab72d0618aa907b46cfed22ae69af2a61607e93159a93464736f6c63430007060033",
  "immutableReferences": {},
  "source": "// SPDX-License-Identifier: MIT\n\npragma solidity 0.7.6;\npragma abicoder v2;\n\nimport \"./AuctionHouseBase1155.sol\";\n\nimport \"@openzeppelin/contracts-upgradeable/token/ERC1155/ERC1155HolderUpgradeable.sol\";\n\n/// @dev contract to create and interact with auctions\ncontract AuctionHouse1155 is ERC1155HolderUpgradeable, AuctionHouseBase1155 {\n    using SafeMathUpgradeable96 for uint96;\n    using SafeMathUpgradeable for uint;\n\n    function __AuctionHouse1155_init(\n        address newDefaultFeeReceiver,\n        IRoyaltiesProvider newRoyaltiesProvider,\n        address _transferProxy,\n        address _erc20TransferProxy,\n        uint64 newProtocolFee,\n        uint96 _minimalStepBasePoint\n    ) external initializer {\n        __Context_init_unchained();\n        __Ownable_init_unchained();\n        __ERC1155Receiver_init_unchained();\n        __ReentrancyGuard_init_unchained();\n        __AuctionHouseBase_init_unchained(_minimalStepBasePoint);\n        __TransferExecutor_init_unchained(_transferProxy, _erc20TransferProxy);\n        __GebridTransferManager_init_unchained(newProtocolFee, newDefaultFeeReceiver, newRoyaltiesProvider);\n        __AuctionHouse1155_init_unchained();\n    }\n\n    function __AuctionHouse1155_init_unchained() internal initializer {\n    }\n\n    /// @dev creates an auction and locks sell asset\n    function startAuction(\n        address _sellToken,\n        uint96 _sellTokenValue,\n        uint _sellTokenId,\n        address _buyAsset,\n        uint96 minimalPrice,\n        bytes4 dataType,\n        bytes memory data\n    ) external {\n        //todo: check if token contract supports ERC1155 interface?\n\n        uint _protocolFee;\n        LibAucDataV1.DataV1 memory aucData = LibAucDataV1.parse(data, dataType);\n        require(aucData.duration >= minimalDuration && aucData.duration <= MAX_DURATION, \"incorrect duration\");\n        require(_sellTokenValue > 0, \"incorrect _sellTokenValue\");\n        require(getValueFromData(aucData.originFee) + _protocolFee <= MAX_FEE_BASE_POINT, \"wrong fees\");\n\n        uint currentAuctionId = getNextAndIncrementAuctionId();\n        address payable sender = _msgSender();\n        Auction memory auc = Auction(\n            _sellToken,\n            _sellTokenValue,\n            _sellTokenId,\n            _buyAsset,\n            0,\n            Bid(0, \"\", \"\"),\n            sender,\n            minimalPrice,\n            payable(address(0)),\n            uint64(_protocolFee),\n            dataType,\n            data\n        );\n        auctions[currentAuctionId] = auc;\n\n        transferNFT(\n            _sellToken,\n            _sellTokenId,\n            _sellTokenValue,\n            LibAsset.ERC1155_ASSET_CLASS,\n            sender,\n            address(this)\n        );\n\n        emit AuctionCreated(currentAuctionId, sender);\n    }\n\n    /// @dev put a bid and return locked assets for the last bid\n    function putBid(uint _auctionId, Bid memory bid) payable public nonReentrant {\n        address payable newBuyer = _msgSender();\n        uint newAmount = bid.amount;\n        Auction memory currentAuction = auctions[_auctionId];\n        uint96 endTime = currentAuction.endTime;\n        LibAucDataV1.DataV1 memory aucData = LibAucDataV1.parse(currentAuction.data, currentAuction.dataType);\n        uint bidOriginFee = LibBidDataV1.parse(bid.data, bid.dataType).originFee;\n        require(getValueFromData(aucData.originFee) + getValueFromData(bidOriginFee) + currentAuction.protocolFee <= MAX_FEE_BASE_POINT, \"wrong fees\");\n\n        if (currentAuction.buyAsset == address(0)) {\n            checkEthReturnChange(bid.amount, newBuyer);\n        }\n        checkAuctionInProgress(currentAuction.seller, currentAuction.endTime, aucData.startTime);\n        if (buyOutVerify(aucData, newAmount)) {\n            _buyOut(\n                currentAuction,\n                bid,\n                aucData,\n                _auctionId,\n                bidOriginFee,\n                newBuyer\n            );\n            return;\n        }\n\n        uint96 currentTime = uint96(block.timestamp);\n        //start action if minimal price is met\n        if (currentAuction.buyer == address(0x0)) {//no bid at all\n            // set endTime if it's not set\n            endTime = currentTime.add(aucData.duration);\n            auctions[_auctionId].endTime = endTime;\n            require(newAmount >= currentAuction.minimalPrice, \"bid too small\");\n        } else {//there is bid in auction\n            require(currentAuction.buyer != newBuyer, \"already winning bid\");\n            uint256 minAmount = _getMinimalNextBid(currentAuction.buyer, currentAuction.minimalPrice, currentAuction.lastBid.amount);\n            require(newAmount >= minAmount, \"bid too low\");\n        }\n\n        address proxy = _getProxy(currentAuction.buyAsset);\n        reserveBid(\n            currentAuction.buyAsset,\n            currentAuction.buyer,\n            newBuyer,\n            currentAuction.lastBid,\n            proxy,\n            bid.amount\n        );\n        auctions[_auctionId].lastBid = bid;\n        auctions[_auctionId].buyer = newBuyer;\n\n        // auction is extended for EXTENSION_DURATION or minimalDuration if (minimalDuration < EXTENSION_DURATION)\n        uint96 minDur = minimalDuration;\n        uint96 extension = (minDur < EXTENSION_DURATION) ? minDur : EXTENSION_DURATION;\n\n        // extends auction time if it's about to end\n        if (endTime.sub(currentTime) < extension) {\n            endTime = currentTime.add(extension);\n            auctions[_auctionId].endTime = endTime;\n        }\n        emit BidPlaced(_auctionId, newBuyer, endTime);\n    }\n\n    /// @dev returns the minimal amount of the next bid (without fees)\n    function getMinimalNextBid(uint _auctionId) external view returns (uint minBid){\n        Auction memory currentAuction = auctions[_auctionId];\n        return _getMinimalNextBid(currentAuction.buyer, currentAuction.minimalPrice, currentAuction.lastBid.amount);\n    }\n\n    /// @dev returns true if auction exists, false otherwise\n    function checkAuctionExistence(uint _auctionId) external view returns (bool){\n        return _checkAuctionExistence(auctions[_auctionId].seller);\n    }\n\n    /// @dev finishes, deletes and transfers all assets for an auction if it's ended (it exists, it has at least one bid, now > endTme)\n    function finishAuction(uint _auctionId) external nonReentrant {\n        Auction memory currentAuction = auctions[_auctionId];\n        require(_checkAuctionExistence(currentAuction.seller), \"there is no auction with this id\");\n        LibAucDataV1.DataV1 memory aucData = LibAucDataV1.parse(currentAuction.data, currentAuction.dataType);\n        require(\n            !_checkAuctionRangeTime(currentAuction.endTime, aucData.startTime) &&\n            currentAuction.buyer != address(0),\n            \"only ended auction with bid can be finished\"\n        );\n        uint bidOriginFee = LibBidDataV1.parse(currentAuction.lastBid.data, currentAuction.lastBid.dataType).originFee;\n\n        doTransfers(\n            LibDeal.DealSide(\n                getSellAsset(\n                    currentAuction.sellToken,\n                    currentAuction.sellTokenId,\n                    currentAuction.sellTokenValue,\n                    LibAsset.ERC1155_ASSET_CLASS\n                ),\n                getPayouts(currentAuction.seller),\n                getOriginFee(aucData.originFee),\n                proxies[LibAsset.ERC1155_ASSET_CLASS],\n                address(this)\n            ),\n            LibDeal.DealSide(\n                getBuyAsset(\n                    currentAuction.buyAsset,\n                    currentAuction.lastBid.amount\n                ),\n                getPayouts(currentAuction.buyer),\n                getOriginFee(bidOriginFee),\n                _getProxy(currentAuction.buyAsset),\n                address(this)\n            ),\n            LibDeal.DealData(\n                MAX_FEE_BASE_POINT,\n                LibFeeSide.FeeSide.RIGHT\n            )\n        );\n        deactivateAuction(_auctionId);\n    }\n\n    /// @dev returns true if auction started and hasn't finished yet, false otherwise\n    function checkAuctionRangeTime(uint _auctionId) external view returns (bool){\n        return _checkAuctionRangeTime(auctions[_auctionId].endTime, LibAucDataV1.parse(auctions[_auctionId].data, auctions[_auctionId].dataType).startTime);\n    }\n\n    /// @dev deletes auction after finalizing\n    function deactivateAuction(uint _auctionId) internal {\n        emit AuctionFinished(_auctionId);\n        delete auctions[_auctionId];\n    }\n\n    /// @dev cancels existing auction without bid\n    function cancel(uint _auctionId) external nonReentrant {\n        Auction memory currentAuction = auctions[_auctionId];\n        require(_checkAuctionExistence(currentAuction.seller), \"there is no auction with this id\");\n        address seller = currentAuction.seller;\n        require(seller == _msgSender(), \"auction owner not detected\");\n        require(currentAuction.buyer == address(0), \"can't cancel auction with bid\");\n        transferNFT(\n            currentAuction.sellToken,\n            currentAuction.sellTokenId,\n            currentAuction.sellTokenValue,\n            LibAsset.ERC1155_ASSET_CLASS,\n            address(this),\n            seller\n        );\n        deactivateAuction(_auctionId);\n        emit AuctionCancelled(_auctionId);\n    }\n\n    // todo will there be a problem if buyer is last bidder?\n    /// @dev buyout auction if bid satisfies buyout condition\n    function buyOut(uint _auctionId, Bid memory bid) external payable nonReentrant {\n        Auction memory currentAuction = auctions[_auctionId];\n        LibAucDataV1.DataV1 memory aucData = LibAucDataV1.parse(currentAuction.data, currentAuction.dataType);\n        checkAuctionInProgress(currentAuction.seller, currentAuction.endTime, aucData.startTime);\n        uint bidOriginFee = LibBidDataV1.parse(bid.data, bid.dataType).originFee;\n\n        require(buyOutVerify(aucData, bid.amount), \"not enough for buyout\");\n        require(getValueFromData(aucData.originFee) + getValueFromData(bidOriginFee) + currentAuction.protocolFee <= MAX_FEE_BASE_POINT, \"wrong fees\");\n\n        address sender = _msgSender();\n        if (currentAuction.buyAsset == address(0)) {\n            checkEthReturnChange(bid.amount, sender);\n        }\n        _buyOut(\n            currentAuction,\n            bid,\n            aucData,\n            _auctionId,\n            bidOriginFee,\n            sender\n        );\n    }\n\n    function _buyOut(\n        Auction memory currentAuction,\n        Bid memory bid,\n        LibAucDataV1.DataV1 memory aucData,\n        uint _auctionId,\n        uint newBidOriginFee,\n        address sender\n    ) internal {\n        address proxy = _getProxy(currentAuction.buyAsset);\n\n        _returnBid(\n            currentAuction.lastBid,\n            currentAuction.buyAsset,\n            currentAuction.buyer,\n            proxy\n        );\n\n        address from;\n        if (currentAuction.buyAsset == address(0)) {\n            // if buyAsset = ETH\n            from = address(this);\n        } else {\n            // if buyAsset = ERC20\n            from = sender;\n        }\n        doTransfers(\n            LibDeal.DealSide(\n                getSellAsset(\n                    currentAuction.sellToken,\n                    currentAuction.sellTokenId,\n                    currentAuction.sellTokenValue,\n                    LibAsset.ERC1155_ASSET_CLASS\n                ),\n                getPayouts(currentAuction.seller),\n                getOriginFee(aucData.originFee),\n                proxies[LibAsset.ERC1155_ASSET_CLASS],\n                address(this)\n            ),\n            LibDeal.DealSide(\n                getBuyAsset(\n                    currentAuction.buyAsset,\n                    bid.amount\n                ),\n                getPayouts(sender),\n                getOriginFee(newBidOriginFee),\n                proxy,\n                from\n            ),\n            LibDeal.DealData(\n                MAX_FEE_BASE_POINT,\n                LibFeeSide.FeeSide.RIGHT\n            )\n        );\n\n        deactivateAuction(_auctionId);\n        emit AuctionBuyOut(auctionId, sender);\n    }\n\n    /// @dev returns current highest bidder for an auction\n    function getCurrentBuyer(uint _auctionId) external view returns(address) {\n        return auctions[_auctionId].buyer;\n    }\n\n    function supportsInterface(bytes4 interfaceId) public view virtual override returns (bool) {\n        return this.supportsInterface(interfaceId);\n    }\n\n}\n",
  "sourcePath": "@gebrid/auction/contracts/1155/AuctionHouse1155.sol",
  "compiler": {
    "name": "solc",
    "version": "0.7.6+commit.7338295f.Emscripten.clang"
  },
  "schemaVersion": "3.4.4",
  "updatedAt": "2022-10-29T10:34:28.973Z",
  "devdoc": {
    "details": "contract to create and interact with auctions",
    "kind": "dev",
    "methods": {
      "buyOut(uint256,(uint256,bytes4,bytes))": {
        "details": "buyout auction if bid satisfies buyout condition"
      },
      "cancel(uint256)": {
        "details": "cancels existing auction without bid"
      },
      "checkAuctionExistence(uint256)": {
        "details": "returns true if auction exists, false otherwise"
      },
      "checkAuctionRangeTime(uint256)": {
        "details": "returns true if auction started and hasn't finished yet, false otherwise"
      },
      "finishAuction(uint256)": {
        "details": "finishes, deletes and transfers all assets for an auction if it's ended (it exists, it has at least one bid, now > endTme)"
      },
      "getCurrentBuyer(uint256)": {
        "details": "returns current highest bidder for an auction"
      },
      "getMinimalNextBid(uint256)": {
        "details": "returns the minimal amount of the next bid (without fees)"
      },
      "owner()": {
        "details": "Returns the address of the current owner."
      },
      "putBid(uint256,(uint256,bytes4,bytes))": {
        "details": "put a bid and return locked assets for the last bid"
      },
      "renounceOwnership()": {
        "details": "Leaves the contract without owner. It will not be possible to call `onlyOwner` functions anymore. Can only be called by the current owner. NOTE: Renouncing ownership will leave the contract without an owner, thereby removing any functionality that is only available to the owner."
      },
      "startAuction(address,uint96,uint256,address,uint96,bytes4,bytes)": {
        "details": "creates an auction and locks sell asset"
      },
      "supportsInterface(bytes4)": {
        "details": "See {IERC165-supportsInterface}. Time complexity O(1), guaranteed to always use less than 30 000 gas."
      },
      "transferOwnership(address)": {
        "details": "Transfers ownership of the contract to a new account (`newOwner`). Can only be called by the current owner."
      },
      "withdrawFaultyBid(address)": {
        "details": "Used to withdraw faulty bids (bids that failed to return after out-bidding)"
      }
    },
    "version": 1
  },
  "userdoc": {
    "kind": "user",
    "methods": {},
    "version": 1
  }
}