{
  "contractName": "ERC1155GebridMeta",
  "abi": [
    {
      "anonymous": false,
      "inputs": [
        {
          "indexed": true,
          "internalType": "address",
          "name": "account",
          "type": "address"
        },
        {
          "indexed": true,
          "internalType": "address",
          "name": "operator",
          "type": "address"
        },
        {
          "indexed": false,
          "internalType": "bool",
          "name": "approved",
          "type": "bool"
        }
      ],
      "name": "ApprovalForAll",
      "type": "event"
    },
    {
      "anonymous": false,
      "inputs": [
        {
          "indexed": false,
          "internalType": "string",
          "name": "newBaseURI",
          "type": "string"
        }
      ],
      "name": "BaseUriChanged",
      "type": "event"
    },
    {
      "anonymous": false,
      "inputs": [
        {
          "indexed": true,
          "internalType": "address",
          "name": "operator",
          "type": "address"
        },
        {
          "indexed": true,
          "internalType": "address",
          "name": "account",
          "type": "address"
        },
        {
          "indexed": false,
          "internalType": "uint256",
          "name": "id",
          "type": "uint256"
        },
        {
          "indexed": false,
          "internalType": "uint256",
          "name": "amount",
          "type": "uint256"
        }
      ],
      "name": "BurnLazy",
      "type": "event"
    },
    {
      "anonymous": false,
      "inputs": [
        {
          "indexed": true,
          "internalType": "address",
          "name": "operator",
          "type": "address"
        },
        {
          "indexed": true,
          "internalType": "address",
          "name": "account",
          "type": "address"
        },
        {
          "indexed": false,
          "internalType": "uint256[]",
          "name": "ids",
          "type": "uint256[]"
        },
        {
          "indexed": false,
          "internalType": "uint256[]",
          "name": "amounts",
          "type": "uint256[]"
        }
      ],
      "name": "BurnLazyBatch",
      "type": "event"
    },
    {
      "anonymous": false,
      "inputs": [
        {
          "indexed": false,
          "internalType": "address",
          "name": "owner",
          "type": "address"
        },
        {
          "indexed": false,
          "internalType": "string",
          "name": "name",
          "type": "string"
        },
        {
          "indexed": false,
          "internalType": "string",
          "name": "symbol",
          "type": "string"
        }
      ],
      "name": "CreateERC1155Gebrid",
      "type": "event"
    },
    {
      "anonymous": false,
      "inputs": [
        {
          "indexed": false,
          "internalType": "address",
          "name": "owner",
          "type": "address"
        },
        {
          "indexed": false,
          "internalType": "string",
          "name": "name",
          "type": "string"
        },
        {
          "indexed": false,
          "internalType": "string",
          "name": "symbol",
          "type": "string"
        }
      ],
      "name": "CreateERC1155GebridUser",
      "type": "event"
    },
    {
      "anonymous": false,
      "inputs": [
        {
          "indexed": false,
          "internalType": "uint256",
          "name": "tokenId",
          "type": "uint256"
        },
        {
          "components": [
            {
              "internalType": "address payable",
              "name": "account",
              "type": "address"
            },
            {
              "internalType": "uint96",
              "name": "value",
              "type": "uint96"
            }
          ],
          "indexed": false,
          "internalType": "struct LibPart.Part[]",
          "name": "creators",
          "type": "tuple[]"
        }
      ],
      "name": "Creators",
      "type": "event"
    },
    {
      "anonymous": false,
      "inputs": [
        {
          "indexed": true,
          "internalType": "address",
          "name": "operator",
          "type": "address"
        },
        {
          "indexed": false,
          "internalType": "bool",
          "name": "hasApproval",
          "type": "bool"
        }
      ],
      "name": "DefaultApproval",
      "type": "event"
    },
    {
      "anonymous": false,
      "inputs": [
        {
          "indexed": false,
          "internalType": "address",
          "name": "userAddress",
          "type": "address"
        },
        {
          "indexed": false,
          "internalType": "address payable",
          "name": "relayerAddress",
          "type": "address"
        },
        {
          "indexed": false,
          "internalType": "bytes",
          "name": "functionSignature",
          "type": "bytes"
        }
      ],
      "name": "MetaTransactionExecuted",
      "type": "event"
    },
    {
      "anonymous": false,
      "inputs": [
        {
          "indexed": true,
          "internalType": "address",
          "name": "minter",
          "type": "address"
        },
        {
          "indexed": true,
          "internalType": "bool",
          "name": "status",
          "type": "bool"
        }
      ],
      "name": "MinterStatusChanged",
      "type": "event"
    },
    {
      "anonymous": false,
      "inputs": [
        {
          "indexed": true,
          "internalType": "address",
          "name": "previousOwner",
          "type": "address"
        },
        {
          "indexed": true,
          "internalType": "address",
          "name": "newOwner",
          "type": "address"
        }
      ],
      "name": "OwnershipTransferred",
      "type": "event"
    },
    {
      "anonymous": false,
      "inputs": [
        {
          "indexed": false,
          "internalType": "uint256",
          "name": "tokenId",
          "type": "uint256"
        },
        {
          "components": [
            {
              "internalType": "address payable",
              "name": "account",
              "type": "address"
            },
            {
              "internalType": "uint96",
              "name": "value",
              "type": "uint96"
            }
          ],
          "indexed": false,
          "internalType": "struct LibPart.Part[]",
          "name": "royalties",
          "type": "tuple[]"
        }
      ],
      "name": "RoyaltiesSet",
      "type": "event"
    },
    {
      "anonymous": false,
      "inputs": [
        {
          "indexed": false,
          "internalType": "uint256",
          "name": "tokenId",
          "type": "uint256"
        },
        {
          "indexed": false,
          "internalType": "uint256",
          "name": "value",
          "type": "uint256"
        }
      ],
      "name": "Supply",
      "type": "event"
    },
    {
      "anonymous": false,
      "inputs": [
        {
          "indexed": true,
          "internalType": "address",
          "name": "operator",
          "type": "address"
        },
        {
          "indexed": true,
          "internalType": "address",
          "name": "from",
          "type": "address"
        },
        {
          "indexed": true,
          "internalType": "address",
          "name": "to",
          "type": "address"
        },
        {
          "indexed": false,
          "internalType": "uint256[]",
          "name": "ids",
          "type": "uint256[]"
        },
        {
          "indexed": false,
          "internalType": "uint256[]",
          "name": "values",
          "type": "uint256[]"
        }
      ],
      "name": "TransferBatch",
      "type": "event"
    },
    {
      "anonymous": false,
      "inputs": [
        {
          "indexed": true,
          "internalType": "address",
          "name": "operator",
          "type": "address"
        },
        {
          "indexed": true,
          "internalType": "address",
          "name": "from",
          "type": "address"
        },
        {
          "indexed": true,
          "internalType": "address",
          "name": "to",
          "type": "address"
        },
        {
          "indexed": false,
          "internalType": "uint256",
          "name": "id",
          "type": "uint256"
        },
        {
          "indexed": false,
          "internalType": "uint256",
          "name": "value",
          "type": "uint256"
        }
      ],
      "name": "TransferSingle",
      "type": "event"
    },
    {
      "anonymous": false,
      "inputs": [
        {
          "indexed": false,
          "internalType": "string",
          "name": "value",
          "type": "string"
        },
        {
          "indexed": true,
          "internalType": "uint256",
          "name": "id",
          "type": "uint256"
        }
      ],
      "name": "URI",
      "type": "event"
    },
    {
      "inputs": [
        {
          "internalType": "address",
          "name": "minter",
          "type": "address"
        }
      ],
      "name": "addMinter",
      "outputs": [],
      "stateMutability": "nonpayable",
      "type": "function"
    },
    {
      "inputs": [
        {
          "internalType": "address[]",
          "name": "minters",
          "type": "address[]"
        }
      ],
      "name": "addMinters",
      "outputs": [],
      "stateMutability": "nonpayable",
      "type": "function"
    },
    {
      "inputs": [
        {
          "internalType": "address",
          "name": "account",
          "type": "address"
        },
        {
          "internalType": "uint256",
          "name": "id",
          "type": "uint256"
        }
      ],
      "name": "balanceOf",
      "outputs": [
        {
          "internalType": "uint256",
          "name": "",
          "type": "uint256"
        }
      ],
      "stateMutability": "view",
      "type": "function"
    },
    {
      "inputs": [
        {
          "internalType": "address[]",
          "name": "accounts",
          "type": "address[]"
        },
        {
          "internalType": "uint256[]",
          "name": "ids",
          "type": "uint256[]"
        }
      ],
      "name": "balanceOfBatch",
      "outputs": [
        {
          "internalType": "uint256[]",
          "name": "",
          "type": "uint256[]"
        }
      ],
      "stateMutability": "view",
      "type": "function"
    },
    {
      "inputs": [],
      "name": "baseURI",
      "outputs": [
        {
          "internalType": "string",
          "name": "",
          "type": "string"
        }
      ],
      "stateMutability": "view",
      "type": "function"
    },
    {
      "inputs": [
        {
          "internalType": "address",
          "name": "account",
          "type": "address"
        },
        {
          "internalType": "uint256",
          "name": "id",
          "type": "uint256"
        },
        {
          "internalType": "uint256",
          "name": "amount",
          "type": "uint256"
        }
      ],
      "name": "burn",
      "outputs": [],
      "stateMutability": "nonpayable",
      "type": "function"
    },
    {
      "inputs": [
        {
          "internalType": "address",
          "name": "account",
          "type": "address"
        },
        {
          "internalType": "uint256[]",
          "name": "ids",
          "type": "uint256[]"
        },
        {
          "internalType": "uint256[]",
          "name": "amounts",
          "type": "uint256[]"
        }
      ],
      "name": "burnBatch",
      "outputs": [],
      "stateMutability": "nonpayable",
      "type": "function"
    },
    {
      "inputs": [],
      "name": "contractURI",
      "outputs": [
        {
          "internalType": "string",
          "name": "",
          "type": "string"
        }
      ],
      "stateMutability": "view",
      "type": "function"
    },
    {
      "inputs": [
        {
          "internalType": "address",
          "name": "userAddress",
          "type": "address"
        },
        {
          "internalType": "bytes",
          "name": "functionSignature",
          "type": "bytes"
        },
        {
          "internalType": "bytes32",
          "name": "sigR",
          "type": "bytes32"
        },
        {
          "internalType": "bytes32",
          "name": "sigS",
          "type": "bytes32"
        },
        {
          "internalType": "uint8",
          "name": "sigV",
          "type": "uint8"
        }
      ],
      "name": "executeMetaTransaction",
      "outputs": [
        {
          "internalType": "bytes",
          "name": "",
          "type": "bytes"
        }
      ],
      "stateMutability": "payable",
      "type": "function"
    },
    {
      "inputs": [
        {
          "internalType": "uint256",
          "name": "_id",
          "type": "uint256"
        }
      ],
      "name": "getCreators",
      "outputs": [
        {
          "components": [
            {
              "internalType": "address payable",
              "name": "account",
              "type": "address"
            },
            {
              "internalType": "uint96",
              "name": "value",
              "type": "uint96"
            }
          ],
          "internalType": "struct LibPart.Part[]",
          "name": "",
          "type": "tuple[]"
        }
      ],
      "stateMutability": "view",
      "type": "function"
    },
    {
      "inputs": [
        {
          "internalType": "uint256",
          "name": "id",
          "type": "uint256"
        }
      ],
      "name": "getGebridV2Royalties",
      "outputs": [
        {
          "components": [
            {
              "internalType": "address payable",
              "name": "account",
              "type": "address"
            },
            {
              "internalType": "uint96",
              "name": "value",
              "type": "uint96"
            }
          ],
          "internalType": "struct LibPart.Part[]",
          "name": "",
          "type": "tuple[]"
        }
      ],
      "stateMutability": "view",
      "type": "function"
    },
    {
      "inputs": [
        {
          "internalType": "address",
          "name": "user",
          "type": "address"
        }
      ],
      "name": "getNonce",
      "outputs": [
        {
          "internalType": "uint256",
          "name": "nonce",
          "type": "uint256"
        }
      ],
      "stateMutability": "view",
      "type": "function"
    },
    {
      "inputs": [
        {
          "internalType": "address",
          "name": "_owner",
          "type": "address"
        },
        {
          "internalType": "address",
          "name": "_operator",
          "type": "address"
        }
      ],
      "name": "isApprovedForAll",
      "outputs": [
        {
          "internalType": "bool",
          "name": "",
          "type": "bool"
        }
      ],
      "stateMutability": "view",
      "type": "function"
    },
    {
      "inputs": [
        {
          "internalType": "address",
          "name": "account",
          "type": "address"
        }
      ],
      "name": "isMinter",
      "outputs": [
        {
          "internalType": "bool",
          "name": "",
          "type": "bool"
        }
      ],
      "stateMutability": "view",
      "type": "function"
    },
    {
      "inputs": [],
      "name": "name",
      "outputs": [
        {
          "internalType": "string",
          "name": "",
          "type": "string"
        }
      ],
      "stateMutability": "view",
      "type": "function"
    },
    {
      "inputs": [],
      "name": "owner",
      "outputs": [
        {
          "internalType": "address",
          "name": "",
          "type": "address"
        }
      ],
      "stateMutability": "view",
      "type": "function"
    },
    {
      "inputs": [
        {
          "internalType": "address",
          "name": "_minter",
          "type": "address"
        }
      ],
      "name": "removeMinter",
      "outputs": [],
      "stateMutability": "nonpayable",
      "type": "function"
    },
    {
      "inputs": [],
      "name": "renounceOwnership",
      "outputs": [],
      "stateMutability": "nonpayable",
      "type": "function"
    },
    {
      "inputs": [
        {
          "internalType": "uint256",
          "name": "id",
          "type": "uint256"
        },
        {
          "internalType": "uint256",
          "name": "_salePrice",
          "type": "uint256"
        }
      ],
      "name": "royaltyInfo",
      "outputs": [
        {
          "internalType": "address",
          "name": "receiver",
          "type": "address"
        },
        {
          "internalType": "uint256",
          "name": "royaltyAmount",
          "type": "uint256"
        }
      ],
      "stateMutability": "view",
      "type": "function"
    },
    {
      "inputs": [
        {
          "internalType": "address",
          "name": "from",
          "type": "address"
        },
        {
          "internalType": "address",
          "name": "to",
          "type": "address"
        },
        {
          "internalType": "uint256[]",
          "name": "ids",
          "type": "uint256[]"
        },
        {
          "internalType": "uint256[]",
          "name": "amounts",
          "type": "uint256[]"
        },
        {
          "internalType": "bytes",
          "name": "data",
          "type": "bytes"
        }
      ],
      "name": "safeBatchTransferFrom",
      "outputs": [],
      "stateMutability": "nonpayable",
      "type": "function"
    },
    {
      "inputs": [
        {
          "internalType": "address",
          "name": "from",
          "type": "address"
        },
        {
          "internalType": "address",
          "name": "to",
          "type": "address"
        },
        {
          "internalType": "uint256",
          "name": "id",
          "type": "uint256"
        },
        {
          "internalType": "uint256",
          "name": "amount",
          "type": "uint256"
        },
        {
          "internalType": "bytes",
          "name": "data",
          "type": "bytes"
        }
      ],
      "name": "safeTransferFrom",
      "outputs": [],
      "stateMutability": "nonpayable",
      "type": "function"
    },
    {
      "inputs": [
        {
          "internalType": "address",
          "name": "operator",
          "type": "address"
        },
        {
          "internalType": "bool",
          "name": "approved",
          "type": "bool"
        }
      ],
      "name": "setApprovalForAll",
      "outputs": [],
      "stateMutability": "nonpayable",
      "type": "function"
    },
    {
      "inputs": [
        {
          "internalType": "string",
          "name": "newBaseURI",
          "type": "string"
        }
      ],
      "name": "setBaseURI",
      "outputs": [],
      "stateMutability": "nonpayable",
      "type": "function"
    },
    {
      "inputs": [
        {
          "internalType": "bytes4",
          "name": "interfaceId",
          "type": "bytes4"
        }
      ],
      "name": "supportsInterface",
      "outputs": [
        {
          "internalType": "bool",
          "name": "",
          "type": "bool"
        }
      ],
      "stateMutability": "view",
      "type": "function"
    },
    {
      "inputs": [],
      "name": "symbol",
      "outputs": [
        {
          "internalType": "string",
          "name": "",
          "type": "string"
        }
      ],
      "stateMutability": "view",
      "type": "function"
    },
    {
      "inputs": [
        {
          "components": [
            {
              "internalType": "uint256",
              "name": "tokenId",
              "type": "uint256"
            },
            {
              "internalType": "string",
              "name": "tokenURI",
              "type": "string"
            },
            {
              "internalType": "uint256",
              "name": "supply",
              "type": "uint256"
            },
            {
              "components": [
                {
                  "internalType": "address payable",
                  "name": "account",
                  "type": "address"
                },
                {
                  "internalType": "uint96",
                  "name": "value",
                  "type": "uint96"
                }
              ],
              "internalType": "struct LibPart.Part[]",
              "name": "creators",
              "type": "tuple[]"
            },
            {
              "components": [
                {
                  "internalType": "address payable",
                  "name": "account",
                  "type": "address"
                },
                {
                  "internalType": "uint96",
                  "name": "value",
                  "type": "uint96"
                }
              ],
              "internalType": "struct LibPart.Part[]",
              "name": "royalties",
              "type": "tuple[]"
            },
            {
              "internalType": "bytes[]",
              "name": "signatures",
              "type": "bytes[]"
            }
          ],
          "internalType": "struct LibERC1155LazyMint.Mint1155Data",
          "name": "data",
          "type": "tuple"
        },
        {
          "internalType": "address",
          "name": "from",
          "type": "address"
        },
        {
          "internalType": "address",
          "name": "to",
          "type": "address"
        },
        {
          "internalType": "uint256",
          "name": "amount",
          "type": "uint256"
        }
      ],
      "name": "transferFromOrMint",
      "outputs": [],
      "stateMutability": "nonpayable",
      "type": "function"
    },
    {
      "inputs": [
        {
          "internalType": "address",
          "name": "newOwner",
          "type": "address"
        }
      ],
      "name": "transferOwnership",
      "outputs": [],
      "stateMutability": "nonpayable",
      "type": "function"
    },
    {
      "inputs": [
        {
          "internalType": "uint256",
          "name": "_id",
          "type": "uint256"
        },
        {
          "internalType": "address",
          "name": "_from",
          "type": "address"
        },
        {
          "internalType": "address",
          "name": "_to",
          "type": "address"
        }
      ],
      "name": "updateAccount",
      "outputs": [],
      "stateMutability": "nonpayable",
      "type": "function"
    },
    {
      "inputs": [
        {
          "internalType": "uint256",
          "name": "id",
          "type": "uint256"
        }
      ],
      "name": "uri",
      "outputs": [
        {
          "internalType": "string",
          "name": "",
          "type": "string"
        }
      ],
      "stateMutability": "view",
      "type": "function"
    },
    {
      "inputs": [
        {
          "internalType": "string",
          "name": "_name",
          "type": "string"
        },
        {
          "internalType": "string",
          "name": "_symbol",
          "type": "string"
        },
        {
          "internalType": "string",
          "name": "baseURI",
          "type": "string"
        },
        {
          "internalType": "string",
          "name": "contractURI",
          "type": "string"
        },
        {
          "internalType": "address[]",
          "name": "operators",
          "type": "address[]"
        },
        {
          "internalType": "address",
          "name": "transferProxy",
          "type": "address"
        },
        {
          "internalType": "address",
          "name": "lazyTransferProxy",
          "type": "address"
        }
      ],
      "name": "__ERC1155GebridUser_init",
      "outputs": [],
      "stateMutability": "nonpayable",
      "type": "function"
    },
    {
      "inputs": [
        {
          "internalType": "string",
          "name": "_name",
          "type": "string"
        },
        {
          "internalType": "string",
          "name": "_symbol",
          "type": "string"
        },
        {
          "internalType": "string",
          "name": "baseURI",
          "type": "string"
        },
        {
          "internalType": "string",
          "name": "contractURI",
          "type": "string"
        },
        {
          "internalType": "address",
          "name": "transferProxy",
          "type": "address"
        },
        {
          "internalType": "address",
          "name": "lazyTransferProxy",
          "type": "address"
        }
      ],
      "name": "__ERC1155Gebrid_init",
      "outputs": [],
      "stateMutability": "nonpayable",
      "type": "function"
    },
    {
      "inputs": [
        {
          "components": [
            {
              "internalType": "uint256",
              "name": "tokenId",
              "type": "uint256"
            },
            {
              "internalType": "string",
              "name": "tokenURI",
              "type": "string"
            },
            {
              "internalType": "uint256",
              "name": "supply",
              "type": "uint256"
            },
            {
              "components": [
                {
                  "internalType": "address payable",
                  "name": "account",
                  "type": "address"
                },
                {
                  "internalType": "uint96",
                  "name": "value",
                  "type": "uint96"
                }
              ],
              "internalType": "struct LibPart.Part[]",
              "name": "creators",
              "type": "tuple[]"
            },
            {
              "components": [
                {
                  "internalType": "address payable",
                  "name": "account",
                  "type": "address"
                },
                {
                  "internalType": "uint96",
                  "name": "value",
                  "type": "uint96"
                }
              ],
              "internalType": "struct LibPart.Part[]",
              "name": "royalties",
              "type": "tuple[]"
            },
            {
              "internalType": "bytes[]",
              "name": "signatures",
              "type": "bytes[]"
            }
          ],
          "internalType": "struct LibERC1155LazyMint.Mint1155Data",
          "name": "data",
          "type": "tuple"
        },
        {
          "internalType": "address",
          "name": "to",
          "type": "address"
        },
        {
          "internalType": "uint256",
          "name": "_amount",
          "type": "uint256"
        }
      ],
      "name": "mintAndTransfer",
      "outputs": [],
      "stateMutability": "nonpayable",
      "type": "function"
    }
  ],
  "bytecode": "0x608060405234801561001057600080fd5b50615fab80620000216000396000f3fe6080604052600436106101e25760003560e01c8063891be97411610102578063e07f231911610095578063f242432a11610064578063f242432a1461057f578063f2fde38b1461059f578063f5298aca146105bf578063ffc4e0a7146105df576101e2565b8063e07f23191461050a578063e8a3d4851461052a578063e985e9c51461053f578063f1be5e5f1461055f576101e2565b80639a2c72b5116100d15780639a2c72b51461048a578063a22cb465146104aa578063aa271e1a146104ca578063d8ec63f8146104ea576101e2565b8063891be974146104065780638da5cb5b1461043357806395d89b4114610455578063983b2d561461046a576101e2565b80632eb2c2d61161017a5780636b20c454116101495780636b20c4541461039c5780636c0360eb146103bc578063715018a6146103d157806371e2a657146103e6576101e2565b80632eb2c2d61461030f5780633092afd51461032f5780634e1273f41461034f57806355f804b31461037c576101e2565b80630e89341c116101b65780630e89341c1461027f5780630eaead671461029f5780632a55205a146102c15780632d0335ab146102ef576101e2565b8062fdd58e146101e757806301ffc9a71461021d57806306fdde031461024a5780630c53c51c1461026c575b600080fd5b3480156101f357600080fd5b506102076102023660046152b2565b6105ff565b6040516102149190615af3565b60405180910390f35b34801561022957600080fd5b5061023d6102383660046153ab565b610671565b604051610214919061586f565b34801561025657600080fd5b5061025f610684565b604051610214919061587a565b61025f61027a366004615238565b610713565b34801561028b57600080fd5b5061025f61029a366004615676565b610a8c565b3480156102ab57600080fd5b506102bf6102ba36600461561f565b610a97565b005b3480156102cd57600080fd5b506102e16102dc3660046156cf565b610b3b565b60405161021492919061580b565b3480156102fb57600080fd5b5061020761030a366004615032565b610c4b565b34801561031b57600080fd5b506102bf61032a366004615086565b610c67565b34801561033b57600080fd5b506102bf61034a366004615032565b610f65565b34801561035b57600080fd5b5061036f61036a36600461534b565b611015565b6040516102149190615837565b34801561038857600080fd5b506102bf6103973660046153d3565b611100565b3480156103a857600080fd5b506102bf6103b7366004615195565b6111a5565b3480156103c857600080fd5b5061025f61132b565b3480156103dd57600080fd5b506102bf6113c3565b3480156103f257600080fd5b506102bf610401366004615311565b61146f565b34801561041257600080fd5b50610426610421366004615676565b611558565b6040516102149190615824565b34801561043f57600080fd5b506104486115e8565b60405161021491906157c1565b34801561046157600080fd5b5061025f6115f7565b34801561047657600080fd5b506102bf610485366004615032565b611653565b34801561049657600080fd5b506102bf6104a5366004615405565b611708565b3480156104b657600080fd5b506102bf6104c5366004615207565b6117b7565b3480156104d657600080fd5b5061023d6104e5366004615032565b6118a6565b3480156104f657600080fd5b50610426610505366004615676565b6118c5565b34801561051657600080fd5b506102bf61052536600461568e565b611940565b34801561053657600080fd5b5061025f611983565b34801561054b57600080fd5b5061023d61055a36600461504e565b6119df565b34801561056b57600080fd5b506102bf61057a3660046154cc565b6119f2565b34801561058b57600080fd5b506102bf61059a36600461512f565b611aa9565b3480156105ab57600080fd5b506102bf6105ba366004615032565b611c62565b3480156105cb57600080fd5b506102bf6105da3660046152dd565b611d65565b3480156105eb57600080fd5b506102bf6105fa3660046155b8565b611de1565b60006001600160a01b0383166106465760405162461bcd60e51b815260040180806020018281038252602b815260200180615c9f602b913960400191505060405180910390fd5b5060008181526097602090815260408083206001600160a01b03861684529091529020545b92915050565b600061067c82611e3c565b90505b919050565b610262805460408051602060026001851615610100026000190190941693909304601f8101849004840282018401909252818152929183018282801561070b5780601f106106e05761010080835404028352916020019161070b565b820191906000526020600020905b8154815290600101906020018083116106ee57829003601f168201915b505050505081565b6060600061072086611edb565b90506000356001600160e01b03199081169082161415610787576040805162461bcd60e51b815260206004820152601760248201527f57726f6e672066756e6374696f6e5369676e6174757265000000000000000000604482015290519081900360640190fd5b604080516060810182526001600160a01b03891660008181526102fb6020908152908490205483528201529081018790526107c58882888888611ef7565b6108005760405162461bcd60e51b8152600401808060200182810382526021815260200180615eb66021913960400191505060405180910390fd5b6001600160a01b03881660009081526102fb6020526040902054610825906001611fe1565b6102fb60008a6001600160a01b03166001600160a01b0316815260200190815260200160002081905550600080306001600160a01b0316898b6040516020018083805190602001908083835b602083106108905780518252601f199092019160209182019101610871565b6001836020036101000a038019825116818451168082178552505050505050905001826001600160a01b031660601b8152601401925050506040516020818303038152906040526040518082805190602001908083835b602083106109065780518252601f1990920191602091820191016108e7565b6001836020036101000a0380198251168184511680821785525050505050509050019150506000604051808303816000865af19150503d8060008114610968576040519150601f19603f3d011682016040523d82523d6000602084013e61096d565b606091505b5091509150816109c4576040805162461bcd60e51b815260206004820152601c60248201527f46756e6374696f6e2063616c6c206e6f74207375636365737366756c00000000604482015290519081900360640190fd5b7f5845892132946850460bff5a0083f71031bc5bf9aadcd40f1de79423eac9b10b8a338b60405180846001600160a01b03168152602001836001600160a01b0316815260200180602001828103825283818151815260200191508051906020019080838360005b83811015610a43578181015183820152602001610a2b565b50505050905090810190601f168015610a705780820380516001836020036101000a031916815260200191505b5094505050505060405180910390a19998505050505050505050565b606061067c8261203b565b6102965460ff1615610b2b578260600151600081518110610ab457fe5b6020026020010151600001516001600160a01b0316610ad16115e8565b6001600160a01b03161480610b065750610b068360600151600081518110610af557fe5b6020026020010151600001516118a6565b610b2b5760405162461bcd60e51b8152600401610b229061588d565b60405180910390fd5b610b368383836121d1565b505050565b60008281526101fa60205260408120548190610b5c57506000905080610c44565b60008481526101fa6020908152604080832080548251818502810185019093528083529192909190849084015b82821015610bd857600084815260209081902060408051808201909152908401546001600160a01b0381168252600160a01b90046001600160601b031681830152825260019092019101610b89565b50505050905080600081518110610beb57fe5b60209081029190910101515192506000805b8251811015610c3857828181518110610c1257fe5b6020026020010151602001516001600160601b0316820191508080600101915050610bfd565b50612710908502049150505b9250929050565b6001600160a01b031660009081526102fb602052604090205490565b8151835114610ca75760405162461bcd60e51b8152600401808060200182810382526028815260200180615f4e6028913960400191505060405180910390fd5b6001600160a01b038416610cec5760405162461bcd60e51b8152600401808060200182810382526025815260200180615da26025913960400191505060405180910390fd5b610cf46124cd565b6001600160a01b0316856001600160a01b03161480610d1a5750610d1a8561055a6124cd565b610d555760405162461bcd60e51b8152600401808060200182810382526032815260200180615dc76032913960400191505060405180910390fd5b6000610d5f6124cd565b9050610d6f818787878787610f5d565b60005b8451811015610e75576000858281518110610d8957fe5b602002602001015190506000858381518110610da157fe5b60200260200101519050610e0e816040518060600160405280602a8152602001615e6c602a91396097600086815260200190815260200160002060008d6001600160a01b03166001600160a01b03168152602001908152602001600020546124dc9092919063ffffffff16565b60008381526097602090815260408083206001600160a01b038e811685529252808320939093558a1681522054610e459082611fe1565b60009283526097602090815260408085206001600160a01b038c1686529091529092209190915550600101610d72565b50846001600160a01b0316866001600160a01b0316826001600160a01b03167f4a39dc06d4c0dbc64b70af90fd698a233a518aa5d07e595d983b8c0526c8f7fb8787604051808060200180602001838103835285818151815260200191508051906020019060200280838360005b83811015610efb578181015183820152602001610ee3565b50505050905001838103825284818151815260200191508051906020019060200280838360005b83811015610f3a578181015183820152602001610f22565b5050505090500194505050505060405180910390a4610f5d818787878787612573565b505050505050565b610f6d6124cd565b6001600160a01b0316610f7e6115e8565b6001600160a01b031614610fc7576040805162461bcd60e51b81526020600482018190526024820152600080516020615e96833981519152604482015290519081900360640190fd5b6001600160a01b03811660008181526102c86020526040808220805460ff19169055519091907f3042b80e435ae46c334b2cfec51a66d64c9a8a8af4cd0c279a124c35a09e91dd908390a350565b606081518351146110575760405162461bcd60e51b8152600401808060200182810382526029815260200180615f256029913960400191505060405180910390fd5b600083516001600160401b038111801561107057600080fd5b5060405190808252806020026020018201604052801561109a578160200160208202803683370190505b50905060005b84518110156110f8576110d98582815181106110b857fe5b60200260200101518583815181106110cc57fe5b60200260200101516105ff565b8282815181106110e557fe5b60209081029190910101526001016110a0565b509392505050565b6111086124cd565b6001600160a01b03166111196115e8565b6001600160a01b031614611162576040805162461bcd60e51b81526020600482018190526024820152600080516020615e96833981519152604482015290519081900360640190fd5b61116b816127f2565b7f87cdeaffd8e70903d6ce7cc983fac3b09ca79e83818124c98e47a1d70f8027d68160405161119a919061587a565b60405180910390a150565b80518251146111c65760405162461bcd60e51b8152600401610b2290615a3c565b600082516001600160401b03811180156111df57600080fd5b50604051908082528060200260200182016040528015611209578160200160208202803683370190505b509050600083516001600160401b038111801561122557600080fd5b5060405190808252806020026020018201604052801561124f578160200160208202803683370190505b50905060005b84518110156112c45761128e85828151811061126d57fe5b602002602001015185838151811061128157fe5b6020026020010151612806565b84838151811061129a57fe5b602002602001018484815181106112ad57fe5b602090810291909101019190915252600101611255565b506112d085858461287b565b846001600160a01b03166112e26124cd565b6001600160a01b03167fcf3391513e21a9d4a0348f8e890080170eba18dc62db35b60d8a518b7088eb3a868460405161131c92919061584a565b60405180910390a35050505050565b61012f8054604080516020601f60026000196101006001881615020190951694909404938401819004810282018101909252828152606093909290918301828280156113b85780601f1061138d576101008083540402835291602001916113b8565b820191906000526020600020905b81548152906001019060200180831161139b57829003601f168201915b505050505090505b90565b6113cb6124cd565b6001600160a01b03166113dc6115e8565b6001600160a01b031614611425576040805162461bcd60e51b81526020600482018190526024820152600080516020615e96833981519152604482015290519081900360640190fd5b6033546040516000916001600160a01b0316907f8be0079c531659141344cd1fd0a4f28419497f9722a3daafe3b4186f6b6457e0908390a3603380546001600160a01b0319169055565b6114776124cd565b6001600160a01b03166114886115e8565b6001600160a01b0316146114d1576040805162461bcd60e51b81526020600482018190526024820152600080516020615e96833981519152604482015290519081900360640190fd5b60005b81518110156115545760008282815181106114eb57fe5b6020908102919091018101516001600160a01b03811660008181526102c89093526040808420805460ff1916600190811790915590519294509290917f3042b80e435ae46c334b2cfec51a66d64c9a8a8af4cd0c279a124c35a09e91dd9190a3506001016114d4565b5050565b60606101fb6000838152602001908152602001600020805480602002602001604051908101604052809291908181526020016000905b828210156115dd57600084815260209081902060408051808201909152908401546001600160a01b0381168252600160a01b90046001600160601b03168183015282526001909201910161158e565b505050509050919050565b6033546001600160a01b031690565b610263805460408051602060026001851615610100026000190190941693909304601f8101849004840282018401909252818152929183018282801561070b5780601f106106e05761010080835404028352916020019161070b565b61165b6124cd565b6001600160a01b031661166c6115e8565b6001600160a01b0316146116b5576040805162461bcd60e51b81526020600482018190526024820152600080516020615e96833981519152604482015290519081900360640190fd5b6001600160a01b03811660008181526102c86020526040808220805460ff1916600190811790915590519092917f3042b80e435ae46c334b2cfec51a66d64c9a8a8af4cd0c279a124c35a09e91dd91a350565b6117168686868686866128ef565b61176260405180604001604052806011815260200170455243313135354765627269644d65746160781b815250604051806040016040528060018152602001603160f81b815250612a20565b610296805460ff191690557f11f3d55c247f1145a01dc8d1419586190858272d8741b1023c8a6a2b35e320b16117966124cd565b87876040516117a7939291906157d5565b60405180910390a1505050505050565b816001600160a01b03166117c96124cd565b6001600160a01b0316141561180f5760405162461bcd60e51b8152600401808060200182810382526029815260200180615efc6029913960400191505060405180910390fd5b806098600061181c6124cd565b6001600160a01b03908116825260208083019390935260409182016000908120918716808252919093529120805460ff1916921515929092179091556118606124cd565b6001600160a01b03167f17307eab39ab6107e8899845ad3d59bd9653f200f220920489ca2b5937696c318360405180821515815260200191505060405180910390a35050565b6001600160a01b031660009081526102c8602052604090205460ff1690565b60008181526101fa602090815260408083208054825181850281018501909352808352606094929391929091840182156115dd57600084815260209081902060408051808201909152908401546001600160a01b0381168252600160a01b90046001600160601b03168183015282526001909201910161158e565b816001600160a01b03166119526124cd565b6001600160a01b0316146119785760405162461bcd60e51b8152600401610b2290615944565b610b36838383612ab0565b610230805460408051602060026001851615610100026000190190941693909304601f8101849004840282018401909252818152929183018282801561070b5780601f106106e05761010080835404028352916020019161070b565b60006119eb8383612b5c565b9392505050565b611a008787878786866128ef565b611a506040518060400160405280601581526020017445524331313535476562726964557365724d65746160581b815250604051806040016040528060018152602001603160f81b815250612a20565b610296805460ff191660011790557fa9055597032c47b7eb48adcba0a97f4294cc5ec65b89ba4c7b8eb2c73424d180611a876124cd565b8888604051611a98939291906157d5565b60405180910390a150505050505050565b6001600160a01b038416611aee5760405162461bcd60e51b8152600401808060200182810382526025815260200180615da26025913960400191505060405180910390fd5b611af66124cd565b6001600160a01b0316856001600160a01b03161480611b1c5750611b1c8561055a6124cd565b611b575760405162461bcd60e51b8152600401808060200182810382526029815260200180615d576029913960400191505060405180910390fd5b6000611b616124cd565b9050611b81818787611b7288612b88565b611b7b88612b88565b87610f5d565b611bc8836040518060600160405280602a8152602001615e6c602a913960008781526097602090815260408083206001600160a01b038d16845290915290205491906124dc565b60008581526097602090815260408083206001600160a01b038b81168552925280832093909355871681522054611bff9084611fe1565b60008581526097602090815260408083206001600160a01b03808b168086529184529382902094909455805188815291820187905280518a841693861692600080516020615c7f83398151915292908290030190a4610f5d818787878787612bcd565b611c6a6124cd565b6001600160a01b0316611c7b6115e8565b6001600160a01b031614611cc4576040805162461bcd60e51b81526020600482018190526024820152600080516020615e96833981519152604482015290519081900360640190fd5b6001600160a01b038116611d095760405162461bcd60e51b8152600401808060200182810382526026815260200180615d0d6026913960400191505060405180910390fd5b6033546040516001600160a01b038084169216907f8be0079c531659141344cd1fd0a4f28419497f9722a3daafe3b4186f6b6457e090600090a3603380546001600160a01b0319166001600160a01b0392909216919091179055565b600080611d728484612806565b90925090508115611d8857611d88858584612d3e565b8015611dda57846001600160a01b0316611da06124cd565b6001600160a01b03167f5110a21391aa55386de41fe7a3e3dffb40132d38d629a113a7f4afff251b1a01868460405161131c929190615b15565b5050505050565b6000611df18486600001516105ff565b9050818115611e2b578280831015611e065750815b611e26868689600001518460405180602001604052806000815250611aa9565b830390505b8015610f5d57610f5d868583610a97565b60006001600160e01b03198216636db15a0f60e01b1480611e6d57506001600160e01b0319821663656cb66560e11b145b80611e8857506001600160e01b0319821663152a902d60e11b145b80611ea357506001600160e01b031982166301ffc9a760e01b145b80611ebe57506001600160e01b03198216636cdb3d1360e11b145b8061067c5750506001600160e01b0319166303a24d0760e21b1490565b6000815160001415611eef5750600061067f565b506020015190565b6000806001611f0d611f0888612db2565b612e35565b84878760405160008152602001604052604051808581526020018460ff1681526020018381526020018281526020019450505050506020604051602081039080840390855afa158015611f64573d6000803e3d6000fd5b5050604051601f1901519150506001600160a01b038116611fc0576040805162461bcd60e51b8152602060048201526011602482015270496e76616c6964207369676e617475726560781b604482015290519081900360640190fd5b866001600160a01b0316816001600160a01b03161491505095945050505050565b6000828201838110156119eb576040805162461bcd60e51b815260206004820152601b60248201527f536166654d6174683a206164646974696f6e206f766572666c6f770000000000604482015290519081900360640190fd5b600081815261012e6020908152604080832080548251601f60026000196101006001861615020190931692909204918201859004850281018501909352808352606094938301828280156120d05780601f106120a5576101008083540402835291602001916120d0565b820191906000526020600020905b8154815290600101906020018083116120b357829003601f168201915b5050505050905060006120e161132b565b90508051600014156120f55750905061067f565b81511561210f576121068183612e81565b9250505061067f565b8061211985613066565b6040516020018083805190602001908083835b6020831061214b5780518252601f19909201916020918201910161212c565b51815160209384036101000a600019018019909216911617905285519190930192850191508083835b602083106121935780518252601f199092019160209182019101612174565b6001836020036101000a0380198251168184511680821785525050505050509050019250505060405160208183030381529060405292505050919050565b825160601c60006121e06124cd565b9050806001600160a01b0316826001600160a01b03161480612207575061220782826119df565b6122235760405162461bcd60e51b8152600401610b2290615993565b600083116122435760405162461bcd60e51b8152600401610b2290615969565b845160009081526101fc60205260409020546123ac57846060015160008151811061226a57fe5b6020026020010151600001516001600160a01b0316826001600160a01b0316146122a65760405162461bcd60e51b8152600401610b2290615919565b60008560400151116122ca5760405162461bcd60e51b8152600401610b22906158ba565b8460a0015151856060015151146122e057600080fd5b60006122eb86613140565b905060005b8660600151518110156123615760008760600151828151811061230f57fe5b6020026020010151600001519050836001600160a01b0316816001600160a01b0316146123585761235881848a60a00151858151811061234b57fe5b6020026020010151613393565b506001016122f0565b506123748660000151876040015161339e565b61238686600001518760800151613408565b612398866000015187606001516135f7565b6123aa866000015187602001516137a6565b505b6123cb848660000151856040518060200160405280600081525061386a565b836001600160a01b0316826001600160a01b03161461247c57816001600160a01b031660006001600160a01b0316826001600160a01b0316600080516020615c7f833981519152886000015187604051612426929190615b15565b60405180910390a4836001600160a01b0316826001600160a01b0316826001600160a01b0316600080516020615c7f83398151915288600001518760405161246f929190615b15565b60405180910390a4611dda565b836001600160a01b031660006001600160a01b0316826001600160a01b0316600080516020615c7f8339815191528860000151876040516124be929190615b15565b60405180910390a45050505050565b60006124d761387c565b905090565b6000818484111561256b5760405162461bcd60e51b81526004018080602001828103825283818151815260200191508051906020019080838360005b83811015612530578181015183820152602001612518565b50505050905090810190601f16801561255d5780820380516001836020036101000a031916815260200191505b509250505060405180910390fd5b505050900390565b612585846001600160a01b03166138d8565b15610f5d57836001600160a01b031663bc197c8187878686866040518663ffffffff1660e01b815260040180866001600160a01b03168152602001856001600160a01b03168152602001806020018060200180602001848103845287818151815260200191508051906020019060200280838360005b838110156126135781810151838201526020016125fb565b50505050905001848103835286818151815260200191508051906020019060200280838360005b8381101561265257818101518382015260200161263a565b50505050905001848103825285818151815260200191508051906020019080838360005b8381101561268e578181015183820152602001612676565b50505050905090810190601f1680156126bb5780820380516001836020036101000a031916815260200191505b5098505050505050505050602060405180830381600087803b1580156126e057600080fd5b505af192505050801561270557506040513d602081101561270057600080fd5b505160015b61279a57612711615b69565b8061271c5750612763565b60405162461bcd60e51b8152602060048201818152835160248401528351849391928392604401919085019080838360008315612530578181015183820152602001612518565b60405162461bcd60e51b8152600401808060200182810382526034815260200180615c236034913960400191505060405180910390fd5b6001600160e01b0319811663bc197c8160e01b146127e95760405162461bcd60e51b8152600401808060200182810382526028815260200180615c576028913960400191505060405180910390fd5b50505050505050565b80516115549061012f906020840190614c76565b806000606084901c6128166124cd565b6001600160a01b0316816001600160a01b0316141561287357839150600061283d866138de565b90508015612862576000612850876138f1565b8203905080861115612860578093505b505b61286c8684613904565b8285039350505b509250929050565b6128836124cd565b6001600160a01b0316836001600160a01b031614806128a957506128a98361055a6124cd565b6128e45760405162461bcd60e51b8152600401808060200182810382526029815260200180615d576029913960400191505060405180910390fd5b610b3683838361391d565b600054610100900460ff16806129085750612908613b8b565b80612916575060005460ff16155b6129515760405162461bcd60e51b815260040180806020018281038252602e815260200180615df9602e913960400191505060405180910390fd5b600054610100900460ff1615801561297c576000805460ff1961ff0019909116610100171660011790555b612984613b9c565b61298c613c96565b612994613d37565b61299c613c96565b6129a4613dd4565b6129bc60405180602001604052806000815250613ea4565b6129c584613f6f565b6129cd613c96565b6129d5614021565b6129df87876140be565b6129e7613c96565b6129f0856127f2565b6129fb83600161418b565b612a0682600161418b565b80156127e9576000805461ff001916905550505050505050565b7f36c25de3e541d5d970f66e4210d728721220fff5c077cc6cd008b3a0c62adab78280519060200120828051906020012030612a5a6141eb565b60405160200180868152602001858152602001848152602001836001600160a01b0316815260200182815260200195505050505050604051602081830303815290604052805190602001206102fc819055505050565b60008381526101fa6020526040812054905b81811015611dda5760008581526101fa6020526040902080546001600160a01b038616919083908110612af157fe5b6000918252602090912001546001600160a01b03161415612b545760008581526101fa60205260409020805484919083908110612b2a57fe5b600091825260209091200180546001600160a01b0319166001600160a01b03929092169190911790555b600101612ac2565b6001600160a01b038116600090815260c9602052604081205460ff16806119eb57506119eb83836141f5565b60408051600180825281830190925260609160009190602080830190803683370190505090508281600081518110612bbc57fe5b602090810291909101015292915050565b612bdf846001600160a01b03166138d8565b15610f5d57836001600160a01b031663f23a6e6187878686866040518663ffffffff1660e01b815260040180866001600160a01b03168152602001856001600160a01b0316815260200184815260200183815260200180602001828103825283818151815260200191508051906020019080838360005b83811015612c6e578181015183820152602001612c56565b50505050905090810190601f168015612c9b5780820380516001836020036101000a031916815260200191505b509650505050505050602060405180830381600087803b158015612cbe57600080fd5b505af1925050508015612ce357506040513d6020811015612cde57600080fd5b505160015b612cef57612711615b69565b6001600160e01b0319811663f23a6e6160e01b146127e95760405162461bcd60e51b8152600401808060200182810382526028815260200180615c576028913960400191505060405180910390fd5b612d466124cd565b6001600160a01b0316836001600160a01b03161480612d6c5750612d6c8361055a6124cd565b612da75760405162461bcd60e51b8152600401808060200182810382526029815260200180615d576029913960400191505060405180910390fd5b610b36838383614223565b6000604051806080016040528060438152602001615cca60439139805190602001208260000151836020015184604001518051906020012060405160200180858152602001848152602001836001600160a01b03168152602001828152602001945050505050604051602081830303815290604052805190602001209050919050565b6000612e3f614344565b82604051602001808061190160f01b81525060020183815260200182815260200192505050604051602081830303815290604052805190602001209050919050565b80518251606091849184911015612f4c5784846040516020018083805190602001908083835b60208310612ec65780518252601f199092019160209182019101612ea7565b51815160209384036101000a600019018019909216911617905285519190930192850191508083835b60208310612f0e5780518252601f199092019160209182019101612eef565b6001836020036101000a038019825116818451168082178552505050505050905001925050506040516020818303038152906040529250505061066b565b60005b825181101561305c57828181518110612f6457fe5b602001015160f81c60f81b6001600160f81b031916828281518110612f8557fe5b01602001516001600160f81b031916146130545785856040516020018083805190602001908083835b60208310612fcd5780518252601f199092019160209182019101612fae565b51815160209384036101000a600019018019909216911617905285519190930192850191508083835b602083106130155780518252601f199092019160209182019101612ff6565b6001836020036101000a03801982511681845116808217855250505050505090500192505050604051602081830303815290604052935050505061066b565b600101612f4f565b5092949350505050565b60608161308b57506040805180820190915260018152600360fc1b602082015261067f565b8160005b81156130a357600101600a8204915061308f565b6000816001600160401b03811180156130bb57600080fd5b506040519080825280601f01601f1916602001820160405280156130e6576020820181803683370190505b50859350905060001982015b831561313757600a840660300160f81b8282806001900393508151811061311557fe5b60200101906001600160f81b031916908160001a905350600a840493506130f2565b50949350505050565b6000808260800151516001600160401b038111801561315e57600080fd5b50604051908082528060200260200182016040528015613188578160200160208202803683370190505b50905060005b8360800151518110156131da576131bb846080015182815181106131ae57fe5b602002602001015161434b565b8282815181106131c757fe5b602090810291909101015260010161318e565b5060008360600151516001600160401b03811180156131f857600080fd5b50604051908082528060200260200182016040528015613222578160200160208202803683370190505b50905060005b84606001515181101561326757613248856060015182815181106131ae57fe5b82828151811061325457fe5b6020908102919091010152600101613228565b507ffb988707ebb338694f318760b0fd5cfe756d00a2ade251fda110b80c336a3c7f846000015185604001518660200151805190602001208460405160200180828051906020019060200280838360005b838110156132d05781810151838201526020016132b8565b50505050905001915050604051602081830303815290604052805190602001208660405160200180828051906020019060200280838360005b83811015613321578181015183820152602001613309565b50505050905001915050604051602081830303815290604052805190602001206040516020018087815260200186815260200185815260200184815260200183815260200182815260200196505050505050506040516020818303038152906040528051906020012092505050919050565b610b368383836143b8565b60008281526101fc6020526040902054156133b857600080fd5b60008281526101fc602052604090819020829055517f5e2aa66efd74cce82b21852e317e5490d9ecc9e6bb953ae24d90851258cc2f5c906133fc9084908490615b15565b60405180910390a15050565b6000805b82518110156135ac5760006001600160a01b031683828151811061342c57fe5b6020026020010151600001516001600160a01b03161415613494576040805162461bcd60e51b815260206004820152601b60248201527f526563697069656e742073686f756c642062652070726573656e740000000000604482015290519081900360640190fd5b8281815181106134a057fe5b6020026020010151602001516001600160601b03166000141561350a576040805162461bcd60e51b815260206004820181905260248201527f526f79616c74792076616c75652073686f756c6420626520706f736974697665604482015290519081900360640190fd5b82818151811061351657fe5b6020026020010151602001516001600160601b0316820191506101fa600085815260200190815260200160002083828151811061354f57fe5b60209081029190910181015182546001818101855560009485529383902082519101805492909301516001600160601b0316600160a01b026001600160a01b039182166001600160a01b031990931692909217161790550161340c565b5061271081106135ed5760405162461bcd60e51b8152600401808060200182810382526025815260200180615ed76025913960400191505060405180910390fd5b610b3683836145fa565b60008281526101fb6020526040812090805b83518110156137455760006001600160a01b031684828151811061362957fe5b6020026020010151600001516001600160a01b0316141561365c5760405162461bcd60e51b8152600401610b2290615a05565b83818151811061366857fe5b6020026020010151602001516001600160601b03166000141561369d5760405162461bcd60e51b8152600401610b22906158e4565b828482815181106136aa57fe5b602090810291909101810151825460018101845560009384529282902081519301805491909201516001600160601b0316600160a01b026001600160a01b039384166001600160a01b031990921691909117909216919091179055835161373b9085908390811061371757fe5b6020026020010151602001516001600160601b031683611fe190919063ffffffff16565b9150600101613609565b5080612710146137675760405162461bcd60e51b8152600401610b2290615aa5565b7f841ffb90d4cabdd1f16034f3fa831d79060febbb8167bdd54a49269365bdf78f8484604051613798929190615afc565b60405180910390a150505050565b600082815261012e6020908152604090912082516137c692840190614c76565b50817f6bb7ff708619ba0610cba295a58592e0451dee2622938c8755667688daf3529b6137f28461203b565b6040805160208082528351818301528351919283929083019185019080838360005b8381101561382c578181015183820152602001613814565b50505050905090810190601f1680156138595780820380516001836020036101000a031916815260200191505b509250505060405180910390a25050565b6138768484848461462b565b50505050565b6000333014156138d357600080368080601f0160208091040260200160405190810160405280939291908181526020018383808284376000920191909152505050503601516001600160a01b031691506113c09050565b503390565b3b151590565b60009081526101fc602052604090205490565b60009081526101fd602052604090205490565b60009182526101fd602052604090912080549091019055565b6001600160a01b0383166139625760405162461bcd60e51b8152600401808060200182810382526023815260200180615e496023913960400191505060405180910390fd5b80518251146139a25760405162461bcd60e51b8152600401808060200182810382526028815260200180615f4e6028913960400191505060405180910390fd5b60006139ac6124cd565b90506139cc81856000868660405180602001604052806000815250610f5d565b60005b8351811015613aaa57613a618382815181106139e757fe5b6020026020010151604051806060016040528060248152602001615d336024913960976000888681518110613a1857fe5b602002602001015181526020019081526020016000206000896001600160a01b03166001600160a01b03168152602001908152602001600020546124dc9092919063ffffffff16565b60976000868481518110613a7157fe5b602090810291909101810151825281810192909252604090810160009081206001600160a01b038a1682529092529020556001016139cf565b5060006001600160a01b0316846001600160a01b0316826001600160a01b03167f4a39dc06d4c0dbc64b70af90fd698a233a518aa5d07e595d983b8c0526c8f7fb8686604051808060200180602001838103835285818151815260200191508051906020019060200280838360005b83811015613b31578181015183820152602001613b19565b50505050905001838103825284818151815260200191508051906020019060200280838360005b83811015613b70578181015183820152602001613b58565b5050505090500194505050505060405180910390a450505050565b6000613b96306138d8565b15905090565b600054610100900460ff1680613bb55750613bb5613b8b565b80613bc3575060005460ff16155b613bfe5760405162461bcd60e51b815260040180806020018281038252602e815260200180615df9602e913960400191505060405180910390fd5b600054610100900460ff16158015613c29576000805460ff1961ff0019909116610100171660011790555b6000613c336124cd565b603380546001600160a01b0319166001600160a01b038316908117909155604051919250906000907f8be0079c531659141344cd1fd0a4f28419497f9722a3daafe3b4186f6b6457e0908290a3508015613c93576000805461ff00191690555b50565b600054610100900460ff1680613caf5750613caf613b8b565b80613cbd575060005460ff16155b613cf85760405162461bcd60e51b815260040180806020018281038252602e815260200180615df9602e913960400191505060405180910390fd5b600054610100900460ff16158015613d23576000805460ff1961ff0019909116610100171660011790555b8015613c93576000805461ff001916905550565b600054610100900460ff1680613d505750613d50613b8b565b80613d5e575060005460ff16155b613d995760405162461bcd60e51b815260040180806020018281038252602e815260200180615df9602e913960400191505060405180910390fd5b600054610100900460ff16158015613dc4576000805460ff1961ff0019909116610100171660011790555b613d236301ffc9a760e01b61473d565b600054610100900460ff1680613ded5750613ded613b8b565b80613dfb575060005460ff16155b613e365760405162461bcd60e51b815260040180806020018281038252602e815260200180615df9602e913960400191505060405180910390fd5b600054610100900460ff16158015613e61576000805460ff1961ff0019909116610100171660011790555b613d23604051806040016040528060088152602001674d696e743131353560c01b815250604051806040016040528060018152602001603160f81b8152506147c1565b600054610100900460ff1680613ebd5750613ebd613b8b565b80613ecb575060005460ff16155b613f065760405162461bcd60e51b815260040180806020018281038252602e815260200180615df9602e913960400191505060405180910390fd5b600054610100900460ff16158015613f31576000805460ff1961ff0019909116610100171660011790555b613f3a82614883565b613f4a636cdb3d1360e11b61473d565b613f5a6303a24d0760e21b61473d565b8015611554576000805461ff00191690555050565b600054610100900460ff1680613f885750613f88613b8b565b80613f96575060005460ff16155b613fd15760405162461bcd60e51b815260040180806020018281038252602e815260200180615df9602e913960400191505060405180910390fd5b600054610100900460ff16158015613ffc576000805460ff1961ff0019909116610100171660011790555b815161401090610230906020850190614c76565b50613f5a63e8a3d48560e01b61473d565b600054610100900460ff168061403a575061403a613b8b565b80614048575060005460ff16155b6140835760405162461bcd60e51b815260040180806020018281038252602e815260200180615df9602e913960400191505060405180910390fd5b600054610100900460ff161580156140ae576000805460ff1961ff0019909116610100171660011790555b613d2363656cb66560e11b61473d565b600054610100900460ff16806140d757506140d7613b8b565b806140e5575060005460ff16155b6141205760405162461bcd60e51b815260040180806020018281038252602e815260200180615df9602e913960400191505060405180910390fd5b600054610100900460ff1615801561414b576000805460ff1961ff0019909116610100171660011790555b825161415f90610262906020860190614c76565b50815161417490610263906020850190614c76565b508015610b36576000805461ff0019169055505050565b6001600160a01b038216600081815260c96020908152604091829020805460ff1916851515908117909155825190815291517f270dbb8ba4292910ae92862466486be25c355c837270a3d8824b36a8bc7c653b9281900390910190a25050565b60006124d7614896565b6001600160a01b03918216600090815260986020908152604080832093909416825291909152205460ff1690565b6001600160a01b0383166142685760405162461bcd60e51b8152600401808060200182810382526023815260200180615e496023913960400191505060405180910390fd5b60006142726124cd565b90506142a28185600061428487612b88565b61428d87612b88565b60405180602001604052806000815250610f5d565b6142e982604051806060016040528060248152602001615d336024913960008681526097602090815260408083206001600160a01b038b16845290915290205491906124dc565b60008481526097602090815260408083206001600160a01b03808a1680865291845282852095909555815188815292830187905281519394909390861692600080516020615c7f83398151915292908290030190a450505050565b6102fc5490565b8051602091820151604080517f397e04204c1e1a60ee8724b71f8244e10ab5f2e9009854d80f602bda21b59ebb818601526001600160a01b03909316838201526001600160601b039091166060808401919091528151808403909101815260809092019052805191012090565b60006143c38361489a565b905060008251604114156143de576143db82846148a4565b90505b846001600160a01b0316816001600160a01b031614611dda57614409856001600160a01b03166138d8565b156145825760408051630b135d3f60e11b808252600482018581526024830193845286516044840152865191936001600160a01b038a1693631626ba7e9388938a9390929091606490910190602085019080838360005b83811015614478578181015183820152602001614460565b50505050905090810190601f1680156144a55780820380516001836020036101000a031916815260200191505b50935050505060206040518083038186803b1580156144c357600080fd5b505afa1580156144d7573d6000803e3d6000fd5b505050506040513d60208110156144ed57600080fd5b505160408051808201909152601c81527f7369676e617475726520766572696669636174696f6e206572726f72000000006020820152916001600160e01b03199091161461457c5760405162461bcd60e51b8152602060048201818152835160248401528351909283926044909101919085019080838360008315612530578181015183820152602001612518565b50611dda565b604080518082018252601c81527f7369676e617475726520766572696669636174696f6e206572726f72000000006020808301918252925162461bcd60e51b81526004810193845282516024820152825192939283926044909201919080838360008315612530578181015183820152602001612518565b7f3fa96d7b6bcbfe71ef171666d84db3cf52fa2d1c8afdb1cc8e486177f208b7df82826040516133fc929190615afc565b60008381526101fd6020526040812054614646908490611fe1565b60008581526101fc60205260409020549091508111156146785760405162461bcd60e51b8152600401610b22906159db565b60008481526101fd602052604090208190556001600160a01b0385166146b05760405162461bcd60e51b8152600401610b2290615a64565b60006146ba6124cd565b90506146db816000886146cc89612b88565b6146d589612b88565b88610f5d565b60008581526097602090815260408083206001600160a01b038a1684529091529020546147089085611fe1565b60008681526097602090815260408083206001600160a01b038b168452909152812091909155610f5d90829088888888612bcd565b6001600160e01b0319808216141561479c576040805162461bcd60e51b815260206004820152601c60248201527f4552433136353a20696e76616c696420696e7465726661636520696400000000604482015290519081900360640190fd5b6001600160e01b0319166000908152606560205260409020805460ff19166001179055565b600054610100900460ff16806147da57506147da613b8b565b806147e8575060005460ff16155b6148235760405162461bcd60e51b815260040180806020018281038252602e815260200180615df9602e913960400191505060405180910390fd5b600054610100900460ff1615801561484e576000805460ff1961ff0019909116610100171660011790555b825160208085019190912083519184019190912061016291909155610163558015610b36576000805461ff0019169055505050565b8051611554906099906020840190614c76565b4690565b6000612e3f614924565b600081516041146148fc576040805162461bcd60e51b815260206004820152601f60248201527f45434453413a20696e76616c6964207369676e6174757265206c656e67746800604482015290519081900360640190fd5b60208201516040830151606084015160001a61491a8682858561495f565b9695505050505050565b60006124d77f8b73c3c69bb8fe3d512ecc4cf759cc79239f7b179b0ffacaa9a75d522b39400f614952614bb5565b61495a614bbc565b614bc3565b60007f7fffffffffffffffffffffffffffffff5d576e7357a4501ddfe92f46681b20a08211156149c05760405162461bcd60e51b8152600401808060200182810382526022815260200180615d806022913960400191505060405180910390fd5b6000601e8560ff161115614a9a576004850360ff16601b14806149e957506004850360ff16601c145b614a245760405162461bcd60e51b8152600401808060200182810382526022815260200180615e276022913960400191505060405180910390fd5b6001614a2f87614c25565b60048703868660405160008152602001604052604051808581526020018460ff1681526020018381526020018281526020019450505050506020604051602081039080840390855afa158015614a89573d6000803e3d6000fd5b505050602060405103519050614b51565b8460ff16601b1480614aaf57508460ff16601c145b614aea5760405162461bcd60e51b8152600401808060200182810382526022815260200180615e276022913960400191505060405180910390fd5b60018686868660405160008152602001604052604051808581526020018460ff1681526020018381526020018281526020019450505050506020604051602081039080840390855afa158015614b44573d6000803e3d6000fd5b5050506020604051035190505b6001600160a01b038116614bac576040805162461bcd60e51b815260206004820152601860248201527f45434453413a20696e76616c6964207369676e61747572650000000000000000604482015290519081900360640190fd5b95945050505050565b6101625490565b6101635490565b6000838383614bd0614896565b3060405160200180868152602001858152602001848152602001838152602001826001600160a01b03168152602001955050505050506040516020818303038152906040528051906020012090509392505050565b604080517f19457468657265756d205369676e6564204d6573736167653a0a333200000000602080830191909152603c8083019490945282518083039094018452605c909101909152815191012090565b828054600181600116156101000203166002900490600052602060002090601f016020900481019282614cac5760008555614cf2565b82601f10614cc557805160ff1916838001178555614cf2565b82800160010185558215614cf2579182015b82811115614cf2578251825591602001919060010190614cd7565b50614cfe929150614d02565b5090565b5b80821115614cfe5760008155600101614d03565b803561067f81615c0d565b600082601f830112614d32578081fd5b81356020614d47614d4283615b46565b615b23565b8281528181019085830183850287018401881015614d63578586fd5b855b85811015614d8a578135614d7881615c0d565b84529284019290840190600101614d65565b5090979650505050505050565b600082601f830112614da7578081fd5b81356020614db7614d4283615b46565b82815281810190858301855b85811015614d8a57614dda898684358b0101614f01565b84529284019290840190600101614dc3565b600082601f830112614dfc578081fd5b81356020614e0c614d4283615b46565b82815281810190858301604080860288018501891015614e2a578687fd5b865b86811015614e995781838b031215614e42578788fd5b81518281018181106001600160401b0382111715614e5c57fe5b83528335614e6981615c0d565b8152838701356001600160601b0381168114614e8357898afd5b8188015285529385019391810191600101614e2c565b509198975050505050505050565b600082601f830112614eb7578081fd5b81356020614ec7614d4283615b46565b8281528181019085830183850287018401881015614ee3578586fd5b855b85811015614d8a57813584529284019290840190600101614ee5565b600082601f830112614f11578081fd5b81356001600160401b03811115614f2457fe5b614f37601f8201601f1916602001615b23565b818152846020838601011115614f4b578283fd5b816020850160208301379081016020019190915292915050565b600060c08284031215614f76578081fd5b614f8060c0615b23565b90508135815260208201356001600160401b0380821115614fa057600080fd5b614fac85838601614f01565b6020840152604084013560408401526060840135915080821115614fcf57600080fd5b614fdb85838601614dec565b60608401526080840135915080821115614ff457600080fd5b61500085838601614dec565b608084015260a084013591508082111561501957600080fd5b5061502684828501614d97565b60a08301525092915050565b600060208284031215615043578081fd5b81356119eb81615c0d565b60008060408385031215615060578081fd5b823561506b81615c0d565b9150602083013561507b81615c0d565b809150509250929050565b600080600080600060a0868803121561509d578081fd5b85356150a881615c0d565b945060208601356150b881615c0d565b935060408601356001600160401b03808211156150d3578283fd5b6150df89838a01614ea7565b945060608801359150808211156150f4578283fd5b61510089838a01614ea7565b93506080880135915080821115615115578283fd5b5061512288828901614f01565b9150509295509295909350565b600080600080600060a08688031215615146578283fd5b853561515181615c0d565b9450602086013561516181615c0d565b9350604086013592506060860135915060808601356001600160401b03811115615189578182fd5b61512288828901614f01565b6000806000606084860312156151a9578081fd5b83356151b481615c0d565b925060208401356001600160401b03808211156151cf578283fd5b6151db87838801614ea7565b935060408601359150808211156151f0578283fd5b506151fd86828701614ea7565b9150509250925092565b60008060408385031215615219578182fd5b823561522481615c0d565b91506020830135801515811461507b578182fd5b600080600080600060a0868803121561524f578283fd5b853561525a81615c0d565b945060208601356001600160401b03811115615274578384fd5b61528088828901614f01565b9450506040860135925060608601359150608086013560ff811681146152a4578182fd5b809150509295509295909350565b600080604083850312156152c4578182fd5b82356152cf81615c0d565b946020939093013593505050565b6000806000606084860312156152f1578081fd5b83356152fc81615c0d565b95602085013595506040909401359392505050565b600060208284031215615322578081fd5b81356001600160401b03811115615337578182fd5b61534384828501614d22565b949350505050565b6000806040838503121561535d578182fd5b82356001600160401b0380821115615373578384fd5b61537f86838701614d22565b93506020850135915080821115615394578283fd5b506153a185828601614ea7565b9150509250929050565b6000602082840312156153bc578081fd5b81356001600160e01b0319811681146119eb578182fd5b6000602082840312156153e4578081fd5b81356001600160401b038111156153f9578182fd5b61534384828501614f01565b60008060008060008060c0878903121561541d578384fd5b86356001600160401b0380821115615433578586fd5b61543f8a838b01614f01565b97506020890135915080821115615454578586fd5b6154608a838b01614f01565b96506040890135915080821115615475578586fd5b6154818a838b01614f01565b95506060890135915080821115615496578283fd5b506154a389828a01614f01565b9350506154b260808801614d17565b91506154c060a08801614d17565b90509295509295509295565b600080600080600080600060e0888a0312156154e6578485fd5b87356001600160401b03808211156154fc578687fd5b6155088b838c01614f01565b985060208a013591508082111561551d578687fd5b6155298b838c01614f01565b975060408a013591508082111561553e578687fd5b61554a8b838c01614f01565b965060608a013591508082111561555f578283fd5b61556b8b838c01614f01565b955060808a0135915080821115615580578283fd5b5061558d8a828b01614d22565b93505061559c60a08901614d17565b91506155aa60c08901614d17565b905092959891949750929550565b600080600080608085870312156155cd578182fd5b84356001600160401b038111156155e2578283fd5b6155ee87828801614f65565b94505060208501356155ff81615c0d565b9250604085013561560f81615c0d565b9396929550929360600135925050565b600080600060608486031215615633578081fd5b83356001600160401b03811115615648578182fd5b61565486828701614f65565b935050602084013561566581615c0d565b929592945050506040919091013590565b600060208284031215615687578081fd5b5035919050565b6000806000606084860312156156a2578081fd5b8335925060208401356156b481615c0d565b915060408401356156c481615c0d565b809150509250925092565b600080604083850312156156e1578182fd5b50508035926020909101359150565b6000815180845260208085019450808401835b8381101561573c57815180516001600160a01b031688528301516001600160601b03168388015260409096019590820190600101615703565b509495945050505050565b6000815180845260208085019450808401835b8381101561573c5781518752958201959082019060010161575a565b60008151808452815b8181101561579b5760208185018101518683018201520161577f565b818111156157ac5782602083870101525b50601f01601f19169290920160200192915050565b6001600160a01b0391909116815260200190565b6001600160a01b03841681526060602082018190526000906157f990830185615776565b828103604084015261491a8185615776565b6001600160a01b03929092168252602082015260400190565b6000602082526119eb60208301846156f0565b6000602082526119eb6020830184615747565b60006040825261585d6040830185615747565b8281036020840152614bac8185615747565b901515815260200190565b6000602082526119eb6020830184615776565b6020808252601390820152723737ba1037bbb732b91037b91036b4b73a32b960691b604082015260600190565b60208082526010908201526f1cdd5c1c1b1e481a5b98dbdc9c9958dd60821b604082015260600190565b6020808252818101527f43726561746f722073686172652073686f756c6420626520706f736974697665604082015260600190565b6020808252601190820152701d1bdad95b9259081a5b98dbdc9c9958dd607a1b604082015260600190565b6020808252600b908201526a1b9bdd08185b1b1bddd95960aa1b604082015260600190565b60208082526010908201526f185b5bdd5b9d081a5b98dbdc9c9958dd60821b604082015260600190565b60208082526028908201527f455243313135353a207472616e736665722063616c6c6572206973206e6f7420604082015267185c1c1c9bdd995960c21b606082015260800190565b60208082526010908201526f6d6f7265207468616e20737570706c7960801b604082015260600190565b60208082526019908201527f4163636f756e742073686f756c642062652070726573656e7400000000000000604082015260600190565b6020808252600e908201526d69647320213d20616d6f756e747360901b604082015260600190565b60208082526021908201527f455243313135353a206d696e7420746f20746865207a65726f206164647265736040820152607360f81b606082015260800190565b6020808252602e908201527f746f74616c20616d6f756e74206f662063726561746f7273207368617265207360408201526d0686f756c642062652031303030360941b606082015260800190565b90815260200190565b60008382526040602083015261534360408301846156f0565b918252602082015260400190565b6040518181016001600160401b0381118282101715615b3e57fe5b604052919050565b60006001600160401b03821115615b5957fe5b5060209081020190565b60e01c90565b600060443d1015615b79576113c0565b600481823e6308c379a0615b8d8251615b63565b14615b97576113c0565b6040513d600319016004823e80513d6001600160401b038160248401118184111715615bc657505050506113c0565b82840192508251915080821115615be057505050506113c0565b503d83016020828401011115615bf8575050506113c0565b601f01601f1916810160200160405291505090565b6001600160a01b0381168114613c9357600080fdfe455243313135353a207472616e7366657220746f206e6f6e2045524331313535526563656976657220696d706c656d656e746572455243313135353a204552433131353552656365697665722072656a656374656420746f6b656e73c3d58168c5ae7397731d063d5bbf3d657854427343f4c083240f7aacaa2d0f62455243313135353a2062616c616e636520717565727920666f7220746865207a65726f20616464726573734d6574615472616e73616374696f6e2875696e74323536206e6f6e63652c616464726573732066726f6d2c62797465732066756e6374696f6e5369676e6174757265294f776e61626c653a206e6577206f776e657220697320746865207a65726f2061646472657373455243313135353a206275726e20616d6f756e7420657863656564732062616c616e6365455243313135353a2063616c6c6572206973206e6f74206f776e6572206e6f7220617070726f76656445434453413a20696e76616c6964207369676e6174757265202773272076616c7565455243313135353a207472616e7366657220746f20746865207a65726f2061646472657373455243313135353a207472616e736665722063616c6c6572206973206e6f74206f776e6572206e6f7220617070726f766564496e697469616c697a61626c653a20636f6e747261637420697320616c726561647920696e697469616c697a656445434453413a20696e76616c6964207369676e6174757265202776272076616c7565455243313135353a206275726e2066726f6d20746865207a65726f2061646472657373455243313135353a20696e73756666696369656e742062616c616e636520666f72207472616e736665724f776e61626c653a2063616c6c6572206973206e6f7420746865206f776e65725369676e657220616e64207369676e617475726520646f206e6f74206d61746368526f79616c747920746f74616c2076616c75652073686f756c64206265203c203130303030455243313135353a2073657474696e6720617070726f76616c2073746174757320666f722073656c66455243313135353a206163636f756e747320616e6420696473206c656e677468206d69736d61746368455243313135353a2069647320616e6420616d6f756e7473206c656e677468206d69736d61746368a26469706673582212201156d460fbc5026c9fdb70e787b90a2c32b5b3ff2c72f1a872198d936cec765364736f6c63430007060033",
  "immutableReferences": {},
  "source": "// SPDX-License-Identifier: MIT\n\npragma solidity 0.7.6;\npragma abicoder v2;\n\nimport \"@gebrid/meta-tx/contracts/EIP712MetaTransaction.sol\";\nimport \"../ERC1155Base.sol\";\nimport \"../../IsPrivateCollection.sol\";\nimport \"../../access/MinterAccessControl.sol\";\n\ncontract ERC1155GebridMeta is ERC1155Base, IsPrivateCollection, MinterAccessControl, EIP712MetaTransaction {\n    event CreateERC1155Gebrid(address owner, string name, string symbol);\n    event CreateERC1155GebridUser(address owner, string name, string symbol);\n\n    function __ERC1155GebridUser_init(string memory _name, string memory _symbol, string memory baseURI, string memory contractURI, address[] memory operators, address transferProxy, address lazyTransferProxy) external {\n        __ERC1155Gebrid_init_unchained(_name, _symbol, baseURI, contractURI, transferProxy, lazyTransferProxy);\n\n        __MetaTransaction_init_unchained(\"ERC1155GebridUserMeta\", \"1\");\n\n        isPrivate = true;\n\n        emit CreateERC1155GebridUser(_msgSender(), _name, _symbol);\n    }\n\n    function __ERC1155Gebrid_init(string memory _name, string memory _symbol, string memory baseURI, string memory contractURI, address transferProxy, address lazyTransferProxy) external {\n        __ERC1155Gebrid_init_unchained(_name, _symbol, baseURI, contractURI, transferProxy, lazyTransferProxy);\n\n        __MetaTransaction_init_unchained(\"ERC1155GebridMeta\", \"1\");\n\n        isPrivate = false;\n\n        emit CreateERC1155Gebrid(_msgSender(), _name, _symbol);\n    }\n\n    function _msgSender() internal view virtual override(ContextUpgradeable, EIP712MetaTransaction) returns (address payable) {\n        return super._msgSender();\n    }\n\n    function __ERC1155Gebrid_init_unchained(string memory _name, string memory _symbol, string memory baseURI, string memory contractURI, address transferProxy, address lazyTransferProxy) internal initializer {\n        __Ownable_init_unchained();\n        __ERC1155Lazy_init_unchained();\n        __ERC165_init_unchained();\n        __Context_init_unchained();\n        __Mint1155Validator_init_unchained();\n        __ERC1155_init_unchained(\"\");\n        __HasContractURI_init_unchained(contractURI);\n        __ERC1155Burnable_init_unchained();\n        __RoyaltiesV2Upgradeable_init_unchained();\n        __ERC1155Base_init_unchained(_name, _symbol);\n        __MinterAccessControl_init_unchained();\n        _setBaseURI(baseURI);\n\n        //setting default approver for transferProxies\n        _setDefaultApproval(transferProxy, true);\n        _setDefaultApproval(lazyTransferProxy, true);\n    }\n\n    function mintAndTransfer(LibERC1155LazyMint.Mint1155Data memory data, address to, uint256 _amount) public override {\n        if (isPrivate){\n          require(owner() == data.creators[0].account || isMinter(data.creators[0].account), \"not owner or minter\");\n        }\n        super.mintAndTransfer(data, to, _amount);\n    }\n}\n",
  "sourcePath": "@gebrid/tokens/contracts/erc-1155/erc-1155-meta/ERC1155GebridMeta.sol",
  "compiler": {
    "name": "solc",
    "version": "0.7.6+commit.7338295f.Emscripten.clang"
  },
  "schemaVersion": "3.4.4",
  "updatedAt": "2022-10-29T10:34:29.217Z",
  "devdoc": {
    "kind": "dev",
    "methods": {
      "addMinter(address)": {
        "details": "Add `minter` to the list of allowed minters."
      },
      "addMinters(address[])": {
        "details": "Add `minters` to the list of allowed minters."
      },
      "balanceOf(address,uint256)": {
        "details": "See {IERC1155-balanceOf}. Requirements: - `account` cannot be the zero address."
      },
      "balanceOfBatch(address[],uint256[])": {
        "details": "See {IERC1155-balanceOfBatch}. Requirements: - `accounts` and `ids` must have the same length."
      },
      "baseURI()": {
        "details": "Returns the base URI set via {_setBaseURI}. This will be automatically added as a prefix in {tokenURI} to each token's URI, or to the token ID if no specific URI is set for that token ID."
      },
      "isMinter(address)": {
        "details": "Returns `true` if `account` has been granted to minters."
      },
      "owner()": {
        "details": "Returns the address of the current owner."
      },
      "removeMinter(address)": {
        "details": "Revoke `_minter` from the list of allowed minters."
      },
      "renounceOwnership()": {
        "details": "Leaves the contract without owner. It will not be possible to call `onlyOwner` functions anymore. Can only be called by the current owner. NOTE: Renouncing ownership will leave the contract without an owner, thereby removing any functionality that is only available to the owner."
      },
      "safeBatchTransferFrom(address,address,uint256[],uint256[],bytes)": {
        "details": "See {IERC1155-safeBatchTransferFrom}."
      },
      "safeTransferFrom(address,address,uint256,uint256,bytes)": {
        "details": "See {IERC1155-safeTransferFrom}."
      },
      "setApprovalForAll(address,bool)": {
        "details": "See {IERC1155-setApprovalForAll}."
      },
      "transferOwnership(address)": {
        "details": "Transfers ownership of the contract to a new account (`newOwner`). Can only be called by the current owner."
      }
    },
    "version": 1
  },
  "userdoc": {
    "kind": "user",
    "methods": {},
    "version": 1
  }
}