{
  "contractName": "ERC1155Gebrid",
  "abi": [
    {
      "anonymous": false,
      "inputs": [
        {
          "indexed": true,
          "internalType": "address",
          "name": "account",
          "type": "address"
        },
        {
          "indexed": true,
          "internalType": "address",
          "name": "operator",
          "type": "address"
        },
        {
          "indexed": false,
          "internalType": "bool",
          "name": "approved",
          "type": "bool"
        }
      ],
      "name": "ApprovalForAll",
      "type": "event"
    },
    {
      "anonymous": false,
      "inputs": [
        {
          "indexed": false,
          "internalType": "string",
          "name": "newBaseURI",
          "type": "string"
        }
      ],
      "name": "BaseUriChanged",
      "type": "event"
    },
    {
      "anonymous": false,
      "inputs": [
        {
          "indexed": true,
          "internalType": "address",
          "name": "operator",
          "type": "address"
        },
        {
          "indexed": true,
          "internalType": "address",
          "name": "account",
          "type": "address"
        },
        {
          "indexed": false,
          "internalType": "uint256",
          "name": "id",
          "type": "uint256"
        },
        {
          "indexed": false,
          "internalType": "uint256",
          "name": "amount",
          "type": "uint256"
        }
      ],
      "name": "BurnLazy",
      "type": "event"
    },
    {
      "anonymous": false,
      "inputs": [
        {
          "indexed": true,
          "internalType": "address",
          "name": "operator",
          "type": "address"
        },
        {
          "indexed": true,
          "internalType": "address",
          "name": "account",
          "type": "address"
        },
        {
          "indexed": false,
          "internalType": "uint256[]",
          "name": "ids",
          "type": "uint256[]"
        },
        {
          "indexed": false,
          "internalType": "uint256[]",
          "name": "amounts",
          "type": "uint256[]"
        }
      ],
      "name": "BurnLazyBatch",
      "type": "event"
    },
    {
      "anonymous": false,
      "inputs": [
        {
          "indexed": false,
          "internalType": "address",
          "name": "owner",
          "type": "address"
        },
        {
          "indexed": false,
          "internalType": "string",
          "name": "name",
          "type": "string"
        },
        {
          "indexed": false,
          "internalType": "string",
          "name": "symbol",
          "type": "string"
        }
      ],
      "name": "CreateERC1155Gebrid",
      "type": "event"
    },
    {
      "anonymous": false,
      "inputs": [
        {
          "indexed": false,
          "internalType": "address",
          "name": "owner",
          "type": "address"
        },
        {
          "indexed": false,
          "internalType": "string",
          "name": "name",
          "type": "string"
        },
        {
          "indexed": false,
          "internalType": "string",
          "name": "symbol",
          "type": "string"
        }
      ],
      "name": "CreateERC1155GebridUser",
      "type": "event"
    },
    {
      "anonymous": false,
      "inputs": [
        {
          "indexed": false,
          "internalType": "uint256",
          "name": "tokenId",
          "type": "uint256"
        },
        {
          "components": [
            {
              "internalType": "address payable",
              "name": "account",
              "type": "address"
            },
            {
              "internalType": "uint96",
              "name": "value",
              "type": "uint96"
            }
          ],
          "indexed": false,
          "internalType": "struct LibPart.Part[]",
          "name": "creators",
          "type": "tuple[]"
        }
      ],
      "name": "Creators",
      "type": "event"
    },
    {
      "anonymous": false,
      "inputs": [
        {
          "indexed": true,
          "internalType": "address",
          "name": "operator",
          "type": "address"
        },
        {
          "indexed": false,
          "internalType": "bool",
          "name": "hasApproval",
          "type": "bool"
        }
      ],
      "name": "DefaultApproval",
      "type": "event"
    },
    {
      "anonymous": false,
      "inputs": [
        {
          "indexed": true,
          "internalType": "address",
          "name": "minter",
          "type": "address"
        },
        {
          "indexed": true,
          "internalType": "bool",
          "name": "status",
          "type": "bool"
        }
      ],
      "name": "MinterStatusChanged",
      "type": "event"
    },
    {
      "anonymous": false,
      "inputs": [
        {
          "indexed": true,
          "internalType": "address",
          "name": "previousOwner",
          "type": "address"
        },
        {
          "indexed": true,
          "internalType": "address",
          "name": "newOwner",
          "type": "address"
        }
      ],
      "name": "OwnershipTransferred",
      "type": "event"
    },
    {
      "anonymous": false,
      "inputs": [
        {
          "indexed": false,
          "internalType": "uint256",
          "name": "tokenId",
          "type": "uint256"
        },
        {
          "components": [
            {
              "internalType": "address payable",
              "name": "account",
              "type": "address"
            },
            {
              "internalType": "uint96",
              "name": "value",
              "type": "uint96"
            }
          ],
          "indexed": false,
          "internalType": "struct LibPart.Part[]",
          "name": "royalties",
          "type": "tuple[]"
        }
      ],
      "name": "RoyaltiesSet",
      "type": "event"
    },
    {
      "anonymous": false,
      "inputs": [
        {
          "indexed": false,
          "internalType": "uint256",
          "name": "tokenId",
          "type": "uint256"
        },
        {
          "indexed": false,
          "internalType": "uint256",
          "name": "value",
          "type": "uint256"
        }
      ],
      "name": "Supply",
      "type": "event"
    },
    {
      "anonymous": false,
      "inputs": [
        {
          "indexed": true,
          "internalType": "address",
          "name": "operator",
          "type": "address"
        },
        {
          "indexed": true,
          "internalType": "address",
          "name": "from",
          "type": "address"
        },
        {
          "indexed": true,
          "internalType": "address",
          "name": "to",
          "type": "address"
        },
        {
          "indexed": false,
          "internalType": "uint256[]",
          "name": "ids",
          "type": "uint256[]"
        },
        {
          "indexed": false,
          "internalType": "uint256[]",
          "name": "values",
          "type": "uint256[]"
        }
      ],
      "name": "TransferBatch",
      "type": "event"
    },
    {
      "anonymous": false,
      "inputs": [
        {
          "indexed": true,
          "internalType": "address",
          "name": "operator",
          "type": "address"
        },
        {
          "indexed": true,
          "internalType": "address",
          "name": "from",
          "type": "address"
        },
        {
          "indexed": true,
          "internalType": "address",
          "name": "to",
          "type": "address"
        },
        {
          "indexed": false,
          "internalType": "uint256",
          "name": "id",
          "type": "uint256"
        },
        {
          "indexed": false,
          "internalType": "uint256",
          "name": "value",
          "type": "uint256"
        }
      ],
      "name": "TransferSingle",
      "type": "event"
    },
    {
      "anonymous": false,
      "inputs": [
        {
          "indexed": false,
          "internalType": "string",
          "name": "value",
          "type": "string"
        },
        {
          "indexed": true,
          "internalType": "uint256",
          "name": "id",
          "type": "uint256"
        }
      ],
      "name": "URI",
      "type": "event"
    },
    {
      "inputs": [
        {
          "internalType": "address",
          "name": "minter",
          "type": "address"
        }
      ],
      "name": "addMinter",
      "outputs": [],
      "stateMutability": "nonpayable",
      "type": "function"
    },
    {
      "inputs": [
        {
          "internalType": "address[]",
          "name": "minters",
          "type": "address[]"
        }
      ],
      "name": "addMinters",
      "outputs": [],
      "stateMutability": "nonpayable",
      "type": "function"
    },
    {
      "inputs": [
        {
          "internalType": "address",
          "name": "account",
          "type": "address"
        },
        {
          "internalType": "uint256",
          "name": "id",
          "type": "uint256"
        }
      ],
      "name": "balanceOf",
      "outputs": [
        {
          "internalType": "uint256",
          "name": "",
          "type": "uint256"
        }
      ],
      "stateMutability": "view",
      "type": "function"
    },
    {
      "inputs": [
        {
          "internalType": "address[]",
          "name": "accounts",
          "type": "address[]"
        },
        {
          "internalType": "uint256[]",
          "name": "ids",
          "type": "uint256[]"
        }
      ],
      "name": "balanceOfBatch",
      "outputs": [
        {
          "internalType": "uint256[]",
          "name": "",
          "type": "uint256[]"
        }
      ],
      "stateMutability": "view",
      "type": "function"
    },
    {
      "inputs": [],
      "name": "baseURI",
      "outputs": [
        {
          "internalType": "string",
          "name": "",
          "type": "string"
        }
      ],
      "stateMutability": "view",
      "type": "function"
    },
    {
      "inputs": [
        {
          "internalType": "address",
          "name": "account",
          "type": "address"
        },
        {
          "internalType": "uint256",
          "name": "id",
          "type": "uint256"
        },
        {
          "internalType": "uint256",
          "name": "amount",
          "type": "uint256"
        }
      ],
      "name": "burn",
      "outputs": [],
      "stateMutability": "nonpayable",
      "type": "function"
    },
    {
      "inputs": [
        {
          "internalType": "address",
          "name": "account",
          "type": "address"
        },
        {
          "internalType": "uint256[]",
          "name": "ids",
          "type": "uint256[]"
        },
        {
          "internalType": "uint256[]",
          "name": "amounts",
          "type": "uint256[]"
        }
      ],
      "name": "burnBatch",
      "outputs": [],
      "stateMutability": "nonpayable",
      "type": "function"
    },
    {
      "inputs": [],
      "name": "contractURI",
      "outputs": [
        {
          "internalType": "string",
          "name": "",
          "type": "string"
        }
      ],
      "stateMutability": "view",
      "type": "function"
    },
    {
      "inputs": [
        {
          "internalType": "uint256",
          "name": "_id",
          "type": "uint256"
        }
      ],
      "name": "getCreators",
      "outputs": [
        {
          "components": [
            {
              "internalType": "address payable",
              "name": "account",
              "type": "address"
            },
            {
              "internalType": "uint96",
              "name": "value",
              "type": "uint96"
            }
          ],
          "internalType": "struct LibPart.Part[]",
          "name": "",
          "type": "tuple[]"
        }
      ],
      "stateMutability": "view",
      "type": "function"
    },
    {
      "inputs": [
        {
          "internalType": "uint256",
          "name": "id",
          "type": "uint256"
        }
      ],
      "name": "getGebridV2Royalties",
      "outputs": [
        {
          "components": [
            {
              "internalType": "address payable",
              "name": "account",
              "type": "address"
            },
            {
              "internalType": "uint96",
              "name": "value",
              "type": "uint96"
            }
          ],
          "internalType": "struct LibPart.Part[]",
          "name": "",
          "type": "tuple[]"
        }
      ],
      "stateMutability": "view",
      "type": "function"
    },
    {
      "inputs": [
        {
          "internalType": "address",
          "name": "_owner",
          "type": "address"
        },
        {
          "internalType": "address",
          "name": "_operator",
          "type": "address"
        }
      ],
      "name": "isApprovedForAll",
      "outputs": [
        {
          "internalType": "bool",
          "name": "",
          "type": "bool"
        }
      ],
      "stateMutability": "view",
      "type": "function"
    },
    {
      "inputs": [
        {
          "internalType": "address",
          "name": "account",
          "type": "address"
        }
      ],
      "name": "isMinter",
      "outputs": [
        {
          "internalType": "bool",
          "name": "",
          "type": "bool"
        }
      ],
      "stateMutability": "view",
      "type": "function"
    },
    {
      "inputs": [],
      "name": "name",
      "outputs": [
        {
          "internalType": "string",
          "name": "",
          "type": "string"
        }
      ],
      "stateMutability": "view",
      "type": "function"
    },
    {
      "inputs": [],
      "name": "owner",
      "outputs": [
        {
          "internalType": "address",
          "name": "",
          "type": "address"
        }
      ],
      "stateMutability": "view",
      "type": "function"
    },
    {
      "inputs": [
        {
          "internalType": "address",
          "name": "_minter",
          "type": "address"
        }
      ],
      "name": "removeMinter",
      "outputs": [],
      "stateMutability": "nonpayable",
      "type": "function"
    },
    {
      "inputs": [],
      "name": "renounceOwnership",
      "outputs": [],
      "stateMutability": "nonpayable",
      "type": "function"
    },
    {
      "inputs": [
        {
          "internalType": "uint256",
          "name": "id",
          "type": "uint256"
        },
        {
          "internalType": "uint256",
          "name": "_salePrice",
          "type": "uint256"
        }
      ],
      "name": "royaltyInfo",
      "outputs": [
        {
          "internalType": "address",
          "name": "receiver",
          "type": "address"
        },
        {
          "internalType": "uint256",
          "name": "royaltyAmount",
          "type": "uint256"
        }
      ],
      "stateMutability": "view",
      "type": "function"
    },
    {
      "inputs": [
        {
          "internalType": "address",
          "name": "from",
          "type": "address"
        },
        {
          "internalType": "address",
          "name": "to",
          "type": "address"
        },
        {
          "internalType": "uint256[]",
          "name": "ids",
          "type": "uint256[]"
        },
        {
          "internalType": "uint256[]",
          "name": "amounts",
          "type": "uint256[]"
        },
        {
          "internalType": "bytes",
          "name": "data",
          "type": "bytes"
        }
      ],
      "name": "safeBatchTransferFrom",
      "outputs": [],
      "stateMutability": "nonpayable",
      "type": "function"
    },
    {
      "inputs": [
        {
          "internalType": "address",
          "name": "from",
          "type": "address"
        },
        {
          "internalType": "address",
          "name": "to",
          "type": "address"
        },
        {
          "internalType": "uint256",
          "name": "id",
          "type": "uint256"
        },
        {
          "internalType": "uint256",
          "name": "amount",
          "type": "uint256"
        },
        {
          "internalType": "bytes",
          "name": "data",
          "type": "bytes"
        }
      ],
      "name": "safeTransferFrom",
      "outputs": [],
      "stateMutability": "nonpayable",
      "type": "function"
    },
    {
      "inputs": [
        {
          "internalType": "address",
          "name": "operator",
          "type": "address"
        },
        {
          "internalType": "bool",
          "name": "approved",
          "type": "bool"
        }
      ],
      "name": "setApprovalForAll",
      "outputs": [],
      "stateMutability": "nonpayable",
      "type": "function"
    },
    {
      "inputs": [
        {
          "internalType": "string",
          "name": "newBaseURI",
          "type": "string"
        }
      ],
      "name": "setBaseURI",
      "outputs": [],
      "stateMutability": "nonpayable",
      "type": "function"
    },
    {
      "inputs": [
        {
          "internalType": "bytes4",
          "name": "interfaceId",
          "type": "bytes4"
        }
      ],
      "name": "supportsInterface",
      "outputs": [
        {
          "internalType": "bool",
          "name": "",
          "type": "bool"
        }
      ],
      "stateMutability": "view",
      "type": "function"
    },
    {
      "inputs": [],
      "name": "symbol",
      "outputs": [
        {
          "internalType": "string",
          "name": "",
          "type": "string"
        }
      ],
      "stateMutability": "view",
      "type": "function"
    },
    {
      "inputs": [
        {
          "components": [
            {
              "internalType": "uint256",
              "name": "tokenId",
              "type": "uint256"
            },
            {
              "internalType": "string",
              "name": "tokenURI",
              "type": "string"
            },
            {
              "internalType": "uint256",
              "name": "supply",
              "type": "uint256"
            },
            {
              "components": [
                {
                  "internalType": "address payable",
                  "name": "account",
                  "type": "address"
                },
                {
                  "internalType": "uint96",
                  "name": "value",
                  "type": "uint96"
                }
              ],
              "internalType": "struct LibPart.Part[]",
              "name": "creators",
              "type": "tuple[]"
            },
            {
              "components": [
                {
                  "internalType": "address payable",
                  "name": "account",
                  "type": "address"
                },
                {
                  "internalType": "uint96",
                  "name": "value",
                  "type": "uint96"
                }
              ],
              "internalType": "struct LibPart.Part[]",
              "name": "royalties",
              "type": "tuple[]"
            },
            {
              "internalType": "bytes[]",
              "name": "signatures",
              "type": "bytes[]"
            }
          ],
          "internalType": "struct LibERC1155LazyMint.Mint1155Data",
          "name": "data",
          "type": "tuple"
        },
        {
          "internalType": "address",
          "name": "from",
          "type": "address"
        },
        {
          "internalType": "address",
          "name": "to",
          "type": "address"
        },
        {
          "internalType": "uint256",
          "name": "amount",
          "type": "uint256"
        }
      ],
      "name": "transferFromOrMint",
      "outputs": [],
      "stateMutability": "nonpayable",
      "type": "function"
    },
    {
      "inputs": [
        {
          "internalType": "address",
          "name": "newOwner",
          "type": "address"
        }
      ],
      "name": "transferOwnership",
      "outputs": [],
      "stateMutability": "nonpayable",
      "type": "function"
    },
    {
      "inputs": [
        {
          "internalType": "uint256",
          "name": "_id",
          "type": "uint256"
        },
        {
          "internalType": "address",
          "name": "_from",
          "type": "address"
        },
        {
          "internalType": "address",
          "name": "_to",
          "type": "address"
        }
      ],
      "name": "updateAccount",
      "outputs": [],
      "stateMutability": "nonpayable",
      "type": "function"
    },
    {
      "inputs": [
        {
          "internalType": "uint256",
          "name": "id",
          "type": "uint256"
        }
      ],
      "name": "uri",
      "outputs": [
        {
          "internalType": "string",
          "name": "",
          "type": "string"
        }
      ],
      "stateMutability": "view",
      "type": "function"
    },
    {
      "inputs": [
        {
          "internalType": "string",
          "name": "_name",
          "type": "string"
        },
        {
          "internalType": "string",
          "name": "_symbol",
          "type": "string"
        },
        {
          "internalType": "string",
          "name": "baseURI",
          "type": "string"
        },
        {
          "internalType": "string",
          "name": "contractURI",
          "type": "string"
        },
        {
          "internalType": "address[]",
          "name": "operators",
          "type": "address[]"
        },
        {
          "internalType": "address",
          "name": "transferProxy",
          "type": "address"
        },
        {
          "internalType": "address",
          "name": "lazyTransferProxy",
          "type": "address"
        }
      ],
      "name": "__ERC1155GebridUser_init",
      "outputs": [],
      "stateMutability": "nonpayable",
      "type": "function"
    },
    {
      "inputs": [
        {
          "internalType": "string",
          "name": "_name",
          "type": "string"
        },
        {
          "internalType": "string",
          "name": "_symbol",
          "type": "string"
        },
        {
          "internalType": "string",
          "name": "baseURI",
          "type": "string"
        },
        {
          "internalType": "string",
          "name": "contractURI",
          "type": "string"
        },
        {
          "internalType": "address",
          "name": "transferProxy",
          "type": "address"
        },
        {
          "internalType": "address",
          "name": "lazyTransferProxy",
          "type": "address"
        }
      ],
      "name": "__ERC1155Gebrid_init",
      "outputs": [],
      "stateMutability": "nonpayable",
      "type": "function"
    },
    {
      "inputs": [
        {
          "components": [
            {
              "internalType": "uint256",
              "name": "tokenId",
              "type": "uint256"
            },
            {
              "internalType": "string",
              "name": "tokenURI",
              "type": "string"
            },
            {
              "internalType": "uint256",
              "name": "supply",
              "type": "uint256"
            },
            {
              "components": [
                {
                  "internalType": "address payable",
                  "name": "account",
                  "type": "address"
                },
                {
                  "internalType": "uint96",
                  "name": "value",
                  "type": "uint96"
                }
              ],
              "internalType": "struct LibPart.Part[]",
              "name": "creators",
              "type": "tuple[]"
            },
            {
              "components": [
                {
                  "internalType": "address payable",
                  "name": "account",
                  "type": "address"
                },
                {
                  "internalType": "uint96",
                  "name": "value",
                  "type": "uint96"
                }
              ],
              "internalType": "struct LibPart.Part[]",
              "name": "royalties",
              "type": "tuple[]"
            },
            {
              "internalType": "bytes[]",
              "name": "signatures",
              "type": "bytes[]"
            }
          ],
          "internalType": "struct LibERC1155LazyMint.Mint1155Data",
          "name": "data",
          "type": "tuple"
        },
        {
          "internalType": "address",
          "name": "to",
          "type": "address"
        },
        {
          "internalType": "uint256",
          "name": "_amount",
          "type": "uint256"
        }
      ],
      "name": "mintAndTransfer",
      "outputs": [],
      "stateMutability": "nonpayable",
      "type": "function"
    }
  ],
  "bytecode": "0x608060405234801561001057600080fd5b50615644806100206000396000f3fe608060405234801561001057600080fd5b50600436106101d95760003560e01c80638da5cb5b11610104578063e07f2319116100a2578063f242432a11610071578063f242432a146103f1578063f2fde38b14610404578063f5298aca14610417578063ffc4e0a71461042a576101d9565b8063e07f2319146103b0578063e8a3d485146103c3578063e985e9c5146103cb578063f1be5e5f146103de576101d9565b80639a2c72b5116100de5780639a2c72b514610364578063a22cb46514610377578063aa271e1a1461038a578063d8ec63f81461039d576101d9565b80638da5cb5b1461033457806395d89b4114610349578063983b2d5614610351576101d9565b80633092afd51161017c5780636c0360eb1161014b5780636c0360eb146102f1578063715018a6146102f957806371e2a65714610301578063891be97414610314576101d9565b80633092afd5146102985780634e1273f4146102ab57806355f804b3146102cb5780636b20c454146102de576101d9565b80630e89341c116101b85780630e89341c1461023c5780630eaead671461024f5780632a55205a146102645780632eb2c2d614610285576101d9565b8062fdd58e146101de57806301ffc9a71461020757806306fdde0314610227575b600080fd5b6101f16101ec3660046149af565b61043d565b6040516101fe91906151f0565b60405180910390f35b61021a610215366004614aa8565b6104af565b6040516101fe9190614f6c565b61022f6104c2565b6040516101fe9190614f77565b61022f61024a366004614d73565b610551565b61026261025d366004614d1c565b61055c565b005b610277610272366004614dcc565b610600565b6040516101fe929190614f08565b6102626102933660046147fd565b610710565b6102626102a63660046147a9565b610a0e565b6102be6102b9366004614a48565b610abe565b6040516101fe9190614f34565b6102626102d9366004614ad0565b610ba9565b6102626102ec36600461490c565b610c4e565b61022f610dd4565b610262610e6c565b61026261030f366004614a0e565b610f18565b610327610322366004614d73565b611001565b6040516101fe9190614f21565b61033c611091565b6040516101fe9190614ebe565b61022f6110a0565b61026261035f3660046147a9565b6110fc565b610262610372366004614b02565b6111b1565b61026261038536600461497e565b611214565b61021a6103983660046147a9565b611303565b6103276103ab366004614d73565b611322565b6102626103be366004614d8b565b61139d565b61022f6113e0565b61021a6103d93660046147c5565b61143c565b6102626103ec366004614bc9565b61144f565b6102626103ff3660046148a6565b6114b6565b6102626104123660046147a9565b61166f565b6102626104253660046149da565b611772565b610262610438366004614cb5565b6117ee565b60006001600160a01b0383166104845760405162461bcd60e51b815260040180806020018281038252602b81526020018061539c602b913960400191505060405180910390fd5b5060008181526097602090815260408083206001600160a01b03861684529091529020545b92915050565b60006104ba82611849565b90505b919050565b610262805460408051602060026001851615610100026000190190941693909304601f810184900484028201840190925281815292918301828280156105495780601f1061051e57610100808354040283529160200191610549565b820191906000526020600020905b81548152906001019060200180831161052c57829003601f168201915b505050505081565b60606104ba826118e8565b6102965460ff16156105f057826060015160008151811061057957fe5b6020026020010151600001516001600160a01b0316610596611091565b6001600160a01b031614806105cb57506105cb83606001516000815181106105ba57fe5b602002602001015160000151611303565b6105f05760405162461bcd60e51b81526004016105e790614f8a565b60405180910390fd5b6105fb838383611a7e565b505050565b60008281526101fa6020526040812054819061062157506000905080610709565b60008481526101fa6020908152604080832080548251818502810185019093528083529192909190849084015b8282101561069d57600084815260209081902060408051808201909152908401546001600160a01b0381168252600160a01b90046001600160601b03168183015282526001909201910161064e565b505050509050806000815181106106b057fe5b60209081029190910101515192506000805b82518110156106fd578281815181106106d757fe5b6020026020010151602001516001600160601b03168201915080806001019150506106c2565b50612710908502049150505b9250929050565b81518351146107505760405162461bcd60e51b81526004018080602001828103825260288152602001806155e76028913960400191505060405180910390fd5b6001600160a01b0384166107955760405162461bcd60e51b815260040180806020018281038252602581526020018061545c6025913960400191505060405180910390fd5b61079d611d7a565b6001600160a01b0316856001600160a01b031614806107c357506107c3856103d9611d7a565b6107fe5760405162461bcd60e51b81526004018080602001828103825260328152602001806154816032913960400191505060405180910390fd5b6000610808611d7a565b9050610818818787878787610a06565b60005b845181101561091e57600085828151811061083257fe5b60200260200101519050600085838151811061084a57fe5b602002602001015190506108b7816040518060600160405280602a8152602001615526602a91396097600086815260200190815260200160002060008d6001600160a01b03166001600160a01b0316815260200190815260200160002054611d7e9092919063ffffffff16565b60008381526097602090815260408083206001600160a01b038e811685529252808320939093558a16815220546108ee9082611e15565b60009283526097602090815260408085206001600160a01b038c168652909152909220919091555060010161081b565b50846001600160a01b0316866001600160a01b0316826001600160a01b03167f4a39dc06d4c0dbc64b70af90fd698a233a518aa5d07e595d983b8c0526c8f7fb8787604051808060200180602001838103835285818151815260200191508051906020019060200280838360005b838110156109a457818101518382015260200161098c565b50505050905001838103825284818151815260200191508051906020019060200280838360005b838110156109e35781810151838201526020016109cb565b5050505090500194505050505060405180910390a4610a06818787878787611e6f565b505050505050565b610a16611d7a565b6001600160a01b0316610a27611091565b6001600160a01b031614610a70576040805162461bcd60e51b81526020600482018190526024820152600080516020615550833981519152604482015290519081900360640190fd5b6001600160a01b03811660008181526102c86020526040808220805460ff19169055519091907f3042b80e435ae46c334b2cfec51a66d64c9a8a8af4cd0c279a124c35a09e91dd908390a350565b60608151835114610b005760405162461bcd60e51b81526004018080602001828103825260298152602001806155be6029913960400191505060405180910390fd5b600083516001600160401b0381118015610b1957600080fd5b50604051908082528060200260200182016040528015610b43578160200160208202803683370190505b50905060005b8451811015610ba157610b82858281518110610b6157fe5b6020026020010151858381518110610b7557fe5b602002602001015161043d565b828281518110610b8e57fe5b6020908102919091010152600101610b49565b509392505050565b610bb1611d7a565b6001600160a01b0316610bc2611091565b6001600160a01b031614610c0b576040805162461bcd60e51b81526020600482018190526024820152600080516020615550833981519152604482015290519081900360640190fd5b610c14816120ee565b7f87cdeaffd8e70903d6ce7cc983fac3b09ca79e83818124c98e47a1d70f8027d681604051610c439190614f77565b60405180910390a150565b8051825114610c6f5760405162461bcd60e51b81526004016105e790615139565b600082516001600160401b0381118015610c8857600080fd5b50604051908082528060200260200182016040528015610cb2578160200160208202803683370190505b509050600083516001600160401b0381118015610cce57600080fd5b50604051908082528060200260200182016040528015610cf8578160200160208202803683370190505b50905060005b8451811015610d6d57610d37858281518110610d1657fe5b6020026020010151858381518110610d2a57fe5b6020026020010151612102565b848381518110610d4357fe5b60200260200101848481518110610d5657fe5b602090810291909101019190915252600101610cfe565b50610d79858584612177565b846001600160a01b0316610d8b611d7a565b6001600160a01b03167fcf3391513e21a9d4a0348f8e890080170eba18dc62db35b60d8a518b7088eb3a8684604051610dc5929190614f47565b60405180910390a35050505050565b61012f8054604080516020601f6002600019610100600188161502019095169490940493840181900481028201810190925282815260609390929091830182828015610e615780601f10610e3657610100808354040283529160200191610e61565b820191906000526020600020905b815481529060010190602001808311610e4457829003601f168201915b505050505090505b90565b610e74611d7a565b6001600160a01b0316610e85611091565b6001600160a01b031614610ece576040805162461bcd60e51b81526020600482018190526024820152600080516020615550833981519152604482015290519081900360640190fd5b6033546040516000916001600160a01b0316907f8be0079c531659141344cd1fd0a4f28419497f9722a3daafe3b4186f6b6457e0908390a3603380546001600160a01b0319169055565b610f20611d7a565b6001600160a01b0316610f31611091565b6001600160a01b031614610f7a576040805162461bcd60e51b81526020600482018190526024820152600080516020615550833981519152604482015290519081900360640190fd5b60005b8151811015610ffd576000828281518110610f9457fe5b6020908102919091018101516001600160a01b03811660008181526102c89093526040808420805460ff1916600190811790915590519294509290917f3042b80e435ae46c334b2cfec51a66d64c9a8a8af4cd0c279a124c35a09e91dd9190a350600101610f7d565b5050565b60606101fb6000838152602001908152602001600020805480602002602001604051908101604052809291908181526020016000905b8282101561108657600084815260209081902060408051808201909152908401546001600160a01b0381168252600160a01b90046001600160601b031681830152825260019092019101611037565b505050509050919050565b6033546001600160a01b031690565b610263805460408051602060026001851615610100026000190190941693909304601f810184900484028201840190925281815292918301828280156105495780601f1061051e57610100808354040283529160200191610549565b611104611d7a565b6001600160a01b0316611115611091565b6001600160a01b03161461115e576040805162461bcd60e51b81526020600482018190526024820152600080516020615550833981519152604482015290519081900360640190fd5b6001600160a01b03811660008181526102c86020526040808220805460ff1916600190811790915590519092917f3042b80e435ae46c334b2cfec51a66d64c9a8a8af4cd0c279a124c35a09e91dd91a350565b6111bf8686868686866121eb565b610296805460ff191690557f11f3d55c247f1145a01dc8d1419586190858272d8741b1023c8a6a2b35e320b16111f3611d7a565b878760405161120493929190614ed2565b60405180910390a1505050505050565b816001600160a01b0316611226611d7a565b6001600160a01b0316141561126c5760405162461bcd60e51b81526004018080602001828103825260298152602001806155956029913960400191505060405180910390fd5b8060986000611279611d7a565b6001600160a01b03908116825260208083019390935260409182016000908120918716808252919093529120805460ff1916921515929092179091556112bd611d7a565b6001600160a01b03167f17307eab39ab6107e8899845ad3d59bd9653f200f220920489ca2b5937696c318360405180821515815260200191505060405180910390a35050565b6001600160a01b031660009081526102c8602052604090205460ff1690565b60008181526101fa6020908152604080832080548251818502810185019093528083526060949293919290918401821561108657600084815260209081902060408051808201909152908401546001600160a01b0381168252600160a01b90046001600160601b031681830152825260019092019101611037565b816001600160a01b03166113af611d7a565b6001600160a01b0316146113d55760405162461bcd60e51b81526004016105e790615041565b6105fb83838361231c565b610230805460408051602060026001851615610100026000190190941693909304601f810184900484028201840190925281815292918301828280156105495780601f1061051e57610100808354040283529160200191610549565b600061144883836123c8565b9392505050565b61145d8787878786866121eb565b610296805460ff191660011790557fa9055597032c47b7eb48adcba0a97f4294cc5ec65b89ba4c7b8eb2c73424d180611494611d7a565b88886040516114a593929190614ed2565b60405180910390a150505050505050565b6001600160a01b0384166114fb5760405162461bcd60e51b815260040180806020018281038252602581526020018061545c6025913960400191505060405180910390fd5b611503611d7a565b6001600160a01b0316856001600160a01b031614806115295750611529856103d9611d7a565b6115645760405162461bcd60e51b81526004018080602001828103825260298152602001806154116029913960400191505060405180910390fd5b600061156e611d7a565b905061158e81878761157f886123f4565b611588886123f4565b87610a06565b6115d5836040518060600160405280602a8152602001615526602a913960008781526097602090815260408083206001600160a01b038d1684529091529020549190611d7e565b60008581526097602090815260408083206001600160a01b038b8116855292528083209390935587168152205461160c9084611e15565b60008581526097602090815260408083206001600160a01b03808b168086529184529382902094909455805188815291820187905280518a84169386169260008051602061537c83398151915292908290030190a4610a06818787878787612439565b611677611d7a565b6001600160a01b0316611688611091565b6001600160a01b0316146116d1576040805162461bcd60e51b81526020600482018190526024820152600080516020615550833981519152604482015290519081900360640190fd5b6001600160a01b0381166117165760405162461bcd60e51b81526004018080602001828103825260268152602001806153c76026913960400191505060405180910390fd5b6033546040516001600160a01b038084169216907f8be0079c531659141344cd1fd0a4f28419497f9722a3daafe3b4186f6b6457e090600090a3603380546001600160a01b0319166001600160a01b0392909216919091179055565b60008061177f8484612102565b90925090508115611795576117958585846125aa565b80156117e757846001600160a01b03166117ad611d7a565b6001600160a01b03167f5110a21391aa55386de41fe7a3e3dffb40132d38d629a113a7f4afff251b1a018684604051610dc5929190615212565b5050505050565b60006117fe84866000015161043d565b90508181156118385782808310156118135750815b6118338686896000015184604051806020016040528060008152506114b6565b830390505b8015610a0657610a0686858361055c565b60006001600160e01b03198216636db15a0f60e01b148061187a57506001600160e01b0319821663656cb66560e11b145b8061189557506001600160e01b0319821663152a902d60e11b145b806118b057506001600160e01b031982166301ffc9a760e01b145b806118cb57506001600160e01b03198216636cdb3d1360e11b145b806104ba5750506001600160e01b0319166303a24d0760e21b1490565b600081815261012e6020908152604080832080548251601f600260001961010060018616150201909316929092049182018590048502810185019093528083526060949383018282801561197d5780601f106119525761010080835404028352916020019161197d565b820191906000526020600020905b81548152906001019060200180831161196057829003601f168201915b50505050509050600061198e610dd4565b90508051600014156119a2575090506104bd565b8151156119bc576119b3818361261e565b925050506104bd565b806119c685612803565b6040516020018083805190602001908083835b602083106119f85780518252601f1990920191602091820191016119d9565b51815160209384036101000a600019018019909216911617905285519190930192850191508083835b60208310611a405780518252601f199092019160209182019101611a21565b6001836020036101000a0380198251168184511680821785525050505050509050019250505060405160208183030381529060405292505050919050565b825160601c6000611a8d611d7a565b9050806001600160a01b0316826001600160a01b03161480611ab45750611ab4828261143c565b611ad05760405162461bcd60e51b81526004016105e790615090565b60008311611af05760405162461bcd60e51b81526004016105e790615066565b845160009081526101fc6020526040902054611c59578460600151600081518110611b1757fe5b6020026020010151600001516001600160a01b0316826001600160a01b031614611b535760405162461bcd60e51b81526004016105e790615016565b6000856040015111611b775760405162461bcd60e51b81526004016105e790614fb7565b8460a001515185606001515114611b8d57600080fd5b6000611b98866128dd565b905060005b866060015151811015611c0e57600087606001518281518110611bbc57fe5b6020026020010151600001519050836001600160a01b0316816001600160a01b031614611c0557611c0581848a60a001518581518110611bf857fe5b6020026020010151612b30565b50600101611b9d565b50611c2186600001518760400151612b3b565b611c3386600001518760800151612ba5565b611c4586600001518760600151612d94565b611c5786600001518760200151612f43565b505b611c788486600001518560405180602001604052806000815250613007565b836001600160a01b0316826001600160a01b031614611d2957816001600160a01b031660006001600160a01b0316826001600160a01b031660008051602061537c833981519152886000015187604051611cd3929190615212565b60405180910390a4836001600160a01b0316826001600160a01b0316826001600160a01b031660008051602061537c833981519152886000015187604051611d1c929190615212565b60405180910390a46117e7565b836001600160a01b031660006001600160a01b0316826001600160a01b031660008051602061537c833981519152886000015187604051611d6b929190615212565b60405180910390a45050505050565b3390565b60008184841115611e0d5760405162461bcd60e51b81526004018080602001828103825283818151815260200191508051906020019080838360005b83811015611dd2578181015183820152602001611dba565b50505050905090810190601f168015611dff5780820380516001836020036101000a031916815260200191505b509250505060405180910390fd5b505050900390565b600082820183811015611448576040805162461bcd60e51b815260206004820152601b60248201527f536166654d6174683a206164646974696f6e206f766572666c6f770000000000604482015290519081900360640190fd5b611e81846001600160a01b0316613019565b15610a0657836001600160a01b031663bc197c8187878686866040518663ffffffff1660e01b815260040180866001600160a01b03168152602001856001600160a01b03168152602001806020018060200180602001848103845287818151815260200191508051906020019060200280838360005b83811015611f0f578181015183820152602001611ef7565b50505050905001848103835286818151815260200191508051906020019060200280838360005b83811015611f4e578181015183820152602001611f36565b50505050905001848103825285818151815260200191508051906020019080838360005b83811015611f8a578181015183820152602001611f72565b50505050905090810190601f168015611fb75780820380516001836020036101000a031916815260200191505b5098505050505050505050602060405180830381600087803b158015611fdc57600080fd5b505af192505050801561200157506040513d6020811015611ffc57600080fd5b505160015b6120965761200d615266565b80612018575061205f565b60405162461bcd60e51b8152602060048201818152835160248401528351849391928392604401919085019080838360008315611dd2578181015183820152602001611dba565b60405162461bcd60e51b81526004018080602001828103825260348152602001806153206034913960400191505060405180910390fd5b6001600160e01b0319811663bc197c8160e01b146120e55760405162461bcd60e51b81526004018080602001828103825260288152602001806153546028913960400191505060405180910390fd5b50505050505050565b8051610ffd9061012f9060208401906143ed565b806000606084901c612112611d7a565b6001600160a01b0316816001600160a01b0316141561216f5783915060006121398661301f565b9050801561215e57600061214c87613032565b820390508086111561215c578093505b505b6121688684613045565b8285039350505b509250929050565b61217f611d7a565b6001600160a01b0316836001600160a01b031614806121a557506121a5836103d9611d7a565b6121e05760405162461bcd60e51b81526004018080602001828103825260298152602001806154116029913960400191505060405180910390fd5b6105fb83838361305e565b600054610100900460ff168061220457506122046132cc565b80612212575060005460ff16155b61224d5760405162461bcd60e51b815260040180806020018281038252602e8152602001806154b3602e913960400191505060405180910390fd5b600054610100900460ff16158015612278576000805460ff1961ff0019909116610100171660011790555b6122806132dd565b6122886133d7565b612290613478565b6122986133d7565b6122a0613515565b6122b8604051806020016040528060008152506135e5565b6122c1846136b0565b6122c96133d7565b6122d1613762565b6122db87876137ff565b6122e36133d7565b6122ec856120ee565b6122f78360016138cc565b6123028260016138cc565b80156120e5576000805461ff001916905550505050505050565b60008381526101fa6020526040812054905b818110156117e75760008581526101fa6020526040902080546001600160a01b03861691908390811061235d57fe5b6000918252602090912001546001600160a01b031614156123c05760008581526101fa6020526040902080548491908390811061239657fe5b600091825260209091200180546001600160a01b0319166001600160a01b03929092169190911790555b60010161232e565b6001600160a01b038116600090815260c9602052604081205460ff16806114485750611448838361392c565b6040805160018082528183019092526060916000919060208083019080368337019050509050828160008151811061242857fe5b602090810291909101015292915050565b61244b846001600160a01b0316613019565b15610a0657836001600160a01b031663f23a6e6187878686866040518663ffffffff1660e01b815260040180866001600160a01b03168152602001856001600160a01b0316815260200184815260200183815260200180602001828103825283818151815260200191508051906020019080838360005b838110156124da5781810151838201526020016124c2565b50505050905090810190601f1680156125075780820380516001836020036101000a031916815260200191505b509650505050505050602060405180830381600087803b15801561252a57600080fd5b505af192505050801561254f57506040513d602081101561254a57600080fd5b505160015b61255b5761200d615266565b6001600160e01b0319811663f23a6e6160e01b146120e55760405162461bcd60e51b81526004018080602001828103825260288152602001806153546028913960400191505060405180910390fd5b6125b2611d7a565b6001600160a01b0316836001600160a01b031614806125d857506125d8836103d9611d7a565b6126135760405162461bcd60e51b81526004018080602001828103825260298152602001806154116029913960400191505060405180910390fd5b6105fb83838361395a565b805182516060918491849110156126e95784846040516020018083805190602001908083835b602083106126635780518252601f199092019160209182019101612644565b51815160209384036101000a600019018019909216911617905285519190930192850191508083835b602083106126ab5780518252601f19909201916020918201910161268c565b6001836020036101000a03801982511681845116808217855250505050505090500192505050604051602081830303815290604052925050506104a9565b60005b82518110156127f95782818151811061270157fe5b602001015160f81c60f81b6001600160f81b03191682828151811061272257fe5b01602001516001600160f81b031916146127f15785856040516020018083805190602001908083835b6020831061276a5780518252601f19909201916020918201910161274b565b51815160209384036101000a600019018019909216911617905285519190930192850191508083835b602083106127b25780518252601f199092019160209182019101612793565b6001836020036101000a0380198251168184511680821785525050505050509050019250505060405160208183030381529060405293505050506104a9565b6001016126ec565b5092949350505050565b60608161282857506040805180820190915260018152600360fc1b60208201526104bd565b8160005b811561284057600101600a8204915061282c565b6000816001600160401b038111801561285857600080fd5b506040519080825280601f01601f191660200182016040528015612883576020820181803683370190505b50859350905060001982015b83156128d457600a840660300160f81b828280600190039350815181106128b257fe5b60200101906001600160f81b031916908160001a905350600a8404935061288f565b50949350505050565b6000808260800151516001600160401b03811180156128fb57600080fd5b50604051908082528060200260200182016040528015612925578160200160208202803683370190505b50905060005b836080015151811015612977576129588460800151828151811061294b57fe5b6020026020010151613a7b565b82828151811061296457fe5b602090810291909101015260010161292b565b5060008360600151516001600160401b038111801561299557600080fd5b506040519080825280602002602001820160405280156129bf578160200160208202803683370190505b50905060005b846060015151811015612a04576129e58560600151828151811061294b57fe5b8282815181106129f157fe5b60209081029190910101526001016129c5565b507ffb988707ebb338694f318760b0fd5cfe756d00a2ade251fda110b80c336a3c7f846000015185604001518660200151805190602001208460405160200180828051906020019060200280838360005b83811015612a6d578181015183820152602001612a55565b50505050905001915050604051602081830303815290604052805190602001208660405160200180828051906020019060200280838360005b83811015612abe578181015183820152602001612aa6565b50505050905001915050604051602081830303815290604052805190602001206040516020018087815260200186815260200185815260200184815260200183815260200182815260200196505050505050506040516020818303038152906040528051906020012092505050919050565b6105fb838383613ae8565b60008281526101fc602052604090205415612b5557600080fd5b60008281526101fc602052604090819020829055517f5e2aa66efd74cce82b21852e317e5490d9ecc9e6bb953ae24d90851258cc2f5c90612b999084908490615212565b60405180910390a15050565b6000805b8251811015612d495760006001600160a01b0316838281518110612bc957fe5b6020026020010151600001516001600160a01b03161415612c31576040805162461bcd60e51b815260206004820152601b60248201527f526563697069656e742073686f756c642062652070726573656e740000000000604482015290519081900360640190fd5b828181518110612c3d57fe5b6020026020010151602001516001600160601b031660001415612ca7576040805162461bcd60e51b815260206004820181905260248201527f526f79616c74792076616c75652073686f756c6420626520706f736974697665604482015290519081900360640190fd5b828181518110612cb357fe5b6020026020010151602001516001600160601b0316820191506101fa6000858152602001908152602001600020838281518110612cec57fe5b60209081029190910181015182546001818101855560009485529383902082519101805492909301516001600160601b0316600160a01b026001600160a01b039182166001600160a01b0319909316929092171617905501612ba9565b506127108110612d8a5760405162461bcd60e51b81526004018080602001828103825260258152602001806155706025913960400191505060405180910390fd5b6105fb8383613d2a565b60008281526101fb6020526040812090805b8351811015612ee25760006001600160a01b0316848281518110612dc657fe5b6020026020010151600001516001600160a01b03161415612df95760405162461bcd60e51b81526004016105e790615102565b838181518110612e0557fe5b6020026020010151602001516001600160601b031660001415612e3a5760405162461bcd60e51b81526004016105e790614fe1565b82848281518110612e4757fe5b602090810291909101810151825460018101845560009384529282902081519301805491909201516001600160601b0316600160a01b026001600160a01b039384166001600160a01b0319909216919091179092169190911790558351612ed890859083908110612eb457fe5b6020026020010151602001516001600160601b031683611e1590919063ffffffff16565b9150600101612da6565b508061271014612f045760405162461bcd60e51b81526004016105e7906151a2565b7f841ffb90d4cabdd1f16034f3fa831d79060febbb8167bdd54a49269365bdf78f8484604051612f359291906151f9565b60405180910390a150505050565b600082815261012e602090815260409091208251612f63928401906143ed565b50817f6bb7ff708619ba0610cba295a58592e0451dee2622938c8755667688daf3529b612f8f846118e8565b6040805160208082528351818301528351919283929083019185019080838360005b83811015612fc9578181015183820152602001612fb1565b50505050905090810190601f168015612ff65780820380516001836020036101000a031916815260200191505b509250505060405180910390a25050565b61301384848484613d5b565b50505050565b3b151590565b60009081526101fc602052604090205490565b60009081526101fd602052604090205490565b60009182526101fd602052604090912080549091019055565b6001600160a01b0383166130a35760405162461bcd60e51b81526004018080602001828103825260238152602001806155036023913960400191505060405180910390fd5b80518251146130e35760405162461bcd60e51b81526004018080602001828103825260288152602001806155e76028913960400191505060405180910390fd5b60006130ed611d7a565b905061310d81856000868660405180602001604052806000815250610a06565b60005b83518110156131eb576131a283828151811061312857fe5b60200260200101516040518060600160405280602481526020016153ed602491396097600088868151811061315957fe5b602002602001015181526020019081526020016000206000896001600160a01b03166001600160a01b0316815260200190815260200160002054611d7e9092919063ffffffff16565b609760008684815181106131b257fe5b602090810291909101810151825281810192909252604090810160009081206001600160a01b038a168252909252902055600101613110565b5060006001600160a01b0316846001600160a01b0316826001600160a01b03167f4a39dc06d4c0dbc64b70af90fd698a233a518aa5d07e595d983b8c0526c8f7fb8686604051808060200180602001838103835285818151815260200191508051906020019060200280838360005b8381101561327257818101518382015260200161325a565b50505050905001838103825284818151815260200191508051906020019060200280838360005b838110156132b1578181015183820152602001613299565b5050505090500194505050505060405180910390a450505050565b60006132d730613019565b15905090565b600054610100900460ff16806132f657506132f66132cc565b80613304575060005460ff16155b61333f5760405162461bcd60e51b815260040180806020018281038252602e8152602001806154b3602e913960400191505060405180910390fd5b600054610100900460ff1615801561336a576000805460ff1961ff0019909116610100171660011790555b6000613374611d7a565b603380546001600160a01b0319166001600160a01b038316908117909155604051919250906000907f8be0079c531659141344cd1fd0a4f28419497f9722a3daafe3b4186f6b6457e0908290a35080156133d4576000805461ff00191690555b50565b600054610100900460ff16806133f057506133f06132cc565b806133fe575060005460ff16155b6134395760405162461bcd60e51b815260040180806020018281038252602e8152602001806154b3602e913960400191505060405180910390fd5b600054610100900460ff16158015613464576000805460ff1961ff0019909116610100171660011790555b80156133d4576000805461ff001916905550565b600054610100900460ff168061349157506134916132cc565b8061349f575060005460ff16155b6134da5760405162461bcd60e51b815260040180806020018281038252602e8152602001806154b3602e913960400191505060405180910390fd5b600054610100900460ff16158015613505576000805460ff1961ff0019909116610100171660011790555b6134646301ffc9a760e01b613e6d565b600054610100900460ff168061352e575061352e6132cc565b8061353c575060005460ff16155b6135775760405162461bcd60e51b815260040180806020018281038252602e8152602001806154b3602e913960400191505060405180910390fd5b600054610100900460ff161580156135a2576000805460ff1961ff0019909116610100171660011790555b613464604051806040016040528060088152602001674d696e743131353560c01b815250604051806040016040528060018152602001603160f81b815250613ef1565b600054610100900460ff16806135fe57506135fe6132cc565b8061360c575060005460ff16155b6136475760405162461bcd60e51b815260040180806020018281038252602e8152602001806154b3602e913960400191505060405180910390fd5b600054610100900460ff16158015613672576000805460ff1961ff0019909116610100171660011790555b61367b82613fb3565b61368b636cdb3d1360e11b613e6d565b61369b6303a24d0760e21b613e6d565b8015610ffd576000805461ff00191690555050565b600054610100900460ff16806136c957506136c96132cc565b806136d7575060005460ff16155b6137125760405162461bcd60e51b815260040180806020018281038252602e8152602001806154b3602e913960400191505060405180910390fd5b600054610100900460ff1615801561373d576000805460ff1961ff0019909116610100171660011790555b8151613751906102309060208501906143ed565b5061369b63e8a3d48560e01b613e6d565b600054610100900460ff168061377b575061377b6132cc565b80613789575060005460ff16155b6137c45760405162461bcd60e51b815260040180806020018281038252602e8152602001806154b3602e913960400191505060405180910390fd5b600054610100900460ff161580156137ef576000805460ff1961ff0019909116610100171660011790555b61346463656cb66560e11b613e6d565b600054610100900460ff168061381857506138186132cc565b80613826575060005460ff16155b6138615760405162461bcd60e51b815260040180806020018281038252602e8152602001806154b3602e913960400191505060405180910390fd5b600054610100900460ff1615801561388c576000805460ff1961ff0019909116610100171660011790555b82516138a0906102629060208601906143ed565b5081516138b5906102639060208501906143ed565b5080156105fb576000805461ff0019169055505050565b6001600160a01b038216600081815260c96020908152604091829020805460ff1916851515908117909155825190815291517f270dbb8ba4292910ae92862466486be25c355c837270a3d8824b36a8bc7c653b9281900390910190a25050565b6001600160a01b03918216600090815260986020908152604080832093909416825291909152205460ff1690565b6001600160a01b03831661399f5760405162461bcd60e51b81526004018080602001828103825260238152602001806155036023913960400191505060405180910390fd5b60006139a9611d7a565b90506139d9818560006139bb876123f4565b6139c4876123f4565b60405180602001604052806000815250610a06565b613a20826040518060600160405280602481526020016153ed6024913960008681526097602090815260408083206001600160a01b038b1684529091529020549190611d7e565b60008481526097602090815260408083206001600160a01b03808a168086529184528285209590955581518881529283018790528151939490939086169260008051602061537c83398151915292908290030190a450505050565b8051602091820151604080517f397e04204c1e1a60ee8724b71f8244e10ab5f2e9009854d80f602bda21b59ebb818601526001600160a01b03909316838201526001600160601b039091166060808401919091528151808403909101815260809092019052805191012090565b6000613af383613fc6565b90506000825160411415613b0e57613b0b8284614012565b90505b846001600160a01b0316816001600160a01b0316146117e757613b39856001600160a01b0316613019565b15613cb25760408051630b135d3f60e11b808252600482018581526024830193845286516044840152865191936001600160a01b038a1693631626ba7e9388938a9390929091606490910190602085019080838360005b83811015613ba8578181015183820152602001613b90565b50505050905090810190601f168015613bd55780820380516001836020036101000a031916815260200191505b50935050505060206040518083038186803b158015613bf357600080fd5b505afa158015613c07573d6000803e3d6000fd5b505050506040513d6020811015613c1d57600080fd5b505160408051808201909152601c81527f7369676e617475726520766572696669636174696f6e206572726f72000000006020820152916001600160e01b031990911614613cac5760405162461bcd60e51b8152602060048201818152835160248401528351909283926044909101919085019080838360008315611dd2578181015183820152602001611dba565b506117e7565b604080518082018252601c81527f7369676e617475726520766572696669636174696f6e206572726f72000000006020808301918252925162461bcd60e51b81526004810193845282516024820152825192939283926044909201919080838360008315611dd2578181015183820152602001611dba565b7f3fa96d7b6bcbfe71ef171666d84db3cf52fa2d1c8afdb1cc8e486177f208b7df8282604051612b999291906151f9565b60008381526101fd6020526040812054613d76908490611e15565b60008581526101fc6020526040902054909150811115613da85760405162461bcd60e51b81526004016105e7906150d8565b60008481526101fd602052604090208190556001600160a01b038516613de05760405162461bcd60e51b81526004016105e790615161565b6000613dea611d7a565b9050613e0b81600088613dfc896123f4565b613e05896123f4565b88610a06565b60008581526097602090815260408083206001600160a01b038a168452909152902054613e389085611e15565b60008681526097602090815260408083206001600160a01b038b168452909152812091909155610a0690829088888888612439565b6001600160e01b03198082161415613ecc576040805162461bcd60e51b815260206004820152601c60248201527f4552433136353a20696e76616c696420696e7465726661636520696400000000604482015290519081900360640190fd5b6001600160e01b0319166000908152606560205260409020805460ff19166001179055565b600054610100900460ff1680613f0a5750613f0a6132cc565b80613f18575060005460ff16155b613f535760405162461bcd60e51b815260040180806020018281038252602e8152602001806154b3602e913960400191505060405180910390fd5b600054610100900460ff16158015613f7e576000805460ff1961ff0019909116610100171660011790555b8251602080850191909120835191840191909120610162919091556101635580156105fb576000805461ff0019169055505050565b8051610ffd9060999060208401906143ed565b6000613fd0614092565b82604051602001808061190160f01b81525060020183815260200182815260200192505050604051602081830303815290604052805190602001209050919050565b6000815160411461406a576040805162461bcd60e51b815260206004820152601f60248201527f45434453413a20696e76616c6964207369676e6174757265206c656e67746800604482015290519081900360640190fd5b60208201516040830151606084015160001a614088868285856140d2565b9695505050505050565b60006140cd7f8b73c3c69bb8fe3d512ecc4cf759cc79239f7b179b0ffacaa9a75d522b39400f6140c0614328565b6140c861432f565b614336565b905090565b60007f7fffffffffffffffffffffffffffffff5d576e7357a4501ddfe92f46681b20a08211156141335760405162461bcd60e51b815260040180806020018281038252602281526020018061543a6022913960400191505060405180910390fd5b6000601e8560ff16111561420d576004850360ff16601b148061415c57506004850360ff16601c145b6141975760405162461bcd60e51b81526004018080602001828103825260228152602001806154e16022913960400191505060405180910390fd5b60016141a287614398565b60048703868660405160008152602001604052604051808581526020018460ff1681526020018381526020018281526020019450505050506020604051602081039080840390855afa1580156141fc573d6000803e3d6000fd5b5050506020604051035190506142c4565b8460ff16601b148061422257508460ff16601c145b61425d5760405162461bcd60e51b81526004018080602001828103825260228152602001806154e16022913960400191505060405180910390fd5b60018686868660405160008152602001604052604051808581526020018460ff1681526020018381526020018281526020019450505050506020604051602081039080840390855afa1580156142b7573d6000803e3d6000fd5b5050506020604051035190505b6001600160a01b03811661431f576040805162461bcd60e51b815260206004820152601860248201527f45434453413a20696e76616c6964207369676e61747572650000000000000000604482015290519081900360640190fd5b95945050505050565b6101625490565b6101635490565b60008383836143436143e9565b3060405160200180868152602001858152602001848152602001838152602001826001600160a01b03168152602001955050505050506040516020818303038152906040528051906020012090509392505050565b604080517f19457468657265756d205369676e6564204d6573736167653a0a333200000000602080830191909152603c8083019490945282518083039094018452605c909101909152815191012090565b4690565b828054600181600116156101000203166002900490600052602060002090601f0160209004810192826144235760008555614469565b82601f1061443c57805160ff1916838001178555614469565b82800160010185558215614469579182015b8281111561446957825182559160200191906001019061444e565b50614475929150614479565b5090565b5b80821115614475576000815560010161447a565b80356104bd8161530a565b600082601f8301126144a9578081fd5b813560206144be6144b983615243565b615220565b82815281810190858301838502870184018810156144da578586fd5b855b858110156145015781356144ef8161530a565b845292840192908401906001016144dc565b5090979650505050505050565b600082601f83011261451e578081fd5b8135602061452e6144b983615243565b82815281810190858301855b8581101561450157614551898684358b0101614678565b8452928401929084019060010161453a565b600082601f830112614573578081fd5b813560206145836144b983615243565b828152818101908583016040808602880185018910156145a1578687fd5b865b868110156146105781838b0312156145b9578788fd5b81518281018181106001600160401b03821117156145d357fe5b835283356145e08161530a565b8152838701356001600160601b03811681146145fa57898afd5b81880152855293850193918101916001016145a3565b509198975050505050505050565b600082601f83011261462e578081fd5b8135602061463e6144b983615243565b828152818101908583018385028701840188101561465a578586fd5b855b858110156145015781358452928401929084019060010161465c565b600082601f830112614688578081fd5b81356001600160401b0381111561469b57fe5b6146ae601f8201601f1916602001615220565b8181528460208386010111156146c2578283fd5b816020850160208301379081016020019190915292915050565b600060c082840312156146ed578081fd5b6146f760c0615220565b90508135815260208201356001600160401b038082111561471757600080fd5b61472385838601614678565b602084015260408401356040840152606084013591508082111561474657600080fd5b61475285838601614563565b6060840152608084013591508082111561476b57600080fd5b61477785838601614563565b608084015260a084013591508082111561479057600080fd5b5061479d8482850161450e565b60a08301525092915050565b6000602082840312156147ba578081fd5b81356114488161530a565b600080604083850312156147d7578081fd5b82356147e28161530a565b915060208301356147f28161530a565b809150509250929050565b600080600080600060a08688031215614814578081fd5b853561481f8161530a565b9450602086013561482f8161530a565b935060408601356001600160401b038082111561484a578283fd5b61485689838a0161461e565b9450606088013591508082111561486b578283fd5b61487789838a0161461e565b9350608088013591508082111561488c578283fd5b5061489988828901614678565b9150509295509295909350565b600080600080600060a086880312156148bd578283fd5b85356148c88161530a565b945060208601356148d88161530a565b9350604086013592506060860135915060808601356001600160401b03811115614900578182fd5b61489988828901614678565b600080600060608486031215614920578081fd5b833561492b8161530a565b925060208401356001600160401b0380821115614946578283fd5b6149528783880161461e565b93506040860135915080821115614967578283fd5b506149748682870161461e565b9150509250925092565b60008060408385031215614990578182fd5b823561499b8161530a565b9150602083013580151581146147f2578182fd5b600080604083850312156149c1578182fd5b82356149cc8161530a565b946020939093013593505050565b6000806000606084860312156149ee578081fd5b83356149f98161530a565b95602085013595506040909401359392505050565b600060208284031215614a1f578081fd5b81356001600160401b03811115614a34578182fd5b614a4084828501614499565b949350505050565b60008060408385031215614a5a578182fd5b82356001600160401b0380821115614a70578384fd5b614a7c86838701614499565b93506020850135915080821115614a91578283fd5b50614a9e8582860161461e565b9150509250929050565b600060208284031215614ab9578081fd5b81356001600160e01b031981168114611448578182fd5b600060208284031215614ae1578081fd5b81356001600160401b03811115614af6578182fd5b614a4084828501614678565b60008060008060008060c08789031215614b1a578384fd5b86356001600160401b0380821115614b30578586fd5b614b3c8a838b01614678565b97506020890135915080821115614b51578586fd5b614b5d8a838b01614678565b96506040890135915080821115614b72578586fd5b614b7e8a838b01614678565b95506060890135915080821115614b93578283fd5b50614ba089828a01614678565b935050614baf6080880161448e565b9150614bbd60a0880161448e565b90509295509295509295565b600080600080600080600060e0888a031215614be3578485fd5b87356001600160401b0380821115614bf9578687fd5b614c058b838c01614678565b985060208a0135915080821115614c1a578687fd5b614c268b838c01614678565b975060408a0135915080821115614c3b578687fd5b614c478b838c01614678565b965060608a0135915080821115614c5c578283fd5b614c688b838c01614678565b955060808a0135915080821115614c7d578283fd5b50614c8a8a828b01614499565b935050614c9960a0890161448e565b9150614ca760c0890161448e565b905092959891949750929550565b60008060008060808587031215614cca578182fd5b84356001600160401b03811115614cdf578283fd5b614ceb878288016146dc565b9450506020850135614cfc8161530a565b92506040850135614d0c8161530a565b9396929550929360600135925050565b600080600060608486031215614d30578081fd5b83356001600160401b03811115614d45578182fd5b614d51868287016146dc565b9350506020840135614d628161530a565b929592945050506040919091013590565b600060208284031215614d84578081fd5b5035919050565b600080600060608486031215614d9f578081fd5b833592506020840135614db18161530a565b91506040840135614dc18161530a565b809150509250925092565b60008060408385031215614dde578182fd5b50508035926020909101359150565b6000815180845260208085019450808401835b83811015614e3957815180516001600160a01b031688528301516001600160601b03168388015260409096019590820190600101614e00565b509495945050505050565b6000815180845260208085019450808401835b83811015614e3957815187529582019590820190600101614e57565b60008151808452815b81811015614e9857602081850181015186830182015201614e7c565b81811115614ea95782602083870101525b50601f01601f19169290920160200192915050565b6001600160a01b0391909116815260200190565b6001600160a01b0384168152606060208201819052600090614ef690830185614e73565b82810360408401526140888185614e73565b6001600160a01b03929092168252602082015260400190565b6000602082526114486020830184614ded565b6000602082526114486020830184614e44565b600060408252614f5a6040830185614e44565b828103602084015261431f8185614e44565b901515815260200190565b6000602082526114486020830184614e73565b6020808252601390820152723737ba1037bbb732b91037b91036b4b73a32b960691b604082015260600190565b60208082526010908201526f1cdd5c1c1b1e481a5b98dbdc9c9958dd60821b604082015260600190565b6020808252818101527f43726561746f722073686172652073686f756c6420626520706f736974697665604082015260600190565b6020808252601190820152701d1bdad95b9259081a5b98dbdc9c9958dd607a1b604082015260600190565b6020808252600b908201526a1b9bdd08185b1b1bddd95960aa1b604082015260600190565b60208082526010908201526f185b5bdd5b9d081a5b98dbdc9c9958dd60821b604082015260600190565b60208082526028908201527f455243313135353a207472616e736665722063616c6c6572206973206e6f7420604082015267185c1c1c9bdd995960c21b606082015260800190565b60208082526010908201526f6d6f7265207468616e20737570706c7960801b604082015260600190565b60208082526019908201527f4163636f756e742073686f756c642062652070726573656e7400000000000000604082015260600190565b6020808252600e908201526d69647320213d20616d6f756e747360901b604082015260600190565b60208082526021908201527f455243313135353a206d696e7420746f20746865207a65726f206164647265736040820152607360f81b606082015260800190565b6020808252602e908201527f746f74616c20616d6f756e74206f662063726561746f7273207368617265207360408201526d0686f756c642062652031303030360941b606082015260800190565b90815260200190565b600083825260406020830152614a406040830184614ded565b918252602082015260400190565b6040518181016001600160401b038111828210171561523b57fe5b604052919050565b60006001600160401b0382111561525657fe5b5060209081020190565b60e01c90565b600060443d101561527657610e69565b600481823e6308c379a061528a8251615260565b1461529457610e69565b6040513d600319016004823e80513d6001600160401b0381602484011181841117156152c35750505050610e69565b828401925082519150808211156152dd5750505050610e69565b503d830160208284010111156152f557505050610e69565b601f01601f1916810160200160405291505090565b6001600160a01b03811681146133d457600080fdfe455243313135353a207472616e7366657220746f206e6f6e2045524331313535526563656976657220696d706c656d656e746572455243313135353a204552433131353552656365697665722072656a656374656420746f6b656e73c3d58168c5ae7397731d063d5bbf3d657854427343f4c083240f7aacaa2d0f62455243313135353a2062616c616e636520717565727920666f7220746865207a65726f20616464726573734f776e61626c653a206e6577206f776e657220697320746865207a65726f2061646472657373455243313135353a206275726e20616d6f756e7420657863656564732062616c616e6365455243313135353a2063616c6c6572206973206e6f74206f776e6572206e6f7220617070726f76656445434453413a20696e76616c6964207369676e6174757265202773272076616c7565455243313135353a207472616e7366657220746f20746865207a65726f2061646472657373455243313135353a207472616e736665722063616c6c6572206973206e6f74206f776e6572206e6f7220617070726f766564496e697469616c697a61626c653a20636f6e747261637420697320616c726561647920696e697469616c697a656445434453413a20696e76616c6964207369676e6174757265202776272076616c7565455243313135353a206275726e2066726f6d20746865207a65726f2061646472657373455243313135353a20696e73756666696369656e742062616c616e636520666f72207472616e736665724f776e61626c653a2063616c6c6572206973206e6f7420746865206f776e6572526f79616c747920746f74616c2076616c75652073686f756c64206265203c203130303030455243313135353a2073657474696e6720617070726f76616c2073746174757320666f722073656c66455243313135353a206163636f756e747320616e6420696473206c656e677468206d69736d61746368455243313135353a2069647320616e6420616d6f756e7473206c656e677468206d69736d61746368a2646970667358221220d8f9feff8e0175a1126ec4752e2a436bd3bff19752df943fda961fe92b36e54264736f6c63430007060033",
  "immutableReferences": {},
  "source": "// SPDX-License-Identifier: MIT\n\npragma solidity 0.7.6;\npragma abicoder v2;\n\nimport \"./ERC1155Base.sol\";\nimport \"../IsPrivateCollection.sol\";\nimport \"../access/MinterAccessControl.sol\";\n\ncontract ERC1155Gebrid is ERC1155Base, IsPrivateCollection, MinterAccessControl {\n    event CreateERC1155Gebrid(address owner, string name, string symbol);\n    event CreateERC1155GebridUser(address owner, string name, string symbol);\n\n    function __ERC1155GebridUser_init(string memory _name, string memory _symbol, string memory baseURI, string memory contractURI, address[] memory operators, address transferProxy, address lazyTransferProxy) external virtual {\n        __ERC1155Gebrid_init_unchained(_name, _symbol, baseURI, contractURI, transferProxy, lazyTransferProxy);\n\n        isPrivate = true;\n        emit CreateERC1155GebridUser(_msgSender(), _name, _symbol);\n    }\n\n    function __ERC1155Gebrid_init(string memory _name, string memory _symbol, string memory baseURI, string memory contractURI, address transferProxy, address lazyTransferProxy) external virtual {\n        __ERC1155Gebrid_init_unchained(_name, _symbol, baseURI, contractURI, transferProxy, lazyTransferProxy);\n\n        isPrivate = false;\n        emit CreateERC1155Gebrid(_msgSender(), _name, _symbol);\n    }\n\n    function __ERC1155Gebrid_init_unchained(string memory _name, string memory _symbol, string memory baseURI, string memory contractURI, address transferProxy, address lazyTransferProxy) internal initializer {\n        __Ownable_init_unchained();\n        __ERC1155Lazy_init_unchained();\n        __ERC165_init_unchained();\n        __Context_init_unchained();\n        __Mint1155Validator_init_unchained();\n        __ERC1155_init_unchained(\"\");\n        __HasContractURI_init_unchained(contractURI);\n        __ERC1155Burnable_init_unchained();\n        __RoyaltiesV2Upgradeable_init_unchained();\n        __ERC1155Base_init_unchained(_name, _symbol);\n        __MinterAccessControl_init_unchained();\n        _setBaseURI(baseURI);\n\n        //setting default approver for transferProxies\n        _setDefaultApproval(transferProxy, true);\n        _setDefaultApproval(lazyTransferProxy, true);\n    }\n\n    function mintAndTransfer(LibERC1155LazyMint.Mint1155Data memory data, address to, uint256 _amount) public override {\n        if (isPrivate){\n          require(owner() == data.creators[0].account || isMinter(data.creators[0].account), \"not owner or minter\");\n        }\n        super.mintAndTransfer(data, to, _amount);\n    }\n}\n",
  "sourcePath": "@gebrid/tokens/contracts/erc-1155/ERC1155Gebrid.sol",
  "compiler": {
    "name": "solc",
    "version": "0.7.6+commit.7338295f.Emscripten.clang"
  },
  "schemaVersion": "3.4.4",
  "updatedAt": "2022-10-29T10:34:29.186Z",
  "devdoc": {
    "kind": "dev",
    "methods": {
      "addMinter(address)": {
        "details": "Add `minter` to the list of allowed minters."
      },
      "addMinters(address[])": {
        "details": "Add `minters` to the list of allowed minters."
      },
      "balanceOf(address,uint256)": {
        "details": "See {IERC1155-balanceOf}. Requirements: - `account` cannot be the zero address."
      },
      "balanceOfBatch(address[],uint256[])": {
        "details": "See {IERC1155-balanceOfBatch}. Requirements: - `accounts` and `ids` must have the same length."
      },
      "baseURI()": {
        "details": "Returns the base URI set via {_setBaseURI}. This will be automatically added as a prefix in {tokenURI} to each token's URI, or to the token ID if no specific URI is set for that token ID."
      },
      "isMinter(address)": {
        "details": "Returns `true` if `account` has been granted to minters."
      },
      "owner()": {
        "details": "Returns the address of the current owner."
      },
      "removeMinter(address)": {
        "details": "Revoke `_minter` from the list of allowed minters."
      },
      "renounceOwnership()": {
        "details": "Leaves the contract without owner. It will not be possible to call `onlyOwner` functions anymore. Can only be called by the current owner. NOTE: Renouncing ownership will leave the contract without an owner, thereby removing any functionality that is only available to the owner."
      },
      "safeBatchTransferFrom(address,address,uint256[],uint256[],bytes)": {
        "details": "See {IERC1155-safeBatchTransferFrom}."
      },
      "safeTransferFrom(address,address,uint256,uint256,bytes)": {
        "details": "See {IERC1155-safeTransferFrom}."
      },
      "setApprovalForAll(address,bool)": {
        "details": "See {IERC1155-setApprovalForAll}."
      },
      "transferOwnership(address)": {
        "details": "Transfers ownership of the contract to a new account (`newOwner`). Can only be called by the current owner."
      }
    },
    "version": 1
  },
  "userdoc": {
    "kind": "user",
    "methods": {},
    "version": 1
  }
}