{
  "contractName": "ERC721GebridMinimal",
  "abi": [
    {
      "anonymous": false,
      "inputs": [
        {
          "indexed": true,
          "internalType": "address",
          "name": "owner",
          "type": "address"
        },
        {
          "indexed": true,
          "internalType": "address",
          "name": "approved",
          "type": "address"
        },
        {
          "indexed": true,
          "internalType": "uint256",
          "name": "tokenId",
          "type": "uint256"
        }
      ],
      "name": "Approval",
      "type": "event"
    },
    {
      "anonymous": false,
      "inputs": [
        {
          "indexed": true,
          "internalType": "address",
          "name": "owner",
          "type": "address"
        },
        {
          "indexed": true,
          "internalType": "address",
          "name": "operator",
          "type": "address"
        },
        {
          "indexed": false,
          "internalType": "bool",
          "name": "approved",
          "type": "bool"
        }
      ],
      "name": "ApprovalForAll",
      "type": "event"
    },
    {
      "anonymous": false,
      "inputs": [
        {
          "indexed": false,
          "internalType": "string",
          "name": "newBaseURI",
          "type": "string"
        }
      ],
      "name": "BaseUriChanged",
      "type": "event"
    },
    {
      "anonymous": false,
      "inputs": [
        {
          "indexed": false,
          "internalType": "address",
          "name": "owner",
          "type": "address"
        },
        {
          "indexed": false,
          "internalType": "string",
          "name": "name",
          "type": "string"
        },
        {
          "indexed": false,
          "internalType": "string",
          "name": "symbol",
          "type": "string"
        }
      ],
      "name": "CreateERC721Gebrid",
      "type": "event"
    },
    {
      "anonymous": false,
      "inputs": [
        {
          "indexed": false,
          "internalType": "address",
          "name": "owner",
          "type": "address"
        },
        {
          "indexed": false,
          "internalType": "string",
          "name": "name",
          "type": "string"
        },
        {
          "indexed": false,
          "internalType": "string",
          "name": "symbol",
          "type": "string"
        }
      ],
      "name": "CreateERC721GebridUser",
      "type": "event"
    },
    {
      "anonymous": false,
      "inputs": [
        {
          "indexed": false,
          "internalType": "uint256",
          "name": "tokenId",
          "type": "uint256"
        },
        {
          "components": [
            {
              "internalType": "address payable",
              "name": "account",
              "type": "address"
            },
            {
              "internalType": "uint96",
              "name": "value",
              "type": "uint96"
            }
          ],
          "indexed": false,
          "internalType": "struct LibPart.Part[]",
          "name": "creators",
          "type": "tuple[]"
        }
      ],
      "name": "Creators",
      "type": "event"
    },
    {
      "anonymous": false,
      "inputs": [
        {
          "indexed": true,
          "internalType": "address",
          "name": "operator",
          "type": "address"
        },
        {
          "indexed": false,
          "internalType": "bool",
          "name": "hasApproval",
          "type": "bool"
        }
      ],
      "name": "DefaultApproval",
      "type": "event"
    },
    {
      "anonymous": false,
      "inputs": [
        {
          "indexed": true,
          "internalType": "address",
          "name": "minter",
          "type": "address"
        },
        {
          "indexed": true,
          "internalType": "bool",
          "name": "status",
          "type": "bool"
        }
      ],
      "name": "MinterStatusChanged",
      "type": "event"
    },
    {
      "anonymous": false,
      "inputs": [
        {
          "indexed": true,
          "internalType": "address",
          "name": "previousOwner",
          "type": "address"
        },
        {
          "indexed": true,
          "internalType": "address",
          "name": "newOwner",
          "type": "address"
        }
      ],
      "name": "OwnershipTransferred",
      "type": "event"
    },
    {
      "anonymous": false,
      "inputs": [
        {
          "indexed": false,
          "internalType": "uint256",
          "name": "tokenId",
          "type": "uint256"
        },
        {
          "components": [
            {
              "internalType": "address payable",
              "name": "account",
              "type": "address"
            },
            {
              "internalType": "uint96",
              "name": "value",
              "type": "uint96"
            }
          ],
          "indexed": false,
          "internalType": "struct LibPart.Part[]",
          "name": "royalties",
          "type": "tuple[]"
        }
      ],
      "name": "RoyaltiesSet",
      "type": "event"
    },
    {
      "anonymous": false,
      "inputs": [
        {
          "indexed": true,
          "internalType": "address",
          "name": "from",
          "type": "address"
        },
        {
          "indexed": true,
          "internalType": "address",
          "name": "to",
          "type": "address"
        },
        {
          "indexed": true,
          "internalType": "uint256",
          "name": "tokenId",
          "type": "uint256"
        }
      ],
      "name": "Transfer",
      "type": "event"
    },
    {
      "inputs": [
        {
          "internalType": "address",
          "name": "minter",
          "type": "address"
        }
      ],
      "name": "addMinter",
      "outputs": [],
      "stateMutability": "nonpayable",
      "type": "function"
    },
    {
      "inputs": [
        {
          "internalType": "address[]",
          "name": "minters",
          "type": "address[]"
        }
      ],
      "name": "addMinters",
      "outputs": [],
      "stateMutability": "nonpayable",
      "type": "function"
    },
    {
      "inputs": [
        {
          "internalType": "address",
          "name": "to",
          "type": "address"
        },
        {
          "internalType": "uint256",
          "name": "tokenId",
          "type": "uint256"
        }
      ],
      "name": "approve",
      "outputs": [],
      "stateMutability": "nonpayable",
      "type": "function"
    },
    {
      "inputs": [
        {
          "internalType": "address",
          "name": "owner",
          "type": "address"
        }
      ],
      "name": "balanceOf",
      "outputs": [
        {
          "internalType": "uint256",
          "name": "",
          "type": "uint256"
        }
      ],
      "stateMutability": "view",
      "type": "function"
    },
    {
      "inputs": [],
      "name": "baseURI",
      "outputs": [
        {
          "internalType": "string",
          "name": "",
          "type": "string"
        }
      ],
      "stateMutability": "view",
      "type": "function"
    },
    {
      "inputs": [
        {
          "internalType": "uint256",
          "name": "tokenId",
          "type": "uint256"
        }
      ],
      "name": "burn",
      "outputs": [],
      "stateMutability": "nonpayable",
      "type": "function"
    },
    {
      "inputs": [],
      "name": "contractURI",
      "outputs": [
        {
          "internalType": "string",
          "name": "",
          "type": "string"
        }
      ],
      "stateMutability": "view",
      "type": "function"
    },
    {
      "inputs": [
        {
          "internalType": "uint256",
          "name": "tokenId",
          "type": "uint256"
        }
      ],
      "name": "getApproved",
      "outputs": [
        {
          "internalType": "address",
          "name": "",
          "type": "address"
        }
      ],
      "stateMutability": "view",
      "type": "function"
    },
    {
      "inputs": [
        {
          "internalType": "uint256",
          "name": "_id",
          "type": "uint256"
        }
      ],
      "name": "getCreators",
      "outputs": [
        {
          "components": [
            {
              "internalType": "address payable",
              "name": "account",
              "type": "address"
            },
            {
              "internalType": "uint96",
              "name": "value",
              "type": "uint96"
            }
          ],
          "internalType": "struct LibPart.Part[]",
          "name": "",
          "type": "tuple[]"
        }
      ],
      "stateMutability": "view",
      "type": "function"
    },
    {
      "inputs": [
        {
          "internalType": "uint256",
          "name": "id",
          "type": "uint256"
        }
      ],
      "name": "getGebridV2Royalties",
      "outputs": [
        {
          "components": [
            {
              "internalType": "address payable",
              "name": "account",
              "type": "address"
            },
            {
              "internalType": "uint96",
              "name": "value",
              "type": "uint96"
            }
          ],
          "internalType": "struct LibPart.Part[]",
          "name": "",
          "type": "tuple[]"
        }
      ],
      "stateMutability": "view",
      "type": "function"
    },
    {
      "inputs": [
        {
          "internalType": "address",
          "name": "owner",
          "type": "address"
        },
        {
          "internalType": "address",
          "name": "operator",
          "type": "address"
        }
      ],
      "name": "isApprovedForAll",
      "outputs": [
        {
          "internalType": "bool",
          "name": "",
          "type": "bool"
        }
      ],
      "stateMutability": "view",
      "type": "function"
    },
    {
      "inputs": [
        {
          "internalType": "address",
          "name": "account",
          "type": "address"
        }
      ],
      "name": "isMinter",
      "outputs": [
        {
          "internalType": "bool",
          "name": "",
          "type": "bool"
        }
      ],
      "stateMutability": "view",
      "type": "function"
    },
    {
      "inputs": [],
      "name": "name",
      "outputs": [
        {
          "internalType": "string",
          "name": "",
          "type": "string"
        }
      ],
      "stateMutability": "view",
      "type": "function"
    },
    {
      "inputs": [],
      "name": "owner",
      "outputs": [
        {
          "internalType": "address",
          "name": "",
          "type": "address"
        }
      ],
      "stateMutability": "view",
      "type": "function"
    },
    {
      "inputs": [
        {
          "internalType": "uint256",
          "name": "tokenId",
          "type": "uint256"
        }
      ],
      "name": "ownerOf",
      "outputs": [
        {
          "internalType": "address",
          "name": "",
          "type": "address"
        }
      ],
      "stateMutability": "view",
      "type": "function"
    },
    {
      "inputs": [
        {
          "internalType": "address",
          "name": "_minter",
          "type": "address"
        }
      ],
      "name": "removeMinter",
      "outputs": [],
      "stateMutability": "nonpayable",
      "type": "function"
    },
    {
      "inputs": [],
      "name": "renounceOwnership",
      "outputs": [],
      "stateMutability": "nonpayable",
      "type": "function"
    },
    {
      "inputs": [
        {
          "internalType": "uint256",
          "name": "id",
          "type": "uint256"
        },
        {
          "internalType": "uint256",
          "name": "_salePrice",
          "type": "uint256"
        }
      ],
      "name": "royaltyInfo",
      "outputs": [
        {
          "internalType": "address",
          "name": "receiver",
          "type": "address"
        },
        {
          "internalType": "uint256",
          "name": "royaltyAmount",
          "type": "uint256"
        }
      ],
      "stateMutability": "view",
      "type": "function"
    },
    {
      "inputs": [
        {
          "internalType": "address",
          "name": "from",
          "type": "address"
        },
        {
          "internalType": "address",
          "name": "to",
          "type": "address"
        },
        {
          "internalType": "uint256",
          "name": "tokenId",
          "type": "uint256"
        }
      ],
      "name": "safeTransferFrom",
      "outputs": [],
      "stateMutability": "nonpayable",
      "type": "function"
    },
    {
      "inputs": [
        {
          "internalType": "address",
          "name": "from",
          "type": "address"
        },
        {
          "internalType": "address",
          "name": "to",
          "type": "address"
        },
        {
          "internalType": "uint256",
          "name": "tokenId",
          "type": "uint256"
        },
        {
          "internalType": "bytes",
          "name": "_data",
          "type": "bytes"
        }
      ],
      "name": "safeTransferFrom",
      "outputs": [],
      "stateMutability": "nonpayable",
      "type": "function"
    },
    {
      "inputs": [
        {
          "internalType": "address",
          "name": "operator",
          "type": "address"
        },
        {
          "internalType": "bool",
          "name": "approved",
          "type": "bool"
        }
      ],
      "name": "setApprovalForAll",
      "outputs": [],
      "stateMutability": "nonpayable",
      "type": "function"
    },
    {
      "inputs": [
        {
          "internalType": "string",
          "name": "newBaseURI",
          "type": "string"
        }
      ],
      "name": "setBaseURI",
      "outputs": [],
      "stateMutability": "nonpayable",
      "type": "function"
    },
    {
      "inputs": [
        {
          "internalType": "bytes4",
          "name": "interfaceId",
          "type": "bytes4"
        }
      ],
      "name": "supportsInterface",
      "outputs": [
        {
          "internalType": "bool",
          "name": "",
          "type": "bool"
        }
      ],
      "stateMutability": "view",
      "type": "function"
    },
    {
      "inputs": [],
      "name": "symbol",
      "outputs": [
        {
          "internalType": "string",
          "name": "",
          "type": "string"
        }
      ],
      "stateMutability": "view",
      "type": "function"
    },
    {
      "inputs": [
        {
          "internalType": "uint256",
          "name": "tokenId",
          "type": "uint256"
        }
      ],
      "name": "tokenURI",
      "outputs": [
        {
          "internalType": "string",
          "name": "",
          "type": "string"
        }
      ],
      "stateMutability": "view",
      "type": "function"
    },
    {
      "inputs": [
        {
          "internalType": "address",
          "name": "from",
          "type": "address"
        },
        {
          "internalType": "address",
          "name": "to",
          "type": "address"
        },
        {
          "internalType": "uint256",
          "name": "tokenId",
          "type": "uint256"
        }
      ],
      "name": "transferFrom",
      "outputs": [],
      "stateMutability": "nonpayable",
      "type": "function"
    },
    {
      "inputs": [
        {
          "components": [
            {
              "internalType": "uint256",
              "name": "tokenId",
              "type": "uint256"
            },
            {
              "internalType": "string",
              "name": "tokenURI",
              "type": "string"
            },
            {
              "components": [
                {
                  "internalType": "address payable",
                  "name": "account",
                  "type": "address"
                },
                {
                  "internalType": "uint96",
                  "name": "value",
                  "type": "uint96"
                }
              ],
              "internalType": "struct LibPart.Part[]",
              "name": "creators",
              "type": "tuple[]"
            },
            {
              "components": [
                {
                  "internalType": "address payable",
                  "name": "account",
                  "type": "address"
                },
                {
                  "internalType": "uint96",
                  "name": "value",
                  "type": "uint96"
                }
              ],
              "internalType": "struct LibPart.Part[]",
              "name": "royalties",
              "type": "tuple[]"
            },
            {
              "internalType": "bytes[]",
              "name": "signatures",
              "type": "bytes[]"
            }
          ],
          "internalType": "struct LibERC721LazyMint.Mint721Data",
          "name": "data",
          "type": "tuple"
        },
        {
          "internalType": "address",
          "name": "from",
          "type": "address"
        },
        {
          "internalType": "address",
          "name": "to",
          "type": "address"
        }
      ],
      "name": "transferFromOrMint",
      "outputs": [],
      "stateMutability": "nonpayable",
      "type": "function"
    },
    {
      "inputs": [
        {
          "internalType": "address",
          "name": "newOwner",
          "type": "address"
        }
      ],
      "name": "transferOwnership",
      "outputs": [],
      "stateMutability": "nonpayable",
      "type": "function"
    },
    {
      "inputs": [
        {
          "internalType": "uint256",
          "name": "_id",
          "type": "uint256"
        },
        {
          "internalType": "address",
          "name": "_from",
          "type": "address"
        },
        {
          "internalType": "address",
          "name": "_to",
          "type": "address"
        }
      ],
      "name": "updateAccount",
      "outputs": [],
      "stateMutability": "nonpayable",
      "type": "function"
    },
    {
      "inputs": [
        {
          "internalType": "string",
          "name": "_name",
          "type": "string"
        },
        {
          "internalType": "string",
          "name": "_symbol",
          "type": "string"
        },
        {
          "internalType": "string",
          "name": "baseURI",
          "type": "string"
        },
        {
          "internalType": "string",
          "name": "contractURI",
          "type": "string"
        },
        {
          "internalType": "address[]",
          "name": "operators",
          "type": "address[]"
        },
        {
          "internalType": "address",
          "name": "transferProxy",
          "type": "address"
        },
        {
          "internalType": "address",
          "name": "lazyTransferProxy",
          "type": "address"
        }
      ],
      "name": "__ERC721GebridUser_init",
      "outputs": [],
      "stateMutability": "nonpayable",
      "type": "function"
    },
    {
      "inputs": [
        {
          "internalType": "string",
          "name": "_name",
          "type": "string"
        },
        {
          "internalType": "string",
          "name": "_symbol",
          "type": "string"
        },
        {
          "internalType": "string",
          "name": "baseURI",
          "type": "string"
        },
        {
          "internalType": "string",
          "name": "contractURI",
          "type": "string"
        },
        {
          "internalType": "address",
          "name": "transferProxy",
          "type": "address"
        },
        {
          "internalType": "address",
          "name": "lazyTransferProxy",
          "type": "address"
        }
      ],
      "name": "__ERC721Gebrid_init",
      "outputs": [],
      "stateMutability": "nonpayable",
      "type": "function"
    },
    {
      "inputs": [
        {
          "components": [
            {
              "internalType": "uint256",
              "name": "tokenId",
              "type": "uint256"
            },
            {
              "internalType": "string",
              "name": "tokenURI",
              "type": "string"
            },
            {
              "components": [
                {
                  "internalType": "address payable",
                  "name": "account",
                  "type": "address"
                },
                {
                  "internalType": "uint96",
                  "name": "value",
                  "type": "uint96"
                }
              ],
              "internalType": "struct LibPart.Part[]",
              "name": "creators",
              "type": "tuple[]"
            },
            {
              "components": [
                {
                  "internalType": "address payable",
                  "name": "account",
                  "type": "address"
                },
                {
                  "internalType": "uint96",
                  "name": "value",
                  "type": "uint96"
                }
              ],
              "internalType": "struct LibPart.Part[]",
              "name": "royalties",
              "type": "tuple[]"
            },
            {
              "internalType": "bytes[]",
              "name": "signatures",
              "type": "bytes[]"
            }
          ],
          "internalType": "struct LibERC721LazyMint.Mint721Data",
          "name": "data",
          "type": "tuple"
        },
        {
          "internalType": "address",
          "name": "to",
          "type": "address"
        }
      ],
      "name": "mintAndTransfer",
      "outputs": [],
      "stateMutability": "nonpayable",
      "type": "function"
    }
  ],
  "bytecode": "0x608060405234801561001057600080fd5b50614915806100206000396000f3fe608060405234801561001057600080fd5b50600436106101f05760003560e01c806371e2a6571161010f578063aa271e1a116100a2578063e07f231911610071578063e07f23191461042c578063e8a3d4851461043f578063e985e9c514610447578063f2fde38b1461045a576101f0565b8063aa271e1a146103e0578063b88d4fde146103f3578063c87b56dd14610406578063d8ec63f814610419576101f0565b80638da5cb5b116100de5780638da5cb5b146103aa57806395d89b41146103b2578063983b2d56146103ba578063a22cb465146103cd576101f0565b806371e2a65714610351578063832fbb29146103645780638353440514610377578063891be9741461038a576101f0565b806332174ea1116101875780636352211e116101565780636352211e1461030e5780636c0360eb1461032157806370a0823114610329578063715018a614610349576101f0565b806332174ea1146102c257806342842e0e146102d557806342966c68146102e857806355f804b3146102fb576101f0565b806322a775b6116101c357806322a775b61461026857806323b872dd1461027b5780632a55205a1461028e5780633092afd5146102af576101f0565b806301ffc9a7146101f557806306fdde031461021e578063081812fc14610233578063095ea7b314610253575b600080fd5b610208610203366004613f30565b61046d565b6040516102159190614359565b60405180910390f35b610226610480565b6040516102159190614364565b6102466102413660046141e2565b610516565b60405161021591906142e3565b610266610261366004613ed3565b610579565b005b61026661027636600461413d565b61064f565b610266610289366004613df9565b6106f1565b6102a161029c366004614220565b610748565b60405161021592919061432d565b6102666102bd366004613da5565b610858565b6102666102d0366004614051565b610908565b6102666102e3366004613df9565b61096f565b6102666102f63660046141e2565b61098a565b610266610309366004613f58565b610a54565b61024661031c3660046141e2565b610af9565b610226610b4d565b61033c610337366004613da5565b610baf565b60405161021591906144ff565b610266610c13565b61026661035f366004613efe565b610cbf565b610266610372366004614181565b610da4565b610266610385366004613f8a565b610dd2565b61039d6103983660046141e2565b610e35565b6040516102159190614346565b610246610ec5565b610226610ed4565b6102666103c8366004613da5565b610f35565b6102666103db366004613ea2565b610fea565b6102086103ee366004613da5565b6110f0565b610266610401366004613e39565b61110f565b6102266104143660046141e2565b61116d565b61039d6104273660046141e2565b611178565b61026661043a3660046141fa565b6111f3565b610226611236565b610208610455366004613dc1565b6112c5565b610266610468366004613da5565b6112da565b6000610478826113dd565b90505b919050565b60fd8054604080516020601f600260001961010060018816150201909516949094049384018190048102820181019092528281526060939092909183018282801561050c5780601f106104e15761010080835404028352916020019161050c565b820191906000526020600020905b8154815290600101906020018083116104ef57829003601f168201915b5050505050905090565b600061052182611497565b61055c5760405162461bcd60e51b815260040180806020018281038252602c815260200180614749602c913960400191505060405180910390fd5b50600090815261010160205260409020546001600160a01b031690565b600061058482610af9565b9050806001600160a01b0316836001600160a01b031614156105d75760405162461bcd60e51b81526004018080602001828103825260218152602001806148396021913960400191505060405180910390fd5b806001600160a01b03166105e96114b4565b6001600160a01b031614806106055750610605816104556114b4565b6106405760405162461bcd60e51b81526004018080602001828103825260388152602001806146416038913960400191505060405180910390fd5b61064a83836114b8565b505050565b6102925460ff16156106e357816040015160008151811061066c57fe5b6020026020010151600001516001600160a01b0316610689610ec5565b6001600160a01b031614806106be57506106be82604001516000815181106106ad57fe5b6020026020010151600001516110f0565b6106e35760405162461bcd60e51b81526004016106da90614377565b60405180910390fd5b6106ed8282611527565b5050565b6107026106fc6114b4565b826116a9565b61073d5760405162461bcd60e51b815260040180806020018281038252603181526020018061485a6031913960400191505060405180910390fd5b61064a8383836116b5565b60008281526101c66020526040812054819061076957506000905080610851565b60008481526101c66020908152604080832080548251818502810185019093528083529192909190849084015b828210156107e557600084815260209081902060408051808201909152908401546001600160a01b0381168252600160a01b90046001600160601b031681830152825260019092019101610796565b505050509050806000815181106107f857fe5b60209081029190910101515192506000805b82518110156108455782818151811061081f57fe5b6020026020010151602001516001600160601b031682019150808060010191505061080a565b50612710908502049150505b9250929050565b6108606114b4565b6001600160a01b0316610871610ec5565b6001600160a01b0316146108ba576040805162461bcd60e51b815260206004820181905260248201526000805160206147a1833981519152604482015290519081900360640190fd5b6001600160a01b03811660008181526102c46020526040808220805460ff19169055519091907f3042b80e435ae46c334b2cfec51a66d64c9a8a8af4cd0c279a124c35a09e91dd908390a350565b6109168787878786866117d4565b610292805460ff191660011790557f24cc97c77aa8531a83618d1396f6ac2f230d5bda7e41ec3ee0e292a8a9711bb161094d6114b4565b888860405161095e939291906142f7565b60405180910390a150505050505050565b61064a8383836040518060200160405280600081525061110f565b61099381611497565b610a0257606081901c6109a46114b4565b6001600160a01b0316816001600160a01b0316146109f35760405162461bcd60e51b815260040180806020018281038252602d81526020018061471c602d913960400191505060405180910390fd5b6109fc826118ee565b50610a51565b610a0d6106fc6114b4565b610a485760405162461bcd60e51b81526004018080602001828103825260308152602001806148b06030913960400191505060405180910390fd5b610a518161190a565b50565b610a5c6114b4565b6001600160a01b0316610a6d610ec5565b6001600160a01b031614610ab6576040805162461bcd60e51b815260206004820181905260248201526000805160206147a1833981519152604482015290519081900360640190fd5b610abf816119a6565b7f87cdeaffd8e70903d6ce7cc983fac3b09ca79e83818124c98e47a1d70f8027d681604051610aee9190614364565b60405180910390a150565b600081815260ff60205260408120546001600160a01b0316806104785760405162461bcd60e51b81526004018080602001828103825260298152602001806146a36029913960400191505060405180910390fd5b6101c88054604080516020601f600260001961010060018816150201909516949094049384018190048102820181019092528281526060939092909183018282801561050c5780601f106104e15761010080835404028352916020019161050c565b60006001600160a01b038216610bf65760405162461bcd60e51b815260040180806020018281038252602a815260200180614679602a913960400191505060405180910390fd5b506001600160a01b03166000908152610100602052604090205490565b610c1b6114b4565b6001600160a01b0316610c2c610ec5565b6001600160a01b031614610c75576040805162461bcd60e51b815260206004820181905260248201526000805160206147a1833981519152604482015290519081900360640190fd5b6033546040516000916001600160a01b0316907f8be0079c531659141344cd1fd0a4f28419497f9722a3daafe3b4186f6b6457e0908390a3603380546001600160a01b0319169055565b610cc76114b4565b6001600160a01b0316610cd8610ec5565b6001600160a01b031614610d21576040805162461bcd60e51b815260206004820181905260248201526000805160206147a1833981519152604482015290519081900360640190fd5b60005b81518110156106ed576000828281518110610d3b57fe5b6020908102919091018101516001600160a01b03811660008181526102c49093526040808420805460ff1916600190811790915590519294509290917f3042b80e435ae46c334b2cfec51a66d64c9a8a8af4cd0c279a124c35a09e91dd9190a350600101610d24565b8251610daf90611497565b15610dc857610dc38282856000015161096f565b61064a565b61064a838261064f565b610de08686868686866117d4565b610292805460ff191690557f4ce43ceb6a1ad066109c9f24ee6b1ca696af4ee1efed6979527a993e3aea2e02610e146114b4565b8787604051610e25939291906142f7565b60405180910390a1505050505050565b60606101fb6000838152602001908152602001600020805480602002602001604051908101604052809291908181526020016000905b82821015610eba57600084815260209081902060408051808201909152908401546001600160a01b0381168252600160a01b90046001600160601b031681830152825260019092019101610e6b565b505050509050919050565b6033546001600160a01b031690565b60fe8054604080516020601f600260001961010060018816150201909516949094049384018190048102820181019092528281526060939092909183018282801561050c5780601f106104e15761010080835404028352916020019161050c565b610f3d6114b4565b6001600160a01b0316610f4e610ec5565b6001600160a01b031614610f97576040805162461bcd60e51b815260206004820181905260248201526000805160206147a1833981519152604482015290519081900360640190fd5b6001600160a01b03811660008181526102c46020526040808220805460ff1916600190811790915590519092917f3042b80e435ae46c334b2cfec51a66d64c9a8a8af4cd0c279a124c35a09e91dd91a350565b610ff26114b4565b6001600160a01b0316826001600160a01b03161415611058576040805162461bcd60e51b815260206004820152601960248201527f4552433732313a20617070726f766520746f2063616c6c657200000000000000604482015290519081900360640190fd5b8061010260006110666114b4565b6001600160a01b03908116825260208083019390935260409182016000908120918716808252919093529120805460ff1916921515929092179091556110aa6114b4565b6001600160a01b03167f17307eab39ab6107e8899845ad3d59bd9653f200f220920489ca2b5937696c318360405180821515815260200191505060405180910390a35050565b6001600160a01b031660009081526102c4602052604090205460ff1690565b61112061111a6114b4565b836116a9565b61115b5760405162461bcd60e51b815260040180806020018281038252603181526020018061485a6031913960400191505060405180910390fd5b611167848484846119ba565b50505050565b606061047882611a0c565b60008181526101c660209081526040808320805482518185028101850190935280835260609492939192909184018215610eba57600084815260209081902060408051808201909152908401546001600160a01b0381168252600160a01b90046001600160601b031681830152825260019092019101610e6b565b816001600160a01b03166112056114b4565b6001600160a01b03161461122b5760405162461bcd60e51b81526004016106da90614404565b61064a838383611a17565b61022e805460408051602060026001851615610100026000190190941693909304601f810184900484028201840190925281815292918301828280156112bd5780601f10611292576101008083540402835291602001916112bd565b820191906000526020600020905b8154815290600101906020018083116112a057829003601f168201915b505050505081565b60006112d18383611ac3565b90505b92915050565b6112e26114b4565b6001600160a01b03166112f3610ec5565b6001600160a01b03161461133c576040805162461bcd60e51b815260206004820181905260248201526000805160206147a1833981519152604482015290519081900360640190fd5b6001600160a01b0381166113815760405162461bcd60e51b81526004018080602001828103825260268152602001806145a96026913960400191505060405180910390fd5b6033546040516001600160a01b038084169216907f8be0079c531659141344cd1fd0a4f28419497f9722a3daafe3b4186f6b6457e090600090a3603380546001600160a01b0319166001600160a01b0392909216919091179055565b60006001600160e01b03198216638486f69f60e01b148061140e57506001600160e01b0319821663656cb66560e11b145b8061142957506001600160e01b0319821663152a902d60e11b145b8061144457506001600160e01b031982166301ffc9a760e01b145b8061145f57506001600160e01b031982166380ac58cd60e01b145b8061147a57506001600160e01b03198216635b5e139f60e01b145b806104785750506001600160e01b03191663780e9d6360e01b1490565b600090815260ff60205260409020546001600160a01b0316151590565b3390565b60008181526101016020526040902080546001600160a01b0319166001600160a01b03841690811790915581906114ee82610af9565b6001600160a01b03167f8c5be1e5ebec7d5bd14f71427d1e84f3dd0314c0f7b2291e5b200ac8c7c3b92560405160405180910390a45050565b815160601c60006115366114b4565b9050836040015160008151811061154957fe5b6020026020010151600001516001600160a01b0316826001600160a01b0316146115855760405162461bcd60e51b81526004016106da906143d9565b8360800151518460400151511461159b57600080fd5b806001600160a01b0316826001600160a01b031614806115c057506115c082826112c5565b6115dc5760405162461bcd60e51b81526004016106da90614460565b60006115e785611af0565b905060005b85604001515181101561165d5760008660400151828151811061160b57fe5b6020026020010151600001519050836001600160a01b0316816001600160a01b0316146116545761165481848960800151858151811061164757fe5b6020026020010151611d37565b506001016115ec565b5061166c848660000151611d42565b61167e85600001518660600151611d5c565b61169085600001518660400151611f4b565b6116a2856000015186602001516120fa565b5050505050565b60006112d1838361215e565b826001600160a01b03166116c882610af9565b6001600160a01b03161461170d5760405162461bcd60e51b81526004018080602001828103825260298152602001806147c16029913960400191505060405180910390fd5b6001600160a01b0382166117525760405162461bcd60e51b81526004018080602001828103825260248152602001806145cf6024913960400191505060405180910390fd5b61175d83838361064a565b6117686000826114b8565b6001600160a01b0380841660008181526101006020908152604080832080546000190190559386168083528483208054600101905585835260ff90915283822080546001600160a01b0319168217905592518493929160008051602061481983398151915291a4505050565b600054610100900460ff16806117ed57506117ed61218b565b806117fb575060005460ff16155b6118365760405162461bcd60e51b815260040180806020018281038252602e8152602001806146cc602e913960400191505060405180910390fd5b600054610100900460ff16158015611861576000805460ff1961ff0019909116610100171660011790555b61186a856119a6565b61187261219c565b61187a61223d565b61188261219c565b61188a6122da565b611892612377565b61189a61219c565b6118a2612470565b6118aa61219c565b6118b38461253f565b6118bd8787612606565b6118c88360016126f1565b6118d38260016126f1565b80156118e5576000805461ff00191690555b50505050505050565b600090815261010360205260409020805460ff19166001179055565b600061191582610af9565b90506119238160008461064a565b61192e6000836114b8565b61193782612752565b6001600160a01b038116600090815261010060209081526040808320805460001901905584835260ff909152902080546001600160a01b031916905561197c826118ee565b60405182906000906001600160a01b03841690600080516020614819833981519152908390a45050565b80516106ed906101c8906020840190613a0d565b6119c58484846116b5565b6119d18484848461275b565b6111675760405162461bcd60e51b81526004018080602001828103825260328152602001806145776032913960400191505060405180910390fd5b606061047882612911565b60008381526101c66020526040812054905b818110156116a25760008581526101c66020526040902080546001600160a01b038616919083908110611a5857fe5b6000918252602090912001546001600160a01b03161415611abb5760008581526101c660205260409020805484919083908110611a9157fe5b600091825260209091200180546001600160a01b0319166001600160a01b03929092169190911790555b600101611a29565b6001600160a01b038116600090815261012f602052604081205460ff16806112d157506112d18383612aec565b6000808260600151516001600160401b0381118015611b0e57600080fd5b50604051908082528060200260200182016040528015611b38578160200160208202803683370190505b50905060005b836060015151811015611b8a57611b6b84606001518281518110611b5e57fe5b6020026020010151612b1b565b828281518110611b7757fe5b6020908102919091010152600101611b3e565b5060008360400151516001600160401b0381118015611ba857600080fd5b50604051908082528060200260200182016040528015611bd2578160200160208202803683370190505b50905060005b846040015151811015611c1757611bf885604001518281518110611b5e57fe5b828281518110611c0457fe5b6020908102919091010152600101611bd8565b507ff64326045af5fd7e15297ba939f85b550474d3899daa47d2bc1ffbdb9ced344e84600001518560200151805190602001208360405160200180828051906020019060200280838360005b83811015611c7b578181015183820152602001611c63565b50505050905001915050604051602081830303815290604052805190602001208560405160200180828051906020019060200280838360005b83811015611ccc578181015183820152602001611cb4565b505050509050019150506040516020818303038152906040528051906020012060405160200180868152602001858152602001848152602001838152602001828152602001955050505050506040516020818303038152906040528051906020012092505050919050565b61064a838383612b88565b6106ed828260405180602001604052806000815250612e07565b6000805b8251811015611f005760006001600160a01b0316838281518110611d8057fe5b6020026020010151600001516001600160a01b03161415611de8576040805162461bcd60e51b815260206004820152601b60248201527f526563697069656e742073686f756c642062652070726573656e740000000000604482015290519081900360640190fd5b828181518110611df457fe5b6020026020010151602001516001600160601b031660001415611e5e576040805162461bcd60e51b815260206004820181905260248201527f526f79616c74792076616c75652073686f756c6420626520706f736974697665604482015290519081900360640190fd5b828181518110611e6a57fe5b6020026020010151602001516001600160601b0316820191506101c66000858152602001908152602001600020838281518110611ea357fe5b60209081029190910181015182546001818101855560009485529383902082519101805492909301516001600160601b0316600160a01b026001600160a01b039182166001600160a01b0319909316929092171617905501611d60565b506127108110611f415760405162461bcd60e51b815260040180806020018281038252602581526020018061488b6025913960400191505060405180910390fd5b61064a8383612e59565b60008281526101fb6020526040812090805b83518110156120995760006001600160a01b0316848281518110611f7d57fe5b6020026020010151600001516001600160a01b03161415611fb05760405162461bcd60e51b81526004016106da90614429565b838181518110611fbc57fe5b6020026020010151602001516001600160601b031660001415611ff15760405162461bcd60e51b81526004016106da906143a4565b82848281518110611ffe57fe5b602090810291909101810151825460018101845560009384529282902081519301805491909201516001600160601b0316600160a01b026001600160a01b039384166001600160a01b031990921691909117909216919091179055835161208f9085908390811061206b57fe5b6020026020010151602001516001600160601b031683612e9690919063ffffffff16565b9150600101611f5d565b5080612710146120bb5760405162461bcd60e51b81526004016106da906144b1565b7f841ffb90d4cabdd1f16034f3fa831d79060febbb8167bdd54a49269365bdf78f84846040516120ec929190614508565b60405180910390a150505050565b61210382611497565b61213e5760405162461bcd60e51b815260040180806020018281038252602c815260200180614775602c913960400191505060405180910390fd5b60008281526101c760209081526040909120825161064a92840190613a0d565b6001600160a01b038216600090815261012f602052604081205460ff16806112d157506112d18383612ef0565b600061219630612f8c565b15905090565b600054610100900460ff16806121b557506121b561218b565b806121c3575060005460ff16155b6121fe5760405162461bcd60e51b815260040180806020018281038252602e8152602001806146cc602e913960400191505060405180910390fd5b600054610100900460ff16158015612229576000805460ff1961ff0019909116610100171660011790555b8015610a51576000805461ff001916905550565b600054610100900460ff1680612256575061225661218b565b80612264575060005460ff16155b61229f5760405162461bcd60e51b815260040180806020018281038252602e8152602001806146cc602e913960400191505060405180910390fd5b600054610100900460ff161580156122ca576000805460ff1961ff0019909116610100171660011790555b61222963656cb66560e11b612f92565b600054610100900460ff16806122f357506122f361218b565b80612301575060005460ff16155b61233c5760405162461bcd60e51b815260040180806020018281038252602e8152602001806146cc602e913960400191505060405180910390fd5b600054610100900460ff16158015612367576000805460ff1961ff0019909116610100171660011790555b6122296301ffc9a760e01b612f92565b600054610100900460ff1680612390575061239061218b565b8061239e575060005460ff16155b6123d95760405162461bcd60e51b815260040180806020018281038252602e8152602001806146cc602e913960400191505060405180910390fd5b600054610100900460ff16158015612404576000805460ff1961ff0019909116610100171660011790555b600061240e6114b4565b603380546001600160a01b0319166001600160a01b038316908117909155604051919250906000907f8be0079c531659141344cd1fd0a4f28419497f9722a3daafe3b4186f6b6457e0908290a3508015610a51576000805461ff001916905550565b600054610100900460ff1680612489575061248961218b565b80612497575060005460ff16155b6124d25760405162461bcd60e51b815260040180806020018281038252602e8152602001806146cc602e913960400191505060405180910390fd5b600054610100900460ff161580156124fd576000805460ff1961ff0019909116610100171660011790555b612229604051806040016040528060078152602001664d696e7437323160c81b815250604051806040016040528060018152602001603160f81b815250613016565b600054610100900460ff1680612558575061255861218b565b80612566575060005460ff16155b6125a15760405162461bcd60e51b815260040180806020018281038252602e8152602001806146cc602e913960400191505060405180910390fd5b600054610100900460ff161580156125cc576000805460ff1961ff0019909116610100171660011790555b81516125e09061022e906020850190613a0d565b506125f163e8a3d48560e01b612f92565b80156106ed576000805461ff00191690555050565b600054610100900460ff168061261f575061261f61218b565b8061262d575060005460ff16155b6126685760405162461bcd60e51b815260040180806020018281038252602e8152602001806146cc602e913960400191505060405180910390fd5b600054610100900460ff16158015612693576000805460ff1961ff0019909116610100171660011790555b82516126a69060fd906020860190613a0d565b5081516126ba9060fe906020850190613a0d565b506126cb6380ac58cd60e01b612f92565b6126db635b5e139f60e01b612f92565b801561064a576000805461ff0019169055505050565b6001600160a01b038216600081815261012f6020908152604091829020805460ff1916851515908117909155825190815291517f270dbb8ba4292910ae92862466486be25c355c837270a3d8824b36a8bc7c653b9281900390910190a25050565b610a51816130d6565b600061276f846001600160a01b0316612f8c565b1561290557836001600160a01b031663150b7a0261278b6114b4565b8786866040518563ffffffff1660e01b815260040180856001600160a01b03168152602001846001600160a01b0316815260200183815260200180602001828103825283818151815260200191508051906020019080838360005b838110156127fe5781810151838201526020016127e6565b50505050905090810190601f16801561282b5780820380516001836020036101000a031916815260200191505b5095505050505050602060405180830381600087803b15801561284d57600080fd5b505af192505050801561287257506040513d602081101561286d57600080fd5b505160015b6128eb573d8080156128a0576040519150601f19603f3d011682016040523d82523d6000602084013e6128a5565b606091505b5080516128e35760405162461bcd60e51b81526004018080602001828103825260328152602001806145776032913960400191505060405180910390fd5b805181602001fd5b6001600160e01b031916630a85bd0160e11b149050612909565b5060015b949350505050565b606061291c82611497565b6129575760405162461bcd60e51b815260040180806020018281038252602f8152602001806147ea602f913960400191505060405180910390fd5b60008281526101c7602090815260408083208054825160026001831615610100026000190190921691909104601f8101859004850282018501909352828152929091908301828280156129eb5780601f106129c0576101008083540402835291602001916129eb565b820191906000526020600020905b8154815290600101906020018083116129ce57829003601f168201915b5050505050905060006129fc610b4d565b9050805160001415612a105750905061047b565b815115612a2a57612a2181836130df565b9250505061047b565b80612a34856132c4565b6040516020018083805190602001908083835b60208310612a665780518252601f199092019160209182019101612a47565b51815160209384036101000a600019018019909216911617905285519190930192850191508083835b60208310612aae5780518252601f199092019160209182019101612a8f565b6001836020036101000a0380198251168184511680821785525050505050509050019250505060405160208183030381529060405292505050919050565b6001600160a01b0391821660009081526101026020908152604080832093909416825291909152205460ff1690565b8051602091820151604080517f397e04204c1e1a60ee8724b71f8244e10ab5f2e9009854d80f602bda21b59ebb818601526001600160a01b03909316838201526001600160601b039091166060808401919091528151808403909101815260809092019052805191012090565b6000612b938361339e565b90506000825160411415612bae57612bab82846133ea565b90505b846001600160a01b0316816001600160a01b0316146116a257612bd9856001600160a01b0316612f8c565b15612d8f5760408051630b135d3f60e11b808252600482018581526024830193845286516044840152865191936001600160a01b038a1693631626ba7e9388938a9390929091606490910190602085019080838360005b83811015612c48578181015183820152602001612c30565b50505050905090810190601f168015612c755780820380516001836020036101000a031916815260200191505b50935050505060206040518083038186803b158015612c9357600080fd5b505afa158015612ca7573d6000803e3d6000fd5b505050506040513d6020811015612cbd57600080fd5b505160408051808201909152601c81527f7369676e617475726520766572696669636174696f6e206572726f72000000006020820152916001600160e01b031990911614612d895760405162461bcd60e51b81526004018080602001828103825283818151815260200191508051906020019080838360005b83811015612d4e578181015183820152602001612d36565b50505050905090810190601f168015612d7b5780820380516001836020036101000a031916815260200191505b509250505060405180910390fd5b506116a2565b604080518082018252601c81527f7369676e617475726520766572696669636174696f6e206572726f72000000006020808301918252925162461bcd60e51b81526004810193845282516024820152825192939283926044909201919080838360008315612d4e578181015183820152602001612d36565b612e11838361346a565b612e1e600084848461275b565b61064a5760405162461bcd60e51b81526004018080602001828103825260328152602001806145776032913960400191505060405180910390fd5b7f3fa96d7b6bcbfe71ef171666d84db3cf52fa2d1c8afdb1cc8e486177f208b7df8282604051612e8a929190614508565b60405180910390a15050565b6000828201838110156112d1576040805162461bcd60e51b815260206004820152601b60248201527f536166654d6174683a206164646974696f6e206f766572666c6f770000000000604482015290519081900360640190fd5b6000612efb82611497565b612f365760405162461bcd60e51b815260040180806020018281038252602c815260200180614615602c913960400191505060405180910390fd5b6000612f4183610af9565b9050806001600160a01b0316846001600160a01b03161480612f7c5750836001600160a01b0316612f7184610516565b6001600160a01b0316145b80612909575061290981856112c5565b3b151590565b6001600160e01b03198082161415612ff1576040805162461bcd60e51b815260206004820152601c60248201527f4552433136353a20696e76616c696420696e7465726661636520696400000000604482015290519081900360640190fd5b6001600160e01b0319166000908152606560205260409020805460ff19166001179055565b600054610100900460ff168061302f575061302f61218b565b8061303d575060005460ff16155b6130785760405162461bcd60e51b815260040180806020018281038252602e8152602001806146cc602e913960400191505060405180910390fd5b600054610100900460ff161580156130a3576000805460ff1961ff0019909116610100171660011790555b8251602080850191909120835191840191909120609791909155609855801561064a576000805461ff0019169055505050565b610a51816135d0565b805182516060918491849110156131aa5784846040516020018083805190602001908083835b602083106131245780518252601f199092019160209182019101613105565b51815160209384036101000a600019018019909216911617905285519190930192850191508083835b6020831061316c5780518252601f19909201916020918201910161314d565b6001836020036101000a03801982511681845116808217855250505050505090500192505050604051602081830303815290604052925050506112d4565b60005b82518110156132ba578281815181106131c257fe5b602001015160f81c60f81b6001600160f81b0319168282815181106131e357fe5b01602001516001600160f81b031916146132b25785856040516020018083805190602001908083835b6020831061322b5780518252601f19909201916020918201910161320c565b51815160209384036101000a600019018019909216911617905285519190930192850191508083835b602083106132735780518252601f199092019160209182019101613254565b6001836020036101000a0380198251168184511680821785525050505050509050019250505060405160208183030381529060405293505050506112d4565b6001016131ad565b5092949350505050565b6060816132e957506040805180820190915260018152600360fc1b602082015261047b565b8160005b811561330157600101600a820491506132ed565b6000816001600160401b038111801561331957600080fd5b506040519080825280601f01601f191660200182016040528015613344576020820181803683370190505b50859350905060001982015b831561339557600a840660300160f81b8282806001900393508151811061337357fe5b60200101906001600160f81b031916908160001a905350600a84049350613350565b50949350505050565b60006133a8613610565b82604051602001808061190160f01b81525060020183815260200182815260200192505050604051602081830303815290604052805190602001209050919050565b60008151604114613442576040805162461bcd60e51b815260206004820152601f60248201527f45434453413a20696e76616c6964207369676e6174757265206c656e67746800604482015290519081900360640190fd5b60208201516040830151606084015160001a61346086828585613650565b9695505050505050565b6001600160a01b0382166134c5576040805162461bcd60e51b815260206004820181905260248201527f4552433732313a206d696e7420746f20746865207a65726f2061646472657373604482015290519081900360640190fd5b6000818152610103602052604090205460ff1615613521576040805162461bcd60e51b81526020600482015260146024820152731d1bdad95b88185b1c9958591e48189d5c9b995960621b604482015290519081900360640190fd5b61352a81611497565b1561357c576040805162461bcd60e51b815260206004820152601c60248201527f4552433732313a20746f6b656e20616c7265616479206d696e74656400000000604482015290519081900360640190fd5b6135886000838361064a565b6001600160a01b0382166000818152610100602090815260408083208054600101905584835260ff909152902080546001600160a01b03191690911790556106ed82826138a6565b60008181526101c760205260409020546002600019610100600184161502019091160415610a515760008181526101c760205260408120610a5191613a99565b600061364b7f8b73c3c69bb8fe3d512ecc4cf759cc79239f7b179b0ffacaa9a75d522b39400f61363e6138b0565b6136466138b6565b6138bc565b905090565b60007f7fffffffffffffffffffffffffffffff5d576e7357a4501ddfe92f46681b20a08211156136b15760405162461bcd60e51b81526004018080602001828103825260228152602001806145f36022913960400191505060405180910390fd5b6000601e8560ff16111561378b576004850360ff16601b14806136da57506004850360ff16601c145b6137155760405162461bcd60e51b81526004018080602001828103825260228152602001806146fa6022913960400191505060405180910390fd5b60016137208761391e565b60048703868660405160008152602001604052604051808581526020018460ff1681526020018381526020018281526020019450505050506020604051602081039080840390855afa15801561377a573d6000803e3d6000fd5b505050602060405103519050613842565b8460ff16601b14806137a057508460ff16601c145b6137db5760405162461bcd60e51b81526004018080602001828103825260228152602001806146fa6022913960400191505060405180910390fd5b60018686868660405160008152602001604052604051808581526020018460ff1681526020018381526020018281526020019450505050506020604051602081039080840390855afa158015613835573d6000803e3d6000fd5b5050506020604051035190505b6001600160a01b03811661389d576040805162461bcd60e51b815260206004820152601860248201527f45434453413a20696e76616c6964207369676e61747572650000000000000000604482015290519081900360640190fd5b95945050505050565b6106ed828261396f565b60975490565b60985490565b60008383836138c9613a09565b3060405160200180868152602001858152602001848152602001838152602001826001600160a01b03168152602001955050505050506040516020818303038152906040528051906020012090509392505050565b604080517f19457468657265756d205369676e6564204d6573736167653a0a333200000000602080830191909152603c8083019490945282518083039094018452605c909101909152815191012090565b606081901c6001600160a01b03831681146139de5760405182906001600160a01b03831690600090600080516020614819833981519152908290a481836001600160a01b0316826001600160a01b031660008051602061481983398151915260405160405180910390a461064a565b60405182906001600160a01b03851690600090600080516020614819833981519152908290a4505050565b4690565b828054600181600116156101000203166002900490600052602060002090601f016020900481019282613a435760008555613a89565b82601f10613a5c57805160ff1916838001178555613a89565b82800160010185558215613a89579182015b82811115613a89578251825591602001919060010190613a6e565b50613a95929150613ad9565b5090565b50805460018160011615610100020316600290046000825580601f10613abf5750610a51565b601f016020900490600052602060002090810190610a5191905b5b80821115613a955760008155600101613ada565b803561047b81614561565b600082601f830112613b09578081fd5b81356020613b1e613b1983614544565b614521565b8281528181019085830183850287018401881015613b3a578586fd5b855b85811015613b61578135613b4f81614561565b84529284019290840190600101613b3c565b5090979650505050505050565b600082601f830112613b7e578081fd5b81356020613b8e613b1983614544565b82815281810190858301855b85811015613b6157613bb1898684358b0101613c7e565b84529284019290840190600101613b9a565b600082601f830112613bd3578081fd5b81356020613be3613b1983614544565b82815281810190858301604080860288018501891015613c01578687fd5b865b86811015613c705781838b031215613c19578788fd5b81518281018181106001600160401b0382111715613c3357fe5b83528335613c4081614561565b8152838701356001600160601b0381168114613c5a57898afd5b8188015285529385019391810191600101613c03565b509198975050505050505050565b600082601f830112613c8e578081fd5b81356001600160401b03811115613ca157fe5b613cb4601f8201601f1916602001614521565b818152846020838601011115613cc8578283fd5b816020850160208301379081016020019190915292915050565b600060a08284031215613cf3578081fd5b613cfd60a0614521565b90508135815260208201356001600160401b0380821115613d1d57600080fd5b613d2985838601613c7e565b60208401526040840135915080821115613d4257600080fd5b613d4e85838601613bc3565b60408401526060840135915080821115613d6757600080fd5b613d7385838601613bc3565b60608401526080840135915080821115613d8c57600080fd5b50613d9984828501613b6e565b60808301525092915050565b600060208284031215613db6578081fd5b81356112d181614561565b60008060408385031215613dd3578081fd5b8235613dde81614561565b91506020830135613dee81614561565b809150509250929050565b600080600060608486031215613e0d578081fd5b8335613e1881614561565b92506020840135613e2881614561565b929592945050506040919091013590565b60008060008060808587031215613e4e578081fd5b8435613e5981614561565b93506020850135613e6981614561565b92506040850135915060608501356001600160401b03811115613e8a578182fd5b613e9687828801613c7e565b91505092959194509250565b60008060408385031215613eb4578182fd5b8235613ebf81614561565b915060208301358015158114613dee578182fd5b60008060408385031215613ee5578182fd5b8235613ef081614561565b946020939093013593505050565b600060208284031215613f0f578081fd5b81356001600160401b03811115613f24578182fd5b61290984828501613af9565b600060208284031215613f41578081fd5b81356001600160e01b0319811681146112d1578182fd5b600060208284031215613f69578081fd5b81356001600160401b03811115613f7e578182fd5b61290984828501613c7e565b60008060008060008060c08789031215613fa2578384fd5b86356001600160401b0380821115613fb8578586fd5b613fc48a838b01613c7e565b97506020890135915080821115613fd9578586fd5b613fe58a838b01613c7e565b96506040890135915080821115613ffa578586fd5b6140068a838b01613c7e565b9550606089013591508082111561401b578384fd5b5061402889828a01613c7e565b93505061403760808801613aee565b915061404560a08801613aee565b90509295509295509295565b600080600080600080600060e0888a03121561406b578485fd5b87356001600160401b0380821115614081578687fd5b61408d8b838c01613c7e565b985060208a01359150808211156140a2578687fd5b6140ae8b838c01613c7e565b975060408a01359150808211156140c3578687fd5b6140cf8b838c01613c7e565b965060608a01359150808211156140e4578283fd5b6140f08b838c01613c7e565b955060808a0135915080821115614105578283fd5b506141128a828b01613af9565b93505061412160a08901613aee565b915061412f60c08901613aee565b905092959891949750929550565b6000806040838503121561414f578182fd5b82356001600160401b03811115614164578283fd5b61417085828601613ce2565b9250506020830135613dee81614561565b600080600060608486031215614195578081fd5b83356001600160401b038111156141aa578182fd5b6141b686828701613ce2565b93505060208401356141c781614561565b915060408401356141d781614561565b809150509250925092565b6000602082840312156141f3578081fd5b5035919050565b60008060006060848603121561420e578081fd5b8335925060208401356141c781614561565b60008060408385031215614232578182fd5b50508035926020909101359150565b6000815180845260208085019450808401835b8381101561428d57815180516001600160a01b031688528301516001600160601b03168388015260409096019590820190600101614254565b509495945050505050565b60008151808452815b818110156142bd576020818501810151868301820152016142a1565b818111156142ce5782602083870101525b50601f01601f19169290920160200192915050565b6001600160a01b0391909116815260200190565b6001600160a01b038416815260606020820181905260009061431b90830185614298565b82810360408401526134608185614298565b6001600160a01b03929092168252602082015260400190565b6000602082526112d16020830184614241565b901515815260200190565b6000602082526112d16020830184614298565b6020808252601390820152723737ba1037bbb732b91037b91036b4b73a32b960691b604082015260600190565b6020808252818101527f43726561746f722073686172652073686f756c6420626520706f736974697665604082015260600190565b6020808252601190820152701d1bdad95b9259081a5b98dbdc9c9958dd607a1b604082015260600190565b6020808252600b908201526a1b9bdd08185b1b1bddd95960aa1b604082015260600190565b60208082526019908201527f4163636f756e742073686f756c642062652070726573656e7400000000000000604082015260600190565b60208082526031908201527f4552433732313a207472616e736665722063616c6c6572206973206e6f74206f6040820152701ddb995c881b9bdc88185c1c1c9bdd9959607a1b606082015260800190565b6020808252602e908201527f746f74616c20616d6f756e74206f662063726561746f7273207368617265207360408201526d0686f756c642062652031303030360941b606082015260800190565b90815260200190565b6000838252604060208301526129096040830184614241565b6040518181016001600160401b038111828210171561453c57fe5b604052919050565b60006001600160401b0382111561455757fe5b5060209081020190565b6001600160a01b0381168114610a5157600080fdfe4552433732313a207472616e7366657220746f206e6f6e20455243373231526563656976657220696d706c656d656e7465724f776e61626c653a206e6577206f776e657220697320746865207a65726f20616464726573734552433732313a207472616e7366657220746f20746865207a65726f206164647265737345434453413a20696e76616c6964207369676e6174757265202773272076616c75654552433732313a206f70657261746f7220717565727920666f72206e6f6e6578697374656e7420746f6b656e4552433732313a20617070726f76652063616c6c6572206973206e6f74206f776e6572206e6f7220617070726f76656420666f7220616c6c4552433732313a2062616c616e636520717565727920666f7220746865207a65726f20616464726573734552433732313a206f776e657220717565727920666f72206e6f6e6578697374656e7420746f6b656e496e697469616c697a61626c653a20636f6e747261637420697320616c726561647920696e697469616c697a656445434453413a20696e76616c6964207369676e6174757265202776272076616c75654552433732314275726e61626c653a2063616c6c6572206973206e6f74206f776e65722c206e6f74206275726e4552433732313a20617070726f76656420717565727920666f72206e6f6e6578697374656e7420746f6b656e4552433732314d657461646174613a2055524920736574206f66206e6f6e6578697374656e7420746f6b656e4f776e61626c653a2063616c6c6572206973206e6f7420746865206f776e65724552433732313a207472616e73666572206f6620746f6b656e2074686174206973206e6f74206f776e4552433732314d657461646174613a2055524920717565727920666f72206e6f6e6578697374656e7420746f6b656eddf252ad1be2c89b69c2b068fc378daa952ba7f163c4a11628f55a4df523b3ef4552433732313a20617070726f76616c20746f2063757272656e74206f776e65724552433732313a207472616e736665722063616c6c6572206973206e6f74206f776e6572206e6f7220617070726f766564526f79616c747920746f74616c2076616c75652073686f756c64206265203c2031303030304552433732314275726e61626c653a2063616c6c6572206973206e6f74206f776e6572206e6f7220617070726f766564a2646970667358221220dcfe1996e924bfe08d8cfe88498a2ad1f6e0e7a386ddf38fc0b1b16d505bcaff64736f6c63430007060033",
  "immutableReferences": {},
  "source": "// SPDX-License-Identifier: MIT\n\npragma solidity 0.7.6;\npragma abicoder v2;\n\nimport \"./ERC721BaseMinimal.sol\";\nimport \"../IsPrivateCollection.sol\";\nimport \"../access/MinterAccessControl.sol\";\n\ncontract ERC721GebridMinimal is ERC721BaseMinimal, IsPrivateCollection, MinterAccessControl {\n    event CreateERC721Gebrid(address owner, string name, string symbol);\n    event CreateERC721GebridUser(address owner, string name, string symbol);\n\n    function __ERC721GebridUser_init(string memory _name, string memory _symbol, string memory baseURI, string memory contractURI, address[] memory operators, address transferProxy, address lazyTransferProxy) external virtual {\n        __ERC721Gebrid_init_unchained(_name, _symbol, baseURI, contractURI, transferProxy, lazyTransferProxy);\n\n        isPrivate = true;\n        emit CreateERC721GebridUser(_msgSender(), _name, _symbol);\n    }\n\n    function __ERC721Gebrid_init(string memory _name, string memory _symbol, string memory baseURI, string memory contractURI, address transferProxy, address lazyTransferProxy) external virtual {\n        __ERC721Gebrid_init_unchained(_name, _symbol, baseURI, contractURI, transferProxy, lazyTransferProxy);\n\n        isPrivate = false;\n        emit CreateERC721Gebrid(_msgSender(), _name, _symbol);\n    }\n\n    function __ERC721Gebrid_init_unchained(string memory _name, string memory _symbol, string memory baseURI, string memory contractURI, address transferProxy, address lazyTransferProxy) internal initializer {\n        _setBaseURI(baseURI);\n        __ERC721Lazy_init_unchained();\n        __RoyaltiesV2Upgradeable_init_unchained();\n        __Context_init_unchained();\n        __ERC165_init_unchained();\n        __Ownable_init_unchained();\n        __ERC721Burnable_init_unchained();\n        __Mint721Validator_init_unchained();\n        __MinterAccessControl_init_unchained();\n        __HasContractURI_init_unchained(contractURI);\n        __ERC721_init_unchained(_name, _symbol);\n\n        //setting default approver for transferProxies\n        _setDefaultApproval(transferProxy, true);\n        _setDefaultApproval(lazyTransferProxy, true);\n    }\n\n    function mintAndTransfer(LibERC721LazyMint.Mint721Data memory data, address to) public override virtual {\n        if (isPrivate){\n            require(owner() == data.creators[0].account || isMinter(data.creators[0].account), \"not owner or minter\");\n        }\n        super.mintAndTransfer(data, to);\n    }\n}\n",
  "sourcePath": "@gebrid/tokens/contracts/erc-721-minimal/ERC721GebridMinimal.sol",
  "compiler": {
    "name": "solc",
    "version": "0.7.6+commit.7338295f.Emscripten.clang"
  },
  "schemaVersion": "3.4.4",
  "updatedAt": "2022-10-29T10:34:29.236Z",
  "devdoc": {
    "kind": "dev",
    "methods": {
      "addMinter(address)": {
        "details": "Add `minter` to the list of allowed minters."
      },
      "addMinters(address[])": {
        "details": "Add `minters` to the list of allowed minters."
      },
      "approve(address,uint256)": {
        "details": "See {IERC721-approve}."
      },
      "balanceOf(address)": {
        "details": "See {IERC721-balanceOf}."
      },
      "baseURI()": {
        "details": "Returns the base URI set via {_setBaseURI}. This will be automatically added as a prefix in {tokenURI} to each token's URI, or to the token ID if no specific URI is set for that token ID."
      },
      "burn(uint256)": {
        "details": "Burns `tokenId`. See {ERC721-_burn}. Requirements: - The caller must own `tokenId` or be an approved operator."
      },
      "getApproved(uint256)": {
        "details": "See {IERC721-getApproved}."
      },
      "isMinter(address)": {
        "details": "Returns `true` if `account` has been granted to minters."
      },
      "name()": {
        "details": "See {IERC721Metadata-name}."
      },
      "owner()": {
        "details": "Returns the address of the current owner."
      },
      "ownerOf(uint256)": {
        "details": "See {IERC721-ownerOf}."
      },
      "removeMinter(address)": {
        "details": "Revoke `_minter` from the list of allowed minters."
      },
      "renounceOwnership()": {
        "details": "Leaves the contract without owner. It will not be possible to call `onlyOwner` functions anymore. Can only be called by the current owner. NOTE: Renouncing ownership will leave the contract without an owner, thereby removing any functionality that is only available to the owner."
      },
      "safeTransferFrom(address,address,uint256)": {
        "details": "See {IERC721-safeTransferFrom}."
      },
      "safeTransferFrom(address,address,uint256,bytes)": {
        "details": "See {IERC721-safeTransferFrom}."
      },
      "setApprovalForAll(address,bool)": {
        "details": "See {IERC721-setApprovalForAll}."
      },
      "symbol()": {
        "details": "See {IERC721Metadata-symbol}."
      },
      "transferFrom(address,address,uint256)": {
        "details": "See {IERC721-transferFrom}."
      },
      "transferOwnership(address)": {
        "details": "Transfers ownership of the contract to a new account (`newOwner`). Can only be called by the current owner."
      }
    },
    "version": 1
  },
  "userdoc": {
    "kind": "user",
    "methods": {},
    "version": 1
  }
}