{
  "contractName": "ERC721GebridMeta",
  "abi": [
    {
      "anonymous": false,
      "inputs": [
        {
          "indexed": true,
          "internalType": "address",
          "name": "owner",
          "type": "address"
        },
        {
          "indexed": true,
          "internalType": "address",
          "name": "approved",
          "type": "address"
        },
        {
          "indexed": true,
          "internalType": "uint256",
          "name": "tokenId",
          "type": "uint256"
        }
      ],
      "name": "Approval",
      "type": "event"
    },
    {
      "anonymous": false,
      "inputs": [
        {
          "indexed": true,
          "internalType": "address",
          "name": "owner",
          "type": "address"
        },
        {
          "indexed": true,
          "internalType": "address",
          "name": "operator",
          "type": "address"
        },
        {
          "indexed": false,
          "internalType": "bool",
          "name": "approved",
          "type": "bool"
        }
      ],
      "name": "ApprovalForAll",
      "type": "event"
    },
    {
      "anonymous": false,
      "inputs": [
        {
          "indexed": false,
          "internalType": "string",
          "name": "newBaseURI",
          "type": "string"
        }
      ],
      "name": "BaseUriChanged",
      "type": "event"
    },
    {
      "anonymous": false,
      "inputs": [
        {
          "indexed": false,
          "internalType": "address",
          "name": "owner",
          "type": "address"
        },
        {
          "indexed": false,
          "internalType": "string",
          "name": "name",
          "type": "string"
        },
        {
          "indexed": false,
          "internalType": "string",
          "name": "symbol",
          "type": "string"
        }
      ],
      "name": "CreateERC721Gebrid",
      "type": "event"
    },
    {
      "anonymous": false,
      "inputs": [
        {
          "indexed": false,
          "internalType": "address",
          "name": "owner",
          "type": "address"
        },
        {
          "indexed": false,
          "internalType": "string",
          "name": "name",
          "type": "string"
        },
        {
          "indexed": false,
          "internalType": "string",
          "name": "symbol",
          "type": "string"
        }
      ],
      "name": "CreateERC721GebridUser",
      "type": "event"
    },
    {
      "anonymous": false,
      "inputs": [
        {
          "indexed": false,
          "internalType": "uint256",
          "name": "tokenId",
          "type": "uint256"
        },
        {
          "components": [
            {
              "internalType": "address payable",
              "name": "account",
              "type": "address"
            },
            {
              "internalType": "uint96",
              "name": "value",
              "type": "uint96"
            }
          ],
          "indexed": false,
          "internalType": "struct LibPart.Part[]",
          "name": "creators",
          "type": "tuple[]"
        }
      ],
      "name": "Creators",
      "type": "event"
    },
    {
      "anonymous": false,
      "inputs": [
        {
          "indexed": true,
          "internalType": "address",
          "name": "operator",
          "type": "address"
        },
        {
          "indexed": false,
          "internalType": "bool",
          "name": "hasApproval",
          "type": "bool"
        }
      ],
      "name": "DefaultApproval",
      "type": "event"
    },
    {
      "anonymous": false,
      "inputs": [
        {
          "indexed": false,
          "internalType": "address",
          "name": "userAddress",
          "type": "address"
        },
        {
          "indexed": false,
          "internalType": "address payable",
          "name": "relayerAddress",
          "type": "address"
        },
        {
          "indexed": false,
          "internalType": "bytes",
          "name": "functionSignature",
          "type": "bytes"
        }
      ],
      "name": "MetaTransactionExecuted",
      "type": "event"
    },
    {
      "anonymous": false,
      "inputs": [
        {
          "indexed": true,
          "internalType": "address",
          "name": "minter",
          "type": "address"
        },
        {
          "indexed": true,
          "internalType": "bool",
          "name": "status",
          "type": "bool"
        }
      ],
      "name": "MinterStatusChanged",
      "type": "event"
    },
    {
      "anonymous": false,
      "inputs": [
        {
          "indexed": true,
          "internalType": "address",
          "name": "previousOwner",
          "type": "address"
        },
        {
          "indexed": true,
          "internalType": "address",
          "name": "newOwner",
          "type": "address"
        }
      ],
      "name": "OwnershipTransferred",
      "type": "event"
    },
    {
      "anonymous": false,
      "inputs": [
        {
          "indexed": false,
          "internalType": "uint256",
          "name": "tokenId",
          "type": "uint256"
        },
        {
          "components": [
            {
              "internalType": "address payable",
              "name": "account",
              "type": "address"
            },
            {
              "internalType": "uint96",
              "name": "value",
              "type": "uint96"
            }
          ],
          "indexed": false,
          "internalType": "struct LibPart.Part[]",
          "name": "royalties",
          "type": "tuple[]"
        }
      ],
      "name": "RoyaltiesSet",
      "type": "event"
    },
    {
      "anonymous": false,
      "inputs": [
        {
          "indexed": true,
          "internalType": "address",
          "name": "from",
          "type": "address"
        },
        {
          "indexed": true,
          "internalType": "address",
          "name": "to",
          "type": "address"
        },
        {
          "indexed": true,
          "internalType": "uint256",
          "name": "tokenId",
          "type": "uint256"
        }
      ],
      "name": "Transfer",
      "type": "event"
    },
    {
      "inputs": [
        {
          "internalType": "address",
          "name": "minter",
          "type": "address"
        }
      ],
      "name": "addMinter",
      "outputs": [],
      "stateMutability": "nonpayable",
      "type": "function"
    },
    {
      "inputs": [
        {
          "internalType": "address[]",
          "name": "minters",
          "type": "address[]"
        }
      ],
      "name": "addMinters",
      "outputs": [],
      "stateMutability": "nonpayable",
      "type": "function"
    },
    {
      "inputs": [
        {
          "internalType": "address",
          "name": "to",
          "type": "address"
        },
        {
          "internalType": "uint256",
          "name": "tokenId",
          "type": "uint256"
        }
      ],
      "name": "approve",
      "outputs": [],
      "stateMutability": "nonpayable",
      "type": "function"
    },
    {
      "inputs": [
        {
          "internalType": "address",
          "name": "owner",
          "type": "address"
        }
      ],
      "name": "balanceOf",
      "outputs": [
        {
          "internalType": "uint256",
          "name": "",
          "type": "uint256"
        }
      ],
      "stateMutability": "view",
      "type": "function"
    },
    {
      "inputs": [],
      "name": "baseURI",
      "outputs": [
        {
          "internalType": "string",
          "name": "",
          "type": "string"
        }
      ],
      "stateMutability": "view",
      "type": "function"
    },
    {
      "inputs": [
        {
          "internalType": "uint256",
          "name": "tokenId",
          "type": "uint256"
        }
      ],
      "name": "burn",
      "outputs": [],
      "stateMutability": "nonpayable",
      "type": "function"
    },
    {
      "inputs": [],
      "name": "contractURI",
      "outputs": [
        {
          "internalType": "string",
          "name": "",
          "type": "string"
        }
      ],
      "stateMutability": "view",
      "type": "function"
    },
    {
      "inputs": [
        {
          "internalType": "address",
          "name": "userAddress",
          "type": "address"
        },
        {
          "internalType": "bytes",
          "name": "functionSignature",
          "type": "bytes"
        },
        {
          "internalType": "bytes32",
          "name": "sigR",
          "type": "bytes32"
        },
        {
          "internalType": "bytes32",
          "name": "sigS",
          "type": "bytes32"
        },
        {
          "internalType": "uint8",
          "name": "sigV",
          "type": "uint8"
        }
      ],
      "name": "executeMetaTransaction",
      "outputs": [
        {
          "internalType": "bytes",
          "name": "",
          "type": "bytes"
        }
      ],
      "stateMutability": "payable",
      "type": "function"
    },
    {
      "inputs": [
        {
          "internalType": "uint256",
          "name": "tokenId",
          "type": "uint256"
        }
      ],
      "name": "getApproved",
      "outputs": [
        {
          "internalType": "address",
          "name": "",
          "type": "address"
        }
      ],
      "stateMutability": "view",
      "type": "function"
    },
    {
      "inputs": [
        {
          "internalType": "uint256",
          "name": "_id",
          "type": "uint256"
        }
      ],
      "name": "getCreators",
      "outputs": [
        {
          "components": [
            {
              "internalType": "address payable",
              "name": "account",
              "type": "address"
            },
            {
              "internalType": "uint96",
              "name": "value",
              "type": "uint96"
            }
          ],
          "internalType": "struct LibPart.Part[]",
          "name": "",
          "type": "tuple[]"
        }
      ],
      "stateMutability": "view",
      "type": "function"
    },
    {
      "inputs": [
        {
          "internalType": "uint256",
          "name": "id",
          "type": "uint256"
        }
      ],
      "name": "getGebridV2Royalties",
      "outputs": [
        {
          "components": [
            {
              "internalType": "address payable",
              "name": "account",
              "type": "address"
            },
            {
              "internalType": "uint96",
              "name": "value",
              "type": "uint96"
            }
          ],
          "internalType": "struct LibPart.Part[]",
          "name": "",
          "type": "tuple[]"
        }
      ],
      "stateMutability": "view",
      "type": "function"
    },
    {
      "inputs": [
        {
          "internalType": "address",
          "name": "user",
          "type": "address"
        }
      ],
      "name": "getNonce",
      "outputs": [
        {
          "internalType": "uint256",
          "name": "nonce",
          "type": "uint256"
        }
      ],
      "stateMutability": "view",
      "type": "function"
    },
    {
      "inputs": [
        {
          "internalType": "address",
          "name": "owner",
          "type": "address"
        },
        {
          "internalType": "address",
          "name": "operator",
          "type": "address"
        }
      ],
      "name": "isApprovedForAll",
      "outputs": [
        {
          "internalType": "bool",
          "name": "",
          "type": "bool"
        }
      ],
      "stateMutability": "view",
      "type": "function"
    },
    {
      "inputs": [
        {
          "internalType": "address",
          "name": "account",
          "type": "address"
        }
      ],
      "name": "isMinter",
      "outputs": [
        {
          "internalType": "bool",
          "name": "",
          "type": "bool"
        }
      ],
      "stateMutability": "view",
      "type": "function"
    },
    {
      "inputs": [],
      "name": "name",
      "outputs": [
        {
          "internalType": "string",
          "name": "",
          "type": "string"
        }
      ],
      "stateMutability": "view",
      "type": "function"
    },
    {
      "inputs": [],
      "name": "owner",
      "outputs": [
        {
          "internalType": "address",
          "name": "",
          "type": "address"
        }
      ],
      "stateMutability": "view",
      "type": "function"
    },
    {
      "inputs": [
        {
          "internalType": "uint256",
          "name": "tokenId",
          "type": "uint256"
        }
      ],
      "name": "ownerOf",
      "outputs": [
        {
          "internalType": "address",
          "name": "",
          "type": "address"
        }
      ],
      "stateMutability": "view",
      "type": "function"
    },
    {
      "inputs": [
        {
          "internalType": "address",
          "name": "_minter",
          "type": "address"
        }
      ],
      "name": "removeMinter",
      "outputs": [],
      "stateMutability": "nonpayable",
      "type": "function"
    },
    {
      "inputs": [],
      "name": "renounceOwnership",
      "outputs": [],
      "stateMutability": "nonpayable",
      "type": "function"
    },
    {
      "inputs": [
        {
          "internalType": "uint256",
          "name": "id",
          "type": "uint256"
        },
        {
          "internalType": "uint256",
          "name": "_salePrice",
          "type": "uint256"
        }
      ],
      "name": "royaltyInfo",
      "outputs": [
        {
          "internalType": "address",
          "name": "receiver",
          "type": "address"
        },
        {
          "internalType": "uint256",
          "name": "royaltyAmount",
          "type": "uint256"
        }
      ],
      "stateMutability": "view",
      "type": "function"
    },
    {
      "inputs": [
        {
          "internalType": "address",
          "name": "from",
          "type": "address"
        },
        {
          "internalType": "address",
          "name": "to",
          "type": "address"
        },
        {
          "internalType": "uint256",
          "name": "tokenId",
          "type": "uint256"
        }
      ],
      "name": "safeTransferFrom",
      "outputs": [],
      "stateMutability": "nonpayable",
      "type": "function"
    },
    {
      "inputs": [
        {
          "internalType": "address",
          "name": "from",
          "type": "address"
        },
        {
          "internalType": "address",
          "name": "to",
          "type": "address"
        },
        {
          "internalType": "uint256",
          "name": "tokenId",
          "type": "uint256"
        },
        {
          "internalType": "bytes",
          "name": "_data",
          "type": "bytes"
        }
      ],
      "name": "safeTransferFrom",
      "outputs": [],
      "stateMutability": "nonpayable",
      "type": "function"
    },
    {
      "inputs": [
        {
          "internalType": "address",
          "name": "operator",
          "type": "address"
        },
        {
          "internalType": "bool",
          "name": "approved",
          "type": "bool"
        }
      ],
      "name": "setApprovalForAll",
      "outputs": [],
      "stateMutability": "nonpayable",
      "type": "function"
    },
    {
      "inputs": [
        {
          "internalType": "string",
          "name": "newBaseURI",
          "type": "string"
        }
      ],
      "name": "setBaseURI",
      "outputs": [],
      "stateMutability": "nonpayable",
      "type": "function"
    },
    {
      "inputs": [
        {
          "internalType": "bytes4",
          "name": "interfaceId",
          "type": "bytes4"
        }
      ],
      "name": "supportsInterface",
      "outputs": [
        {
          "internalType": "bool",
          "name": "",
          "type": "bool"
        }
      ],
      "stateMutability": "view",
      "type": "function"
    },
    {
      "inputs": [],
      "name": "symbol",
      "outputs": [
        {
          "internalType": "string",
          "name": "",
          "type": "string"
        }
      ],
      "stateMutability": "view",
      "type": "function"
    },
    {
      "inputs": [
        {
          "internalType": "uint256",
          "name": "tokenId",
          "type": "uint256"
        }
      ],
      "name": "tokenURI",
      "outputs": [
        {
          "internalType": "string",
          "name": "",
          "type": "string"
        }
      ],
      "stateMutability": "view",
      "type": "function"
    },
    {
      "inputs": [
        {
          "internalType": "address",
          "name": "from",
          "type": "address"
        },
        {
          "internalType": "address",
          "name": "to",
          "type": "address"
        },
        {
          "internalType": "uint256",
          "name": "tokenId",
          "type": "uint256"
        }
      ],
      "name": "transferFrom",
      "outputs": [],
      "stateMutability": "nonpayable",
      "type": "function"
    },
    {
      "inputs": [
        {
          "components": [
            {
              "internalType": "uint256",
              "name": "tokenId",
              "type": "uint256"
            },
            {
              "internalType": "string",
              "name": "tokenURI",
              "type": "string"
            },
            {
              "components": [
                {
                  "internalType": "address payable",
                  "name": "account",
                  "type": "address"
                },
                {
                  "internalType": "uint96",
                  "name": "value",
                  "type": "uint96"
                }
              ],
              "internalType": "struct LibPart.Part[]",
              "name": "creators",
              "type": "tuple[]"
            },
            {
              "components": [
                {
                  "internalType": "address payable",
                  "name": "account",
                  "type": "address"
                },
                {
                  "internalType": "uint96",
                  "name": "value",
                  "type": "uint96"
                }
              ],
              "internalType": "struct LibPart.Part[]",
              "name": "royalties",
              "type": "tuple[]"
            },
            {
              "internalType": "bytes[]",
              "name": "signatures",
              "type": "bytes[]"
            }
          ],
          "internalType": "struct LibERC721LazyMint.Mint721Data",
          "name": "data",
          "type": "tuple"
        },
        {
          "internalType": "address",
          "name": "from",
          "type": "address"
        },
        {
          "internalType": "address",
          "name": "to",
          "type": "address"
        }
      ],
      "name": "transferFromOrMint",
      "outputs": [],
      "stateMutability": "nonpayable",
      "type": "function"
    },
    {
      "inputs": [
        {
          "internalType": "address",
          "name": "newOwner",
          "type": "address"
        }
      ],
      "name": "transferOwnership",
      "outputs": [],
      "stateMutability": "nonpayable",
      "type": "function"
    },
    {
      "inputs": [
        {
          "internalType": "uint256",
          "name": "_id",
          "type": "uint256"
        },
        {
          "internalType": "address",
          "name": "_from",
          "type": "address"
        },
        {
          "internalType": "address",
          "name": "_to",
          "type": "address"
        }
      ],
      "name": "updateAccount",
      "outputs": [],
      "stateMutability": "nonpayable",
      "type": "function"
    },
    {
      "inputs": [
        {
          "internalType": "string",
          "name": "_name",
          "type": "string"
        },
        {
          "internalType": "string",
          "name": "_symbol",
          "type": "string"
        },
        {
          "internalType": "string",
          "name": "baseURI",
          "type": "string"
        },
        {
          "internalType": "string",
          "name": "contractURI",
          "type": "string"
        },
        {
          "internalType": "address[]",
          "name": "operators",
          "type": "address[]"
        },
        {
          "internalType": "address",
          "name": "transferProxy",
          "type": "address"
        },
        {
          "internalType": "address",
          "name": "lazyTransferProxy",
          "type": "address"
        }
      ],
      "name": "__ERC721GebridUser_init",
      "outputs": [],
      "stateMutability": "nonpayable",
      "type": "function"
    },
    {
      "inputs": [
        {
          "internalType": "string",
          "name": "_name",
          "type": "string"
        },
        {
          "internalType": "string",
          "name": "_symbol",
          "type": "string"
        },
        {
          "internalType": "string",
          "name": "baseURI",
          "type": "string"
        },
        {
          "internalType": "string",
          "name": "contractURI",
          "type": "string"
        },
        {
          "internalType": "address",
          "name": "transferProxy",
          "type": "address"
        },
        {
          "internalType": "address",
          "name": "lazyTransferProxy",
          "type": "address"
        }
      ],
      "name": "__ERC721Gebrid_init",
      "outputs": [],
      "stateMutability": "nonpayable",
      "type": "function"
    },
    {
      "inputs": [
        {
          "components": [
            {
              "internalType": "uint256",
              "name": "tokenId",
              "type": "uint256"
            },
            {
              "internalType": "string",
              "name": "tokenURI",
              "type": "string"
            },
            {
              "components": [
                {
                  "internalType": "address payable",
                  "name": "account",
                  "type": "address"
                },
                {
                  "internalType": "uint96",
                  "name": "value",
                  "type": "uint96"
                }
              ],
              "internalType": "struct LibPart.Part[]",
              "name": "creators",
              "type": "tuple[]"
            },
            {
              "components": [
                {
                  "internalType": "address payable",
                  "name": "account",
                  "type": "address"
                },
                {
                  "internalType": "uint96",
                  "name": "value",
                  "type": "uint96"
                }
              ],
              "internalType": "struct LibPart.Part[]",
              "name": "royalties",
              "type": "tuple[]"
            },
            {
              "internalType": "bytes[]",
              "name": "signatures",
              "type": "bytes[]"
            }
          ],
          "internalType": "struct LibERC721LazyMint.Mint721Data",
          "name": "data",
          "type": "tuple"
        },
        {
          "internalType": "address",
          "name": "to",
          "type": "address"
        }
      ],
      "name": "mintAndTransfer",
      "outputs": [],
      "stateMutability": "nonpayable",
      "type": "function"
    }
  ],
  "bytecode": "0x608060405234801561001057600080fd5b50615295806100206000396000f3fe6080604052600436106101f95760003560e01c8063715018a61161010d578063a22cb465116100a0578063d8ec63f81161006f578063d8ec63f8146105b4578063e07f2319146105d4578063e8a3d485146105f4578063e985e9c514610609578063f2fde38b14610629576101f9565b8063a22cb46514610534578063aa271e1a14610554578063b88d4fde14610574578063c87b56dd14610594576101f9565b8063891be974116100dc578063891be974146104bd5780638da5cb5b146104ea57806395d89b41146104ff578063983b2d5614610514576101f9565b8063715018a61461044857806371e2a6571461045d578063832fbb291461047d578063835344051461049d576101f9565b80632d0335ab1161019057806342966c681161015f57806342966c68146103b357806355f804b3146103d35780636352211e146103f35780636c0360eb1461041357806370a0823114610428576101f9565b80632d0335ab146103265780633092afd51461035357806332174ea11461037357806342842e0e14610393576101f9565b80630c53c51c116101cc5780630c53c51c146102a557806322a775b6146102b857806323b872dd146102d85780632a55205a146102f8576101f9565b806301ffc9a7146101fe57806306fdde0314610234578063081812fc14610256578063095ea7b314610283575b600080fd5b34801561020a57600080fd5b5061021e61021936600461484c565b610649565b60405161022b9190614c75565b60405180910390f35b34801561024057600080fd5b5061024961065c565b60405161022b9190614c80565b34801561026257600080fd5b50610276610271366004614afe565b6106f3565b60405161022b9190614bff565b34801561028f57600080fd5b506102a361029e3660046147ef565b610756565b005b6102496102b3366004614775565b61082c565b3480156102c457600080fd5b506102a36102d3366004614a59565b610ba5565b3480156102e457600080fd5b506102a36102f336600461469b565b610c47565b34801561030457600080fd5b50610318610313366004614b3c565b610c9e565b60405161022b929190614c49565b34801561033257600080fd5b50610346610341366004614647565b610dae565b60405161022b9190614e1b565b34801561035f57600080fd5b506102a361036e366004614647565b610dca565b34801561037f57600080fd5b506102a361038e36600461496d565b610e7a565b34801561039f57600080fd5b506102a36103ae36600461469b565b610f30565b3480156103bf57600080fd5b506102a36103ce366004614afe565b610f4b565b3480156103df57600080fd5b506102a36103ee366004614874565b611015565b3480156103ff57600080fd5b5061027661040e366004614afe565b6110ba565b34801561041f57600080fd5b5061024961110e565b34801561043457600080fd5b50610346610443366004614647565b611170565b34801561045457600080fd5b506102a36111d4565b34801561046957600080fd5b506102a361047836600461481a565b611280565b34801561048957600080fd5b506102a3610498366004614a9d565b611365565b3480156104a957600080fd5b506102a36104b83660046148a6565b611393565b3480156104c957600080fd5b506104dd6104d8366004614afe565b611441565b60405161022b9190614c62565b3480156104f657600080fd5b506102766114d1565b34801561050b57600080fd5b506102496114e0565b34801561052057600080fd5b506102a361052f366004614647565b611541565b34801561054057600080fd5b506102a361054f366004614744565b6115f6565b34801561056057600080fd5b5061021e61056f366004614647565b6116fc565b34801561058057600080fd5b506102a361058f3660046146db565b61171b565b3480156105a057600080fd5b506102496105af366004614afe565b611779565b3480156105c057600080fd5b506104dd6105cf366004614afe565b611784565b3480156105e057600080fd5b506102a36105ef366004614b16565b6117ff565b34801561060057600080fd5b50610249611842565b34801561061557600080fd5b5061021e610624366004614663565b6118d1565b34801561063557600080fd5b506102a3610644366004614647565b6118e6565b6000610654826119e9565b90505b919050565b60fd8054604080516020601f60026000196101006001881615020190951694909404938401819004810282018101909252828152606093909290918301828280156106e85780601f106106bd576101008083540402835291602001916106e8565b820191906000526020600020905b8154815290600101906020018083116106cb57829003601f168201915b505050505090505b90565b60006106fe82611aa3565b6107395760405162461bcd60e51b815260040180806020018281038252602c8152602001806150a8602c913960400191505060405180910390fd5b50600090815261010160205260409020546001600160a01b031690565b6000610761826110ba565b9050806001600160a01b0316836001600160a01b031614156107b45760405162461bcd60e51b81526004018080602001828103825260218152602001806151b96021913960400191505060405180910390fd5b806001600160a01b03166107c6611ac0565b6001600160a01b031614806107e257506107e281610624611ac0565b61081d5760405162461bcd60e51b8152600401808060200182810382526038815260200180614fa06038913960400191505060405180910390fd5b6108278383611acf565b505050565b6060600061083986611b3e565b90506000356001600160e01b031990811690821614156108a0576040805162461bcd60e51b815260206004820152601760248201527f57726f6e672066756e6374696f6e5369676e6174757265000000000000000000604482015290519081900360640190fd5b604080516060810182526001600160a01b03891660008181526102f76020908152908490205483528201529081018790526108de8882888888611b5a565b6109195760405162461bcd60e51b81526004018080602001828103825260218152602001806151496021913960400191505060405180910390fd5b6001600160a01b03881660009081526102f7602052604090205461093e906001611c44565b6102f760008a6001600160a01b03166001600160a01b0316815260200190815260200160002081905550600080306001600160a01b0316898b6040516020018083805190602001908083835b602083106109a95780518252601f19909201916020918201910161098a565b6001836020036101000a038019825116818451168082178552505050505050905001826001600160a01b031660601b8152601401925050506040516020818303038152906040526040518082805190602001908083835b60208310610a1f5780518252601f199092019160209182019101610a00565b6001836020036101000a0380198251168184511680821785525050505050509050019150506000604051808303816000865af19150503d8060008114610a81576040519150601f19603f3d011682016040523d82523d6000602084013e610a86565b606091505b509150915081610add576040805162461bcd60e51b815260206004820152601c60248201527f46756e6374696f6e2063616c6c206e6f74207375636365737366756c00000000604482015290519081900360640190fd5b7f5845892132946850460bff5a0083f71031bc5bf9aadcd40f1de79423eac9b10b8a338b60405180846001600160a01b03168152602001836001600160a01b0316815260200180602001828103825283818151815260200191508051906020019080838360005b83811015610b5c578181015183820152602001610b44565b50505050905090810190601f168015610b895780820380516001836020036101000a031916815260200191505b5094505050505060405180910390a19998505050505050505050565b6102925460ff1615610c39578160400151600081518110610bc257fe5b6020026020010151600001516001600160a01b0316610bdf6114d1565b6001600160a01b03161480610c145750610c148260400151600081518110610c0357fe5b6020026020010151600001516116fc565b610c395760405162461bcd60e51b8152600401610c3090614c93565b60405180910390fd5b610c438282611c9e565b5050565b610c58610c52611ac0565b82611e20565b610c935760405162461bcd60e51b81526004018080602001828103825260318152602001806151da6031913960400191505060405180910390fd5b610827838383611e2c565b60008281526101c660205260408120548190610cbf57506000905080610da7565b60008481526101c66020908152604080832080548251818502810185019093528083529192909190849084015b82821015610d3b57600084815260209081902060408051808201909152908401546001600160a01b0381168252600160a01b90046001600160601b031681830152825260019092019101610cec565b50505050905080600081518110610d4e57fe5b60209081029190910101515192506000805b8251811015610d9b57828181518110610d7557fe5b6020026020010151602001516001600160601b0316820191508080600101915050610d60565b50612710908502049150505b9250929050565b6001600160a01b031660009081526102f7602052604090205490565b610dd2611ac0565b6001600160a01b0316610de36114d1565b6001600160a01b031614610e2c576040805162461bcd60e51b81526020600482018190526024820152600080516020615100833981519152604482015290519081900360640190fd5b6001600160a01b03811660008181526102c46020526040808220805460ff19169055519091907f3042b80e435ae46c334b2cfec51a66d64c9a8a8af4cd0c279a124c35a09e91dd908390a350565b610e88878787878686611f4b565b610ed760405180604001604052806014815260200173455243373231476562726964557365724d65746160601b815250604051806040016040528060018152602001603160f81b815250612065565b610292805460ff191660011790557f24cc97c77aa8531a83618d1396f6ac2f230d5bda7e41ec3ee0e292a8a9711bb1610f0e611ac0565b8888604051610f1f93929190614c13565b60405180910390a150505050505050565b6108278383836040518060200160405280600081525061171b565b610f5481611aa3565b610fc357606081901c610f65611ac0565b6001600160a01b0316816001600160a01b031614610fb45760405162461bcd60e51b815260040180806020018281038252602d81526020018061507b602d913960400191505060405180910390fd5b610fbd826120f5565b50611012565b610fce610c52611ac0565b6110095760405162461bcd60e51b81526004018080602001828103825260308152602001806152306030913960400191505060405180910390fd5b61101281612111565b50565b61101d611ac0565b6001600160a01b031661102e6114d1565b6001600160a01b031614611077576040805162461bcd60e51b81526020600482018190526024820152600080516020615100833981519152604482015290519081900360640190fd5b611080816121ad565b7f87cdeaffd8e70903d6ce7cc983fac3b09ca79e83818124c98e47a1d70f8027d6816040516110af9190614c80565b60405180910390a150565b600081815260ff60205260408120546001600160a01b0316806106545760405162461bcd60e51b81526004018080602001828103825260298152602001806150026029913960400191505060405180910390fd5b6101c88054604080516020601f60026000196101006001881615020190951694909404938401819004810282018101909252828152606093909290918301828280156106e85780601f106106bd576101008083540402835291602001916106e8565b60006001600160a01b0382166111b75760405162461bcd60e51b815260040180806020018281038252602a815260200180614fd8602a913960400191505060405180910390fd5b506001600160a01b03166000908152610100602052604090205490565b6111dc611ac0565b6001600160a01b03166111ed6114d1565b6001600160a01b031614611236576040805162461bcd60e51b81526020600482018190526024820152600080516020615100833981519152604482015290519081900360640190fd5b6033546040516000916001600160a01b0316907f8be0079c531659141344cd1fd0a4f28419497f9722a3daafe3b4186f6b6457e0908390a3603380546001600160a01b0319169055565b611288611ac0565b6001600160a01b03166112996114d1565b6001600160a01b0316146112e2576040805162461bcd60e51b81526020600482018190526024820152600080516020615100833981519152604482015290519081900360640190fd5b60005b8151811015610c435760008282815181106112fc57fe5b6020908102919091018101516001600160a01b03811660008181526102c49093526040808420805460ff1916600190811790915590519294509290917f3042b80e435ae46c334b2cfec51a66d64c9a8a8af4cd0c279a124c35a09e91dd9190a3506001016112e5565b825161137090611aa3565b156113895761138482828560000151610f30565b610827565b6108278382610ba5565b6113a1868686868686611f4b565b6113ec6040518060400160405280601081526020016f4552433732314765627269644d65746160801b815250604051806040016040528060018152602001603160f81b815250612065565b610292805460ff191690557f4ce43ceb6a1ad066109c9f24ee6b1ca696af4ee1efed6979527a993e3aea2e02611420611ac0565b878760405161143193929190614c13565b60405180910390a1505050505050565b60606101fb6000838152602001908152602001600020805480602002602001604051908101604052809291908181526020016000905b828210156114c657600084815260209081902060408051808201909152908401546001600160a01b0381168252600160a01b90046001600160601b031681830152825260019092019101611477565b505050509050919050565b6033546001600160a01b031690565b60fe8054604080516020601f60026000196101006001881615020190951694909404938401819004810282018101909252828152606093909290918301828280156106e85780601f106106bd576101008083540402835291602001916106e8565b611549611ac0565b6001600160a01b031661155a6114d1565b6001600160a01b0316146115a3576040805162461bcd60e51b81526020600482018190526024820152600080516020615100833981519152604482015290519081900360640190fd5b6001600160a01b03811660008181526102c46020526040808220805460ff1916600190811790915590519092917f3042b80e435ae46c334b2cfec51a66d64c9a8a8af4cd0c279a124c35a09e91dd91a350565b6115fe611ac0565b6001600160a01b0316826001600160a01b03161415611664576040805162461bcd60e51b815260206004820152601960248201527f4552433732313a20617070726f766520746f2063616c6c657200000000000000604482015290519081900360640190fd5b806101026000611672611ac0565b6001600160a01b03908116825260208083019390935260409182016000908120918716808252919093529120805460ff1916921515929092179091556116b6611ac0565b6001600160a01b03167f17307eab39ab6107e8899845ad3d59bd9653f200f220920489ca2b5937696c318360405180821515815260200191505060405180910390a35050565b6001600160a01b031660009081526102c4602052604090205460ff1690565b61172c611726611ac0565b83611e20565b6117675760405162461bcd60e51b81526004018080602001828103825260318152602001806151da6031913960400191505060405180910390fd5b611773848484846121c1565b50505050565b606061065482612213565b60008181526101c6602090815260408083208054825181850281018501909352808352606094929391929091840182156114c657600084815260209081902060408051808201909152908401546001600160a01b0381168252600160a01b90046001600160601b031681830152825260019092019101611477565b816001600160a01b0316611811611ac0565b6001600160a01b0316146118375760405162461bcd60e51b8152600401610c3090614d20565b61082783838361221e565b61022e805460408051602060026001851615610100026000190190941693909304601f810184900484028201840190925281815292918301828280156118c95780601f1061189e576101008083540402835291602001916118c9565b820191906000526020600020905b8154815290600101906020018083116118ac57829003601f168201915b505050505081565b60006118dd83836122ca565b90505b92915050565b6118ee611ac0565b6001600160a01b03166118ff6114d1565b6001600160a01b031614611948576040805162461bcd60e51b81526020600482018190526024820152600080516020615100833981519152604482015290519081900360640190fd5b6001600160a01b03811661198d5760405162461bcd60e51b8152600401808060200182810382526026815260200180614f086026913960400191505060405180910390fd5b6033546040516001600160a01b038084169216907f8be0079c531659141344cd1fd0a4f28419497f9722a3daafe3b4186f6b6457e090600090a3603380546001600160a01b0319166001600160a01b0392909216919091179055565b60006001600160e01b03198216638486f69f60e01b1480611a1a57506001600160e01b0319821663656cb66560e11b145b80611a3557506001600160e01b0319821663152a902d60e11b145b80611a5057506001600160e01b031982166301ffc9a760e01b145b80611a6b57506001600160e01b031982166380ac58cd60e01b145b80611a8657506001600160e01b03198216635b5e139f60e01b145b806106545750506001600160e01b03191663780e9d6360e01b1490565b600090815260ff60205260409020546001600160a01b0316151590565b6000611aca6122f7565b905090565b60008181526101016020526040902080546001600160a01b0319166001600160a01b0384169081179091558190611b05826110ba565b6001600160a01b03167f8c5be1e5ebec7d5bd14f71427d1e84f3dd0314c0f7b2291e5b200ac8c7c3b92560405160405180910390a45050565b6000815160001415611b5257506000610657565b506020015190565b6000806001611b70611b6b88612353565b6123d6565b84878760405160008152602001604052604051808581526020018460ff1681526020018381526020018281526020019450505050506020604051602081039080840390855afa158015611bc7573d6000803e3d6000fd5b5050604051601f1901519150506001600160a01b038116611c23576040805162461bcd60e51b8152602060048201526011602482015270496e76616c6964207369676e617475726560781b604482015290519081900360640190fd5b866001600160a01b0316816001600160a01b03161491505095945050505050565b6000828201838110156118dd576040805162461bcd60e51b815260206004820152601b60248201527f536166654d6174683a206164646974696f6e206f766572666c6f770000000000604482015290519081900360640190fd5b815160601c6000611cad611ac0565b90508360400151600081518110611cc057fe5b6020026020010151600001516001600160a01b0316826001600160a01b031614611cfc5760405162461bcd60e51b8152600401610c3090614cf5565b83608001515184604001515114611d1257600080fd5b806001600160a01b0316826001600160a01b03161480611d375750611d3782826118d1565b611d535760405162461bcd60e51b8152600401610c3090614d7c565b6000611d5e85612422565b905060005b856040015151811015611dd457600086604001518281518110611d8257fe5b6020026020010151600001519050836001600160a01b0316816001600160a01b031614611dcb57611dcb818489608001518581518110611dbe57fe5b6020026020010151612669565b50600101611d63565b50611de3848660000151612674565b611df58560000151866060015161268e565b611e078560000151866040015161287d565b611e1985600001518660200151612a2c565b5050505050565b60006118dd8383612a90565b826001600160a01b0316611e3f826110ba565b6001600160a01b031614611e845760405162461bcd60e51b81526004018080602001828103825260298152602001806151206029913960400191505060405180910390fd5b6001600160a01b038216611ec95760405162461bcd60e51b8152600401808060200182810382526024815260200180614f2e6024913960400191505060405180910390fd5b611ed4838383610827565b611edf600082611acf565b6001600160a01b0380841660008181526101006020908152604080832080546000190190559386168083528483208054600101905585835260ff90915283822080546001600160a01b0319168217905592518493929160008051602061519983398151915291a4505050565b600054610100900460ff1680611f645750611f64612abd565b80611f72575060005460ff16155b611fad5760405162461bcd60e51b815260040180806020018281038252602e81526020018061502b602e913960400191505060405180910390fd5b600054610100900460ff16158015611fd8576000805460ff1961ff0019909116610100171660011790555b611fe1856121ad565b611fe9612ace565b611ff1612b6f565b611ff9612ace565b612001612c0c565b612009612ca9565b612011612ace565b612019612da2565b612021612ace565b61202a84612e71565b6120348787612f38565b61203f836001613023565b61204a826001613023565b801561205c576000805461ff00191690555b50505050505050565b7f36c25de3e541d5d970f66e4210d728721220fff5c077cc6cd008b3a0c62adab7828051906020012082805190602001203061209f613084565b60405160200180868152602001858152602001848152602001836001600160a01b0316815260200182815260200195505050505050604051602081830303815290604052805190602001206102f8819055505050565b600090815261010360205260409020805460ff19166001179055565b600061211c826110ba565b905061212a81600084610827565b612135600083611acf565b61213e8261308e565b6001600160a01b038116600090815261010060209081526040808320805460001901905584835260ff909152902080546001600160a01b0319169055612183826120f5565b60405182906000906001600160a01b03841690600080516020615199833981519152908390a45050565b8051610c43906101c89060208401906142af565b6121cc848484611e2c565b6121d884848484613097565b6117735760405162461bcd60e51b8152600401808060200182810382526032815260200180614e936032913960400191505060405180910390fd5b60606106548261324d565b60008381526101c66020526040812054905b81811015611e195760008581526101c66020526040902080546001600160a01b03861691908390811061225f57fe5b6000918252602090912001546001600160a01b031614156122c25760008581526101c66020526040902080548491908390811061229857fe5b600091825260209091200180546001600160a01b0319166001600160a01b03929092169190911790555b600101612230565b6001600160a01b038116600090815261012f602052604081205460ff16806118dd57506118dd8383613428565b60003330141561234e57600080368080601f0160208091040260200160405190810160405280939291908181526020018383808284376000920191909152505050503601516001600160a01b031691506106f09050565b503390565b6000604051806080016040528060438152602001614ec560439139805190602001208260000151836020015184604001518051906020012060405160200180858152602001848152602001836001600160a01b03168152602001828152602001945050505050604051602081830303815290604052805190602001209050919050565b60006123e0613457565b82604051602001808061190160f01b81525060020183815260200182815260200192505050604051602081830303815290604052805190602001209050919050565b6000808260600151516001600160401b038111801561244057600080fd5b5060405190808252806020026020018201604052801561246a578160200160208202803683370190505b50905060005b8360600151518110156124bc5761249d8460600151828151811061249057fe5b602002602001015161345e565b8282815181106124a957fe5b6020908102919091010152600101612470565b5060008360400151516001600160401b03811180156124da57600080fd5b50604051908082528060200260200182016040528015612504578160200160208202803683370190505b50905060005b8460400151518110156125495761252a8560400151828151811061249057fe5b82828151811061253657fe5b602090810291909101015260010161250a565b507ff64326045af5fd7e15297ba939f85b550474d3899daa47d2bc1ffbdb9ced344e84600001518560200151805190602001208360405160200180828051906020019060200280838360005b838110156125ad578181015183820152602001612595565b50505050905001915050604051602081830303815290604052805190602001208560405160200180828051906020019060200280838360005b838110156125fe5781810151838201526020016125e6565b505050509050019150506040516020818303038152906040528051906020012060405160200180868152602001858152602001848152602001838152602001828152602001955050505050506040516020818303038152906040528051906020012092505050919050565b6108278383836134cb565b610c4382826040518060200160405280600081525061374a565b6000805b82518110156128325760006001600160a01b03168382815181106126b257fe5b6020026020010151600001516001600160a01b0316141561271a576040805162461bcd60e51b815260206004820152601b60248201527f526563697069656e742073686f756c642062652070726573656e740000000000604482015290519081900360640190fd5b82818151811061272657fe5b6020026020010151602001516001600160601b031660001415612790576040805162461bcd60e51b815260206004820181905260248201527f526f79616c74792076616c75652073686f756c6420626520706f736974697665604482015290519081900360640190fd5b82818151811061279c57fe5b6020026020010151602001516001600160601b0316820191506101c660008581526020019081526020016000208382815181106127d557fe5b60209081029190910181015182546001818101855560009485529383902082519101805492909301516001600160601b0316600160a01b026001600160a01b039182166001600160a01b0319909316929092171617905501612692565b5061271081106128735760405162461bcd60e51b815260040180806020018281038252602581526020018061520b6025913960400191505060405180910390fd5b610827838361379c565b60008281526101fb6020526040812090805b83518110156129cb5760006001600160a01b03168482815181106128af57fe5b6020026020010151600001516001600160a01b031614156128e25760405162461bcd60e51b8152600401610c3090614d45565b8381815181106128ee57fe5b6020026020010151602001516001600160601b0316600014156129235760405162461bcd60e51b8152600401610c3090614cc0565b8284828151811061293057fe5b602090810291909101810151825460018101845560009384529282902081519301805491909201516001600160601b0316600160a01b026001600160a01b039384166001600160a01b03199092169190911790921691909117905583516129c19085908390811061299d57fe5b6020026020010151602001516001600160601b031683611c4490919063ffffffff16565b915060010161288f565b5080612710146129ed5760405162461bcd60e51b8152600401610c3090614dcd565b7f841ffb90d4cabdd1f16034f3fa831d79060febbb8167bdd54a49269365bdf78f8484604051612a1e929190614e24565b60405180910390a150505050565b612a3582611aa3565b612a705760405162461bcd60e51b815260040180806020018281038252602c8152602001806150d4602c913960400191505060405180910390fd5b60008281526101c7602090815260409091208251610827928401906142af565b6001600160a01b038216600090815261012f602052604081205460ff16806118dd57506118dd83836137d9565b6000612ac830613875565b15905090565b600054610100900460ff1680612ae75750612ae7612abd565b80612af5575060005460ff16155b612b305760405162461bcd60e51b815260040180806020018281038252602e81526020018061502b602e913960400191505060405180910390fd5b600054610100900460ff16158015612b5b576000805460ff1961ff0019909116610100171660011790555b8015611012576000805461ff001916905550565b600054610100900460ff1680612b885750612b88612abd565b80612b96575060005460ff16155b612bd15760405162461bcd60e51b815260040180806020018281038252602e81526020018061502b602e913960400191505060405180910390fd5b600054610100900460ff16158015612bfc576000805460ff1961ff0019909116610100171660011790555b612b5b63656cb66560e11b61387b565b600054610100900460ff1680612c255750612c25612abd565b80612c33575060005460ff16155b612c6e5760405162461bcd60e51b815260040180806020018281038252602e81526020018061502b602e913960400191505060405180910390fd5b600054610100900460ff16158015612c99576000805460ff1961ff0019909116610100171660011790555b612b5b6301ffc9a760e01b61387b565b600054610100900460ff1680612cc25750612cc2612abd565b80612cd0575060005460ff16155b612d0b5760405162461bcd60e51b815260040180806020018281038252602e81526020018061502b602e913960400191505060405180910390fd5b600054610100900460ff16158015612d36576000805460ff1961ff0019909116610100171660011790555b6000612d40611ac0565b603380546001600160a01b0319166001600160a01b038316908117909155604051919250906000907f8be0079c531659141344cd1fd0a4f28419497f9722a3daafe3b4186f6b6457e0908290a3508015611012576000805461ff001916905550565b600054610100900460ff1680612dbb5750612dbb612abd565b80612dc9575060005460ff16155b612e045760405162461bcd60e51b815260040180806020018281038252602e81526020018061502b602e913960400191505060405180910390fd5b600054610100900460ff16158015612e2f576000805460ff1961ff0019909116610100171660011790555b612b5b604051806040016040528060078152602001664d696e7437323160c81b815250604051806040016040528060018152602001603160f81b8152506138ff565b600054610100900460ff1680612e8a5750612e8a612abd565b80612e98575060005460ff16155b612ed35760405162461bcd60e51b815260040180806020018281038252602e81526020018061502b602e913960400191505060405180910390fd5b600054610100900460ff16158015612efe576000805460ff1961ff0019909116610100171660011790555b8151612f129061022e9060208501906142af565b50612f2363e8a3d48560e01b61387b565b8015610c43576000805461ff00191690555050565b600054610100900460ff1680612f515750612f51612abd565b80612f5f575060005460ff16155b612f9a5760405162461bcd60e51b815260040180806020018281038252602e81526020018061502b602e913960400191505060405180910390fd5b600054610100900460ff16158015612fc5576000805460ff1961ff0019909116610100171660011790555b8251612fd89060fd9060208601906142af565b508151612fec9060fe9060208501906142af565b50612ffd6380ac58cd60e01b61387b565b61300d635b5e139f60e01b61387b565b8015610827576000805461ff0019169055505050565b6001600160a01b038216600081815261012f6020908152604091829020805460ff1916851515908117909155825190815291517f270dbb8ba4292910ae92862466486be25c355c837270a3d8824b36a8bc7c653b9281900390910190a25050565b6000611aca6139bf565b611012816139c3565b60006130ab846001600160a01b0316613875565b1561324157836001600160a01b031663150b7a026130c7611ac0565b8786866040518563ffffffff1660e01b815260040180856001600160a01b03168152602001846001600160a01b0316815260200183815260200180602001828103825283818151815260200191508051906020019080838360005b8381101561313a578181015183820152602001613122565b50505050905090810190601f1680156131675780820380516001836020036101000a031916815260200191505b5095505050505050602060405180830381600087803b15801561318957600080fd5b505af19250505080156131ae57506040513d60208110156131a957600080fd5b505160015b613227573d8080156131dc576040519150601f19603f3d011682016040523d82523d6000602084013e6131e1565b606091505b50805161321f5760405162461bcd60e51b8152600401808060200182810382526032815260200180614e936032913960400191505060405180910390fd5b805181602001fd5b6001600160e01b031916630a85bd0160e11b149050613245565b5060015b949350505050565b606061325882611aa3565b6132935760405162461bcd60e51b815260040180806020018281038252602f81526020018061516a602f913960400191505060405180910390fd5b60008281526101c7602090815260408083208054825160026001831615610100026000190190921691909104601f8101859004850282018501909352828152929091908301828280156133275780601f106132fc57610100808354040283529160200191613327565b820191906000526020600020905b81548152906001019060200180831161330a57829003601f168201915b50505050509050600061333861110e565b905080516000141561334c57509050610657565b8151156133665761335d81836139cc565b92505050610657565b8061337085613bb1565b6040516020018083805190602001908083835b602083106133a25780518252601f199092019160209182019101613383565b51815160209384036101000a600019018019909216911617905285519190930192850191508083835b602083106133ea5780518252601f1990920191602091820191016133cb565b6001836020036101000a0380198251168184511680821785525050505050509050019250505060405160208183030381529060405292505050919050565b6001600160a01b0391821660009081526101026020908152604080832093909416825291909152205460ff1690565b6102f85490565b8051602091820151604080517f397e04204c1e1a60ee8724b71f8244e10ab5f2e9009854d80f602bda21b59ebb818601526001600160a01b03909316838201526001600160601b039091166060808401919091528151808403909101815260809092019052805191012090565b60006134d683613c8b565b905060008251604114156134f1576134ee8284613c95565b90505b846001600160a01b0316816001600160a01b031614611e195761351c856001600160a01b0316613875565b156136d25760408051630b135d3f60e11b808252600482018581526024830193845286516044840152865191936001600160a01b038a1693631626ba7e9388938a9390929091606490910190602085019080838360005b8381101561358b578181015183820152602001613573565b50505050905090810190601f1680156135b85780820380516001836020036101000a031916815260200191505b50935050505060206040518083038186803b1580156135d657600080fd5b505afa1580156135ea573d6000803e3d6000fd5b505050506040513d602081101561360057600080fd5b505160408051808201909152601c81527f7369676e617475726520766572696669636174696f6e206572726f72000000006020820152916001600160e01b0319909116146136cc5760405162461bcd60e51b81526004018080602001828103825283818151815260200191508051906020019080838360005b83811015613691578181015183820152602001613679565b50505050905090810190601f1680156136be5780820380516001836020036101000a031916815260200191505b509250505060405180910390fd5b50611e19565b604080518082018252601c81527f7369676e617475726520766572696669636174696f6e206572726f72000000006020808301918252925162461bcd60e51b81526004810193845282516024820152825192939283926044909201919080838360008315613691578181015183820152602001613679565b6137548383613d15565b6137616000848484613097565b6108275760405162461bcd60e51b8152600401808060200182810382526032815260200180614e936032913960400191505060405180910390fd5b7f3fa96d7b6bcbfe71ef171666d84db3cf52fa2d1c8afdb1cc8e486177f208b7df82826040516137cd929190614e24565b60405180910390a15050565b60006137e482611aa3565b61381f5760405162461bcd60e51b815260040180806020018281038252602c815260200180614f74602c913960400191505060405180910390fd5b600061382a836110ba565b9050806001600160a01b0316846001600160a01b031614806138655750836001600160a01b031661385a846106f3565b6001600160a01b0316145b80613245575061324581856118d1565b3b151590565b6001600160e01b031980821614156138da576040805162461bcd60e51b815260206004820152601c60248201527f4552433136353a20696e76616c696420696e7465726661636520696400000000604482015290519081900360640190fd5b6001600160e01b0319166000908152606560205260409020805460ff19166001179055565b600054610100900460ff16806139185750613918612abd565b80613926575060005460ff16155b6139615760405162461bcd60e51b815260040180806020018281038252602e81526020018061502b602e913960400191505060405180910390fd5b600054610100900460ff1615801561398c576000805460ff1961ff0019909116610100171660011790555b82516020808501919091208351918401919091206097919091556098558015610827576000805461ff0019169055505050565b4690565b61101281613e7b565b80518251606091849184911015613a975784846040516020018083805190602001908083835b60208310613a115780518252601f1990920191602091820191016139f2565b51815160209384036101000a600019018019909216911617905285519190930192850191508083835b60208310613a595780518252601f199092019160209182019101613a3a565b6001836020036101000a03801982511681845116808217855250505050505090500192505050604051602081830303815290604052925050506118e0565b60005b8251811015613ba757828181518110613aaf57fe5b602001015160f81c60f81b6001600160f81b031916828281518110613ad057fe5b01602001516001600160f81b03191614613b9f5785856040516020018083805190602001908083835b60208310613b185780518252601f199092019160209182019101613af9565b51815160209384036101000a600019018019909216911617905285519190930192850191508083835b60208310613b605780518252601f199092019160209182019101613b41565b6001836020036101000a0380198251168184511680821785525050505050509050019250505060405160208183030381529060405293505050506118e0565b600101613a9a565b5092949350505050565b606081613bd657506040805180820190915260018152600360fc1b6020820152610657565b8160005b8115613bee57600101600a82049150613bda565b6000816001600160401b0381118015613c0657600080fd5b506040519080825280601f01601f191660200182016040528015613c31576020820181803683370190505b50859350905060001982015b8315613c8257600a840660300160f81b82828060019003935081518110613c6057fe5b60200101906001600160f81b031916908160001a905350600a84049350613c3d565b50949350505050565b60006123e0613ebb565b60008151604114613ced576040805162461bcd60e51b815260206004820152601f60248201527f45434453413a20696e76616c6964207369676e6174757265206c656e67746800604482015290519081900360640190fd5b60208201516040830151606084015160001a613d0b86828585613ef6565b9695505050505050565b6001600160a01b038216613d70576040805162461bcd60e51b815260206004820181905260248201527f4552433732313a206d696e7420746f20746865207a65726f2061646472657373604482015290519081900360640190fd5b6000818152610103602052604090205460ff1615613dcc576040805162461bcd60e51b81526020600482015260146024820152731d1bdad95b88185b1c9958591e48189d5c9b995960621b604482015290519081900360640190fd5b613dd581611aa3565b15613e27576040805162461bcd60e51b815260206004820152601c60248201527f4552433732313a20746f6b656e20616c7265616479206d696e74656400000000604482015290519081900360640190fd5b613e3360008383610827565b6001600160a01b0382166000818152610100602090815260408083208054600101905584835260ff909152902080546001600160a01b0319169091179055610c43828261414c565b60008181526101c7602052604090205460026000196101006001841615020190911604156110125760008181526101c7602052604081206110129161433b565b6000611aca7f8b73c3c69bb8fe3d512ecc4cf759cc79239f7b179b0ffacaa9a75d522b39400f613ee9614156565b613ef161415c565b614162565b60007f7fffffffffffffffffffffffffffffff5d576e7357a4501ddfe92f46681b20a0821115613f575760405162461bcd60e51b8152600401808060200182810382526022815260200180614f526022913960400191505060405180910390fd5b6000601e8560ff161115614031576004850360ff16601b1480613f8057506004850360ff16601c145b613fbb5760405162461bcd60e51b81526004018080602001828103825260228152602001806150596022913960400191505060405180910390fd5b6001613fc6876141c4565b60048703868660405160008152602001604052604051808581526020018460ff1681526020018381526020018281526020019450505050506020604051602081039080840390855afa158015614020573d6000803e3d6000fd5b5050506020604051035190506140e8565b8460ff16601b148061404657508460ff16601c145b6140815760405162461bcd60e51b81526004018080602001828103825260228152602001806150596022913960400191505060405180910390fd5b60018686868660405160008152602001604052604051808581526020018460ff1681526020018381526020018281526020019450505050506020604051602081039080840390855afa1580156140db573d6000803e3d6000fd5b5050506020604051035190505b6001600160a01b038116614143576040805162461bcd60e51b815260206004820152601860248201527f45434453413a20696e76616c6964207369676e61747572650000000000000000604482015290519081900360640190fd5b95945050505050565b610c438282614215565b60975490565b60985490565b600083838361416f6139bf565b3060405160200180868152602001858152602001848152602001838152602001826001600160a01b03168152602001955050505050506040516020818303038152906040528051906020012090509392505050565b604080517f19457468657265756d205369676e6564204d6573736167653a0a333200000000602080830191909152603c8083019490945282518083039094018452605c909101909152815191012090565b606081901c6001600160a01b03831681146142845760405182906001600160a01b03831690600090600080516020615199833981519152908290a481836001600160a01b0316826001600160a01b031660008051602061519983398151915260405160405180910390a4610827565b60405182906001600160a01b03851690600090600080516020615199833981519152908290a4505050565b828054600181600116156101000203166002900490600052602060002090601f0160209004810192826142e5576000855561432b565b82601f106142fe57805160ff191683800117855561432b565b8280016001018555821561432b579182015b8281111561432b578251825591602001919060010190614310565b5061433792915061437b565b5090565b50805460018160011615610100020316600290046000825580601f106143615750611012565b601f01602090049060005260206000209081019061101291905b5b80821115614337576000815560010161437c565b803561065781614e7d565b600082601f8301126143ab578081fd5b813560206143c06143bb83614e60565b614e3d565b82815281810190858301838502870184018810156143dc578586fd5b855b858110156144035781356143f181614e7d565b845292840192908401906001016143de565b5090979650505050505050565b600082601f830112614420578081fd5b813560206144306143bb83614e60565b82815281810190858301855b8581101561440357614453898684358b0101614520565b8452928401929084019060010161443c565b600082601f830112614475578081fd5b813560206144856143bb83614e60565b828152818101908583016040808602880185018910156144a3578687fd5b865b868110156145125781838b0312156144bb578788fd5b81518281018181106001600160401b03821117156144d557fe5b835283356144e281614e7d565b8152838701356001600160601b03811681146144fc57898afd5b81880152855293850193918101916001016144a5565b509198975050505050505050565b600082601f830112614530578081fd5b81356001600160401b0381111561454357fe5b614556601f8201601f1916602001614e3d565b81815284602083860101111561456a578283fd5b816020850160208301379081016020019190915292915050565b600060a08284031215614595578081fd5b61459f60a0614e3d565b90508135815260208201356001600160401b03808211156145bf57600080fd5b6145cb85838601614520565b602084015260408401359150808211156145e457600080fd5b6145f085838601614465565b6040840152606084013591508082111561460957600080fd5b61461585838601614465565b6060840152608084013591508082111561462e57600080fd5b5061463b84828501614410565b60808301525092915050565b600060208284031215614658578081fd5b81356118dd81614e7d565b60008060408385031215614675578081fd5b823561468081614e7d565b9150602083013561469081614e7d565b809150509250929050565b6000806000606084860312156146af578081fd5b83356146ba81614e7d565b925060208401356146ca81614e7d565b929592945050506040919091013590565b600080600080608085870312156146f0578182fd5b84356146fb81614e7d565b9350602085013561470b81614e7d565b92506040850135915060608501356001600160401b0381111561472c578182fd5b61473887828801614520565b91505092959194509250565b60008060408385031215614756578182fd5b823561476181614e7d565b915060208301358015158114614690578182fd5b600080600080600060a0868803121561478c578283fd5b853561479781614e7d565b945060208601356001600160401b038111156147b1578384fd5b6147bd88828901614520565b9450506040860135925060608601359150608086013560ff811681146147e1578182fd5b809150509295509295909350565b60008060408385031215614801578182fd5b823561480c81614e7d565b946020939093013593505050565b60006020828403121561482b578081fd5b81356001600160401b03811115614840578182fd5b6132458482850161439b565b60006020828403121561485d578081fd5b81356001600160e01b0319811681146118dd578182fd5b600060208284031215614885578081fd5b81356001600160401b0381111561489a578182fd5b61324584828501614520565b60008060008060008060c087890312156148be578384fd5b86356001600160401b03808211156148d4578586fd5b6148e08a838b01614520565b975060208901359150808211156148f5578586fd5b6149018a838b01614520565b96506040890135915080821115614916578586fd5b6149228a838b01614520565b95506060890135915080821115614937578283fd5b5061494489828a01614520565b93505061495360808801614390565b915061496160a08801614390565b90509295509295509295565b600080600080600080600060e0888a031215614987578485fd5b87356001600160401b038082111561499d578687fd5b6149a98b838c01614520565b985060208a01359150808211156149be578687fd5b6149ca8b838c01614520565b975060408a01359150808211156149df578687fd5b6149eb8b838c01614520565b965060608a0135915080821115614a00578283fd5b614a0c8b838c01614520565b955060808a0135915080821115614a21578283fd5b50614a2e8a828b0161439b565b935050614a3d60a08901614390565b9150614a4b60c08901614390565b905092959891949750929550565b60008060408385031215614a6b578182fd5b82356001600160401b03811115614a80578283fd5b614a8c85828601614584565b925050602083013561469081614e7d565b600080600060608486031215614ab1578081fd5b83356001600160401b03811115614ac6578182fd5b614ad286828701614584565b9350506020840135614ae381614e7d565b91506040840135614af381614e7d565b809150509250925092565b600060208284031215614b0f578081fd5b5035919050565b600080600060608486031215614b2a578081fd5b833592506020840135614ae381614e7d565b60008060408385031215614b4e578182fd5b50508035926020909101359150565b6000815180845260208085019450808401835b83811015614ba957815180516001600160a01b031688528301516001600160601b03168388015260409096019590820190600101614b70565b509495945050505050565b60008151808452815b81811015614bd957602081850181015186830182015201614bbd565b81811115614bea5782602083870101525b50601f01601f19169290920160200192915050565b6001600160a01b0391909116815260200190565b6001600160a01b0384168152606060208201819052600090614c3790830185614bb4565b8281036040840152613d0b8185614bb4565b6001600160a01b03929092168252602082015260400190565b6000602082526118dd6020830184614b5d565b901515815260200190565b6000602082526118dd6020830184614bb4565b6020808252601390820152723737ba1037bbb732b91037b91036b4b73a32b960691b604082015260600190565b6020808252818101527f43726561746f722073686172652073686f756c6420626520706f736974697665604082015260600190565b6020808252601190820152701d1bdad95b9259081a5b98dbdc9c9958dd607a1b604082015260600190565b6020808252600b908201526a1b9bdd08185b1b1bddd95960aa1b604082015260600190565b60208082526019908201527f4163636f756e742073686f756c642062652070726573656e7400000000000000604082015260600190565b60208082526031908201527f4552433732313a207472616e736665722063616c6c6572206973206e6f74206f6040820152701ddb995c881b9bdc88185c1c1c9bdd9959607a1b606082015260800190565b6020808252602e908201527f746f74616c20616d6f756e74206f662063726561746f7273207368617265207360408201526d0686f756c642062652031303030360941b606082015260800190565b90815260200190565b6000838252604060208301526132456040830184614b5d565b6040518181016001600160401b0381118282101715614e5857fe5b604052919050565b60006001600160401b03821115614e7357fe5b5060209081020190565b6001600160a01b038116811461101257600080fdfe4552433732313a207472616e7366657220746f206e6f6e20455243373231526563656976657220696d706c656d656e7465724d6574615472616e73616374696f6e2875696e74323536206e6f6e63652c616464726573732066726f6d2c62797465732066756e6374696f6e5369676e6174757265294f776e61626c653a206e6577206f776e657220697320746865207a65726f20616464726573734552433732313a207472616e7366657220746f20746865207a65726f206164647265737345434453413a20696e76616c6964207369676e6174757265202773272076616c75654552433732313a206f70657261746f7220717565727920666f72206e6f6e6578697374656e7420746f6b656e4552433732313a20617070726f76652063616c6c6572206973206e6f74206f776e6572206e6f7220617070726f76656420666f7220616c6c4552433732313a2062616c616e636520717565727920666f7220746865207a65726f20616464726573734552433732313a206f776e657220717565727920666f72206e6f6e6578697374656e7420746f6b656e496e697469616c697a61626c653a20636f6e747261637420697320616c726561647920696e697469616c697a656445434453413a20696e76616c6964207369676e6174757265202776272076616c75654552433732314275726e61626c653a2063616c6c6572206973206e6f74206f776e65722c206e6f74206275726e4552433732313a20617070726f76656420717565727920666f72206e6f6e6578697374656e7420746f6b656e4552433732314d657461646174613a2055524920736574206f66206e6f6e6578697374656e7420746f6b656e4f776e61626c653a2063616c6c6572206973206e6f7420746865206f776e65724552433732313a207472616e73666572206f6620746f6b656e2074686174206973206e6f74206f776e5369676e657220616e64207369676e617475726520646f206e6f74206d617463684552433732314d657461646174613a2055524920717565727920666f72206e6f6e6578697374656e7420746f6b656eddf252ad1be2c89b69c2b068fc378daa952ba7f163c4a11628f55a4df523b3ef4552433732313a20617070726f76616c20746f2063757272656e74206f776e65724552433732313a207472616e736665722063616c6c6572206973206e6f74206f776e6572206e6f7220617070726f766564526f79616c747920746f74616c2076616c75652073686f756c64206265203c2031303030304552433732314275726e61626c653a2063616c6c6572206973206e6f74206f776e6572206e6f7220617070726f766564a26469706673582212209528d1c67cc618cef204d71e07a157d368cdabebcfdaeda0788745c36497aa2a64736f6c63430007060033",
  "immutableReferences": {},
  "source": "// SPDX-License-Identifier: MIT\n\npragma solidity 0.7.6;\npragma abicoder v2;\n\nimport \"@gebrid/meta-tx/contracts/EIP712MetaTransaction.sol\";\nimport \"../ERC721BaseMinimal.sol\";\nimport \"../../IsPrivateCollection.sol\";\nimport \"../../access/MinterAccessControl.sol\";\n\ncontract ERC721GebridMeta is ERC721BaseMinimal, IsPrivateCollection, MinterAccessControl, EIP712MetaTransaction {\n    event CreateERC721Gebrid(address owner, string name, string symbol);\n    event CreateERC721GebridUser(address owner, string name, string symbol);\n\n    function __ERC721GebridUser_init(string memory _name, string memory _symbol, string memory baseURI, string memory contractURI, address[] memory operators, address transferProxy, address lazyTransferProxy) external {\n        __ERC721Gebrid_init_unchained(_name, _symbol, baseURI, contractURI, transferProxy, lazyTransferProxy);\n\n        __MetaTransaction_init_unchained(\"ERC721GebridUserMeta\", \"1\");\n\n        isPrivate = true;\n\n        emit CreateERC721GebridUser(_msgSender(), _name, _symbol);\n    }\n\n    function __ERC721Gebrid_init(string memory _name, string memory _symbol, string memory baseURI, string memory contractURI, address transferProxy, address lazyTransferProxy) external {\n        __ERC721Gebrid_init_unchained(_name, _symbol, baseURI, contractURI, transferProxy, lazyTransferProxy);\n\n        __MetaTransaction_init_unchained(\"ERC721GebridMeta\", \"1\");\n\n        isPrivate = false;\n\n        emit CreateERC721Gebrid(_msgSender(), _name, _symbol);\n    }\n\n    function _msgSender() internal view virtual override(ContextUpgradeable, EIP712MetaTransaction) returns (address payable) {\n        return super._msgSender();\n    }\n\n    function __ERC721Gebrid_init_unchained(string memory _name, string memory _symbol, string memory baseURI, string memory contractURI, address transferProxy, address lazyTransferProxy) internal initializer {\n        _setBaseURI(baseURI);\n        __ERC721Lazy_init_unchained();\n        __RoyaltiesV2Upgradeable_init_unchained();\n        __Context_init_unchained();\n        __ERC165_init_unchained();\n        __Ownable_init_unchained();\n        __ERC721Burnable_init_unchained();\n        __Mint721Validator_init_unchained();\n        __MinterAccessControl_init_unchained();\n        __HasContractURI_init_unchained(contractURI);\n        __ERC721_init_unchained(_name, _symbol);\n\n        //setting default approver for transferProxies\n        _setDefaultApproval(transferProxy, true);\n        _setDefaultApproval(lazyTransferProxy, true);\n    }\n\n    function mintAndTransfer(LibERC721LazyMint.Mint721Data memory data, address to) public override virtual {\n        if (isPrivate){\n            require(owner() == data.creators[0].account || isMinter(data.creators[0].account), \"not owner or minter\");\n        }\n        super.mintAndTransfer(data, to);\n    }\n}\n",
  "sourcePath": "@gebrid/tokens/contracts/erc-721-minimal/erc-721-minimal-meta/ERC721GebridMeta.sol",
  "compiler": {
    "name": "solc",
    "version": "0.7.6+commit.7338295f.Emscripten.clang"
  },
  "schemaVersion": "3.4.4",
  "updatedAt": "2022-10-29T10:34:29.261Z",
  "devdoc": {
    "kind": "dev",
    "methods": {
      "addMinter(address)": {
        "details": "Add `minter` to the list of allowed minters."
      },
      "addMinters(address[])": {
        "details": "Add `minters` to the list of allowed minters."
      },
      "approve(address,uint256)": {
        "details": "See {IERC721-approve}."
      },
      "balanceOf(address)": {
        "details": "See {IERC721-balanceOf}."
      },
      "baseURI()": {
        "details": "Returns the base URI set via {_setBaseURI}. This will be automatically added as a prefix in {tokenURI} to each token's URI, or to the token ID if no specific URI is set for that token ID."
      },
      "burn(uint256)": {
        "details": "Burns `tokenId`. See {ERC721-_burn}. Requirements: - The caller must own `tokenId` or be an approved operator."
      },
      "getApproved(uint256)": {
        "details": "See {IERC721-getApproved}."
      },
      "isMinter(address)": {
        "details": "Returns `true` if `account` has been granted to minters."
      },
      "name()": {
        "details": "See {IERC721Metadata-name}."
      },
      "owner()": {
        "details": "Returns the address of the current owner."
      },
      "ownerOf(uint256)": {
        "details": "See {IERC721-ownerOf}."
      },
      "removeMinter(address)": {
        "details": "Revoke `_minter` from the list of allowed minters."
      },
      "renounceOwnership()": {
        "details": "Leaves the contract without owner. It will not be possible to call `onlyOwner` functions anymore. Can only be called by the current owner. NOTE: Renouncing ownership will leave the contract without an owner, thereby removing any functionality that is only available to the owner."
      },
      "safeTransferFrom(address,address,uint256)": {
        "details": "See {IERC721-safeTransferFrom}."
      },
      "safeTransferFrom(address,address,uint256,bytes)": {
        "details": "See {IERC721-safeTransferFrom}."
      },
      "setApprovalForAll(address,bool)": {
        "details": "See {IERC721-setApprovalForAll}."
      },
      "symbol()": {
        "details": "See {IERC721Metadata-symbol}."
      },
      "transferFrom(address,address,uint256)": {
        "details": "See {IERC721-transferFrom}."
      },
      "transferOwnership(address)": {
        "details": "Transfers ownership of the contract to a new account (`newOwner`). Can only be called by the current owner."
      }
    },
    "version": 1
  },
  "userdoc": {
    "kind": "user",
    "methods": {},
    "version": 1
  }
}