{
  "contractName": "ERC721Gebrid",
  "abi": [
    {
      "anonymous": false,
      "inputs": [
        {
          "indexed": true,
          "internalType": "address",
          "name": "owner",
          "type": "address"
        },
        {
          "indexed": true,
          "internalType": "address",
          "name": "approved",
          "type": "address"
        },
        {
          "indexed": true,
          "internalType": "uint256",
          "name": "tokenId",
          "type": "uint256"
        }
      ],
      "name": "Approval",
      "type": "event"
    },
    {
      "anonymous": false,
      "inputs": [
        {
          "indexed": true,
          "internalType": "address",
          "name": "owner",
          "type": "address"
        },
        {
          "indexed": true,
          "internalType": "address",
          "name": "operator",
          "type": "address"
        },
        {
          "indexed": false,
          "internalType": "bool",
          "name": "approved",
          "type": "bool"
        }
      ],
      "name": "ApprovalForAll",
      "type": "event"
    },
    {
      "anonymous": false,
      "inputs": [
        {
          "indexed": false,
          "internalType": "string",
          "name": "newBaseURI",
          "type": "string"
        }
      ],
      "name": "BaseUriChanged",
      "type": "event"
    },
    {
      "anonymous": false,
      "inputs": [
        {
          "indexed": false,
          "internalType": "address",
          "name": "owner",
          "type": "address"
        },
        {
          "indexed": false,
          "internalType": "string",
          "name": "name",
          "type": "string"
        },
        {
          "indexed": false,
          "internalType": "string",
          "name": "symbol",
          "type": "string"
        }
      ],
      "name": "CreateERC721Gebrid",
      "type": "event"
    },
    {
      "anonymous": false,
      "inputs": [
        {
          "indexed": false,
          "internalType": "uint256",
          "name": "tokenId",
          "type": "uint256"
        },
        {
          "components": [
            {
              "internalType": "address payable",
              "name": "account",
              "type": "address"
            },
            {
              "internalType": "uint96",
              "name": "value",
              "type": "uint96"
            }
          ],
          "indexed": false,
          "internalType": "struct LibPart.Part[]",
          "name": "creators",
          "type": "tuple[]"
        }
      ],
      "name": "Creators",
      "type": "event"
    },
    {
      "anonymous": false,
      "inputs": [
        {
          "indexed": true,
          "internalType": "address",
          "name": "operator",
          "type": "address"
        },
        {
          "indexed": false,
          "internalType": "bool",
          "name": "hasApproval",
          "type": "bool"
        }
      ],
      "name": "DefaultApproval",
      "type": "event"
    },
    {
      "anonymous": false,
      "inputs": [
        {
          "indexed": true,
          "internalType": "address",
          "name": "previousOwner",
          "type": "address"
        },
        {
          "indexed": true,
          "internalType": "address",
          "name": "newOwner",
          "type": "address"
        }
      ],
      "name": "OwnershipTransferred",
      "type": "event"
    },
    {
      "anonymous": false,
      "inputs": [
        {
          "indexed": false,
          "internalType": "uint256",
          "name": "tokenId",
          "type": "uint256"
        },
        {
          "components": [
            {
              "internalType": "address payable",
              "name": "account",
              "type": "address"
            },
            {
              "internalType": "uint96",
              "name": "value",
              "type": "uint96"
            }
          ],
          "indexed": false,
          "internalType": "struct LibPart.Part[]",
          "name": "royalties",
          "type": "tuple[]"
        }
      ],
      "name": "RoyaltiesSet",
      "type": "event"
    },
    {
      "anonymous": false,
      "inputs": [
        {
          "indexed": true,
          "internalType": "address",
          "name": "from",
          "type": "address"
        },
        {
          "indexed": true,
          "internalType": "address",
          "name": "to",
          "type": "address"
        },
        {
          "indexed": true,
          "internalType": "uint256",
          "name": "tokenId",
          "type": "uint256"
        }
      ],
      "name": "Transfer",
      "type": "event"
    },
    {
      "inputs": [
        {
          "internalType": "address",
          "name": "to",
          "type": "address"
        },
        {
          "internalType": "uint256",
          "name": "tokenId",
          "type": "uint256"
        }
      ],
      "name": "approve",
      "outputs": [],
      "stateMutability": "nonpayable",
      "type": "function"
    },
    {
      "inputs": [
        {
          "internalType": "address",
          "name": "owner",
          "type": "address"
        }
      ],
      "name": "balanceOf",
      "outputs": [
        {
          "internalType": "uint256",
          "name": "",
          "type": "uint256"
        }
      ],
      "stateMutability": "view",
      "type": "function"
    },
    {
      "inputs": [],
      "name": "baseURI",
      "outputs": [
        {
          "internalType": "string",
          "name": "",
          "type": "string"
        }
      ],
      "stateMutability": "view",
      "type": "function"
    },
    {
      "inputs": [
        {
          "internalType": "uint256",
          "name": "tokenId",
          "type": "uint256"
        }
      ],
      "name": "burn",
      "outputs": [],
      "stateMutability": "nonpayable",
      "type": "function"
    },
    {
      "inputs": [],
      "name": "contractURI",
      "outputs": [
        {
          "internalType": "string",
          "name": "",
          "type": "string"
        }
      ],
      "stateMutability": "view",
      "type": "function"
    },
    {
      "inputs": [
        {
          "internalType": "uint256",
          "name": "tokenId",
          "type": "uint256"
        }
      ],
      "name": "getApproved",
      "outputs": [
        {
          "internalType": "address",
          "name": "",
          "type": "address"
        }
      ],
      "stateMutability": "view",
      "type": "function"
    },
    {
      "inputs": [
        {
          "internalType": "uint256",
          "name": "_id",
          "type": "uint256"
        }
      ],
      "name": "getCreators",
      "outputs": [
        {
          "components": [
            {
              "internalType": "address payable",
              "name": "account",
              "type": "address"
            },
            {
              "internalType": "uint96",
              "name": "value",
              "type": "uint96"
            }
          ],
          "internalType": "struct LibPart.Part[]",
          "name": "",
          "type": "tuple[]"
        }
      ],
      "stateMutability": "view",
      "type": "function"
    },
    {
      "inputs": [
        {
          "internalType": "uint256",
          "name": "id",
          "type": "uint256"
        }
      ],
      "name": "getGebridV2Royalties",
      "outputs": [
        {
          "components": [
            {
              "internalType": "address payable",
              "name": "account",
              "type": "address"
            },
            {
              "internalType": "uint96",
              "name": "value",
              "type": "uint96"
            }
          ],
          "internalType": "struct LibPart.Part[]",
          "name": "",
          "type": "tuple[]"
        }
      ],
      "stateMutability": "view",
      "type": "function"
    },
    {
      "inputs": [
        {
          "internalType": "address",
          "name": "owner",
          "type": "address"
        },
        {
          "internalType": "address",
          "name": "operator",
          "type": "address"
        }
      ],
      "name": "isApprovedForAll",
      "outputs": [
        {
          "internalType": "bool",
          "name": "",
          "type": "bool"
        }
      ],
      "stateMutability": "view",
      "type": "function"
    },
    {
      "inputs": [
        {
          "components": [
            {
              "internalType": "uint256",
              "name": "tokenId",
              "type": "uint256"
            },
            {
              "internalType": "string",
              "name": "tokenURI",
              "type": "string"
            },
            {
              "components": [
                {
                  "internalType": "address payable",
                  "name": "account",
                  "type": "address"
                },
                {
                  "internalType": "uint96",
                  "name": "value",
                  "type": "uint96"
                }
              ],
              "internalType": "struct LibPart.Part[]",
              "name": "creators",
              "type": "tuple[]"
            },
            {
              "components": [
                {
                  "internalType": "address payable",
                  "name": "account",
                  "type": "address"
                },
                {
                  "internalType": "uint96",
                  "name": "value",
                  "type": "uint96"
                }
              ],
              "internalType": "struct LibPart.Part[]",
              "name": "royalties",
              "type": "tuple[]"
            },
            {
              "internalType": "bytes[]",
              "name": "signatures",
              "type": "bytes[]"
            }
          ],
          "internalType": "struct LibERC721LazyMint.Mint721Data",
          "name": "data",
          "type": "tuple"
        },
        {
          "internalType": "address",
          "name": "to",
          "type": "address"
        }
      ],
      "name": "mintAndTransfer",
      "outputs": [],
      "stateMutability": "nonpayable",
      "type": "function"
    },
    {
      "inputs": [],
      "name": "name",
      "outputs": [
        {
          "internalType": "string",
          "name": "",
          "type": "string"
        }
      ],
      "stateMutability": "view",
      "type": "function"
    },
    {
      "inputs": [],
      "name": "owner",
      "outputs": [
        {
          "internalType": "address",
          "name": "",
          "type": "address"
        }
      ],
      "stateMutability": "view",
      "type": "function"
    },
    {
      "inputs": [
        {
          "internalType": "uint256",
          "name": "tokenId",
          "type": "uint256"
        }
      ],
      "name": "ownerOf",
      "outputs": [
        {
          "internalType": "address",
          "name": "",
          "type": "address"
        }
      ],
      "stateMutability": "view",
      "type": "function"
    },
    {
      "inputs": [],
      "name": "renounceOwnership",
      "outputs": [],
      "stateMutability": "nonpayable",
      "type": "function"
    },
    {
      "inputs": [
        {
          "internalType": "uint256",
          "name": "id",
          "type": "uint256"
        },
        {
          "internalType": "uint256",
          "name": "_salePrice",
          "type": "uint256"
        }
      ],
      "name": "royaltyInfo",
      "outputs": [
        {
          "internalType": "address",
          "name": "receiver",
          "type": "address"
        },
        {
          "internalType": "uint256",
          "name": "royaltyAmount",
          "type": "uint256"
        }
      ],
      "stateMutability": "view",
      "type": "function"
    },
    {
      "inputs": [
        {
          "internalType": "address",
          "name": "from",
          "type": "address"
        },
        {
          "internalType": "address",
          "name": "to",
          "type": "address"
        },
        {
          "internalType": "uint256",
          "name": "tokenId",
          "type": "uint256"
        }
      ],
      "name": "safeTransferFrom",
      "outputs": [],
      "stateMutability": "nonpayable",
      "type": "function"
    },
    {
      "inputs": [
        {
          "internalType": "address",
          "name": "from",
          "type": "address"
        },
        {
          "internalType": "address",
          "name": "to",
          "type": "address"
        },
        {
          "internalType": "uint256",
          "name": "tokenId",
          "type": "uint256"
        },
        {
          "internalType": "bytes",
          "name": "_data",
          "type": "bytes"
        }
      ],
      "name": "safeTransferFrom",
      "outputs": [],
      "stateMutability": "nonpayable",
      "type": "function"
    },
    {
      "inputs": [
        {
          "internalType": "address",
          "name": "operator",
          "type": "address"
        },
        {
          "internalType": "bool",
          "name": "approved",
          "type": "bool"
        }
      ],
      "name": "setApprovalForAll",
      "outputs": [],
      "stateMutability": "nonpayable",
      "type": "function"
    },
    {
      "inputs": [
        {
          "internalType": "string",
          "name": "newBaseURI",
          "type": "string"
        }
      ],
      "name": "setBaseURI",
      "outputs": [],
      "stateMutability": "nonpayable",
      "type": "function"
    },
    {
      "inputs": [
        {
          "internalType": "bytes4",
          "name": "interfaceId",
          "type": "bytes4"
        }
      ],
      "name": "supportsInterface",
      "outputs": [
        {
          "internalType": "bool",
          "name": "",
          "type": "bool"
        }
      ],
      "stateMutability": "view",
      "type": "function"
    },
    {
      "inputs": [],
      "name": "symbol",
      "outputs": [
        {
          "internalType": "string",
          "name": "",
          "type": "string"
        }
      ],
      "stateMutability": "view",
      "type": "function"
    },
    {
      "inputs": [
        {
          "internalType": "uint256",
          "name": "index",
          "type": "uint256"
        }
      ],
      "name": "tokenByIndex",
      "outputs": [
        {
          "internalType": "uint256",
          "name": "",
          "type": "uint256"
        }
      ],
      "stateMutability": "view",
      "type": "function"
    },
    {
      "inputs": [
        {
          "internalType": "address",
          "name": "owner",
          "type": "address"
        },
        {
          "internalType": "uint256",
          "name": "index",
          "type": "uint256"
        }
      ],
      "name": "tokenOfOwnerByIndex",
      "outputs": [
        {
          "internalType": "uint256",
          "name": "",
          "type": "uint256"
        }
      ],
      "stateMutability": "view",
      "type": "function"
    },
    {
      "inputs": [
        {
          "internalType": "uint256",
          "name": "tokenId",
          "type": "uint256"
        }
      ],
      "name": "tokenURI",
      "outputs": [
        {
          "internalType": "string",
          "name": "",
          "type": "string"
        }
      ],
      "stateMutability": "view",
      "type": "function"
    },
    {
      "inputs": [],
      "name": "totalSupply",
      "outputs": [
        {
          "internalType": "uint256",
          "name": "",
          "type": "uint256"
        }
      ],
      "stateMutability": "view",
      "type": "function"
    },
    {
      "inputs": [
        {
          "internalType": "address",
          "name": "from",
          "type": "address"
        },
        {
          "internalType": "address",
          "name": "to",
          "type": "address"
        },
        {
          "internalType": "uint256",
          "name": "tokenId",
          "type": "uint256"
        }
      ],
      "name": "transferFrom",
      "outputs": [],
      "stateMutability": "nonpayable",
      "type": "function"
    },
    {
      "inputs": [
        {
          "components": [
            {
              "internalType": "uint256",
              "name": "tokenId",
              "type": "uint256"
            },
            {
              "internalType": "string",
              "name": "tokenURI",
              "type": "string"
            },
            {
              "components": [
                {
                  "internalType": "address payable",
                  "name": "account",
                  "type": "address"
                },
                {
                  "internalType": "uint96",
                  "name": "value",
                  "type": "uint96"
                }
              ],
              "internalType": "struct LibPart.Part[]",
              "name": "creators",
              "type": "tuple[]"
            },
            {
              "components": [
                {
                  "internalType": "address payable",
                  "name": "account",
                  "type": "address"
                },
                {
                  "internalType": "uint96",
                  "name": "value",
                  "type": "uint96"
                }
              ],
              "internalType": "struct LibPart.Part[]",
              "name": "royalties",
              "type": "tuple[]"
            },
            {
              "internalType": "bytes[]",
              "name": "signatures",
              "type": "bytes[]"
            }
          ],
          "internalType": "struct LibERC721LazyMint.Mint721Data",
          "name": "data",
          "type": "tuple"
        },
        {
          "internalType": "address",
          "name": "from",
          "type": "address"
        },
        {
          "internalType": "address",
          "name": "to",
          "type": "address"
        }
      ],
      "name": "transferFromOrMint",
      "outputs": [],
      "stateMutability": "nonpayable",
      "type": "function"
    },
    {
      "inputs": [
        {
          "internalType": "address",
          "name": "newOwner",
          "type": "address"
        }
      ],
      "name": "transferOwnership",
      "outputs": [],
      "stateMutability": "nonpayable",
      "type": "function"
    },
    {
      "inputs": [
        {
          "internalType": "uint256",
          "name": "_id",
          "type": "uint256"
        },
        {
          "internalType": "address",
          "name": "_from",
          "type": "address"
        },
        {
          "internalType": "address",
          "name": "_to",
          "type": "address"
        }
      ],
      "name": "updateAccount",
      "outputs": [],
      "stateMutability": "nonpayable",
      "type": "function"
    },
    {
      "inputs": [
        {
          "internalType": "string",
          "name": "_name",
          "type": "string"
        },
        {
          "internalType": "string",
          "name": "_symbol",
          "type": "string"
        },
        {
          "internalType": "string",
          "name": "baseURI",
          "type": "string"
        },
        {
          "internalType": "string",
          "name": "contractURI",
          "type": "string"
        },
        {
          "internalType": "address",
          "name": "transferProxy",
          "type": "address"
        },
        {
          "internalType": "address",
          "name": "lazyTransferProxy",
          "type": "address"
        }
      ],
      "name": "__ERC721Gebrid_init",
      "outputs": [],
      "stateMutability": "nonpayable",
      "type": "function"
    }
  ],
  "bytecode": "0x608060405234801561001057600080fd5b50614a29806100206000396000f3fe608060405234801561001057600080fd5b50600436106101da5760003560e01c806370a0823111610104578063a22cb465116100a2578063e07f231911610071578063e07f2319146103e5578063e8a3d485146103f8578063e985e9c514610400578063f2fde38b14610413576101da565b8063a22cb46514610399578063b88d4fde146103ac578063c87b56dd146103bf578063d8ec63f8146103d2576101da565b806383534405116100de5780638353440514610356578063891be974146103695780638da5cb5b1461038957806395d89b4114610391576101da565b806370a0823114610328578063715018a61461033b578063832fbb2914610343576101da565b80632a55205a1161017c5780634f6ccce71161014b5780634f6ccce7146102e757806355f804b3146102fa5780636352211e1461030d5780636c0360eb14610320576101da565b80632a55205a1461028d5780632f745c59146102ae57806342842e0e146102c157806342966c68146102d4576101da565b8063095ea7b3116101b8578063095ea7b31461023d57806318160ddd1461025257806322a775b61461026757806323b872dd1461027a576101da565b806301ffc9a7146101df57806306fdde0314610208578063081812fc1461021d575b600080fd5b6101f26101ed366004614079565b610426565b6040516101ff91906143b6565b60405180910390f35b610210610439565b6040516101ff91906143c1565b61023061022b36600461423f565b6104cf565b6040516101ff9190614340565b61025061024b36600461404e565b610531565b005b61025a61060c565b6040516101ff91906145c9565b61025061027536600461419a565b61061d565b610250610288366004613f74565b6107a8565b6102a061029b36600461427d565b6107ff565b6040516101ff92919061438a565b61025a6102bc36600461404e565b61090f565b6102506102cf366004613f74565b61093a565b6102506102e236600461423f565b610955565b61025a6102f536600461423f565b610a1f565b6102506103083660046140a1565b610a35565b61023061031b36600461423f565b610aec565b610210610b14565b61025a610336366004613f20565b610b75565b610250610bdd565b6102506103513660046141de565b610c9b565b6102506103643660046140d3565b610cc9565b61037c61037736600461423f565b610dc1565b6040516101ff91906143a3565b610230610e51565b610210610e60565b6102506103a736600461401d565b610ec1565b6102506103ba366004613fb4565b610fc6565b6102106103cd36600461423f565b611024565b61037c6103e036600461423f565b6111fe565b6102506103f3366004614257565b611279565b6102106112bc565b6101f261040e366004613f3c565b61134b565b610250610421366004613f20565b611357565b60006104318261146c565b90505b919050565b609c8054604080516020601f60026000196101006001881615020190951694909404938401819004810282018101909252828152606093909290918301828280156104c55780601f1061049a576101008083540402835291602001916104c5565b820191906000526020600020905b8154815290600101906020018083116104a857829003601f168201915b5050505050905090565b60006104da82611526565b6105155760405162461bcd60e51b815260040180806020018281038252602c81526020018061487d602c913960400191505060405180910390fd5b506000908152609a60205260409020546001600160a01b031690565b600061053c82610aec565b9050806001600160a01b0316836001600160a01b0316141561058f5760405162461bcd60e51b815260040180806020018281038252602181526020018061494d6021913960400191505060405180910390fd5b806001600160a01b03166105a1611533565b6001600160a01b031614806105c257506105c2816105bd611533565b611537565b6105fd5760405162461bcd60e51b81526004018080602001828103825260388152602001806147536038913960400191505060405180910390fd5b6106078383611565565b505050565b600061061860986115d3565b905090565b815160601c600061062c611533565b9050836040015160008151811061063f57fe5b6020026020010151600001516001600160a01b0316826001600160a01b0316146106845760405162461bcd60e51b815260040161067b90614440565b60405180910390fd5b8360800151518460400151511461069a57600080fd5b806001600160a01b0316826001600160a01b031614806106bf57506106bf828261134b565b6106db5760405162461bcd60e51b815260040161067b906144fc565b60006106e6856115de565b905060005b85604001515181101561075c5760008660400151828151811061070a57fe5b6020026020010151600001519050836001600160a01b0316816001600160a01b0316146107535761075381848960800151858151811061074657fe5b6020026020010151611825565b506001016106eb565b5061076b848660000151611830565b61077d8560000151866060015161184e565b61078f85600001518660400151611a3d565b6107a185600001518660200151611bec565b5050505050565b6107b96107b3611533565b82611c4f565b6107f45760405162461bcd60e51b815260040180806020018281038252603181526020018061496e6031913960400191505060405180910390fd5b610607838383611c5b565b60008281526101c66020526040812054819061082057506000905080610908565b60008481526101c66020908152604080832080548251818502810185019093528083529192909190849084015b8282101561089c57600084815260209081902060408051808201909152908401546001600160a01b0381168252600160a01b90046001600160601b03168183015282526001909201910161084d565b505050509050806000815181106108af57fe5b60209081029190910101515192506000805b82518110156108fc578281815181106108d657fe5b6020026020010151602001516001600160601b03168201915080806001019150506108c1565b50612710908502049150505b9250929050565b6001600160a01b03821660009081526097602052604081206109319083611d95565b90505b92915050565b61060783838360405180602001604052806000815250610fc6565b61095e81611526565b6109cd57606081901c61096f611533565b6001600160a01b0316816001600160a01b0316146109be5760405162461bcd60e51b815260040180806020018281038252602d815260200180614850602d913960400191505060405180910390fd5b6109c782611da1565b50610a1c565b6109d86107b3611533565b610a135760405162461bcd60e51b81526004018080602001828103825260308152602001806149c46030913960400191505060405180910390fd5b610a1c81611dbc565b50565b600080610a2d609884611e80565b509392505050565b610a3d611533565b6001600160a01b0316610a4e610e51565b6001600160a01b031614610aa9576040805162461bcd60e51b815260206004820181905260248201527f4f776e61626c653a2063616c6c6572206973206e6f7420746865206f776e6572604482015290519081900360640190fd5b610ab281611e9c565b7f87cdeaffd8e70903d6ce7cc983fac3b09ca79e83818124c98e47a1d70f8027d681604051610ae191906143c1565b60405180910390a150565b6000610431826040518060600160405280602981526020016147b56029913960989190611eaf565b609f8054604080516020601f60026000196101006001881615020190951694909404938401819004810282018101909252828152606093909290918301828280156104c55780601f1061049a576101008083540402835291602001916104c5565b60006001600160a01b038216610bbc5760405162461bcd60e51b815260040180806020018281038252602a81526020018061478b602a913960400191505060405180910390fd5b6001600160a01b0382166000908152609760205260409020610431906115d3565b610be5611533565b6001600160a01b0316610bf6610e51565b6001600160a01b031614610c51576040805162461bcd60e51b815260206004820181905260248201527f4f776e61626c653a2063616c6c6572206973206e6f7420746865206f776e6572604482015290519081900360640190fd5b6033546040516000916001600160a01b0316907f8be0079c531659141344cd1fd0a4f28419497f9722a3daafe3b4186f6b6457e0908390a3603380546001600160a01b0319169055565b8251610ca690611526565b15610cbf57610cba8282856000015161093a565b610607565b610607838261061d565b600054610100900460ff1680610ce25750610ce2611ec6565b80610cf0575060005460ff16155b610d2b5760405162461bcd60e51b815260040180806020018281038252602e8152602001806147de602e913960400191505060405180910390fd5b600054610100900460ff16158015610d56576000805460ff1961ff0019909116610100171660011790555b610d64878787878787611ed7565b7f4ce43ceb6a1ad066109c9f24ee6b1ca696af4ee1efed6979527a993e3aea2e02610d8d611533565b8888604051610d9e93929190614354565b60405180910390a18015610db8576000805461ff00191690555b50505050505050565b60606101c76000838152602001908152602001600020805480602002602001604051908101604052809291908181526020016000905b82821015610e4657600084815260209081902060408051808201909152908401546001600160a01b0381168252600160a01b90046001600160601b031681830152825260019092019101610df7565b505050509050919050565b6033546001600160a01b031690565b609d8054604080516020601f60026000196101006001881615020190951694909404938401819004810282018101909252828152606093909290918301828280156104c55780601f1061049a576101008083540402835291602001916104c5565b610ec9611533565b6001600160a01b0316826001600160a01b03161415610f2f576040805162461bcd60e51b815260206004820152601960248201527f4552433732313a20617070726f766520746f2063616c6c657200000000000000604482015290519081900360640190fd5b80609b6000610f3c611533565b6001600160a01b03908116825260208083019390935260409182016000908120918716808252919093529120805460ff191692151592909217909155610f80611533565b6001600160a01b03167f17307eab39ab6107e8899845ad3d59bd9653f200f220920489ca2b5937696c318360405180821515815260200191505060405180910390a35050565b610fd7610fd1611533565b83611c4f565b6110125760405162461bcd60e51b815260040180806020018281038252603181526020018061496e6031913960400191505060405180910390fd5b61101e84848484611f49565b50505050565b606061102f82611526565b61106a5760405162461bcd60e51b815260040180806020018281038252602f8152602001806148fe602f913960400191505060405180910390fd5b6000828152609e602090815260408083208054825160026001831615610100026000190190921691909104601f8101859004850282018501909352828152929091908301828280156110fd5780601f106110d2576101008083540402835291602001916110fd565b820191906000526020600020905b8154815290600101906020018083116110e057829003601f168201915b50505050509050600061110e610b14565b905080516000141561112257509050610434565b81511561113c576111338183611f9b565b92505050610434565b8061114685612180565b6040516020018083805190602001908083835b602083106111785780518252601f199092019160209182019101611159565b51815160209384036101000a600019018019909216911617905285519190930192850191508083835b602083106111c05780518252601f1990920191602091820191016111a1565b6001836020036101000a0380198251168184511680821785525050505050509050019250505060405160208183030381529060405292505050919050565b60008181526101c660209081526040808320805482518185028101850190935280835260609492939192909184018215610e4657600084815260209081902060408051808201909152908401546001600160a01b0381168252600160a01b90046001600160601b031681830152825260019092019101610df7565b816001600160a01b031661128b611533565b6001600160a01b0316146112b15760405162461bcd60e51b815260040161067b9061446b565b61060783838361225a565b6101fa805460408051602060026001851615610100026000190190941693909304601f810184900484028201840190925281815292918301828280156113435780601f1061131857610100808354040283529160200191611343565b820191906000526020600020905b81548152906001019060200180831161132657829003601f168201915b505050505081565b60006109318383612306565b61135f611533565b6001600160a01b0316611370610e51565b6001600160a01b0316146113cb576040805162461bcd60e51b815260206004820181905260248201527f4f776e61626c653a2063616c6c6572206973206e6f7420746865206f776e6572604482015290519081900360640190fd5b6001600160a01b0381166114105760405162461bcd60e51b81526004018080602001828103825260268152602001806146956026913960400191505060405180910390fd5b6033546040516001600160a01b038084169216907f8be0079c531659141344cd1fd0a4f28419497f9722a3daafe3b4186f6b6457e090600090a3603380546001600160a01b0319166001600160a01b0392909216919091179055565b60006001600160e01b03198216638486f69f60e01b148061149d57506001600160e01b0319821663656cb66560e11b145b806114b857506001600160e01b0319821663152a902d60e11b145b806114d357506001600160e01b031982166301ffc9a760e01b145b806114ee57506001600160e01b031982166380ac58cd60e01b145b8061150957506001600160e01b03198216635b5e139f60e01b145b806104315750506001600160e01b03191663780e9d6360e01b1490565b6000610431609883612332565b3390565b6001600160a01b039182166000908152609b6020908152604080832093909416825291909152205460ff1690565b6000818152609a6020526040902080546001600160a01b0319166001600160a01b038416908117909155819061159a82610aec565b6001600160a01b03167f8c5be1e5ebec7d5bd14f71427d1e84f3dd0314c0f7b2291e5b200ac8c7c3b92560405160405180910390a45050565b60006104318261233e565b6000808260600151516001600160401b03811180156115fc57600080fd5b50604051908082528060200260200182016040528015611626578160200160208202803683370190505b50905060005b836060015151811015611678576116598460600151828151811061164c57fe5b6020026020010151612342565b82828151811061166557fe5b602090810291909101015260010161162c565b5060008360400151516001600160401b038111801561169657600080fd5b506040519080825280602002602001820160405280156116c0578160200160208202803683370190505b50905060005b846040015151811015611705576116e68560400151828151811061164c57fe5b8282815181106116f257fe5b60209081029190910101526001016116c6565b507ff64326045af5fd7e15297ba939f85b550474d3899daa47d2bc1ffbdb9ced344e84600001518560200151805190602001208360405160200180828051906020019060200280838360005b83811015611769578181015183820152602001611751565b50505050905001915050604051602081830303815290604052805190602001208560405160200180828051906020019060200280838360005b838110156117ba5781810151838201526020016117a2565b505050509050019150506040516020818303038152906040528051906020012060405160200180868152602001858152602001848152602001838152602001828152602001955050505050506040516020818303038152906040528051906020012092505050919050565b6106078383836123af565b61184a82826040518060200160405280600081525061262e565b5050565b6000805b82518110156119f25760006001600160a01b031683828151811061187257fe5b6020026020010151600001516001600160a01b031614156118da576040805162461bcd60e51b815260206004820152601b60248201527f526563697069656e742073686f756c642062652070726573656e740000000000604482015290519081900360640190fd5b8281815181106118e657fe5b6020026020010151602001516001600160601b031660001415611950576040805162461bcd60e51b815260206004820181905260248201527f526f79616c74792076616c75652073686f756c6420626520706f736974697665604482015290519081900360640190fd5b82818151811061195c57fe5b6020026020010151602001516001600160601b0316820191506101c6600085815260200190815260200160002083828151811061199557fe5b60209081029190910181015182546001818101855560009485529383902082519101805492909301516001600160601b0316600160a01b026001600160a01b039182166001600160a01b0319909316929092171617905501611852565b506127108110611a335760405162461bcd60e51b815260040180806020018281038252602581526020018061499f6025913960400191505060405180910390fd5b6106078383612680565b60008281526101c76020526040812090805b8351811015611b8b5760006001600160a01b0316848281518110611a6f57fe5b6020026020010151600001516001600160a01b03161415611aa25760405162461bcd60e51b815260040161067b906144c5565b838181518110611aae57fe5b6020026020010151602001516001600160601b031660001415611ae35760405162461bcd60e51b815260040161067b9061440b565b82848281518110611af057fe5b602090810291909101810151825460018101845560009384529282902081519301805491909201516001600160601b0316600160a01b026001600160a01b039384166001600160a01b0319909216919091179092169190911790558351611b8190859083908110611b5d57fe5b6020026020010151602001516001600160601b0316836126bd90919063ffffffff16565b9150600101611a4f565b508061271014611bad5760405162461bcd60e51b815260040161067b9061457b565b7f841ffb90d4cabdd1f16034f3fa831d79060febbb8167bdd54a49269365bdf78f8484604051611bde9291906145d2565b60405180910390a150505050565b611bf582611526565b611c305760405162461bcd60e51b815260040180806020018281038252602c8152602001806148a9602c913960400191505060405180910390fd5b6000828152609e60209081526040909120825161060792840190613beb565b60006109318383612717565b826001600160a01b0316611c6e82610aec565b6001600160a01b031614611cb35760405162461bcd60e51b81526004018080602001828103825260298152602001806148d56029913960400191505060405180910390fd5b6001600160a01b038216611cf85760405162461bcd60e51b81526004018080602001828103825260248152602001806146bb6024913960400191505060405180910390fd5b611d03838383610607565b611d0e600082611565565b6001600160a01b0383166000908152609760205260409020611d309082612743565b506001600160a01b0382166000908152609760205260409020611d53908261274f565b50611d606098828461275b565b5080826001600160a01b0316846001600160a01b031660008051602061492d83398151915260405160405180910390a4505050565b60006109318383612771565b600090815260a060205260409020805460ff19166001179055565b6000611dc782610aec565b9050611dd581600084610607565b611de0600083611565565b6000828152609e60205260409020546002600019610100600184161502019091160415611e1e576000828152609e60205260408120611e1e91613c77565b6001600160a01b0381166000908152609760205260409020611e409083612743565b50611e4c6098836127d5565b50611e5682611da1565b60405182906000906001600160a01b0384169060008051602061492d833981519152908390a45050565b6000808080611e8f86866127e1565b9097909650945050505050565b805161184a90609f906020840190613beb565b6000611ebc84848461285c565b90505b9392505050565b6000611ed1306128e9565b15905090565b611ee084611e9c565b611ee86128ef565b611ef0612990565b611ef86128ef565b611f00612a2d565b611f08612aca565b611f106128ef565b611f18612bc3565b611f2183612c92565b611f2b8686612d59565b611f36826001612e54565b611f41816001612e54565b505050505050565b611f54848484611c5b565b611f6084848484612eb4565b61101e5760405162461bcd60e51b81526004018080602001828103825260328152602001806146636032913960400191505060405180910390fd5b805182516060918491849110156120665784846040516020018083805190602001908083835b60208310611fe05780518252601f199092019160209182019101611fc1565b51815160209384036101000a600019018019909216911617905285519190930192850191508083835b602083106120285780518252601f199092019160209182019101612009565b6001836020036101000a0380198251168184511680821785525050505050509050019250505060405160208183030381529060405292505050610934565b60005b82518110156121765782818151811061207e57fe5b602001015160f81c60f81b6001600160f81b03191682828151811061209f57fe5b01602001516001600160f81b0319161461216e5785856040516020018083805190602001908083835b602083106120e75780518252601f1990920191602091820191016120c8565b51815160209384036101000a600019018019909216911617905285519190930192850191508083835b6020831061212f5780518252601f199092019160209182019101612110565b6001836020036101000a038019825116818451168082178552505050505050905001925050506040516020818303038152906040529350505050610934565b600101612069565b5092949350505050565b6060816121a557506040805180820190915260018152600360fc1b6020820152610434565b8160005b81156121bd57600101600a820491506121a9565b6000816001600160401b03811180156121d557600080fd5b506040519080825280601f01601f191660200182016040528015612200576020820181803683370190505b50859350905060001982015b831561225157600a840660300160f81b8282806001900393508151811061222f57fe5b60200101906001600160f81b031916908160001a905350600a8404935061220c565b50949350505050565b60008381526101c66020526040812054905b818110156107a15760008581526101c66020526040902080546001600160a01b03861691908390811061229b57fe5b6000918252602090912001546001600160a01b031614156122fe5760008581526101c6602052604090208054849190839081106122d457fe5b600091825260209091200180546001600160a01b0319166001600160a01b03929092169190911790555b60010161226c565b6001600160a01b038116600090815260c9602052604081205460ff168061093157506109318383611537565b6000610931838361301d565b5490565b8051602091820151604080517f397e04204c1e1a60ee8724b71f8244e10ab5f2e9009854d80f602bda21b59ebb818601526001600160a01b03909316838201526001600160601b039091166060808401919091528151808403909101815260809092019052805191012090565b60006123ba83613035565b905060008251604114156123d5576123d28284613081565b90505b846001600160a01b0316816001600160a01b0316146107a157612400856001600160a01b03166128e9565b156125b65760408051630b135d3f60e11b808252600482018581526024830193845286516044840152865191936001600160a01b038a1693631626ba7e9388938a9390929091606490910190602085019080838360005b8381101561246f578181015183820152602001612457565b50505050905090810190601f16801561249c5780820380516001836020036101000a031916815260200191505b50935050505060206040518083038186803b1580156124ba57600080fd5b505afa1580156124ce573d6000803e3d6000fd5b505050506040513d60208110156124e457600080fd5b505160408051808201909152601c81527f7369676e617475726520766572696669636174696f6e206572726f72000000006020820152916001600160e01b0319909116146125b05760405162461bcd60e51b81526004018080602001828103825283818151815260200191508051906020019080838360005b8381101561257557818101518382015260200161255d565b50505050905090810190601f1680156125a25780820380516001836020036101000a031916815260200191505b509250505060405180910390fd5b506107a1565b604080518082018252601c81527f7369676e617475726520766572696669636174696f6e206572726f72000000006020808301918252925162461bcd60e51b8152600481019384528251602482015282519293928392604490920191908083836000831561257557818101518382015260200161255d565b6126388383613101565b6126456000848484612eb4565b6106075760405162461bcd60e51b81526004018080602001828103825260328152602001806146636032913960400191505060405180910390fd5b7f3fa96d7b6bcbfe71ef171666d84db3cf52fa2d1c8afdb1cc8e486177f208b7df82826040516126b19291906145d2565b60405180910390a15050565b600082820183811015610931576040805162461bcd60e51b815260206004820152601b60248201527f536166654d6174683a206164646974696f6e206f766572666c6f770000000000604482015290519081900360640190fd5b6001600160a01b038216600090815260c9602052604081205460ff16806109315750610931838361310b565b600061093183836131a7565b6000610931838361326d565b6000611ebc84846001600160a01b0385166132b7565b815460009082106127b35760405162461bcd60e51b81526004018080602001828103825260228152602001806146416022913960400191505060405180910390fd5b8260000182815481106127c257fe5b9060005260206000200154905092915050565b6000610931838361334e565b8154600090819083106128255760405162461bcd60e51b815260040180806020018281038252602281526020018061482e6022913960400191505060405180910390fd5b600084600001848154811061283657fe5b906000526020600020906002020190508060000154816001015492509250509250929050565b600082815260018401602052604081205482816128ba5760405162461bcd60e51b815260206004820181815283516024840152835190928392604490910191908501908083836000831561257557818101518382015260200161255d565b508460000160018203815481106128cd57fe5b9060005260206000209060020201600101549150509392505050565b3b151590565b600054610100900460ff16806129085750612908611ec6565b80612916575060005460ff16155b6129515760405162461bcd60e51b815260040180806020018281038252602e8152602001806147de602e913960400191505060405180910390fd5b600054610100900460ff1615801561297c576000805460ff1961ff0019909116610100171660011790555b8015610a1c576000805461ff001916905550565b600054610100900460ff16806129a957506129a9611ec6565b806129b7575060005460ff16155b6129f25760405162461bcd60e51b815260040180806020018281038252602e8152602001806147de602e913960400191505060405180910390fd5b600054610100900460ff16158015612a1d576000805460ff1961ff0019909116610100171660011790555b61297c63656cb66560e11b613422565b600054610100900460ff1680612a465750612a46611ec6565b80612a54575060005460ff16155b612a8f5760405162461bcd60e51b815260040180806020018281038252602e8152602001806147de602e913960400191505060405180910390fd5b600054610100900460ff16158015612aba576000805460ff1961ff0019909116610100171660011790555b61297c6301ffc9a760e01b613422565b600054610100900460ff1680612ae35750612ae3611ec6565b80612af1575060005460ff16155b612b2c5760405162461bcd60e51b815260040180806020018281038252602e8152602001806147de602e913960400191505060405180910390fd5b600054610100900460ff16158015612b57576000805460ff1961ff0019909116610100171660011790555b6000612b61611533565b603380546001600160a01b0319166001600160a01b038316908117909155604051919250906000907f8be0079c531659141344cd1fd0a4f28419497f9722a3daafe3b4186f6b6457e0908290a3508015610a1c576000805461ff001916905550565b600054610100900460ff1680612bdc5750612bdc611ec6565b80612bea575060005460ff16155b612c255760405162461bcd60e51b815260040180806020018281038252602e8152602001806147de602e913960400191505060405180910390fd5b600054610100900460ff16158015612c50576000805460ff1961ff0019909116610100171660011790555b61297c604051806040016040528060078152602001664d696e7437323160c81b815250604051806040016040528060018152602001603160f81b8152506134a6565b600054610100900460ff1680612cab5750612cab611ec6565b80612cb9575060005460ff16155b612cf45760405162461bcd60e51b815260040180806020018281038252602e8152602001806147de602e913960400191505060405180910390fd5b600054610100900460ff16158015612d1f576000805460ff1961ff0019909116610100171660011790555b8151612d33906101fa906020850190613beb565b50612d4463e8a3d48560e01b613422565b801561184a576000805461ff00191690555050565b600054610100900460ff1680612d725750612d72611ec6565b80612d80575060005460ff16155b612dbb5760405162461bcd60e51b815260040180806020018281038252602e8152602001806147de602e913960400191505060405180910390fd5b600054610100900460ff16158015612de6576000805460ff1961ff0019909116610100171660011790555b8251612df990609c906020860190613beb565b508151612e0d90609d906020850190613beb565b50612e1e6380ac58cd60e01b613422565b612e2e635b5e139f60e01b613422565b612e3e63780e9d6360e01b613422565b8015610607576000805461ff0019169055505050565b6001600160a01b038216600081815260c96020908152604091829020805460ff1916851515908117909155825190815291517f270dbb8ba4292910ae92862466486be25c355c837270a3d8824b36a8bc7c653b9281900390910190a25050565b6000612ec8846001600160a01b03166128e9565b612ed457506001613015565b6000612fe2630a85bd0160e11b612ee9611533565b88878760405160240180856001600160a01b03168152602001846001600160a01b0316815260200183815260200180602001828103825283818151815260200191508051906020019080838360005b83811015612f50578181015183820152602001612f38565b50505050905090810190601f168015612f7d5780820380516001836020036101000a031916815260200191505b5095505050505050604051602081830303815290604052906001600160e01b0319166020820180516001600160e01b038381831617835250505050604051806060016040528060328152602001614663603291396001600160a01b0388169190613568565b90506000818060200190516020811015612ffb57600080fd5b50516001600160e01b031916630a85bd0160e11b14925050505b949350505050565b60009081526001919091016020526040902054151590565b600061303f613577565b82604051602001808061190160f01b81525060020183815260200182815260200192505050604051602081830303815290604052805190602001209050919050565b600081516041146130d9576040805162461bcd60e51b815260206004820152601f60248201527f45434453413a20696e76616c6964207369676e6174757265206c656e67746800604482015290519081900360640190fd5b60208201516040830151606084015160001a6130f7868285856135b2565b9695505050505050565b61184a8282613808565b600061311682611526565b6131515760405162461bcd60e51b815260040180806020018281038252602c815260200180614727602c913960400191505060405180910390fd5b600061315c83610aec565b9050806001600160a01b0316846001600160a01b031614806131975750836001600160a01b031661318c846104cf565b6001600160a01b0316145b8061301557506130158185611537565b6000818152600183016020526040812054801561326357835460001980830191908101906000908790839081106131da57fe5b90600052602060002001549050808760000184815481106131f757fe5b60009182526020808320909101929092558281526001898101909252604090209084019055865487908061322757fe5b60019003818190600052602060002001600090559055866001016000878152602001908152602001600020600090556001945050505050610934565b6000915050610934565b6000613279838361301d565b6132af57508154600181810184556000848152602080822090930184905584548482528286019093526040902091909155610934565b506000610934565b60008281526001840160205260408120548061331c575050604080518082018252838152602080820184815286546001818101895560008981528481209551600290930290950191825591519082015586548684528188019092529290912055611ebf565b8285600001600183038154811061332f57fe5b9060005260206000209060020201600101819055506000915050611ebf565b60008181526001830160205260408120548015613263578354600019808301919081019060009087908390811061338157fe5b90600052602060002090600202019050808760000184815481106133a157fe5b6000918252602080832084546002909302019182556001938401549184019190915583548252898301905260409020908401905586548790806133e057fe5b60008281526020808220600260001990940193840201828155600190810183905592909355888152898201909252604082209190915594506109349350505050565b6001600160e01b03198082161415613481576040805162461bcd60e51b815260206004820152601c60248201527f4552433136353a20696e76616c696420696e7465726661636520696400000000604482015290519081900360640190fd5b6001600160e01b0319166000908152606560205260409020805460ff19166001179055565b600054610100900460ff16806134bf57506134bf611ec6565b806134cd575060005460ff16155b6135085760405162461bcd60e51b815260040180806020018281038252602e8152602001806147de602e913960400191505060405180910390fd5b600054610100900460ff16158015613533576000805460ff1961ff0019909116610100171660011790555b825160208085019190912083519184019190912061012e9190915561012f558015610607576000805461ff0019169055505050565b6060611ebc8484600085613950565b60006106187f8b73c3c69bb8fe3d512ecc4cf759cc79239f7b179b0ffacaa9a75d522b39400f6135a5613aab565b6135ad613ab2565b613ab9565b60007f7fffffffffffffffffffffffffffffff5d576e7357a4501ddfe92f46681b20a08211156136135760405162461bcd60e51b81526004018080602001828103825260228152602001806146df6022913960400191505060405180910390fd5b6000601e8560ff1611156136ed576004850360ff16601b148061363c57506004850360ff16601c145b6136775760405162461bcd60e51b815260040180806020018281038252602281526020018061480c6022913960400191505060405180910390fd5b600161368287613b1b565b60048703868660405160008152602001604052604051808581526020018460ff1681526020018381526020018281526020019450505050506020604051602081039080840390855afa1580156136dc573d6000803e3d6000fd5b5050506020604051035190506137a4565b8460ff16601b148061370257508460ff16601c145b61373d5760405162461bcd60e51b815260040180806020018281038252602281526020018061480c6022913960400191505060405180910390fd5b60018686868660405160008152602001604052604051808581526020018460ff1681526020018381526020018281526020019450505050506020604051602081039080840390855afa158015613797573d6000803e3d6000fd5b5050506020604051035190505b6001600160a01b0381166137ff576040805162461bcd60e51b815260206004820152601860248201527f45434453413a20696e76616c6964207369676e61747572650000000000000000604482015290519081900360640190fd5b95945050505050565b6001600160a01b03821661382e5760405162461bcd60e51b815260040161067b90614490565b61383781613b6c565b156138545760405162461bcd60e51b815260040161067b9061454d565b61385d81611526565b1561387a5760405162461bcd60e51b815260040161067b906143d4565b61388660008383610607565b6001600160a01b03821660009081526097602052604090206138a8908261274f565b506138b56098828461275b565b50606081901c6001600160a01b03831681146139255760405182906001600160a01b0383169060009060008051602061492d833981519152908290a481836001600160a01b0316826001600160a01b031660008051602061492d83398151915260405160405180910390a4610607565b60405182906001600160a01b0385169060009060008051602061492d833981519152908290a4505050565b6060824710156139915760405162461bcd60e51b81526004018080602001828103825260268152602001806147016026913960400191505060405180910390fd5b61399a856128e9565b6139eb576040805162461bcd60e51b815260206004820152601d60248201527f416464726573733a2063616c6c20746f206e6f6e2d636f6e7472616374000000604482015290519081900360640190fd5b600080866001600160a01b031685876040518082805190602001908083835b60208310613a295780518252601f199092019160209182019101613a0a565b6001836020036101000a03801982511681845116808217855250505050505090500191505060006040518083038185875af1925050503d8060008114613a8b576040519150601f19603f3d011682016040523d82523d6000602084013e613a90565b606091505b5091509150613aa0828286613b81565b979650505050505050565b61012e5490565b61012f5490565b6000838383613ac6613be7565b3060405160200180868152602001858152602001848152602001838152602001826001600160a01b03168152602001955050505050506040516020818303038152906040528051906020012090509392505050565b604080517f19457468657265756d205369676e6564204d6573736167653a0a333200000000602080830191909152603c8083019490945282518083039094018452605c909101909152815191012090565b600090815260a0602052604090205460ff1690565b60608315613b90575081611ebf565b825115613ba05782518084602001fd5b60405162461bcd60e51b815260206004820181815284516024840152845185939192839260440191908501908083836000831561257557818101518382015260200161255d565b4690565b828054600181600116156101000203166002900490600052602060002090601f016020900481019282613c215760008555613c67565b82601f10613c3a57805160ff1916838001178555613c67565b82800160010185558215613c67579182015b82811115613c67578251825591602001919060010190613c4c565b50613c73929150613cb7565b5090565b50805460018160011615610100020316600290046000825580601f10613c9d5750610a1c565b601f016020900490600052602060002090810190610a1c91905b5b80821115613c735760008155600101613cb8565b80356104348161462b565b600082601f830112613ce7578081fd5b81356020613cfc613cf78361460e565b6145eb565b82815281810190858301855b85811015613d3157613d1f898684358b0101613df9565b84529284019290840190600101613d08565b5090979650505050505050565b600082601f830112613d4e578081fd5b81356020613d5e613cf78361460e565b82815281810190858301604080860288018501891015613d7c578687fd5b865b86811015613deb5781838b031215613d94578788fd5b81518281018181106001600160401b0382111715613dae57fe5b83528335613dbb8161462b565b8152838701356001600160601b0381168114613dd557898afd5b8188015285529385019391810191600101613d7e565b509198975050505050505050565b600082601f830112613e09578081fd5b81356001600160401b03811115613e1c57fe5b613e2f601f8201601f19166020016145eb565b818152846020838601011115613e43578283fd5b816020850160208301379081016020019190915292915050565b600060a08284031215613e6e578081fd5b613e7860a06145eb565b90508135815260208201356001600160401b0380821115613e9857600080fd5b613ea485838601613df9565b60208401526040840135915080821115613ebd57600080fd5b613ec985838601613d3e565b60408401526060840135915080821115613ee257600080fd5b613eee85838601613d3e565b60608401526080840135915080821115613f0757600080fd5b50613f1484828501613cd7565b60808301525092915050565b600060208284031215613f31578081fd5b81356109318161462b565b60008060408385031215613f4e578081fd5b8235613f598161462b565b91506020830135613f698161462b565b809150509250929050565b600080600060608486031215613f88578081fd5b8335613f938161462b565b92506020840135613fa38161462b565b929592945050506040919091013590565b60008060008060808587031215613fc9578081fd5b8435613fd48161462b565b93506020850135613fe48161462b565b92506040850135915060608501356001600160401b03811115614005578182fd5b61401187828801613df9565b91505092959194509250565b6000806040838503121561402f578182fd5b823561403a8161462b565b915060208301358015158114613f69578182fd5b60008060408385031215614060578182fd5b823561406b8161462b565b946020939093013593505050565b60006020828403121561408a578081fd5b81356001600160e01b031981168114610931578182fd5b6000602082840312156140b2578081fd5b81356001600160401b038111156140c7578182fd5b61301584828501613df9565b60008060008060008060c087890312156140eb578384fd5b86356001600160401b0380821115614101578586fd5b61410d8a838b01613df9565b97506020890135915080821115614122578586fd5b61412e8a838b01613df9565b96506040890135915080821115614143578586fd5b61414f8a838b01613df9565b95506060890135915080821115614164578384fd5b5061417189828a01613df9565b93505061418060808801613ccc565b915061418e60a08801613ccc565b90509295509295509295565b600080604083850312156141ac578182fd5b82356001600160401b038111156141c1578283fd5b6141cd85828601613e5d565b9250506020830135613f698161462b565b6000806000606084860312156141f2578081fd5b83356001600160401b03811115614207578182fd5b61421386828701613e5d565b93505060208401356142248161462b565b915060408401356142348161462b565b809150509250925092565b600060208284031215614250578081fd5b5035919050565b60008060006060848603121561426b578081fd5b8335925060208401356142248161462b565b6000806040838503121561428f578182fd5b50508035926020909101359150565b6000815180845260208085019450808401835b838110156142ea57815180516001600160a01b031688528301516001600160601b031683880152604090960195908201906001016142b1565b509495945050505050565b60008151808452815b8181101561431a576020818501810151868301820152016142fe565b8181111561432b5782602083870101525b50601f01601f19169290920160200192915050565b6001600160a01b0391909116815260200190565b6001600160a01b0384168152606060208201819052600090614378908301856142f5565b82810360408401526130f781856142f5565b6001600160a01b03929092168252602082015260400190565b600060208252610931602083018461429e565b901515815260200190565b60006020825261093160208301846142f5565b6020808252601c908201527f4552433732313a20746f6b656e20616c7265616479206d696e74656400000000604082015260600190565b6020808252818101527f43726561746f722073686172652073686f756c6420626520706f736974697665604082015260600190565b6020808252601190820152701d1bdad95b9259081a5b98dbdc9c9958dd607a1b604082015260600190565b6020808252600b908201526a1b9bdd08185b1b1bddd95960aa1b604082015260600190565b6020808252818101527f4552433732313a206d696e7420746f20746865207a65726f2061646472657373604082015260600190565b60208082526019908201527f4163636f756e742073686f756c642062652070726573656e7400000000000000604082015260600190565b60208082526031908201527f4552433732313a207472616e736665722063616c6c6572206973206e6f74206f6040820152701ddb995c881b9bdc88185c1c1c9bdd9959607a1b606082015260800190565b6020808252601490820152731d1bdad95b88185b1c9958591e48189d5c9b995960621b604082015260600190565b6020808252602e908201527f746f74616c20616d6f756e74206f662063726561746f7273207368617265207360408201526d0686f756c642062652031303030360941b606082015260800190565b90815260200190565b600083825260406020830152611ebc604083018461429e565b6040518181016001600160401b038111828210171561460657fe5b604052919050565b60006001600160401b0382111561462157fe5b5060209081020190565b6001600160a01b0381168114610a1c57600080fdfe456e756d657261626c655365743a20696e646578206f7574206f6620626f756e64734552433732313a207472616e7366657220746f206e6f6e20455243373231526563656976657220696d706c656d656e7465724f776e61626c653a206e6577206f776e657220697320746865207a65726f20616464726573734552433732313a207472616e7366657220746f20746865207a65726f206164647265737345434453413a20696e76616c6964207369676e6174757265202773272076616c7565416464726573733a20696e73756666696369656e742062616c616e636520666f722063616c6c4552433732313a206f70657261746f7220717565727920666f72206e6f6e6578697374656e7420746f6b656e4552433732313a20617070726f76652063616c6c6572206973206e6f74206f776e6572206e6f7220617070726f76656420666f7220616c6c4552433732313a2062616c616e636520717565727920666f7220746865207a65726f20616464726573734552433732313a206f776e657220717565727920666f72206e6f6e6578697374656e7420746f6b656e496e697469616c697a61626c653a20636f6e747261637420697320616c726561647920696e697469616c697a656445434453413a20696e76616c6964207369676e6174757265202776272076616c7565456e756d657261626c654d61703a20696e646578206f7574206f6620626f756e64734552433732314275726e61626c653a2063616c6c6572206973206e6f74206f776e65722c206e6f74206275726e4552433732313a20617070726f76656420717565727920666f72206e6f6e6578697374656e7420746f6b656e4552433732314d657461646174613a2055524920736574206f66206e6f6e6578697374656e7420746f6b656e4552433732313a207472616e73666572206f6620746f6b656e2074686174206973206e6f74206f776e4552433732314d657461646174613a2055524920717565727920666f72206e6f6e6578697374656e7420746f6b656eddf252ad1be2c89b69c2b068fc378daa952ba7f163c4a11628f55a4df523b3ef4552433732313a20617070726f76616c20746f2063757272656e74206f776e65724552433732313a207472616e736665722063616c6c6572206973206e6f74206f776e6572206e6f7220617070726f766564526f79616c747920746f74616c2076616c75652073686f756c64206265203c2031303030304552433732314275726e61626c653a2063616c6c6572206973206e6f74206f776e6572206e6f7220617070726f766564a2646970667358221220ff7f07c7aaef750048792ab9bb38e18661de78e15936cedea6812c113b417a1264736f6c63430007060033",
  "immutableReferences": {},
  "source": "// SPDX-License-Identifier: MIT\n\npragma solidity 0.7.6;\npragma abicoder v2;\n\nimport \"./ERC721Base.sol\";\n\ncontract ERC721Gebrid is ERC721Base {\n\n    event CreateERC721Gebrid(address owner, string name, string symbol);\n\n    function __ERC721Gebrid_init(string memory _name, string memory _symbol, string memory baseURI, string memory contractURI, address transferProxy, address lazyTransferProxy) external initializer {\n        __ERC721Gebrid_init_unchained(_name, _symbol, baseURI, contractURI, transferProxy, lazyTransferProxy);\n        emit CreateERC721Gebrid(_msgSender(), _name, _symbol);\n    }\n\n    function __ERC721Gebrid_init_unchained(string memory _name, string memory _symbol, string memory baseURI, string memory contractURI, address transferProxy, address lazyTransferProxy) internal {\n        _setBaseURI(baseURI);\n        __ERC721Lazy_init_unchained();\n        __RoyaltiesV2Upgradeable_init_unchained();\n        __Context_init_unchained();\n        __ERC165_init_unchained();\n        __Ownable_init_unchained();\n        __ERC721Burnable_init_unchained();\n        __Mint721Validator_init_unchained();\n        __HasContractURI_init_unchained(contractURI);\n        __ERC721_init_unchained(_name, _symbol);\n\n        //setting default approver for transferProxies\n        _setDefaultApproval(transferProxy, true);\n        _setDefaultApproval(lazyTransferProxy, true);\n    }\n\n    uint256[50] private __gap;\n}\n",
  "sourcePath": "@gebrid/tokens/contracts/erc-721/ERC721Gebrid.sol",
  "compiler": {
    "name": "solc",
    "version": "0.7.6+commit.7338295f.Emscripten.clang"
  },
  "schemaVersion": "3.4.4",
  "updatedAt": "2022-10-29T10:34:29.275Z",
  "devdoc": {
    "kind": "dev",
    "methods": {
      "approve(address,uint256)": {
        "details": "See {IERC721-approve}."
      },
      "balanceOf(address)": {
        "details": "See {IERC721-balanceOf}."
      },
      "baseURI()": {
        "details": "Returns the base URI set via {_setBaseURI}. This will be automatically added as a prefix in {tokenURI} to each token's URI, or to the token ID if no specific URI is set for that token ID."
      },
      "burn(uint256)": {
        "details": "Burns `tokenId`. See {ERC721-_burn}. Requirements: - The caller must own `tokenId` or be an approved operator."
      },
      "getApproved(uint256)": {
        "details": "See {IERC721-getApproved}."
      },
      "name()": {
        "details": "See {IERC721Metadata-name}."
      },
      "owner()": {
        "details": "Returns the address of the current owner."
      },
      "ownerOf(uint256)": {
        "details": "See {IERC721-ownerOf}."
      },
      "renounceOwnership()": {
        "details": "Leaves the contract without owner. It will not be possible to call `onlyOwner` functions anymore. Can only be called by the current owner. NOTE: Renouncing ownership will leave the contract without an owner, thereby removing any functionality that is only available to the owner."
      },
      "safeTransferFrom(address,address,uint256)": {
        "details": "See {IERC721-safeTransferFrom}."
      },
      "safeTransferFrom(address,address,uint256,bytes)": {
        "details": "See {IERC721-safeTransferFrom}."
      },
      "setApprovalForAll(address,bool)": {
        "details": "See {IERC721-setApprovalForAll}."
      },
      "symbol()": {
        "details": "See {IERC721Metadata-symbol}."
      },
      "tokenByIndex(uint256)": {
        "details": "See {IERC721Enumerable-tokenByIndex}."
      },
      "tokenOfOwnerByIndex(address,uint256)": {
        "details": "See {IERC721Enumerable-tokenOfOwnerByIndex}."
      },
      "tokenURI(uint256)": {
        "details": "See {IERC721Metadata-tokenURI}."
      },
      "totalSupply()": {
        "details": "See {IERC721Enumerable-totalSupply}."
      },
      "transferFrom(address,address,uint256)": {
        "details": "See {IERC721-transferFrom}."
      },
      "transferOwnership(address)": {
        "details": "Transfers ownership of the contract to a new account (`newOwner`). Can only be called by the current owner."
      }
    },
    "version": 1
  },
  "userdoc": {
    "kind": "user",
    "methods": {},
    "version": 1
  }
}