{
  "contractName": "ExchangeMeta",
  "abi": [
    {
      "anonymous": false,
      "inputs": [
        {
          "indexed": false,
          "internalType": "bytes32",
          "name": "hash",
          "type": "bytes32"
        }
      ],
      "name": "Cancel",
      "type": "event"
    },
    {
      "anonymous": false,
      "inputs": [
        {
          "indexed": false,
          "internalType": "bytes32",
          "name": "leftHash",
          "type": "bytes32"
        },
        {
          "indexed": false,
          "internalType": "bytes32",
          "name": "rightHash",
          "type": "bytes32"
        },
        {
          "indexed": false,
          "internalType": "uint256",
          "name": "newLeftFill",
          "type": "uint256"
        },
        {
          "indexed": false,
          "internalType": "uint256",
          "name": "newRightFill",
          "type": "uint256"
        }
      ],
      "name": "Match",
      "type": "event"
    },
    {
      "anonymous": false,
      "inputs": [
        {
          "indexed": true,
          "internalType": "bytes4",
          "name": "assetType",
          "type": "bytes4"
        },
        {
          "indexed": false,
          "internalType": "address",
          "name": "matcher",
          "type": "address"
        }
      ],
      "name": "MatcherChange",
      "type": "event"
    },
    {
      "anonymous": false,
      "inputs": [
        {
          "indexed": false,
          "internalType": "address",
          "name": "userAddress",
          "type": "address"
        },
        {
          "indexed": false,
          "internalType": "address payable",
          "name": "relayerAddress",
          "type": "address"
        },
        {
          "indexed": false,
          "internalType": "bytes",
          "name": "functionSignature",
          "type": "bytes"
        }
      ],
      "name": "MetaTransactionExecuted",
      "type": "event"
    },
    {
      "anonymous": false,
      "inputs": [
        {
          "indexed": true,
          "internalType": "address",
          "name": "previousOwner",
          "type": "address"
        },
        {
          "indexed": true,
          "internalType": "address",
          "name": "newOwner",
          "type": "address"
        }
      ],
      "name": "OwnershipTransferred",
      "type": "event"
    },
    {
      "anonymous": false,
      "inputs": [
        {
          "indexed": true,
          "internalType": "bytes4",
          "name": "assetType",
          "type": "bytes4"
        },
        {
          "indexed": false,
          "internalType": "address",
          "name": "proxy",
          "type": "address"
        }
      ],
      "name": "ProxyChange",
      "type": "event"
    },
    {
      "inputs": [
        {
          "components": [
            {
              "internalType": "address",
              "name": "maker",
              "type": "address"
            },
            {
              "components": [
                {
                  "components": [
                    {
                      "internalType": "bytes4",
                      "name": "assetClass",
                      "type": "bytes4"
                    },
                    {
                      "internalType": "bytes",
                      "name": "data",
                      "type": "bytes"
                    }
                  ],
                  "internalType": "struct LibAsset.AssetType",
                  "name": "assetType",
                  "type": "tuple"
                },
                {
                  "internalType": "uint256",
                  "name": "value",
                  "type": "uint256"
                }
              ],
              "internalType": "struct LibAsset.Asset",
              "name": "makeAsset",
              "type": "tuple"
            },
            {
              "internalType": "address",
              "name": "taker",
              "type": "address"
            },
            {
              "components": [
                {
                  "components": [
                    {
                      "internalType": "bytes4",
                      "name": "assetClass",
                      "type": "bytes4"
                    },
                    {
                      "internalType": "bytes",
                      "name": "data",
                      "type": "bytes"
                    }
                  ],
                  "internalType": "struct LibAsset.AssetType",
                  "name": "assetType",
                  "type": "tuple"
                },
                {
                  "internalType": "uint256",
                  "name": "value",
                  "type": "uint256"
                }
              ],
              "internalType": "struct LibAsset.Asset",
              "name": "takeAsset",
              "type": "tuple"
            },
            {
              "internalType": "uint256",
              "name": "salt",
              "type": "uint256"
            },
            {
              "internalType": "uint256",
              "name": "start",
              "type": "uint256"
            },
            {
              "internalType": "uint256",
              "name": "end",
              "type": "uint256"
            },
            {
              "internalType": "bytes4",
              "name": "dataType",
              "type": "bytes4"
            },
            {
              "internalType": "bytes",
              "name": "data",
              "type": "bytes"
            }
          ],
          "internalType": "struct LibOrder.Order",
          "name": "order",
          "type": "tuple"
        }
      ],
      "name": "cancel",
      "outputs": [],
      "stateMutability": "nonpayable",
      "type": "function"
    },
    {
      "inputs": [
        {
          "components": [
            {
              "internalType": "address",
              "name": "bidMaker",
              "type": "address"
            },
            {
              "internalType": "uint256",
              "name": "bidNftAmount",
              "type": "uint256"
            },
            {
              "internalType": "bytes4",
              "name": "nftAssetClass",
              "type": "bytes4"
            },
            {
              "internalType": "bytes",
              "name": "nftData",
              "type": "bytes"
            },
            {
              "internalType": "uint256",
              "name": "bidPaymentAmount",
              "type": "uint256"
            },
            {
              "internalType": "address",
              "name": "paymentToken",
              "type": "address"
            },
            {
              "internalType": "uint256",
              "name": "bidSalt",
              "type": "uint256"
            },
            {
              "internalType": "uint256",
              "name": "bidStart",
              "type": "uint256"
            },
            {
              "internalType": "uint256",
              "name": "bidEnd",
              "type": "uint256"
            },
            {
              "internalType": "bytes4",
              "name": "bidDataType",
              "type": "bytes4"
            },
            {
              "internalType": "bytes",
              "name": "bidData",
              "type": "bytes"
            },
            {
              "internalType": "bytes",
              "name": "bidSignature",
              "type": "bytes"
            },
            {
              "internalType": "uint256",
              "name": "sellOrderPaymentAmount",
              "type": "uint256"
            },
            {
              "internalType": "uint256",
              "name": "sellOrderNftAmount",
              "type": "uint256"
            },
            {
              "internalType": "bytes",
              "name": "sellOrderData",
              "type": "bytes"
            }
          ],
          "internalType": "struct LibDirectTransfer.AcceptBid",
          "name": "direct",
          "type": "tuple"
        }
      ],
      "name": "directAcceptBid",
      "outputs": [],
      "stateMutability": "payable",
      "type": "function"
    },
    {
      "inputs": [
        {
          "components": [
            {
              "internalType": "address",
              "name": "sellOrderMaker",
              "type": "address"
            },
            {
              "internalType": "uint256",
              "name": "sellOrderNftAmount",
              "type": "uint256"
            },
            {
              "internalType": "bytes4",
              "name": "nftAssetClass",
              "type": "bytes4"
            },
            {
              "internalType": "bytes",
              "name": "nftData",
              "type": "bytes"
            },
            {
              "internalType": "uint256",
              "name": "sellOrderPaymentAmount",
              "type": "uint256"
            },
            {
              "internalType": "address",
              "name": "paymentToken",
              "type": "address"
            },
            {
              "internalType": "uint256",
              "name": "sellOrderSalt",
              "type": "uint256"
            },
            {
              "internalType": "uint256",
              "name": "sellOrderStart",
              "type": "uint256"
            },
            {
              "internalType": "uint256",
              "name": "sellOrderEnd",
              "type": "uint256"
            },
            {
              "internalType": "bytes4",
              "name": "sellOrderDataType",
              "type": "bytes4"
            },
            {
              "internalType": "bytes",
              "name": "sellOrderData",
              "type": "bytes"
            },
            {
              "internalType": "bytes",
              "name": "sellOrderSignature",
              "type": "bytes"
            },
            {
              "internalType": "uint256",
              "name": "buyOrderPaymentAmount",
              "type": "uint256"
            },
            {
              "internalType": "uint256",
              "name": "buyOrderNftAmount",
              "type": "uint256"
            },
            {
              "internalType": "bytes",
              "name": "buyOrderData",
              "type": "bytes"
            }
          ],
          "internalType": "struct LibDirectTransfer.Purchase",
          "name": "direct",
          "type": "tuple"
        }
      ],
      "name": "directPurchase",
      "outputs": [],
      "stateMutability": "payable",
      "type": "function"
    },
    {
      "inputs": [
        {
          "internalType": "address",
          "name": "userAddress",
          "type": "address"
        },
        {
          "internalType": "bytes",
          "name": "functionSignature",
          "type": "bytes"
        },
        {
          "internalType": "bytes32",
          "name": "sigR",
          "type": "bytes32"
        },
        {
          "internalType": "bytes32",
          "name": "sigS",
          "type": "bytes32"
        },
        {
          "internalType": "uint8",
          "name": "sigV",
          "type": "uint8"
        }
      ],
      "name": "executeMetaTransaction",
      "outputs": [
        {
          "internalType": "bytes",
          "name": "",
          "type": "bytes"
        }
      ],
      "stateMutability": "payable",
      "type": "function"
    },
    {
      "inputs": [
        {
          "internalType": "bytes32",
          "name": "",
          "type": "bytes32"
        }
      ],
      "name": "fills",
      "outputs": [
        {
          "internalType": "uint256",
          "name": "",
          "type": "uint256"
        }
      ],
      "stateMutability": "view",
      "type": "function"
    },
    {
      "inputs": [
        {
          "internalType": "address",
          "name": "user",
          "type": "address"
        }
      ],
      "name": "getNonce",
      "outputs": [
        {
          "internalType": "uint256",
          "name": "nonce",
          "type": "uint256"
        }
      ],
      "stateMutability": "view",
      "type": "function"
    },
    {
      "inputs": [
        {
          "components": [
            {
              "internalType": "address",
              "name": "maker",
              "type": "address"
            },
            {
              "components": [
                {
                  "components": [
                    {
                      "internalType": "bytes4",
                      "name": "assetClass",
                      "type": "bytes4"
                    },
                    {
                      "internalType": "bytes",
                      "name": "data",
                      "type": "bytes"
                    }
                  ],
                  "internalType": "struct LibAsset.AssetType",
                  "name": "assetType",
                  "type": "tuple"
                },
                {
                  "internalType": "uint256",
                  "name": "value",
                  "type": "uint256"
                }
              ],
              "internalType": "struct LibAsset.Asset",
              "name": "makeAsset",
              "type": "tuple"
            },
            {
              "internalType": "address",
              "name": "taker",
              "type": "address"
            },
            {
              "components": [
                {
                  "components": [
                    {
                      "internalType": "bytes4",
                      "name": "assetClass",
                      "type": "bytes4"
                    },
                    {
                      "internalType": "bytes",
                      "name": "data",
                      "type": "bytes"
                    }
                  ],
                  "internalType": "struct LibAsset.AssetType",
                  "name": "assetType",
                  "type": "tuple"
                },
                {
                  "internalType": "uint256",
                  "name": "value",
                  "type": "uint256"
                }
              ],
              "internalType": "struct LibAsset.Asset",
              "name": "takeAsset",
              "type": "tuple"
            },
            {
              "internalType": "uint256",
              "name": "salt",
              "type": "uint256"
            },
            {
              "internalType": "uint256",
              "name": "start",
              "type": "uint256"
            },
            {
              "internalType": "uint256",
              "name": "end",
              "type": "uint256"
            },
            {
              "internalType": "bytes4",
              "name": "dataType",
              "type": "bytes4"
            },
            {
              "internalType": "bytes",
              "name": "data",
              "type": "bytes"
            }
          ],
          "internalType": "struct LibOrder.Order",
          "name": "orderLeft",
          "type": "tuple"
        },
        {
          "internalType": "bytes",
          "name": "signatureLeft",
          "type": "bytes"
        },
        {
          "components": [
            {
              "internalType": "address",
              "name": "maker",
              "type": "address"
            },
            {
              "components": [
                {
                  "components": [
                    {
                      "internalType": "bytes4",
                      "name": "assetClass",
                      "type": "bytes4"
                    },
                    {
                      "internalType": "bytes",
                      "name": "data",
                      "type": "bytes"
                    }
                  ],
                  "internalType": "struct LibAsset.AssetType",
                  "name": "assetType",
                  "type": "tuple"
                },
                {
                  "internalType": "uint256",
                  "name": "value",
                  "type": "uint256"
                }
              ],
              "internalType": "struct LibAsset.Asset",
              "name": "makeAsset",
              "type": "tuple"
            },
            {
              "internalType": "address",
              "name": "taker",
              "type": "address"
            },
            {
              "components": [
                {
                  "components": [
                    {
                      "internalType": "bytes4",
                      "name": "assetClass",
                      "type": "bytes4"
                    },
                    {
                      "internalType": "bytes",
                      "name": "data",
                      "type": "bytes"
                    }
                  ],
                  "internalType": "struct LibAsset.AssetType",
                  "name": "assetType",
                  "type": "tuple"
                },
                {
                  "internalType": "uint256",
                  "name": "value",
                  "type": "uint256"
                }
              ],
              "internalType": "struct LibAsset.Asset",
              "name": "takeAsset",
              "type": "tuple"
            },
            {
              "internalType": "uint256",
              "name": "salt",
              "type": "uint256"
            },
            {
              "internalType": "uint256",
              "name": "start",
              "type": "uint256"
            },
            {
              "internalType": "uint256",
              "name": "end",
              "type": "uint256"
            },
            {
              "internalType": "bytes4",
              "name": "dataType",
              "type": "bytes4"
            },
            {
              "internalType": "bytes",
              "name": "data",
              "type": "bytes"
            }
          ],
          "internalType": "struct LibOrder.Order",
          "name": "orderRight",
          "type": "tuple"
        },
        {
          "internalType": "bytes",
          "name": "signatureRight",
          "type": "bytes"
        }
      ],
      "name": "matchOrders",
      "outputs": [],
      "stateMutability": "payable",
      "type": "function"
    },
    {
      "inputs": [],
      "name": "owner",
      "outputs": [
        {
          "internalType": "address",
          "name": "",
          "type": "address"
        }
      ],
      "stateMutability": "view",
      "type": "function"
    },
    {
      "inputs": [],
      "name": "renounceOwnership",
      "outputs": [],
      "stateMutability": "nonpayable",
      "type": "function"
    },
    {
      "inputs": [],
      "name": "royaltiesRegistry",
      "outputs": [
        {
          "internalType": "contract IRoyaltiesProvider",
          "name": "",
          "type": "address"
        }
      ],
      "stateMutability": "view",
      "type": "function"
    },
    {
      "inputs": [
        {
          "internalType": "bytes4",
          "name": "assetType",
          "type": "bytes4"
        },
        {
          "internalType": "address",
          "name": "matcher",
          "type": "address"
        }
      ],
      "name": "setAssetMatcher",
      "outputs": [],
      "stateMutability": "nonpayable",
      "type": "function"
    },
    {
      "inputs": [
        {
          "internalType": "contract IRoyaltiesProvider",
          "name": "newRoyaltiesRegistry",
          "type": "address"
        }
      ],
      "name": "setRoyaltiesRegistry",
      "outputs": [],
      "stateMutability": "nonpayable",
      "type": "function"
    },
    {
      "inputs": [
        {
          "internalType": "bytes4",
          "name": "assetType",
          "type": "bytes4"
        },
        {
          "internalType": "address",
          "name": "proxy",
          "type": "address"
        }
      ],
      "name": "setTransferProxy",
      "outputs": [],
      "stateMutability": "nonpayable",
      "type": "function"
    },
    {
      "inputs": [
        {
          "internalType": "address",
          "name": "newOwner",
          "type": "address"
        }
      ],
      "name": "transferOwnership",
      "outputs": [],
      "stateMutability": "nonpayable",
      "type": "function"
    },
    {
      "inputs": [
        {
          "internalType": "address",
          "name": "_transferProxy",
          "type": "address"
        },
        {
          "internalType": "address",
          "name": "_erc20TransferProxy",
          "type": "address"
        },
        {
          "internalType": "uint256",
          "name": "newProtocolFee",
          "type": "uint256"
        },
        {
          "internalType": "address",
          "name": "newDefaultFeeReceiver",
          "type": "address"
        },
        {
          "internalType": "contract IRoyaltiesProvider",
          "name": "newRoyaltiesProvider",
          "type": "address"
        }
      ],
      "name": "__Exchange_init",
      "outputs": [],
      "stateMutability": "nonpayable",
      "type": "function"
    }
  ],
  "bytecode": "0x608060405234801561001057600080fd5b50615c3180620000216000396000f3fe6080604052600436106100e85760003560e01c80636d8f06941161008a578063b39deb4611610059578063b39deb4614610237578063e2864fe314610257578063e99a3f8014610277578063f2fde38b1461028a576100e8565b80636d8f0694146101cb578063715018a6146101ed5780637ed4bc4e146102025780638da5cb5b14610222576100e8565b80632d0335ab116100c65780632d0335ab1461015857806330c642f1146101785780633be899221461019857806367d49a3b146101b8576100e8565b80630c53c51c146100ed5780630d5f7d351461011657806320158c441461012b575b600080fd5b6101006100fb366004614fc0565b6102aa565b60405161010d9190615579565b60405180910390f35b6101296101243660046150e4565b610625565b005b34801561013757600080fd5b5061014b610146366004615078565b61094a565b60405161010d9190615555565b34801561016457600080fd5b5061014b610173366004614d04565b61095d565b34801561018457600080fd5b506101296101933660046150ac565b610979565b3480156101a457600080fd5b506101296101b3366004614d04565b610a49565b6101296101c63660046150e4565b610ace565b3480156101d757600080fd5b506101e0610db1565b60405161010d91906154cc565b3480156101f957600080fd5b50610129610dc1565b34801561020e57600080fd5b5061012961021d366004614f59565b610e6d565b34801561022e57600080fd5b506101e0610f88565b34801561024357600080fd5b506101296102523660046150ac565b610f98565b34801561026357600080fd5b5061012961027236600461539f565b61105c565b6101296102853660046153d1565b61111d565b34801561029657600080fd5b506101296102a5366004614d04565b611133565b606060006102b786611236565b90506000356001600160e01b0319908116908216141561031e576040805162461bcd60e51b815260206004820152601760248201527f57726f6e672066756e6374696f6e5369676e6174757265000000000000000000604482015290519081900360640190fd5b604080516060810182526001600160a01b038916600081815261019360209081529084902054835282015290810187905261035c8882888888611256565b6103975760405162461bcd60e51b8152600401808060200182810382526021815260200180615bdb6021913960400191505060405180910390fd5b6001600160a01b038816600090815261019360205260409020546103bc906001611340565b61019360008a6001600160a01b03166001600160a01b0316815260200190815260200160002081905550600080306001600160a01b0316898b6040516020018083805190602001908083835b602083106104275780518252601f199092019160209182019101610408565b6001836020036101000a038019825116818451168082178552505050505050905001826001600160a01b031660601b8152601401925050506040516020818303038152906040526040518082805190602001908083835b6020831061049d5780518252601f19909201916020918201910161047e565b6001836020036101000a0380198251168184511680821785525050505050509050019150506000604051808303816000865af19150503d80600081146104ff576040519150601f19603f3d011682016040523d82523d6000602084013e610504565b606091505b50915091508161055b576040805162461bcd60e51b815260206004820152601c60248201527f46756e6374696f6e2063616c6c206e6f74207375636365737366756c00000000604482015290519081900360640190fd5b7f5845892132946850460bff5a0083f71031bc5bf9aadcd40f1de79423eac9b10b8a338b60405180846001600160a01b03168152602001836001600160a01b0316815260200180602001828103825283818151815260200191508051906020019080838360005b838110156105da5781810151838201526020016105c2565b50505050905090810190601f1680156106075780820380516001836020036101000a031916815260200191505b5094505050505060405180910390a193505050505b95945050505050565b600061063f61063a60c0840160a08501614d04565b6113a3565b6040805161012081019091529091506000908061065f6020860186614d04565b6001600160a01b03168152602001604051806040016040528060405180604001604052808860400160208101906106969190615090565b6001600160e01b03191681526020016106b260608a018a615975565b8080601f0160208091040260200160405190810160405280939291908181526020018383808284376000920182905250939094525050918352506020888101359281019290925291835282810191909152604080518082018252868152608080890135938201939093529083015260c080870135606084015260e08701359183019190915261010086013560a08301520161075561014086016101208701615090565b6001600160e01b0319168152602001610772610140860186615975565b8080601f01602080910402602001604051908101604052809392919081815260200183838082843760009201829052509390945250506040805161012081018252828152815180830183528781526101808901356020828101919091528201528082018390528151608081018352949550919391925060608084019291829182820191829161080691908c01908c01615090565b6001600160e01b031916815260200161082260608b018b615975565b8080601f0160208091040260200160405190810160405280939291908181526020018383808284376000920182905250939094525050918352506101a0890135602092830152918352820181905260408201819052606082015260800161089961089461014088016101208901615090565b611406565b6001600160e01b03191681526020016108b66101c0870187615975565b8080601f0160208091040260200160405190810160405280939291908181526020018383808284376000920191909152505050915250905061093a82610900610160870187615975565b8080601f01602080910402602001604051908101604052809392919081815260200183838082843760009201919091525061148c92505050565b61094482826114a3565b50505050565b61012f6020526000908152604090205481565b6001600160a01b03166000908152610193602052604090205490565b610981611701565b6001600160a01b0316610992610f88565b6001600160a01b0316146109db576040805162461bcd60e51b81526020600482018190526024820152600080516020615bbb833981519152604482015290519081900360640190fd5b6001600160e01b031982166000818152609760205260409081902080546001600160a01b0319166001600160a01b038516179055517f4b5aced933c0c9a88aeac3f0b3b72c5aaf75df8ebaf53225773248c4c315359390610a3d9084906154cc565b60405180910390a25050565b610a51611701565b6001600160a01b0316610a62610f88565b6001600160a01b031614610aab576040805162461bcd60e51b81526020600482018190526024820152600080516020615bbb833981519152604482015290519081900360640190fd5b61016280546001600160a01b0319166001600160a01b0392909216919091179055565b6000610ae361063a60c0840160a08501614d04565b60408051610120810190915290915060009080610b036020860186614d04565b6001600160a01b0316815260200160405180604001604052808581526020018660800135815250815260200160006001600160a01b0316815260200160405180604001604052806040518060400160405280886040016020810190610b689190615090565b6001600160e01b0319168152602001610b8460608a018a615975565b8080601f016020809104026020016040519081016040528093929190818152602001838380828437600092019190915250505091525081526020878101359181019190915290825260c08601359082015260e085013560408201526101008501356060820152608001610bff61014086016101208701615090565b6001600160e01b0319168152602001610c1c610140860186615975565b8080601f01602080910402602001604051908101604052809392919081815260200183838082843760009201829052509390945250506040805161012081018252828152815160808101835294955091939192506020830191908190818101908190610c8e9060608c01908c01615090565b6001600160e01b0319168152602001610caa60608b018b615975565b8080601f0160208091040260200160405190810160405280939291908181526020018383808284376000920182905250939094525050918352506101a08901356020928301529183528281018290526040805180820182528881526101808a013592810192909252830152606082018190526080820181905260a082015260c001610d4061089461014088016101208901615090565b6001600160e01b0319168152602001610d5d6101c0870187615975565b8080601f01602080910402602001604051908101604052809392919081815260200183838082843760009201919091525050509152509050610da782610900610160870187615975565b61094481836114a3565b610162546001600160a01b031681565b610dc9611701565b6001600160a01b0316610dda610f88565b6001600160a01b031614610e23576040805162461bcd60e51b81526020600482018190526024820152600080516020615bbb833981519152604482015290519081900360640190fd5b6033546040516000916001600160a01b0316907f8be0079c531659141344cd1fd0a4f28419497f9722a3daafe3b4186f6b6457e0908390a3603380546001600160a01b0319169055565b600054610100900460ff1680610e865750610e86611710565b80610e94575060005460ff16155b610ecf5760405162461bcd60e51b815260040180806020018281038252602e815260200180615b4a602e913960400191505060405180910390fd5b600054610100900460ff16158015610efa576000805460ff1961ff0019909116610100171660011790555b610f02611721565b610f0a6117c3565b610f126118bc565b610f596040518060400160405280600c81526020016b45786368616e67654d65746160a01b815250604051806040016040528060018152602001603160f81b81525061198c565b610f638686611a1c565b610f6e848484611ac6565b8015610f80576000805461ff00191690555b505050505050565b6033546001600160a01b03165b90565b610fa0611701565b6001600160a01b0316610fb1610f88565b6001600160a01b031614610ffa576040805162461bcd60e51b81526020600482018190526024820152600080516020615bbb833981519152604482015290519081900360640190fd5b6001600160e01b031982166000818152606560205260409081902080546001600160a01b0319166001600160a01b038516179055517fd2bf91075f105d0fd80328da28e20ebdad1c1261839711183bc29a44cbe6c72f90610a3d9084906154cc565b80516001600160a01b031661106f611701565b6001600160a01b03161461109e5760405162461bcd60e51b8152600401611095906158e5565b60405180910390fd5b60808101516110bf5760405162461bcd60e51b815260040161109590615667565b60006110ca82611ba2565b600081815261012f6020526040908190206000199055519091507fe8d9861dbc9c663ed3accd261bbe2fe01e0d3d9e5f51fa38523b265c7757a93a90611111908390615555565b60405180910390a15050565b61112984848484611d2a565b61094484836114a3565b61113b611701565b6001600160a01b031661114c610f88565b6001600160a01b031614611195576040805162461bcd60e51b81526020600482018190526024820152600080516020615bbb833981519152604482015290519081900360640190fd5b6001600160a01b0381166111da5760405162461bcd60e51b8152600401808060200182810382526026815260200180615ab56026913960400191505060405180910390fd5b6033546040516001600160a01b038084169216907f8be0079c531659141344cd1fd0a4f28419497f9722a3daafe3b4186f6b6457e090600090a3603380546001600160a01b0319166001600160a01b0392909216919091179055565b600081516000141561124a57506000611251565b5060208101515b919050565b600080600161126c61126788611df6565b611e79565b84878760405160008152602001604052604051808581526020018460ff1681526020018381526020018281526020019450505050506020604051602081039080840390855afa1580156112c3573d6000803e3d6000fd5b5050604051601f1901519150506001600160a01b03811661131f576040805162461bcd60e51b8152602060048201526011602482015270496e76616c6964207369676e617475726560781b604482015290519081900360640190fd5b866001600160a01b0316816001600160a01b03161491505095945050505050565b60008282018381101561139a576040805162461bcd60e51b815260206004820152601b60248201527f536166654d6174683a206164646974696f6e206f766572666c6f770000000000604482015290519081900360640190fd5b90505b92915050565b6113ab61486e565b6113b361486e565b6001600160a01b0383166113d0576355575f5d60e11b815261139d565b6322ba176160e21b81526040516113eb9084906020016154cc565b60408051601f19818403018152919052602082015292915050565b60006001600160e01b03198216632fa3cfd360e01b141561144857507f1b18cdf6be079a715471a3705c2d89e1d730066ce14915cb307cc3e4a90c92d4611251565b6001600160e01b03198216630d8c66fb60e11b141561148857507f2fa3cfd36fc2a11048e46a7dac1916c392731880ba073f2b7f10566b2fd6133e611251565b5090565b61149582611ec5565b61149f8282611f8f565b5050565b6000806114b0848461224b565b9150915060008060006114c387876122e4565b9250925092506000806116286040518060a0016040528060405180604001604052808b8152602001876000015181525081526020018760000151815260200187602001518152602001609760008b600001516001600160e01b0319166001600160e01b031916815260200190815260200160002060009054906101000a90046001600160a01b03166001600160a01b031681526020018b600001516001600160a01b03168152506040518060a0016040528060405180604001604052808b8152602001886020015181525081526020018760000151815260200187602001518152602001609760008b600001516001600160e01b0319166001600160e01b031916815260200190815260200160002060009054906101000a90046001600160a01b03166001600160a01b031681526020018b600001516001600160a01b03168152506116238a600001518a600001518e60e001518e60e001518c8c612393565b6123e3565b885191935091506001600160e01b0319166355575f5d60e11b14156116a75785516001600160e01b0319166355575f5d60e11b141561166657600080fd5b813410156116865760405162461bcd60e51b8152600401611095906158bd565b813411156116a2576116a261169b34846124e8565b3390612545565b6116f6565b85516001600160e01b0319166355575f5d60e11b14156116f657803410156116e15760405162461bcd60e51b8152600401611095906158bd565b803411156116f6576116f661169b34836124e8565b505050505050505050565b600061170b6125e2565b905090565b600061171b3061263e565b15905090565b600054610100900460ff168061173a575061173a611710565b80611748575060005460ff16155b6117835760405162461bcd60e51b815260040180806020018281038252602e815260200180615b4a602e913960400191505060405180910390fd5b600054610100900460ff161580156117ae576000805460ff1961ff0019909116610100171660011790555b80156117c0576000805461ff00191690555b50565b600054610100900460ff16806117dc57506117dc611710565b806117ea575060005460ff16155b6118255760405162461bcd60e51b815260040180806020018281038252602e815260200180615b4a602e913960400191505060405180910390fd5b600054610100900460ff16158015611850576000805460ff1961ff0019909116610100171660011790555b600061185a611701565b603380546001600160a01b0319166001600160a01b038316908117909155604051919250906000907f8be0079c531659141344cd1fd0a4f28419497f9722a3daafe3b4186f6b6457e0908290a35080156117c0576000805461ff001916905550565b600054610100900460ff16806118d557506118d5611710565b806118e3575060005460ff16155b61191e5760405162461bcd60e51b815260040180806020018281038252602e815260200180615b4a602e913960400191505060405180910390fd5b600054610100900460ff16158015611949576000805460ff1961ff0019909116610100171660011790555b6117ae6040518060400160405280600881526020016745786368616e676560c01b815250604051806040016040528060018152602001601960f91b815250612644565b7f36c25de3e541d5d970f66e4210d728721220fff5c077cc6cd008b3a0c62adab782805190602001208280519060200120306119c6612704565b60405160200180868152602001858152602001848152602001836001600160a01b031681526020018281526020019550505050505060405160208183030381529060405280519060200120610194819055505050565b60976020527f4532fa16f071d6234e30e1a1e69b9806f04095edf37a1ca7a25c8d6af7861cc080546001600160a01b039283166001600160a01b0319918216179091557f30a684095c937b5aa064dcf94f9903a7d808e3efb22d8389dbd43080ad4ed3d5805493909216928116831790915563025ceed960e61b6000527f4b5822151ea34b7c8d9e37c3e466bcecb631efe6a9f26a4a4054110a93dd316f80549091169091179055565b600054610100900460ff1680611adf5750611adf611710565b80611aed575060005460ff16155b611b285760405162461bcd60e51b815260040180806020018281038252602e815260200180615b4a602e913960400191505060405180910390fd5b600054610100900460ff16158015611b53576000805460ff1961ff0019909116610100171660011790555b61016184905561016380546001600160a01b038086166001600160a01b0319928316179092556101628054928516929091169190911790558015610944576000805461ff001916905550505050565b60e08101516000906001600160e01b031916632611a13360e11b1480611bd6575060e08201516001600160e01b0319908116145b15611c4b578151602083015151611bec9061270e565b606084015151611bfb9061270e565b846080015160405160200180856001600160a01b03168152602001848152602001838152602001828152602001945050505050604051602081830303815290604052805190602001209050611251565b8151602083015151611c5c9061270e565b606084015151611c6b9061270e565b846080015185610100015160405160200180866001600160a01b0316815260200185815260200184815260200183815260200180602001828103825283818151815260200191508051906020019080838360005b83811015611cd7578181015183820152602001611cbf565b50505050905090810190601f168015611d045780820380516001836020036101000a031916815260200191505b509650505050505050604051602081830303815290604052805190602001209050611251565b611d34848461148c565b611d3e828261148c565b60408401516001600160a01b031615611d9a5781516001600160a01b031615611d9a5783604001516001600160a01b031682600001516001600160a01b031614611d9a5760405162461bcd60e51b81526004016110959061587a565b60408201516001600160a01b0316156109445783516001600160a01b0316156109445783600001516001600160a01b031682604001516001600160a01b0316146109445760405162461bcd60e51b81526004016110959061574f565b6000604051806080016040528060438152602001615a7260439139805190602001208260000151836020015184604001518051906020012060405160200180858152602001848152602001836001600160a01b03168152602001828152602001945050505050604051602081830303815290604052805190602001209050919050565b6000611e83612778565b82604051602001808061190160f01b81525060020183815260200182815260200192505050604051602081830303815290604052805190602001209050919050565b60a08101511580611ed95750428160a00151105b611f2a576040805162461bcd60e51b815260206004820152601d60248201527f4f726465722073746172742076616c69646174696f6e206661696c6564000000604482015290519081900360640190fd5b60c08101511580611f3e5750428160c00151115b6117c0576040805162461bcd60e51b815260206004820152601b60248201527f4f7264657220656e642076616c69646174696f6e206661696c65640000000000604482015290519081900360640190fd5b60808201516120145781516001600160a01b03161561200f5781516001600160a01b0316611fbb611701565b6001600160a01b03161461200f576040805162461bcd60e51b815260206004820152601660248201527536b0b5b2b91034b9903737ba103a3c1039b2b73232b960511b604482015290519081900360640190fd5b61149f565b81516001600160a01b0316612027611701565b6001600160a01b03161461149f5760006120408361277f565b90506000825160411415612064576120618361205b8461286f565b90612879565b90505b83516001600160a01b0382811691161461220457835161208c906001600160a01b031661263e565b156121c8578351630b135d3f60e11b906001600160a01b0316631626ba7e6120b38561286f565b866040518363ffffffff1660e01b81526004018083815260200180602001828103825283818151815260200191508051906020019080838360005b838110156121065781810151838201526020016120ee565b50505050905090810190601f1680156121335780820380516001836020036101000a031916815260200191505b50935050505060206040518083038186803b15801561215157600080fd5b505afa158015612165573d6000803e3d6000fd5b505050506040513d602081101561217b57600080fd5b50516001600160e01b031916146121c35760405162461bcd60e51b815260040180806020018281038252602b815260200180615b1f602b913960400191505060405180910390fd5b6121ff565b60405162461bcd60e51b8152600401808060200182810382526022815260200180615afd6022913960400191505060405180910390fd5b610944565b83516001600160a01b0316610944576040805162461bcd60e51b815260206004820152600860248201526737379036b0b5b2b960c11b604482015290519081900360640190fd5b61225361486e565b61225b61486e565b60208401515160608401515161227191906128f9565b80519092506001600160e01b03191661229c5760405162461bcd60e51b81526004016110959061584e565b6060840151516020840151516122b291906128f9565b80519091506001600160e01b0319166122dd5760405162461bcd60e51b81526004016110959061584e565b9250929050565b6122ec614886565b6122f4614886565b6122fc6148b0565b600061230786611ba2565b9050600061231486611ba2565b90506000612320611701565b88519091506001600160a01b031661233f576001600160a01b03811688525b86516001600160a01b031661235b576001600160a01b03811687525b61236488612939565b955061236f87612939565b9450612387888885858a604001518a60400151612b22565b93505050509250925092565b61239b6148ca565b6123a58787612c86565b816020019060028111156123b557fe5b908160028111156123c257fe5b815250506123d7858585858560200151612d57565b81529695505050505050565b825160209081015183519091015160018360200151600281111561240357fe5b14156124485761241885858560000151612f0b565b915061244384600001516000015185600001516020015186608001518860200151886060015161315a565b6124e0565b60028360200151600281111561245a57fe5b141561249a5761246f84868560000151612f0b565b905061244385600001516000015186600001516020015187608001518760200151896060015161315a565b8451805160209182015160808801519287015160608901516124bd94919061315a565b8351805160209182015160808701519288015160608801516124e094919061315a565b935093915050565b60008282111561253f576040805162461bcd60e51b815260206004820152601e60248201527f536166654d6174683a207375627472616374696f6e206f766572666c6f770000604482015290519081900360640190fd5b50900390565b6040516000906001600160a01b0384169083908381818185875af1925050503d8060008114612590576040519150601f19603f3d011682016040523d82523d6000602084013e612595565b606091505b50509050806125dd576040805162461bcd60e51b815260206004820152600f60248201526e1d1c985b9cd9995c8819985a5b1959608a1b604482015290519081900360640190fd5b505050565b60003330141561263957600080368080601f0160208091040260200160405190810160405280939291908181526020018383808284376000920191909152505050503601516001600160a01b03169150610f959050565b503390565b3b151590565b600054610100900460ff168061265d575061265d611710565b8061266b575060005460ff16155b6126a65760405162461bcd60e51b815260040180806020018281038252602e815260200180615b4a602e913960400191505060405180910390fd5b600054610100900460ff161580156126d1576000805460ff1961ff0019909116610100171660011790555b825160208085019190912083519184019190912060c99190915560ca5580156125dd576000805461ff0019169055505050565b600061170b6132de565b8051602091820151805190830120604080517f452a0dc408cb0d27ffc3b3caff933a5208040a53a9dbecd8d89cad2c0d40e00c818601526001600160e01b031990931683820152606080840192909252805180840390920182526080909201909152805191012090565b6101945490565b60007f477ed43b8020849b755512278536c3766a3b4ab547519949a75f483372493f8d82600001516127b484602001516132e2565b84604001516127c686606001516132e2565b86608001518760a001518860c001518960e001518a610100015180519060200120604051602001808b81526020018a6001600160a01b03168152602001898152602001886001600160a01b03168152602001878152602001868152602001858152602001848152602001836001600160e01b03191681526020018281526020019a5050505050505050505050604051602081830303815290604052805190602001209050919050565b6000611e83613352565b600081516041146128d1576040805162461bcd60e51b815260206004820152601f60248201527f45434453413a20696e76616c6964207369676e6174757265206c656e67746800604482015290519081900360640190fd5b60208201516040830151606084015160001a6128ef8682858561338d565b9695505050505050565b61290161486e565b600061290d84846135da565b80519091506001600160e01b0319166129325761292a83856135da565b91505061139d565b905061139d565b612941614886565b60e08201516001600160e01b031916632611a13360e11b141561298257600061296e8361010001516137f6565b805183526020908101519083015250612b09565b60e08201516001600160e01b0319166323d235ef60e01b14156129cf5760006129af836101000151613812565b805183526020808201519084015260409081015115159083015250612b09565b60e08201516001600160e01b031916632fa3cfd360e01b1415612a3c5760006129fc83610100015161382e565b9050612a0b816000015161384a565b825260208101516040820151612a2191906138ad565b60208301526001604083015260609081015190820152612b09565b60e08201516001600160e01b031916630d8c66fb60e11b1415612aa0576000612a69836101000151613a10565b9050612a78816000015161384a565b825260208101516040820151612a8e91906138ad565b60208301525060006040820152612b09565b60e08201516001600160e01b03199081161415612abc57612b09565b6040805162461bcd60e51b815260206004820152601760248201527f556e6b6e6f776e204f7264657220646174612074797065000000000000000000604482015290519081900360640190fd5b805151611251578151612b1b90613a2c565b8152919050565b612b2a6148b0565b6000612b3a886080015187613ac7565b90506000612b4c886080015187613ac7565b90506000612b5e8a8a85858a8a613aec565b905060008160200151118015612b745750805115155b612b905760405162461bcd60e51b8152600401611095906157bf565b60808a015115612be3578515612bc2578051612bad908490611340565b600089815261012f6020526040902055612be3565b6020810151612bd2908490611340565b600089815261012f60205260409020555b608089015115612c36578415612c18576020810151612c03908390611340565b600088815261012f6020526040902055612c36565b8051612c25908390611340565b600088815261012f60205260409020555b602081015181516040517f956cd63ee4cdcd81fda5f0ec7c6c36dceda99e1b412f4a650a5d26055dc3c45092612c71928c928c92919061555e565b60405180910390a19998505050505050505050565b60006001600160e01b031983166355575f5d60e11b1415612ca95750600161139d565b6001600160e01b031982166355575f5d60e11b1415612cca5750600261139d565b6001600160e01b031983166322ba176160e21b1415612ceb5750600161139d565b6001600160e01b031982166322ba176160e21b1415612d0c5750600261139d565b6001600160e01b0319831663025ceed960e61b1415612d2d5750600161139d565b6001600160e01b0319821663025ceed960e61b1415612d4e5750600261139d565b50600092915050565b60006001600160e01b03198616632fa3cfd360e01b14801590612d8b57506001600160e01b03198516632fa3cfd360e01b14155b8015612da857506001600160e01b03198616630d8c66fb60e11b14155b8015612dc557506001600160e01b03198516630d8c66fb60e11b14155b15612dd25750600061061c565b6000612de685602001518560200151613b72565b905060006001846002811115612df857fe5b1415612e55575060608401516001600160e01b03198816630d8c66fb60e11b148015612e3457506001600160e01b03198716632fa3cfd360e01b145b612e505760405162461bcd60e51b815260040161109590615695565b612ec6565b6002846002811115612e6357fe5b1415612ebb575060608501516001600160e01b03198716630d8c66fb60e11b148015612e9f57506001600160e01b03198816632fa3cfd360e01b145b612e505760405162461bcd60e51b815260040161109590615727565b60009250505061061c565b600081118015612ed65750818110155b8015612ee457506103e88111155b612f005760405162461bcd60e51b815260040161109590615701565b979650505050505050565b6000612f24846000015160200151856040015184613bf1565b84518051855151602080880151930151608089015160608a01519596508695612f51959287929091613c5f565b90508460400151516001148015612f6d57508360400151516001145b8015612fc257508460400151600081518110612f8557fe5b6020026020010151600001516001600160a01b03168460400151600081518110612fab57fe5b6020026020010151600001516001600160a01b0316145b156130d857604080516001808252818301909252600091816020015b612fe66148ca565b815260200190600190039081612fde579050509050846040015160008151811061300c57fe5b6020026020010151600001518160008151811061302557fe5b60209081029190910101516001600160a01b0390911690526040860151805160009061304d57fe5b602002602001015160200151856040015160008151811061306a57fe5b602002602001015160200151018160008151811061308457fe5b6020026020010151602001906001600160601b031690816001600160601b0316815250506130ce86600001516000015183886000015160200151848a608001518b60600151613d62565b5091506131319050565b61310285600001516000015182876000015160200151886040015189608001518a60600151613d62565b50855180516020909101516040870151608089015160608a015194955061312d948693929190613d62565b5090505b6131528560000151600001518287608001518760200151896060015161315a565b509392505050565b600082511161317b5760405162461bcd60e51b8152600401611095906156bd565b600084815b600185510381101561324a5760006131c186838151811061319d57fe5b6020026020010151602001516001600160601b031689613e1790919063ffffffff16565b90506131f68683815181106131d257fe5b6020026020010151602001516001600160601b03168561134090919063ffffffff16565b935080156132415761320883826124e8565b925061324160405180604001604052808b8152602001838152508888858151811061322f57fe5b60200260200101516000015188613e2f565b50600101613180565b5060008460018651038151811061325d57fe5b6020026020010151905061328781602001516001600160601b03168461134090919063ffffffff16565b925082612710146132aa5760405162461bcd60e51b815260040161109590615817565b81156132d4576132d460405180604001604052808a81526020018481525087836000015187613e2f565b5050505050505050565b4690565b60007fdb6f72e915676cfc289da13bc4ece054fd17b1df6d77ffc4a60510718c236b08613312836000015161270e565b8360200151604051602001808481526020018381526020018281526020019350505050604051602081830303815290604052805190602001209050919050565b600061170b7f8b73c3c69bb8fe3d512ecc4cf759cc79239f7b179b0ffacaa9a75d522b39400f613380614232565b613388614238565b61423e565b60007f7fffffffffffffffffffffffffffffff5d576e7357a4501ddfe92f46681b20a08211156133ee5760405162461bcd60e51b8152600401808060200182810382526022815260200180615adb6022913960400191505060405180910390fd5b6000601e8560ff1611156134c8576004850360ff16601b148061341757506004850360ff16601c145b6134525760405162461bcd60e51b8152600401808060200182810382526022815260200180615b786022913960400191505060405180910390fd5b600161345d876142a0565b60048703868660405160008152602001604052604051808581526020018460ff1681526020018381526020018281526020019450505050506020604051602081039080840390855afa1580156134b7573d6000803e3d6000fd5b50505060206040510351905061357f565b8460ff16601b14806134dd57508460ff16601c145b6135185760405162461bcd60e51b8152600401808060200182810382526022815260200180615b786022913960400191505060405180910390fd5b60018686868660405160008152602001604052604051808581526020018460ff1681526020018381526020018281526020019450505050506020604051602081039080840390855afa158015613572573d6000803e3d6000fd5b5050506020604051035190505b6001600160a01b03811661061c576040805162461bcd60e51b815260206004820152601860248201527f45434453413a20696e76616c6964207369676e61747572650000000000000000604482015290519081900360640190fd5b6135e261486e565b825182516001600160e01b031982166355575f5d60e11b141561364d576001600160e01b031981166355575f5d60e11b141561362257849250505061139d565b505060408051808201825260008082528251602081810190945290815291810191909152905061139d565b6001600160e01b031982166322ba176160e21b1415613692576001600160e01b031981166322ba176160e21b14156136225761368985856142f1565b9250505061139d565b6001600160e01b031982166339d690a360e11b14156136ce576001600160e01b031981166339d690a360e11b14156136225761368985856142f1565b6001600160e01b0319821663025ceed960e61b141561370a576001600160e01b0319811663025ceed960e61b14156136225761368985856142f1565b6001600160e01b031982166000908152606560205260409020546001600160a01b031680156137bf576040516306d3f7cb60e41b81526001600160a01b03821690636d3f7cb090613761908990899060040161590a565b60006040518083038186803b15801561377957600080fd5b505afa15801561378d573d6000803e3d6000fd5b505050506040513d6000823e601f3d908101601f191682016040526137b59190810190615116565b935050505061139d565b6001600160e01b031983811690831614156137de576137b586866142f1565b60405162461bcd60e51b8152600401611095906155f9565b6137fe6148e1565b8180602001905181019061139d91906151a1565b61381a6148fb565b8180602001905181019061139d919061522d565b61383661491e565b8180602001905181019061139d9190615337565b606080821561139d5760408051600180825281830190925290816020015b6138706148ca565b81526020019060019003908161386857905050905061388e8361434e565b8160008151811061389b57fe5b60200260200101819052509050919050565b6060806000841180156138c05750600083115b1561393b576040805160028082526060820190925290816020015b6138e36148ca565b8152602001906001900390816138db5790505090506139018461434e565b8160008151811061390e57fe5b60200260200101819052506139228361434e565b8160018151811061392f57fe5b60200260200101819052505b600084118015613949575082155b156139a25760408051600180825281830190925290816020015b61396b6148ca565b8152602001906001900390816139635790505090506139898461434e565b8160008151811061399657fe5b60200260200101819052505b831580156139b05750600083115b1561139a5760408051600180825281830190925290816020015b6139d26148ca565b8152602001906001900390816139ca5790505090506139f08361434e565b816000815181106139fd57fe5b6020026020010181905250905092915050565b613a18614950565b8180602001905181019061139d91906152d9565b60408051600180825281830190925260609160009190816020015b613a4f6148ca565b815260200190600190039081613a475790505090508281600081518110613a7257fe5b6020026020010151600001906001600160a01b031690816001600160a01b03168152505061271081600081518110613aa657fe5b6020908102919091018101516001600160601b039092169101529050919050565b600082613ad65750600061139d565b50600090815261012f6020526040902054919050565b613af46148b0565b600080613b02898887614376565b91509150600080613b148a8988614376565b9150915083811115613b4757613b3c84848c60200151602001518d60600151602001516143ef565b9450505050506128ef565b613b638b60200151602001518c60600151602001518484614474565b9b9a5050505050505050505050565b600080805b8451811015613bb257848181518110613b8c57fe5b6020026020010151602001516001600160601b0316820191508080600101915050613b77565b5060005b835181101561315257838181518110613bcb57fe5b6020026020010151602001516001600160601b0316820191508080600101915050613bb6565b60008115613c00575082613c58565b8360005b8451811015613c5457613c4a613c43868381518110613c1f57fe5b6020026020010151602001516001600160601b031688613e1790919063ffffffff16565b8390611340565b9150600101613c04565b5090505b9392505050565b600080613c6b886144fa565b905080516001148015613c7f575086516001145b8015613ccc575086600081518110613c9357fe5b6020026020010151600001516001600160a01b031681600081518110613cb557fe5b6020026020010151600001516001600160a01b0316145b15613d1d5761138881600081518110613ce157fe5b6020026020010151602001516001600160601b03161115613d145760405162461bcd60e51b815260040161109590615630565b85915050612f00565b600080613d2e8b8989868a8a613d62565b91509150611388811115613d545760405162461bcd60e51b815260040161109590615630565b509998505050505050505050565b846000805b8551811015613e0b57613da3868281518110613d7f57fe5b6020026020010151602001516001600160601b03168361134090919063ffffffff16565b91506000613dd28489898581518110613db857fe5b6020026020010151602001516001600160601b031661466f565b90945090508015613e0257613e0260405180604001604052808c8152602001838152508789858151811061322f57fe5b50600101613d67565b50965096945050505050565b600061139a612710613e298585614691565b906146ea565b8351516001600160e01b0319166339d690a360e11b1415613f7557600080856000015160200151806020019051810190613e699190614f2c565b915091508560200151600114613e915760405162461bcd60e51b815260040161109590615793565b6001600160a01b038516301415613f0957604051632142170760e11b81526001600160a01b038316906342842e0e90613ed2903090889086906004016154e0565b600060405180830381600087803b158015613eec57600080fd5b505af1158015613f00573d6000803e3d6000fd5b50505050613f6e565b604051637b84dc8360e11b81526001600160a01b0384169063f709b90690613f3b9085908990899087906004016155cf565b600060405180830381600087803b158015613f5557600080fd5b505af1158015613f69573d6000803e3d6000fd5b505050505b5050610944565b8351516001600160e01b0319166322ba176160e21b14156140d3576000846000015160200151806020019051810190613fae9190614d20565b90506001600160a01b03841630141561406557602085015160405163a9059cbb60e01b81526001600160a01b0383169163a9059cbb91613ff291879160040161553c565b602060405180830381600087803b15801561400c57600080fd5b505af1158015614020573d6000803e3d6000fd5b505050506040513d601f19601f82011682018060405250810190614044919061505e565b6140605760405162461bcd60e51b8152600401611095906157e8565b6140cd565b602085015160405163776062c360e01b81526001600160a01b0384169163776062c39161409a918591899189916004016155cf565b600060405180830381600087803b1580156140b457600080fd5b505af11580156140c8573d6000803e3d6000fd5b505050505b50610944565b8351516001600160e01b03191663025ceed960e61b14156141905760008085600001516020015180602001905181019061410d9190614f2c565b90925090506001600160a01b038516301415614158576020860151604051637921219560e11b81526001600160a01b0384169163f242432a91613ed291309189918791600401615504565b6020860151604051639c1c2ee960e01b81526001600160a01b03851691639c1c2ee991613f3b9186918a918a9188919060040161558c565b8351516001600160e01b0319166355575f5d60e11b14156141d4576001600160a01b03821630146121ff5760208401516121ff906001600160a01b03841690612545565b6040516354bc0cf160e01b81526001600160a01b038216906354bc0cf1906142049087908790879060040161592f565b600060405180830381600087803b15801561421e57600080fd5b505af11580156132d4573d6000803e3d6000fd5b60c95490565b60ca5490565b600083838361424b6132de565b3060405160200180868152602001858152602001848152602001838152602001826001600160a01b03168152602001955050505050506040516020818303038152906040528051906020012090509392505050565b604080517f19457468657265756d205369676e6564204d6573736167653a0a333200000000602080830191909152603c8083019490945282518083039094018452605c909101909152815191012090565b6142f961486e565b6020808401518051908201208382015180519201919091208082141561432357849250505061139d565b5050604080518082018252600080825282516020808201909452908152918101919091529392505050565b6143566148ca565b8115611251576001600160a01b038216815260a09190911c602082015290565b60008082156143b557602080860151015161439190856124e8565b91506143ae85606001516020015186602001516020015184614751565b90506124e0565b6060850151602001516143c890856124e8565b90506143e585602001516020015186606001516020015183614751565b9150935093915050565b6143f76148b0565b6000614404858585614751565b90508581111561445b576040805162461bcd60e51b815260206004820152601860248201527f66696c6c4c6566743a20756e61626c6520746f2066696c6c0000000000000000604482015290519081900360640190fd5b5050604080518082019091529384525050602082015290565b61447c6148b0565b6000614489838787614751565b9050838111156144e0576040805162461bcd60e51b815260206004820152601960248201527f66696c6c52696768743a20756e61626c6520746f2066696c6c00000000000000604482015290519081900360640190fd5b604080518082019091529283526020830152509392505050565b80516060906001600160e01b03191663025ceed960e61b148061452e575081516001600160e01b0319166339d690a360e11b145b156145e457600080836020015180602001905181019061454e9190614f2c565b61016254604051634e53ee3d60e11b81529294509092506001600160a01b031690639ca7dc7a90614585908590859060040161553c565b600060405180830381600087803b15801561459f57600080fd5b505af11580156145b3573d6000803e3d6000fd5b505050506040513d6000823e601f3d908101601f191682016040526145db919081019061502c565b92505050611251565b81516001600160e01b03191662737ea960e61b141561462557600082602001518060200190518101906146179190614d3c565b608001519250611251915050565b81516001600160e01b03191663d8f960c160e01b141561466757600082602001518060200190518101906146599190614e39565b606001519250611251915050565b506060919050565b600080614685856146808686613e17565b6147b7565b91509150935093915050565b6000826146a05750600061139d565b828202828482816146ad57fe5b041461139a5760405162461bcd60e51b8152600401808060200182810382526021815260200180615b9a6021913960400191505060405180910390fd5b6000808211614740576040805162461bcd60e51b815260206004820152601a60248201527f536166654d6174683a206469766973696f6e206279207a65726f000000000000604482015290519081900360640190fd5b81838161474957fe5b049392505050565b600061475e8484846147df565b156147a1576040805162461bcd60e51b815260206004820152600e60248201526d3937bab73234b7339032b93937b960911b604482015290519081900360640190fd5b6147af83613e298685614691565b949350505050565b600080828411156147d6576147cc84846124e8565b91508290506122dd565b50600093915050565b600082614826576040805162461bcd60e51b815260206004820152601060248201526f6469766973696f6e206279207a65726f60801b604482015290519081900360640190fd5b811580614831575083155b1561483e57506000613c58565b6000838061484857fe5b85840990506148578584614691565b614863826103e8614691565b101595945050505050565b60408051808201909152600081526060602082015290565b60405180608001604052806060815260200160608152602001600015158152602001600081525090565b604051806040016040528060008152602001600081525090565b604080518082019091526000808252602082015290565b604051806040016040528060608152602001606081525090565b604051806060016040528060608152602001606081526020016000151581525090565b6040518060a0016040528060008152602001600081526020016000815260200160008152602001600080191681525090565b6040518060800160405280600081526020016000815260200160008152602001600080191681525090565b803561125181615a46565b600082601f830112614996578081fd5b815160206149ab6149a6836159dc565b6159b9565b82815281810190858301855b858110156149e0576149ce898684518b0101614b0f565b845292840192908401906001016149b7565b5090979650505050505050565b600082601f8301126149fd578081fd5b81516020614a0d6149a6836159dc565b82815281810190858301604080860288018501891015614a2b578687fd5b865b86811015614a9a5781838b031215614a43578788fd5b81518281018181106001600160401b0382111715614a5d57fe5b83528351614a6a81615a46565b8152838701516001600160601b0381168114614a8457898afd5b8188015285529385019391810191600101614a2d565b509198975050505050505050565b8051801515811461125157600080fd5b803561125181615a5b565b600082601f830112614ad3578081fd5b8135614ae16149a6826159f9565b818152846020838601011115614af5578283fd5b816020850160208301379081016020019190915292915050565b600082601f830112614b1f578081fd5b8151614b2d6149a6826159f9565b818152846020838601011115614b41578283fd5b6147af826020830160208701615a1a565b60006101e08284031215614b64578081fd5b50919050565b60006040808385031215614b7c578182fd5b80518181016001600160401b038282108183111715614b9757fe5b818452829450853581811115614bac57600080fd5b8601808803851315614bbd57600080fd5b608084018381108382111715614bcf57fe5b909452833593614bde85615a5b565b93825260208401359381851115614bf457600080fd5b614c0088868301614ac3565b60608501525050815260209384013593019290925292915050565b6000610120808385031215614c2e578182fd5b614c37816159b9565b915050614c438261497b565b815260208201356001600160401b0380821115614c5f57600080fd5b614c6b85838601614b6a565b6020840152614c7c6040850161497b565b60408401526060840135915080821115614c9557600080fd5b614ca185838601614b6a565b60608401526080840135608084015260a084013560a084015260c084013560c0840152614cd060e08501614ab8565b60e084015261010091508184013581811115614ceb57600080fd5b614cf786828701614ac3565b8385015250505092915050565b600060208284031215614d15578081fd5b813561139a81615a46565b600060208284031215614d31578081fd5b815161139a81615a46565b60008060408385031215614d4e578081fd5b8251614d5981615a46565b60208401519092506001600160401b0380821115614d75578283fd5b9084019060c08287031215614d88578283fd5b614d9260c06159b9565b82518152602083015182811115614da7578485fd5b614db388828601614b0f565b60208301525060408301516040820152606083015182811115614dd4578485fd5b614de0888286016149ed565b606083015250608083015182811115614df7578485fd5b614e03888286016149ed565b60808301525060a083015182811115614e1a578485fd5b614e2688828601614986565b60a0830152508093505050509250929050565b60008060408385031215614e4b578182fd5b8251614e5681615a46565b60208401519092506001600160401b0380821115614e72578283fd5b9084019060a08287031215614e85578283fd5b614e8f60a06159b9565b82518152602083015182811115614ea4578485fd5b614eb088828601614b0f565b602083015250604083015182811115614ec7578485fd5b614ed3888286016149ed565b604083015250606083015182811115614eea578485fd5b614ef6888286016149ed565b606083015250608083015182811115614f0d578485fd5b614f1988828601614986565b6080830152508093505050509250929050565b60008060408385031215614f3e578182fd5b8251614f4981615a46565b6020939093015192949293505050565b600080600080600060a08688031215614f70578081fd5b8535614f7b81615a46565b94506020860135614f8b81615a46565b9350604086013592506060860135614fa281615a46565b91506080860135614fb281615a46565b809150509295509295909350565b600080600080600060a08688031215614fd7578283fd5b8535614fe281615a46565b945060208601356001600160401b03811115614ffc578384fd5b61500888828901614ac3565b9450506040860135925060608601359150608086013560ff81168114614fb2578182fd5b60006020828403121561503d578081fd5b81516001600160401b03811115615052578182fd5b6147af848285016149ed565b60006020828403121561506f578081fd5b61139a82614aa8565b600060208284031215615089578081fd5b5035919050565b6000602082840312156150a1578081fd5b813561139a81615a5b565b600080604083850312156150be578182fd5b82356150c981615a5b565b915060208301356150d981615a46565b809150509250929050565b6000602082840312156150f5578081fd5b81356001600160401b0381111561510a578182fd5b6147af84828501614b52565b600060208284031215615127578081fd5b81516001600160401b038082111561513d578283fd5b9083019060408286031215615150578283fd5b60405160408101818110838211171561516557fe5b604052825161517381615a5b565b8152602083015182811115615186578485fd5b61519287828601614b0f565b60208301525095945050505050565b6000602082840312156151b2578081fd5b81516001600160401b03808211156151c8578283fd5b90830190604082860312156151db578283fd5b6040516040810181811083821117156151f057fe5b604052825182811115615201578485fd5b61520d878286016149ed565b825250602083015182811115615221578485fd5b615192878286016149ed565b60006020828403121561523e578081fd5b81516001600160401b0380821115615254578283fd5b9083019060608286031215615267578283fd5b60405160608101818110838211171561527c57fe5b60405282518281111561528d578485fd5b615299878286016149ed565b8252506020830151828111156152ad578485fd5b6152b9878286016149ed565b6020830152506152cb60408401614aa8565b604082015295945050505050565b6000608082840312156152ea578081fd5b604051608081018181106001600160401b038211171561530657fe5b8060405250825181526020830151602082015260408301516040820152606083015160608201528091505092915050565b600060a08284031215615348578081fd5b60405160a081018181106001600160401b038211171561536457fe5b806040525082518152602083015160208201526040830151604082015260608301516060820152608083015160808201528091505092915050565b6000602082840312156153b0578081fd5b81356001600160401b038111156153c5578182fd5b6147af84828501614c1b565b600080600080608085870312156153e6578182fd5b84356001600160401b03808211156153fc578384fd5b61540888838901614c1b565b9550602087013591508082111561541d578384fd5b61542988838901614ac3565b9450604087013591508082111561543e578384fd5b61544a88838901614c1b565b9350606087013591508082111561545f578283fd5b5061546c87828801614ac3565b91505092959194509250565b60008151808452615490816020860160208601615a1a565b601f01601f19169290920160200192915050565b600063ffffffff60e01b82511683526020820151604060208501526147af6040850182615478565b6001600160a01b0391909116815260200190565b6001600160a01b039384168152919092166020820152604081019190915260600190565b6001600160a01b0394851681529290931660208301526040820152606081019190915260a06080820181905260009082015260c00190565b6001600160a01b03929092168252602082015260400190565b90815260200190565b93845260208401929092526040830152606082015260800190565b60006020825261139a6020830184615478565b6001600160a01b03958616815293851660208501529190931660408301526060820192909252608081019190915260c060a0820181905260009082015260e00190565b6001600160a01b039485168152928416602084015292166040820152606081019190915260800190565b60208082526017908201527f6e6f7420666f756e64204941737365744d617463686572000000000000000000604082015260600190565b6020808252601d908201527f526f79616c746965732061726520746f6f206869676820283e35302529000000604082015260600190565b6020808252601490820152730c081cd85b1d0818d85b89dd081899481d5cd95960621b604082015260600190565b6020808252600e908201526d77726f6e6720563320747970653160901b604082015260600190565b60208082526024908201527f7472616e736665725061796f7574733a206e6f7468696e6720746f207472616e60408201526339b332b960e11b606082015260800190565b6020808252600c908201526b77726f6e67206d617846656560a01b604082015260600190565b6020808252600e908201526d3bb937b733902b19903a3cb8329960911b604082015260600190565b60208082526024908201527f72696768744f726465722e74616b657220766572696669636174696f6e2066616040820152631a5b195960e21b606082015260800190565b60208082526012908201527132b9319b9918903b30b63ab29032b93937b960711b604082015260600190565b6020808252600f908201526e1b9bdd1a1a5b99c81d1bc8199a5b1b608a1b604082015260600190565b602080825260159082015274195c98cc8c081d1c985b9cd9995c8819985a5b1959605a1b604082015260600190565b6020808252601e908201527f53756d207061796f75747320427073206e6f7420657175616c20313030250000604082015260600190565b6020808252601290820152710c2e6e6cae8e640c8dedc4ee840dac2e8c6d60731b604082015260600190565b60208082526023908201527f6c6566744f726465722e74616b657220766572696669636174696f6e206661696040820152621b195960ea1b606082015260800190565b6020808252600e908201526d0dcdee840cadcdeeaced040cae8d60931b604082015260600190565b6020808252600b908201526a3737ba10309036b0b5b2b960a91b604082015260600190565b60006040825261591d60408301856154a4565b828103602084015261061c81856154a4565b60006060825284516040606084015261594b60a08401826154a4565b60209687015160808501526001600160a01b03958616968401969096525050911660409091015290565b6000808335601e1984360301811261598b578283fd5b8301803591506001600160401b038211156159a4578283fd5b6020019150368190038213156122dd57600080fd5b6040518181016001600160401b03811182821017156159d457fe5b604052919050565b60006001600160401b038211156159ef57fe5b5060209081020190565b60006001600160401b03821115615a0c57fe5b50601f01601f191660200190565b60005b83811015615a35578181015183820152602001615a1d565b838111156109445750506000910152565b6001600160a01b03811681146117c057600080fd5b6001600160e01b0319811681146117c057600080fdfe4d6574615472616e73616374696f6e2875696e74323536206e6f6e63652c616464726573732066726f6d2c62797465732066756e6374696f6e5369676e6174757265294f776e61626c653a206e6577206f776e657220697320746865207a65726f206164647265737345434453413a20696e76616c6964207369676e6174757265202773272076616c75656f72646572207369676e617475726520766572696669636174696f6e206572726f72636f6e7472616374206f72646572207369676e617475726520766572696669636174696f6e206572726f72496e697469616c697a61626c653a20636f6e747261637420697320616c726561647920696e697469616c697a656445434453413a20696e76616c6964207369676e6174757265202776272076616c7565536166654d6174683a206d756c7469706c69636174696f6e206f766572666c6f774f776e61626c653a2063616c6c6572206973206e6f7420746865206f776e65725369676e657220616e64207369676e617475726520646f206e6f74206d61746368a2646970667358221220914abbb41e1f18bd17a0ea247d011c44f6544ec93537ae947f9c87548a9ade1e64736f6c63430007060033",
  "immutableReferences": {},
  "source": "// SPDX-License-Identifier: MIT\n\npragma solidity 0.7.6;\npragma abicoder v2;\n\nimport \"./ExchangeCore.sol\";\nimport \"@gebrid/meta-tx/contracts/EIP712MetaTransaction.sol\";\nimport \"@gebrid/transfer-manager/contracts/GebridTransferManager.sol\";\n\ncontract ExchangeMeta is ExchangeCore, GebridTransferManager, EIP712MetaTransaction {\n    function __Exchange_init(\n        address _transferProxy,\n        address _erc20TransferProxy,\n        uint newProtocolFee,\n        address newDefaultFeeReceiver,\n        IRoyaltiesProvider newRoyaltiesProvider\n    ) external initializer {\n        __Context_init_unchained();\n        __Ownable_init_unchained();\n        __OrderValidator_init_unchained();\n        __MetaTransaction_init_unchained(\"ExchangeMeta\", \"1\");\n        __TransferExecutor_init_unchained(_transferProxy, _erc20TransferProxy);\n        __GebridTransferManager_init_unchained(newProtocolFee, newDefaultFeeReceiver, newRoyaltiesProvider);\n    }\n\n    function _msgSender() internal view virtual override(ContextUpgradeable, EIP712MetaTransaction) returns (address payable) {\n        return super._msgSender();\n    }\n\n}\n",
  "sourcePath": "@gebrid/exchange/contracts/ExchangeMeta.sol",
  "compiler": {
    "name": "solc",
    "version": "0.7.6+commit.7338295f.Emscripten.clang"
  },
  "schemaVersion": "3.4.4",
  "updatedAt": "2022-10-29T10:34:29.072Z",
  "devdoc": {
    "kind": "dev",
    "methods": {
      "directAcceptBid((address,uint256,bytes4,bytes,uint256,address,uint256,uint256,uint256,bytes4,bytes,bytes,uint256,uint256,bytes))": {
        "details": "function, generate sellOrder and buyOrder from parameters and call validateAndMatch() for accept bid transaction",
        "params": {
          "direct": "struct with parameters for accept bid operation"
        }
      },
      "directPurchase((address,uint256,bytes4,bytes,uint256,address,uint256,uint256,uint256,bytes4,bytes,bytes,uint256,uint256,bytes))": {
        "details": "function, generate sellOrder and buyOrder from parameters and call validateAndMatch() for purchase transaction"
      },
      "owner()": {
        "details": "Returns the address of the current owner."
      },
      "renounceOwnership()": {
        "details": "Leaves the contract without owner. It will not be possible to call `onlyOwner` functions anymore. Can only be called by the current owner. NOTE: Renouncing ownership will leave the contract without an owner, thereby removing any functionality that is only available to the owner."
      },
      "transferOwnership(address)": {
        "details": "Transfers ownership of the contract to a new account (`newOwner`). Can only be called by the current owner."
      }
    },
    "version": 1
  },
  "userdoc": {
    "kind": "user",
    "methods": {},
    "version": 1
  }
}