{
  "contractName": "TokenToAuction",
  "abi": [
    {
      "inputs": [
        {
          "internalType": "address",
          "name": "_collection",
          "type": "address"
        },
        {
          "internalType": "uint256",
          "name": "tokenId",
          "type": "uint256"
        }
      ],
      "name": "getAuctionByToken",
      "outputs": [
        {
          "internalType": "uint256",
          "name": "",
          "type": "uint256"
        }
      ],
      "stateMutability": "view",
      "type": "function"
    }
  ],
  "bytecode": "0x6080604052348015600f57600080fd5b5060c48061001e6000396000f3fe6080604052348015600f57600080fd5b506004361060285760003560e01c8063152b2c0a14602d575b600080fd5b605660048036036040811015604157600080fd5b506001600160a01b0381351690602001356068565b60408051918252519081900360200190f35b6001600160a01b039190911660009081526020818152604080832093835292905220549056fea26469706673582212205ad7ecc8922f4e92f83d3e10443311499cdcd7ab69311108b81294fabf46fedd64736f6c63430007060033",
  "immutableReferences": {},
  "source": "// SPDX-License-Identifier: MIT\npragma solidity 0.7.6;\n\n/// @dev contract to add tokenToAuctionId functionality to auctionHouse\ncontract TokenToAuction {\n    /// @dev mapping to store auction ids for token address + token id (only stores erc-721 tokens)\n    mapping(address => mapping(uint256 => uint256)) private tokenToAuctionId;\n\n    /// @dev returns auction id by token address and token id\n    function getAuctionByToken(address _collection, uint tokenId) external view returns(uint) {\n        return tokenToAuctionId[_collection][tokenId];\n    }\n\n    /// @dev sets auction id for token address and token id\n    function setAuctionForToken(address token, uint tokenId, uint auctionId) internal {\n        tokenToAuctionId[token][tokenId] = auctionId;\n    }\n\n    /// @dev deletes auctionId from tokenToAuctionId\n    function deleteAuctionForToken(address token, uint tokenId) internal {\n        delete tokenToAuctionId[token][tokenId];\n    }\n    \n    uint256[50] private ______gap;\n}",
  "sourcePath": "@gebrid/auction/contracts/wrapper/TokenToAuction.sol",
  "compiler": {
    "name": "solc",
    "version": "0.7.6+commit.7338295f.Emscripten.clang"
  },
  "schemaVersion": "3.4.4",
  "updatedAt": "2022-10-29T10:34:29.031Z",
  "devdoc": {
    "details": "contract to add tokenToAuctionId functionality to auctionHouse",
    "kind": "dev",
    "methods": {
      "getAuctionByToken(address,uint256)": {
        "details": "returns auction id by token address and token id"
      }
    },
    "stateVariables": {
      "tokenToAuctionId": {
        "details": "mapping to store auction ids for token address + token id (only stores erc-721 tokens)"
      }
    },
    "version": 1
  },
  "userdoc": {
    "kind": "user",
    "methods": {},
    "version": 1
  }
}