{
  "contractName": "ERC1155HolderUpgradeable",
  "abi": [
    {
      "inputs": [
        {
          "internalType": "bytes4",
          "name": "interfaceId",
          "type": "bytes4"
        }
      ],
      "name": "supportsInterface",
      "outputs": [
        {
          "internalType": "bool",
          "name": "",
          "type": "bool"
        }
      ],
      "stateMutability": "view",
      "type": "function"
    },
    {
      "inputs": [
        {
          "internalType": "address",
          "name": "",
          "type": "address"
        },
        {
          "internalType": "address",
          "name": "",
          "type": "address"
        },
        {
          "internalType": "uint256",
          "name": "",
          "type": "uint256"
        },
        {
          "internalType": "uint256",
          "name": "",
          "type": "uint256"
        },
        {
          "internalType": "bytes",
          "name": "",
          "type": "bytes"
        }
      ],
      "name": "onERC1155Received",
      "outputs": [
        {
          "internalType": "bytes4",
          "name": "",
          "type": "bytes4"
        }
      ],
      "stateMutability": "nonpayable",
      "type": "function"
    },
    {
      "inputs": [
        {
          "internalType": "address",
          "name": "",
          "type": "address"
        },
        {
          "internalType": "address",
          "name": "",
          "type": "address"
        },
        {
          "internalType": "uint256[]",
          "name": "",
          "type": "uint256[]"
        },
        {
          "internalType": "uint256[]",
          "name": "",
          "type": "uint256[]"
        },
        {
          "internalType": "bytes",
          "name": "",
          "type": "bytes"
        }
      ],
      "name": "onERC1155BatchReceived",
      "outputs": [
        {
          "internalType": "bytes4",
          "name": "",
          "type": "bytes4"
        }
      ],
      "stateMutability": "nonpayable",
      "type": "function"
    }
  ],
  "bytecode": "0x608060405234801561001057600080fd5b5061039f806100206000396000f3fe608060405234801561001057600080fd5b50600436106100415760003560e01c806301ffc9a714610046578063bc197c8114610081578063f23a6e611461025f575b600080fd5b61006d6004803603602081101561005c57600080fd5b50356001600160e01b031916610328565b604080519115158252519081900360200190f35b610242600480360360a081101561009757600080fd5b6001600160a01b038235811692602081013590911691810190606081016040820135600160201b8111156100ca57600080fd5b8201836020820111156100dc57600080fd5b803590602001918460208302840111600160201b831117156100fd57600080fd5b9190808060200260200160405190810160405280939291908181526020018383602002808284376000920191909152509295949360208101935035915050600160201b81111561014c57600080fd5b82018360208201111561015e57600080fd5b803590602001918460208302840111600160201b8311171561017f57600080fd5b9190808060200260200160405190810160405280939291908181526020018383602002808284376000920191909152509295949360208101935035915050600160201b8111156101ce57600080fd5b8201836020820111156101e057600080fd5b803590602001918460018302840111600160201b8311171561020157600080fd5b91908080601f016020809104026020016040519081016040528093929190818152602001838380828437600092019190915250929550610347945050505050565b604080516001600160e01b03199092168252519081900360200190f35b610242600480360360a081101561027557600080fd5b6001600160a01b03823581169260208101359091169160408201359160608101359181019060a081016080820135600160201b8111156102b457600080fd5b8201836020820111156102c657600080fd5b803590602001918460018302840111600160201b831117156102e757600080fd5b91908080601f016020809104026020016040519081016040528093929190818152602001838380828437600092019190915250929550610358945050505050565b6001600160e01b03191660009081526001602052604090205460ff1690565b63bc197c8160e01b95945050505050565b63f23a6e6160e01b9594505050505056fea2646970667358221220c4561f5377f89d3737ad0ef57cd1f157e334139eb1f452880816af2686eeb0e964736f6c63430007060033",
  "immutableReferences": {},
  "source": "// SPDX-License-Identifier: MIT\n\npragma solidity >=0.6.0 <0.8.0;\n\nimport \"./ERC1155ReceiverUpgradeable.sol\";\nimport \"../../proxy/Initializable.sol\";\n\n/**\n * @dev _Available since v3.1._\n */\ncontract ERC1155HolderUpgradeable is Initializable, ERC1155ReceiverUpgradeable {\n    function __ERC1155Holder_init() internal initializer {\n        __ERC165_init_unchained();\n        __ERC1155Receiver_init_unchained();\n        __ERC1155Holder_init_unchained();\n    }\n\n    function __ERC1155Holder_init_unchained() internal initializer {\n    }\n    function onERC1155Received(address, address, uint256, uint256, bytes memory) public virtual override returns (bytes4) {\n        return this.onERC1155Received.selector;\n    }\n\n    function onERC1155BatchReceived(address, address, uint256[] memory, uint256[] memory, bytes memory) public virtual override returns (bytes4) {\n        return this.onERC1155BatchReceived.selector;\n    }\n    uint256[50] private __gap;\n}\n",
  "sourcePath": "@openzeppelin/contracts-upgradeable/token/ERC1155/ERC1155HolderUpgradeable.sol",
  "compiler": {
    "name": "solc",
    "version": "0.7.6+commit.7338295f.Emscripten.clang"
  },
  "schemaVersion": "3.4.4",
  "updatedAt": "2022-10-25T16:32:36.572Z",
  "devdoc": {
    "details": "_Available since v3.1._",
    "kind": "dev",
    "methods": {
      "supportsInterface(bytes4)": {
        "details": "See {IERC165-supportsInterface}. Time complexity O(1), guaranteed to always use less than 30 000 gas."
      }
    },
    "version": 1
  },
  "userdoc": {
    "kind": "user",
    "methods": {},
    "version": 1
  }
}